{"contracts/MockVerifier.sol":{"MockVerifier":{"abi":[{"inputs":[],"name":"mockResult","outputs":[{"internalType":"bool","name":"","type":"bool"}],"stateMutability":"view","type":"function"},{"inputs":[{"internalType":"bool","name":"_result","type":"bool"}],"name":"setMockResult","outputs":[],"stateMutability":"nonpayable","type":"function"},{"inputs":[{"internalType":"uint256[8]","name":"","type":"uint256[8]"},{"internalType":"uint256[4]","name":"","type":"uint256[4]"}],"name":"verifyProof","outputs":[{"internalType":"bool","name":"valid","type":"bool"}],"stateMutability":"view","type":"function"}],"evm":{"bytecode":{"linkReferences":{},"object":"6080806040523461002257600160ff19600054161760005560f490816100288239f35b600080fdfe6080806040526004361015601257600080fd5b600090813560e01c9081632357251114608f575080637a0b5f8514606f5763b089c1be14603e57600080fd5b34606c576020366003190112606c5760043580151580910360685760ff8019835416911617815580f35b5080fd5b80fd5b5034606c5780600319360112606c5760ff60209154166040519015158152f35b9050346068576101803660031901126068573661010411606857366101841160685760ff602092541615158152f3fea2646970667358221220f45effa0f1817b5d1e76fd14e3a742486899f8ace8cd75f1a71098b0de66c2b364736f6c63430008140033","opcodes":"PUSH1 0x80 DUP1 PUSH1 0x40 MSTORE CALLVALUE PUSH2 0x22 JUMPI PUSH1 0x1 PUSH1 0xFF NOT PUSH1 0x0 SLOAD AND OR PUSH1 0x0 SSTORE PUSH1 0xF4 SWAP1 DUP2 PUSH2 0x28 DUP3 CODECOPY RETURN JUMPDEST PUSH1 0x0 DUP1 REVERT INVALID PUSH1 0x80 DUP1 PUSH1 0x40 MSTORE PUSH1 0x4 CALLDATASIZE LT ISZERO PUSH1 0x12 JUMPI PUSH1 0x0 DUP1 REVERT JUMPDEST PUSH1 0x0 SWAP1 DUP2 CALLDATALOAD PUSH1 0xE0 SHR SWAP1 DUP2 PUSH4 0x23572511 EQ PUSH1 0x8F JUMPI POP DUP1 PUSH4 0x7A0B5F85 EQ PUSH1 0x6F JUMPI PUSH4 0xB089C1BE EQ PUSH1 0x3E JUMPI PUSH1 0x0 DUP1 REVERT JUMPDEST CALLVALUE PUSH1 0x6C JUMPI PUSH1 0x20 CALLDATASIZE PUSH1 0x3 NOT ADD SLT PUSH1 0x6C JUMPI PUSH1 0x4 CALLDATALOAD DUP1 ISZERO ISZERO DUP1 SWAP2 SUB PUSH1 0x68 JUMPI PUSH1 0xFF DUP1 NOT DUP4 SLOAD AND SWAP2 AND OR DUP2 SSTORE DUP1 RETURN JUMPDEST POP DUP1 REVERT JUMPDEST DUP1 REVERT JUMPDEST POP CALLVALUE PUSH1 0x6C JUMPI DUP1 PUSH1 0x3 NOT CALLDATASIZE ADD SLT PUSH1 0x6C JUMPI PUSH1 0xFF PUSH1 0x20 SWAP2 SLOAD AND PUSH1 0x40 MLOAD SWAP1 ISZERO ISZERO DUP2 MSTORE RETURN JUMPDEST SWAP1 POP CALLVALUE PUSH1 0x68 JUMPI PUSH2 0x180 CALLDATASIZE PUSH1 0x3 NOT ADD SLT PUSH1 0x68 JUMPI CALLDATASIZE PUSH2 0x104 GT PUSH1 0x68 JUMPI CALLDATASIZE PUSH2 0x184 GT PUSH1 0x68 JUMPI PUSH1 0xFF PUSH1 0x20 SWAP3 SLOAD AND ISZERO ISZERO DUP2 MSTORE RETURN INVALID LOG2 PUSH5 0x6970667358 0x22 SLT KECCAK256 DELEGATECALL 0x5E SELFDESTRUCT LOG0 CALL DUP2 PUSH28 0x5D1E76FD14E3A742486899F8ACE8CD75F1A71098B0DE66C2B364736F PUSH13 0x63430008140033000000000000 "},"methodIdentifiers":{"mockResult()":"7a0b5f85","setMockResult(bool)":"b089c1be","verifyProof(uint256[8],uint256[4])":"23572511"}}}}}