{"contracts/testing/MerkleTreeTest.sol":{"MerkleTreeTest":{"abi":[{"inputs":[{"internalType":"uint256","name":"_levels","type":"uint256"}],"stateMutability":"nonpayable","type":"constructor"},{"anonymous":false,"inputs":[{"indexed":true,"internalType":"bytes32","name":"leaf","type":"bytes32"},{"indexed":true,"internalType":"uint256","name":"leafIndex","type":"uint256"},{"indexed":true,"internalType":"bytes32","name":"newRoot","type":"bytes32"}],"name":"LeafInserted","type":"event"},{"inputs":[],"name":"ROOT_HISTORY_SIZE","outputs":[{"internalType":"uint256","name":"","type":"uint256"}],"stateMutability":"view","type":"function"},{"inputs":[{"internalType":"uint256","name":"","type":"uint256"}],"name":"filledSubtrees","outputs":[{"internalType":"bytes32","name":"","type":"bytes32"}],"stateMutability":"view","type":"function"},{"inputs":[],"name":"getLeafCount","outputs":[{"internalType":"uint256","name":"","type":"uint256"}],"stateMutability":"view","type":"function"},{"inputs":[],"name":"getRoot","outputs":[{"internalType":"bytes32","name":"","type":"bytes32"}],"stateMutability":"view","type":"function"},{"inputs":[],"name":"getRoots","outputs":[{"internalType":"bytes32[]","name":"","type":"bytes32[]"}],"stateMutability":"view","type":"function"},{"inputs":[{"internalType":"bytes32","name":"leaf","type":"bytes32"}],"name":"insert","outputs":[{"internalType":"uint256","name":"","type":"uint256"}],"stateMutability":"nonpayable","type":"function"},{"inputs":[{"internalType":"bytes32[]","name":"leaves","type":"bytes32[]"}],"name":"insertBatch","outputs":[{"internalType":"uint256[]","name":"indices","type":"uint256[]"}],"stateMutability":"nonpayable","type":"function"},{"inputs":[{"internalType":"bytes32","name":"root","type":"bytes32"}],"name":"isKnownRoot","outputs":[{"internalType":"bool","name":"","type":"bool"}],"stateMutability":"view","type":"function"},{"inputs":[],"name":"levels","outputs":[{"internalType":"uint256","name":"","type":"uint256"}],"stateMutability":"view","type":"function"},{"inputs":[],"name":"nextIndex","outputs":[{"internalType":"uint256","name":"","type":"uint256"}],"stateMutability":"view","type":"function"},{"inputs":[{"internalType":"bytes32","name":"","type":"bytes32"}],"name":"rootHistory","outputs":[{"internalType":"bool","name":"","type":"bool"}],"stateMutability":"view","type":"function"},{"inputs":[{"internalType":"uint256","name":"","type":"uint256"}],"name":"roots","outputs":[{"internalType":"bytes32","name":"","type":"bytes32"}],"stateMutability":"view","type":"function"},{"inputs":[{"internalType":"bytes32","name":"leaf","type":"bytes32"},{"internalType":"bytes32[]","name":"pathElements","type":"bytes32[]"},{"internalType":"uint256[]","name":"pathIndices","type":"uint256[]"},{"internalType":"bytes32","name":"root","type":"bytes32"}],"name":"verifyMerkleProof","outputs":[{"internalType":"bool","name":"","type":"bool"}],"stateMutability":"pure","type":"function"},{"inputs":[{"internalType":"uint256","name":"","type":"uint256"}],"name":"zeros","outputs":[{"internalType":"bytes32","name":"","type":"bytes32"}],"stateMutability":"view","type":"function"}],"evm":{"bytecode":{"linkReferences":{},"object":"60a03461025457610b9138819003601f8101601f191683016001600160401b038111848210176101315783928291604052833960209283918101031261025457518015158061024a575b156102145780608052600091825492680100000000000000009283851015610200576001948581018084558110156101ec578290818052848220015560028054858110156101d8578681018083558110156101c45781845284842001839055859291905b8184106101475750506100c1915080610259565b60035492831015610131578383018060035583101561011b578060049360036000528360002001556000525260406000209060ff19825416179055604051610903908161028e823960805181818161034801526106f50152f35b634e487b7160e01b600052603260045260246000fd5b634e487b7160e01b600052604160045260246000fd5b90918061015391610259565b928360005487811015610131578881018060005581101561011b578190600080528760002001558254878110156101315788810180855581101561011b578360005286600020015560001981146101ae5786019291906100ad565b634e487b7160e01b600052601160045260246000fd5b634e487b7160e01b84526032600452602484fd5b634e487b7160e01b84526041600452602484fd5b634e487b7160e01b83526032600452602483fd5b634e487b7160e01b82526041600452602482fd5b60405162461bcd60e51b815260048101839052600e60248201526d496e76616c6964206c6576656c7360901b6044820152606490fd5b5081811115610049565b600080fd5b604080516020810192835280820193909352825290606081016001600160401b03811182821017610131576040525190209056fe608060408181526004918236101561001657600080fd5b600092833560e01c91826305d9e0a014610445575081632d287e431461041e57816335a5e06d1461036b5781634ecf518b146103305781635ca1e165146102ef57816366dd97ab146102c35781636d9833e3146102c35781636e7616cb146101be578163c2b40ae414610185578163cd87a3b414610169578163d3ea61251461014a578163e829558814610120578163f178e47c146100e0575063fc7e9c6f146100bf57600080fd5b346100dc57816003193601126100dc576020906001549051908152f35b5080fd5b90503461011c57602036600319011261011c573591600254831015610119575061010b602092610614565b91905490519160031b1c8152f35b80fd5b8280fd5b90503461011c57602036600319011261011c5735918054831015610119575061010b6020926105ca565b5050346100dc57816003193601126100dc576020906001549051908152f35b5050346100dc57816003193601126100dc576020905160648152f35b90503461011c57602036600319011261011c57359160035483101561011957506101b060209261057d565b90549060031b1c9051908152f35b839150346100dc5760208060031936011261011c57813567ffffffffffffffff81116102bf5782846101f4879336908401610547565b926101fe846108b5565b9161020b8651938461064b565b848352610217856108b5565b8388019590601f1901368737845b81811061026b575050505083519485948186019282875251809352850193925b82811061025457505050500390f35b835185528695509381019392810192600101610245565b61028561027f8284869c99989a9b9c6106a8565b356106ed565b87518210156102ac57906102a191878260051b8a010152610683565b979695939497610225565b634e487b7160e01b865260328552602486fd5b8380fd5b90503461011c57602036600319011261011c57816020938260ff93358252855220541690519015158152f35b82843461011957806003193601126101195760035460001981019390841161031d576020836101b08661057d565b634e487b7160e01b825260119052602490fd5b5050346100dc57816003193601126100dc57602090517f00000000000000000000000000000000000000000000000000000000000000008152f35b8284346101195780600319360112610119579080519182906003549182855260208095018093600384527fc2575a0e9e593c00f959f8c92f12db2869c3395a3b0502d05e2516446f71f85b90845b81811061040a57505050816103cf91038261064b565b83519485948186019282875251809352850193925b8281106103f357505050500390f35b8351855286955093810193928101926001016103e4565b8254845292880192600192830192016103b9565b828434610119576020366003190112610119575061043e602092356106ed565b9051908152f35b8385913461011c57608036600319011261011c5767ffffffffffffffff602435818111610543576104799036908701610547565b9160443590811161053f576104919036908801610547565b969093878403610508575035949291905b8184106104b757602086865190606435148152f35b909192946104eb906104ca8789876106a8565b356104f3576104e5906104de8886866106a8565b35906106b8565b95610683565b9291906104a2565b6104e5906105028886866106a8565b356106b8565b602060649262461bcd60e51b83528201526014602482015273092dcecc2d8d2c840e0e4dedecc40d8cadccee8d60631b6044820152fd5b8580fd5b8480fd5b9181601f840112156105785782359167ffffffffffffffff8311610578576020808501948460051b01011161057857565b600080fd5b6003548110156105b45760036000527fc2575a0e9e593c00f959f8c92f12db2869c3395a3b0502d05e2516446f71f85b0190600090565b634e487b7160e01b600052603260045260246000fd5b906000918254811015610600578280527f290decd9548b62a8d60345a988386fc84ba6bc95484008f6362f93160ef3e563019190565b634e487b7160e01b83526032600452602483fd5b6002548110156105b45760026000527f405787fa12a823e0f2b7631cc41b3ba8828b3321ca811111fa75cd3aa3bb5ace0190600090565b90601f8019910116810190811067ffffffffffffffff82111761066d57604052565b634e487b7160e01b600052604160045260246000fd5b60001981146106925760010190565b634e487b7160e01b600052601160045260246000fd5b91908110156105b45760051b0190565b9060405190602082019283526040820152604081526060810181811067ffffffffffffffff82111761066d5760405251902090565b6001908154917f00000000000000000000000000000000000000000000000000000000000000009160ff83116106925781831b841015610881578092849060005b818110610817575050506003546801000000000000000081101561066d578361075f8285610778940160035561057d565b90919082549060031b91821b91600019901b1916179055565b826000526004602052604060002060ff19908382825416179055600354606481116107d5575b5050818401808511610692578492557fd50e83984b64a106ac2ee6314d689ec4d2a656d5ece6d94c585796944b52240c600080a490565b6063198101908082116106925760641901908111610692576107f69061057d565b90549060031b1c60005260046020526040600020908154169055388061079e565b90919461085a9085871615600014610862578061083a6108509261075f86610614565b610843846105ca565b90549060031b1c906106b8565b955b851c91610683565b91909161072e565b61087b9061086f84610614565b90549060031b1c6106b8565b95610852565b60405162461bcd60e51b815260206004820152600c60248201526b151c9959481a5cc8199d5b1b60a21b6044820152606490fd5b67ffffffffffffffff811161066d5760051b6020019056fea26469706673582212201fc6d5fc59288610e1c9ed2d3e2bc1dd8e396c9e3b02d5273e79d04f2d119dc864736f6c63430008140033","opcodes":"PUSH1 0xA0 CALLVALUE PUSH2 0x254 JUMPI PUSH2 0xB91 CODESIZE DUP2 SWAP1 SUB PUSH1 0x1F DUP2 ADD PUSH1 0x1F NOT AND DUP4 ADD PUSH1 0x1 PUSH1 0x1 PUSH1 0x40 SHL SUB DUP2 GT DUP5 DUP3 LT OR PUSH2 0x131 JUMPI DUP4 SWAP3 DUP3 SWAP2 PUSH1 0x40 MSTORE DUP4 CODECOPY PUSH1 0x20 SWAP3 DUP4 SWAP2 DUP2 ADD SUB SLT PUSH2 0x254 JUMPI MLOAD DUP1 ISZERO ISZERO DUP1 PUSH2 0x24A JUMPI JUMPDEST ISZERO PUSH2 0x214 JUMPI DUP1 PUSH1 0x80 MSTORE PUSH1 0x0 SWAP2 DUP3 SLOAD SWAP3 PUSH9 0x10000000000000000 SWAP3 DUP4 DUP6 LT ISZERO PUSH2 0x200 JUMPI PUSH1 0x1 SWAP5 DUP6 DUP2 ADD DUP1 DUP5 SSTORE DUP2 LT ISZERO PUSH2 0x1EC JUMPI DUP3 SWAP1 DUP2 DUP1 MSTORE DUP5 DUP3 KECCAK256 ADD SSTORE PUSH1 0x2 DUP1 SLOAD DUP6 DUP2 LT ISZERO PUSH2 0x1D8 JUMPI DUP7 DUP2 ADD DUP1 DUP4 SSTORE DUP2 LT ISZERO PUSH2 0x1C4 JUMPI DUP2 DUP5 MSTORE DUP5 DUP5 KECCAK256 ADD DUP4 SWAP1 SSTORE DUP6 SWAP3 SWAP2 SWAP1 JUMPDEST DUP2 DUP5 LT PUSH2 0x147 JUMPI POP POP PUSH2 0xC1 SWAP2 POP DUP1 PUSH2 0x259 JUMP JUMPDEST PUSH1 0x3 SLOAD SWAP3 DUP4 LT ISZERO PUSH2 0x131 JUMPI DUP4 DUP4 ADD DUP1 PUSH1 0x3 SSTORE DUP4 LT ISZERO PUSH2 0x11B JUMPI DUP1 PUSH1 0x4 SWAP4 PUSH1 0x3 PUSH1 0x0 MSTORE DUP4 PUSH1 0x0 KECCAK256 ADD SSTORE PUSH1 0x0 MSTORE MSTORE PUSH1 0x40 PUSH1 0x0 KECCAK256 SWAP1 PUSH1 0xFF NOT DUP3 SLOAD AND OR SWAP1 SSTORE PUSH1 0x40 MLOAD PUSH2 0x903 SWAP1 DUP2 PUSH2 0x28E DUP3 CODECOPY PUSH1 0x80 MLOAD DUP2 DUP2 DUP2 PUSH2 0x348 ADD MSTORE PUSH2 0x6F5 ADD MSTORE RETURN JUMPDEST PUSH4 0x4E487B71 PUSH1 0xE0 SHL PUSH1 0x0 MSTORE PUSH1 0x32 PUSH1 0x4 MSTORE PUSH1 0x24 PUSH1 0x0 REVERT JUMPDEST PUSH4 0x4E487B71 PUSH1 0xE0 SHL PUSH1 0x0 MSTORE PUSH1 0x41 PUSH1 0x4 MSTORE PUSH1 0x24 PUSH1 0x0 REVERT JUMPDEST SWAP1 SWAP2 DUP1 PUSH2 0x153 SWAP2 PUSH2 0x259 JUMP JUMPDEST SWAP3 DUP4 PUSH1 0x0 SLOAD DUP8 DUP2 LT ISZERO PUSH2 0x131 JUMPI DUP9 DUP2 ADD DUP1 PUSH1 0x0 SSTORE DUP2 LT ISZERO PUSH2 0x11B JUMPI DUP2 SWAP1 PUSH1 0x0 DUP1 MSTORE DUP8 PUSH1 0x0 KECCAK256 ADD SSTORE DUP3 SLOAD DUP8 DUP2 LT ISZERO PUSH2 0x131 JUMPI DUP9 DUP2 ADD DUP1 DUP6 SSTORE DUP2 LT ISZERO PUSH2 0x11B JUMPI DUP4 PUSH1 0x0 MSTORE DUP7 PUSH1 0x0 KECCAK256 ADD SSTORE PUSH1 0x0 NOT DUP2 EQ PUSH2 0x1AE JUMPI DUP7 ADD SWAP3 SWAP2 SWAP1 PUSH2 0xAD JUMP JUMPDEST PUSH4 0x4E487B71 PUSH1 0xE0 SHL PUSH1 0x0 MSTORE PUSH1 0x11 PUSH1 0x4 MSTORE PUSH1 0x24 PUSH1 0x0 REVERT JUMPDEST PUSH4 0x4E487B71 PUSH1 0xE0 SHL DUP5 MSTORE PUSH1 0x32 PUSH1 0x4 MSTORE PUSH1 0x24 DUP5 REVERT JUMPDEST PUSH4 0x4E487B71 PUSH1 0xE0 SHL DUP5 MSTORE PUSH1 0x41 PUSH1 0x4 MSTORE PUSH1 0x24 DUP5 REVERT JUMPDEST PUSH4 0x4E487B71 PUSH1 0xE0 SHL DUP4 MSTORE PUSH1 0x32 PUSH1 0x4 MSTORE PUSH1 0x24 DUP4 REVERT JUMPDEST PUSH4 0x4E487B71 PUSH1 0xE0 SHL DUP3 MSTORE PUSH1 0x41 PUSH1 0x4 MSTORE PUSH1 0x24 DUP3 REVERT JUMPDEST PUSH1 0x40 MLOAD PUSH3 0x461BCD PUSH1 0xE5 SHL DUP2 MSTORE PUSH1 0x4 DUP2 ADD DUP4 SWAP1 MSTORE PUSH1 0xE PUSH1 0x24 DUP3 ADD MSTORE PUSH14 0x496E76616C6964206C6576656C73 PUSH1 0x90 SHL PUSH1 0x44 DUP3 ADD MSTORE PUSH1 0x64 SWAP1 REVERT JUMPDEST POP DUP2 DUP2 GT ISZERO PUSH2 0x49 JUMP JUMPDEST PUSH1 0x0 DUP1 REVERT JUMPDEST PUSH1 0x40 DUP1 MLOAD PUSH1 0x20 DUP2 ADD SWAP3 DUP4 MSTORE DUP1 DUP3 ADD SWAP4 SWAP1 SWAP4 MSTORE DUP3 MSTORE SWAP1 PUSH1 0x60 DUP2 ADD PUSH1 0x1 PUSH1 0x1 PUSH1 0x40 SHL SUB DUP2 GT DUP3 DUP3 LT OR PUSH2 0x131 JUMPI PUSH1 0x40 MSTORE MLOAD SWAP1 KECCAK256 SWAP1 JUMP INVALID PUSH1 0x80 PUSH1 0x40 DUP2 DUP2 MSTORE PUSH1 0x4 SWAP2 DUP3 CALLDATASIZE LT ISZERO PUSH2 0x16 JUMPI PUSH1 0x0 DUP1 REVERT JUMPDEST PUSH1 0x0 SWAP3 DUP4 CALLDATALOAD PUSH1 0xE0 SHR SWAP2 DUP3 PUSH4 0x5D9E0A0 EQ PUSH2 0x445 JUMPI POP DUP2 PUSH4 0x2D287E43 EQ PUSH2 0x41E JUMPI DUP2 PUSH4 0x35A5E06D EQ PUSH2 0x36B JUMPI DUP2 PUSH4 0x4ECF518B EQ PUSH2 0x330 JUMPI DUP2 PUSH4 0x5CA1E165 EQ PUSH2 0x2EF JUMPI DUP2 PUSH4 0x66DD97AB EQ PUSH2 0x2C3 JUMPI DUP2 PUSH4 0x6D9833E3 EQ PUSH2 0x2C3 JUMPI DUP2 PUSH4 0x6E7616CB EQ PUSH2 0x1BE JUMPI DUP2 PUSH4 0xC2B40AE4 EQ PUSH2 0x185 JUMPI DUP2 PUSH4 0xCD87A3B4 EQ PUSH2 0x169 JUMPI DUP2 PUSH4 0xD3EA6125 EQ PUSH2 0x14A JUMPI DUP2 PUSH4 0xE8295588 EQ PUSH2 0x120 JUMPI DUP2 PUSH4 0xF178E47C EQ PUSH2 0xE0 JUMPI POP PUSH4 0xFC7E9C6F EQ PUSH2 0xBF JUMPI PUSH1 0x0 DUP1 REVERT JUMPDEST CALLVALUE PUSH2 0xDC JUMPI DUP2 PUSH1 0x3 NOT CALLDATASIZE ADD SLT PUSH2 0xDC JUMPI PUSH1 0x20 SWAP1 PUSH1 0x1 SLOAD SWAP1 MLOAD SWAP1 DUP2 MSTORE RETURN JUMPDEST POP DUP1 REVERT JUMPDEST SWAP1 POP CALLVALUE PUSH2 0x11C JUMPI PUSH1 0x20 CALLDATASIZE PUSH1 0x3 NOT ADD SLT PUSH2 0x11C JUMPI CALLDATALOAD SWAP2 PUSH1 0x2 SLOAD DUP4 LT ISZERO PUSH2 0x119 JUMPI POP PUSH2 0x10B PUSH1 0x20 SWAP3 PUSH2 0x614 JUMP JUMPDEST SWAP2 SWAP1 SLOAD SWAP1 MLOAD SWAP2 PUSH1 0x3 SHL SHR DUP2 MSTORE RETURN JUMPDEST DUP1 REVERT JUMPDEST DUP3 DUP1 REVERT JUMPDEST SWAP1 POP CALLVALUE PUSH2 0x11C JUMPI PUSH1 0x20 CALLDATASIZE PUSH1 0x3 NOT ADD SLT PUSH2 0x11C JUMPI CALLDATALOAD SWAP2 DUP1 SLOAD DUP4 LT ISZERO PUSH2 0x119 JUMPI POP PUSH2 0x10B PUSH1 0x20 SWAP3 PUSH2 0x5CA JUMP JUMPDEST POP POP CALLVALUE PUSH2 0xDC JUMPI DUP2 PUSH1 0x3 NOT CALLDATASIZE ADD SLT PUSH2 0xDC JUMPI PUSH1 0x20 SWAP1 PUSH1 0x1 SLOAD SWAP1 MLOAD SWAP1 DUP2 MSTORE RETURN JUMPDEST POP POP CALLVALUE PUSH2 0xDC JUMPI DUP2 PUSH1 0x3 NOT CALLDATASIZE ADD SLT PUSH2 0xDC JUMPI PUSH1 0x20 SWAP1 MLOAD PUSH1 0x64 DUP2 MSTORE RETURN JUMPDEST SWAP1 POP CALLVALUE PUSH2 0x11C JUMPI PUSH1 0x20 CALLDATASIZE PUSH1 0x3 NOT ADD SLT PUSH2 0x11C JUMPI CALLDATALOAD SWAP2 PUSH1 0x3 SLOAD DUP4 LT ISZERO PUSH2 0x119 JUMPI POP PUSH2 0x1B0 PUSH1 0x20 SWAP3 PUSH2 0x57D JUMP JUMPDEST SWAP1 SLOAD SWAP1 PUSH1 0x3 SHL SHR SWAP1 MLOAD SWAP1 DUP2 MSTORE RETURN JUMPDEST DUP4 SWAP2 POP CALLVALUE PUSH2 0xDC JUMPI PUSH1 0x20 DUP1 PUSH1 0x3 NOT CALLDATASIZE ADD SLT PUSH2 0x11C JUMPI DUP2 CALLDATALOAD PUSH8 0xFFFFFFFFFFFFFFFF DUP2 GT PUSH2 0x2BF JUMPI DUP3 DUP5 PUSH2 0x1F4 DUP8 SWAP4 CALLDATASIZE SWAP1 DUP5 ADD PUSH2 0x547 JUMP JUMPDEST SWAP3 PUSH2 0x1FE DUP5 PUSH2 0x8B5 JUMP JUMPDEST SWAP2 PUSH2 0x20B DUP7 MLOAD SWAP4 DUP5 PUSH2 0x64B JUMP JUMPDEST DUP5 DUP4 MSTORE PUSH2 0x217 DUP6 PUSH2 0x8B5 JUMP JUMPDEST DUP4 DUP9 ADD SWAP6 SWAP1 PUSH1 0x1F NOT ADD CALLDATASIZE DUP8 CALLDATACOPY DUP5 JUMPDEST DUP2 DUP2 LT PUSH2 0x26B JUMPI POP POP POP POP DUP4 MLOAD SWAP5 DUP6 SWAP5 DUP2 DUP7 ADD SWAP3 DUP3 DUP8 MSTORE MLOAD DUP1 SWAP4 MSTORE DUP6 ADD SWAP4 SWAP3 JUMPDEST DUP3 DUP2 LT PUSH2 0x254 JUMPI POP POP POP POP SUB SWAP1 RETURN JUMPDEST DUP4 MLOAD DUP6 MSTORE DUP7 SWAP6 POP SWAP4 DUP2 ADD SWAP4 SWAP3 DUP2 ADD SWAP3 PUSH1 0x1 ADD PUSH2 0x245 JUMP JUMPDEST PUSH2 0x285 PUSH2 0x27F DUP3 DUP5 DUP7 SWAP13 SWAP10 SWAP9 SWAP11 SWAP12 SWAP13 PUSH2 0x6A8 JUMP JUMPDEST CALLDATALOAD PUSH2 0x6ED JUMP JUMPDEST DUP8 MLOAD DUP3 LT ISZERO PUSH2 0x2AC JUMPI SWAP1 PUSH2 0x2A1 SWAP2 DUP8 DUP3 PUSH1 0x5 SHL DUP11 ADD ADD MSTORE PUSH2 0x683 JUMP JUMPDEST SWAP8 SWAP7 SWAP6 SWAP4 SWAP5 SWAP8 PUSH2 0x225 JUMP JUMPDEST PUSH4 0x4E487B71 PUSH1 0xE0 SHL DUP7 MSTORE PUSH1 0x32 DUP6 MSTORE PUSH1 0x24 DUP7 REVERT JUMPDEST DUP4 DUP1 REVERT JUMPDEST SWAP1 POP CALLVALUE PUSH2 0x11C JUMPI PUSH1 0x20 CALLDATASIZE PUSH1 0x3 NOT ADD SLT PUSH2 0x11C JUMPI DUP2 PUSH1 0x20 SWAP4 DUP3 PUSH1 0xFF SWAP4 CALLDATALOAD DUP3 MSTORE DUP6 MSTORE KECCAK256 SLOAD AND SWAP1 MLOAD SWAP1 ISZERO ISZERO DUP2 MSTORE RETURN JUMPDEST DUP3 DUP5 CALLVALUE PUSH2 0x119 JUMPI DUP1 PUSH1 0x3 NOT CALLDATASIZE ADD SLT PUSH2 0x119 JUMPI PUSH1 0x3 SLOAD PUSH1 0x0 NOT DUP2 ADD SWAP4 SWAP1 DUP5 GT PUSH2 0x31D JUMPI PUSH1 0x20 DUP4 PUSH2 0x1B0 DUP7 PUSH2 0x57D JUMP JUMPDEST PUSH4 0x4E487B71 PUSH1 0xE0 SHL DUP3 MSTORE PUSH1 0x11 SWAP1 MSTORE PUSH1 0x24 SWAP1 REVERT JUMPDEST POP POP CALLVALUE PUSH2 0xDC JUMPI DUP2 PUSH1 0x3 NOT CALLDATASIZE ADD SLT PUSH2 0xDC JUMPI PUSH1 0x20 SWAP1 MLOAD PUSH32 0x0 DUP2 MSTORE RETURN JUMPDEST DUP3 DUP5 CALLVALUE PUSH2 0x119 JUMPI DUP1 PUSH1 0x3 NOT CALLDATASIZE ADD SLT PUSH2 0x119 JUMPI SWAP1 DUP1 MLOAD SWAP2 DUP3 SWAP1 PUSH1 0x3 SLOAD SWAP2 DUP3 DUP6 MSTORE PUSH1 0x20 DUP1 SWAP6 ADD DUP1 SWAP4 PUSH1 0x3 DUP5 MSTORE PUSH32 0xC2575A0E9E593C00F959F8C92F12DB2869C3395A3B0502D05E2516446F71F85B SWAP1 DUP5 JUMPDEST DUP2 DUP2 LT PUSH2 0x40A JUMPI POP POP POP DUP2 PUSH2 0x3CF SWAP2 SUB DUP3 PUSH2 0x64B JUMP JUMPDEST DUP4 MLOAD SWAP5 DUP6 SWAP5 DUP2 DUP7 ADD SWAP3 DUP3 DUP8 MSTORE MLOAD DUP1 SWAP4 MSTORE DUP6 ADD SWAP4 SWAP3 JUMPDEST DUP3 DUP2 LT PUSH2 0x3F3 JUMPI POP POP POP POP SUB SWAP1 RETURN JUMPDEST DUP4 MLOAD DUP6 MSTORE DUP7 SWAP6 POP SWAP4 DUP2 ADD SWAP4 SWAP3 DUP2 ADD SWAP3 PUSH1 0x1 ADD PUSH2 0x3E4 JUMP JUMPDEST DUP3 SLOAD DUP5 MSTORE SWAP3 DUP9 ADD SWAP3 PUSH1 0x1 SWAP3 DUP4 ADD SWAP3 ADD PUSH2 0x3B9 JUMP JUMPDEST DUP3 DUP5 CALLVALUE PUSH2 0x119 JUMPI PUSH1 0x20 CALLDATASIZE PUSH1 0x3 NOT ADD SLT PUSH2 0x119 JUMPI POP PUSH2 0x43E PUSH1 0x20 SWAP3 CALLDATALOAD PUSH2 0x6ED JUMP JUMPDEST SWAP1 MLOAD SWAP1 DUP2 MSTORE RETURN JUMPDEST DUP4 DUP6 SWAP2 CALLVALUE PUSH2 0x11C JUMPI PUSH1 0x80 CALLDATASIZE PUSH1 0x3 NOT ADD SLT PUSH2 0x11C JUMPI PUSH8 0xFFFFFFFFFFFFFFFF PUSH1 0x24 CALLDATALOAD DUP2 DUP2 GT PUSH2 0x543 JUMPI PUSH2 0x479 SWAP1 CALLDATASIZE SWAP1 DUP8 ADD PUSH2 0x547 JUMP JUMPDEST SWAP2 PUSH1 0x44 CALLDATALOAD SWAP1 DUP2 GT PUSH2 0x53F JUMPI PUSH2 0x491 SWAP1 CALLDATASIZE SWAP1 DUP9 ADD PUSH2 0x547 JUMP JUMPDEST SWAP7 SWAP1 SWAP4 DUP8 DUP5 SUB PUSH2 0x508 JUMPI POP CALLDATALOAD SWAP5 SWAP3 SWAP2 SWAP1 JUMPDEST DUP2 DUP5 LT PUSH2 0x4B7 JUMPI PUSH1 0x20 DUP7 DUP7 MLOAD SWAP1 PUSH1 0x64 CALLDATALOAD EQ DUP2 MSTORE RETURN JUMPDEST SWAP1 SWAP2 SWAP3 SWAP5 PUSH2 0x4EB SWAP1 PUSH2 0x4CA DUP8 DUP10 DUP8 PUSH2 0x6A8 JUMP JUMPDEST CALLDATALOAD PUSH2 0x4F3 JUMPI PUSH2 0x4E5 SWAP1 PUSH2 0x4DE DUP9 DUP7 DUP7 PUSH2 0x6A8 JUMP JUMPDEST CALLDATALOAD SWAP1 PUSH2 0x6B8 JUMP JUMPDEST SWAP6 PUSH2 0x683 JUMP JUMPDEST SWAP3 SWAP2 SWAP1 PUSH2 0x4A2 JUMP JUMPDEST PUSH2 0x4E5 SWAP1 PUSH2 0x502 DUP9 DUP7 DUP7 PUSH2 0x6A8 JUMP JUMPDEST CALLDATALOAD PUSH2 0x6B8 JUMP JUMPDEST PUSH1 0x20 PUSH1 0x64 SWAP3 PUSH3 0x461BCD PUSH1 0xE5 SHL DUP4 MSTORE DUP3 ADD MSTORE PUSH1 0x14 PUSH1 0x24 DUP3 ADD MSTORE PUSH20 0x92DCECC2D8D2C840E0E4DEDECC40D8CADCCEE8D PUSH1 0x63 SHL PUSH1 0x44 DUP3 ADD MSTORE REVERT JUMPDEST DUP6 DUP1 REVERT JUMPDEST DUP5 DUP1 REVERT JUMPDEST SWAP2 DUP2 PUSH1 0x1F DUP5 ADD SLT ISZERO PUSH2 0x578 JUMPI DUP3 CALLDATALOAD SWAP2 PUSH8 0xFFFFFFFFFFFFFFFF DUP4 GT PUSH2 0x578 JUMPI PUSH1 0x20 DUP1 DUP6 ADD SWAP5 DUP5 PUSH1 0x5 SHL ADD ADD GT PUSH2 0x578 JUMPI JUMP JUMPDEST PUSH1 0x0 DUP1 REVERT JUMPDEST PUSH1 0x3 SLOAD DUP2 LT ISZERO PUSH2 0x5B4 JUMPI PUSH1 0x3 PUSH1 0x0 MSTORE PUSH32 0xC2575A0E9E593C00F959F8C92F12DB2869C3395A3B0502D05E2516446F71F85B ADD SWAP1 PUSH1 0x0 SWAP1 JUMP JUMPDEST PUSH4 0x4E487B71 PUSH1 0xE0 SHL PUSH1 0x0 MSTORE PUSH1 0x32 PUSH1 0x4 MSTORE PUSH1 0x24 PUSH1 0x0 REVERT JUMPDEST SWAP1 PUSH1 0x0 SWAP2 DUP3 SLOAD DUP2 LT ISZERO PUSH2 0x600 JUMPI DUP3 DUP1 MSTORE PUSH32 0x290DECD9548B62A8D60345A988386FC84BA6BC95484008F6362F93160EF3E563 ADD SWAP2 SWAP1 JUMP JUMPDEST PUSH4 0x4E487B71 PUSH1 0xE0 SHL DUP4 MSTORE PUSH1 0x32 PUSH1 0x4 MSTORE PUSH1 0x24 DUP4 REVERT JUMPDEST PUSH1 0x2 SLOAD DUP2 LT ISZERO PUSH2 0x5B4 JUMPI PUSH1 0x2 PUSH1 0x0 MSTORE PUSH32 0x405787FA12A823E0F2B7631CC41B3BA8828B3321CA811111FA75CD3AA3BB5ACE ADD SWAP1 PUSH1 0x0 SWAP1 JUMP JUMPDEST SWAP1 PUSH1 0x1F DUP1 NOT SWAP2 ADD AND DUP2 ADD SWAP1 DUP2 LT PUSH8 0xFFFFFFFFFFFFFFFF DUP3 GT OR PUSH2 0x66D JUMPI PUSH1 0x40 MSTORE JUMP JUMPDEST PUSH4 0x4E487B71 PUSH1 0xE0 SHL PUSH1 0x0 MSTORE PUSH1 0x41 PUSH1 0x4 MSTORE PUSH1 0x24 PUSH1 0x0 REVERT JUMPDEST PUSH1 0x0 NOT DUP2 EQ PUSH2 0x692 JUMPI PUSH1 0x1 ADD SWAP1 JUMP JUMPDEST PUSH4 0x4E487B71 PUSH1 0xE0 SHL PUSH1 0x0 MSTORE PUSH1 0x11 PUSH1 0x4 MSTORE PUSH1 0x24 PUSH1 0x0 REVERT JUMPDEST SWAP2 SWAP1 DUP2 LT ISZERO PUSH2 0x5B4 JUMPI PUSH1 0x5 SHL ADD SWAP1 JUMP JUMPDEST SWAP1 PUSH1 0x40 MLOAD SWAP1 PUSH1 0x20 DUP3 ADD SWAP3 DUP4 MSTORE PUSH1 0x40 DUP3 ADD MSTORE PUSH1 0x40 DUP2 MSTORE PUSH1 0x60 DUP2 ADD DUP2 DUP2 LT PUSH8 0xFFFFFFFFFFFFFFFF DUP3 GT OR PUSH2 0x66D JUMPI PUSH1 0x40 MSTORE MLOAD SWAP1 KECCAK256 SWAP1 JUMP JUMPDEST PUSH1 0x1 SWAP1 DUP2 SLOAD SWAP2 PUSH32 0x0 SWAP2 PUSH1 0xFF DUP4 GT PUSH2 0x692 JUMPI DUP2 DUP4 SHL DUP5 LT ISZERO PUSH2 0x881 JUMPI DUP1 SWAP3 DUP5 SWAP1 PUSH1 0x0 JUMPDEST DUP2 DUP2 LT PUSH2 0x817 JUMPI POP POP POP PUSH1 0x3 SLOAD PUSH9 0x10000000000000000 DUP2 LT ISZERO PUSH2 0x66D JUMPI DUP4 PUSH2 0x75F DUP3 DUP6 PUSH2 0x778 SWAP5 ADD PUSH1 0x3 SSTORE PUSH2 0x57D JUMP JUMPDEST SWAP1 SWAP2 SWAP1 DUP3 SLOAD SWAP1 PUSH1 0x3 SHL SWAP2 DUP3 SHL SWAP2 PUSH1 0x0 NOT SWAP1 SHL NOT AND OR SWAP1 SSTORE JUMP JUMPDEST DUP3 PUSH1 0x0 MSTORE PUSH1 0x4 PUSH1 0x20 MSTORE PUSH1 0x40 PUSH1 0x0 KECCAK256 PUSH1 0xFF NOT SWAP1 DUP4 DUP3 DUP3 SLOAD AND OR SWAP1 SSTORE PUSH1 0x3 SLOAD PUSH1 0x64 DUP2 GT PUSH2 0x7D5 JUMPI JUMPDEST POP POP DUP2 DUP5 ADD DUP1 DUP6 GT PUSH2 0x692 JUMPI DUP5 SWAP3 SSTORE PUSH32 0xD50E83984B64A106AC2EE6314D689EC4D2A656D5ECE6D94C585796944B52240C PUSH1 0x0 DUP1 LOG4 SWAP1 JUMP JUMPDEST PUSH1 0x63 NOT DUP2 ADD SWAP1 DUP1 DUP3 GT PUSH2 0x692 JUMPI PUSH1 0x64 NOT ADD SWAP1 DUP2 GT PUSH2 0x692 JUMPI PUSH2 0x7F6 SWAP1 PUSH2 0x57D JUMP JUMPDEST SWAP1 SLOAD SWAP1 PUSH1 0x3 SHL SHR PUSH1 0x0 MSTORE PUSH1 0x4 PUSH1 0x20 MSTORE PUSH1 0x40 PUSH1 0x0 KECCAK256 SWAP1 DUP2 SLOAD AND SWAP1 SSTORE CODESIZE DUP1 PUSH2 0x79E JUMP JUMPDEST SWAP1 SWAP2 SWAP5 PUSH2 0x85A SWAP1 DUP6 DUP8 AND ISZERO PUSH1 0x0 EQ PUSH2 0x862 JUMPI DUP1 PUSH2 0x83A PUSH2 0x850 SWAP3 PUSH2 0x75F DUP7 PUSH2 0x614 JUMP JUMPDEST PUSH2 0x843 DUP5 PUSH2 0x5CA JUMP JUMPDEST SWAP1 SLOAD SWAP1 PUSH1 0x3 SHL SHR SWAP1 PUSH2 0x6B8 JUMP JUMPDEST SWAP6 JUMPDEST DUP6 SHR SWAP2 PUSH2 0x683 JUMP JUMPDEST SWAP2 SWAP1 SWAP2 PUSH2 0x72E JUMP JUMPDEST PUSH2 0x87B SWAP1 PUSH2 0x86F DUP5 PUSH2 0x614 JUMP JUMPDEST SWAP1 SLOAD SWAP1 PUSH1 0x3 SHL SHR PUSH2 0x6B8 JUMP JUMPDEST SWAP6 PUSH2 0x852 JUMP JUMPDEST PUSH1 0x40 MLOAD PUSH3 0x461BCD PUSH1 0xE5 SHL DUP2 MSTORE PUSH1 0x20 PUSH1 0x4 DUP3 ADD MSTORE PUSH1 0xC PUSH1 0x24 DUP3 ADD MSTORE PUSH12 0x151C9959481A5CC8199D5B1B PUSH1 0xA2 SHL PUSH1 0x44 DUP3 ADD MSTORE PUSH1 0x64 SWAP1 REVERT JUMPDEST PUSH8 0xFFFFFFFFFFFFFFFF DUP2 GT PUSH2 0x66D JUMPI PUSH1 0x5 SHL PUSH1 0x20 ADD SWAP1 JUMP INVALID LOG2 PUSH5 0x6970667358 0x22 SLT KECCAK256 0x1F 0xC6 0xD5 0xFC MSIZE 0x28 DUP7 LT 0xE1 0xC9 0xED 0x2D RETURNDATACOPY 0x2B 0xC1 0xDD DUP15 CODECOPY PUSH13 0x9E3B02D5273E79D04F2D119DC8 PUSH5 0x736F6C6343 STOP ADDMOD EQ STOP CALLER "},"methodIdentifiers":{"ROOT_HISTORY_SIZE()":"cd87a3b4","filledSubtrees(uint256)":"f178e47c","getLeafCount()":"d3ea6125","getRoot()":"5ca1e165","getRoots()":"35a5e06d","insert(bytes32)":"2d287e43","insertBatch(bytes32[])":"6e7616cb","isKnownRoot(bytes32)":"6d9833e3","levels()":"4ecf518b","nextIndex()":"fc7e9c6f","rootHistory(bytes32)":"66dd97ab","roots(uint256)":"c2b40ae4","verifyMerkleProof(bytes32,bytes32[],uint256[],bytes32)":"05d9e0a0","zeros(uint256)":"e8295588"}}}}}