{"contracts/MerkleTree.sol":{"MerkleTree":{"abi":[{"inputs":[{"internalType":"uint256","name":"_levels","type":"uint256"}],"stateMutability":"nonpayable","type":"constructor"},{"anonymous":false,"inputs":[{"indexed":true,"internalType":"bytes32","name":"leaf","type":"bytes32"},{"indexed":true,"internalType":"uint256","name":"leafIndex","type":"uint256"},{"indexed":true,"internalType":"bytes32","name":"newRoot","type":"bytes32"}],"name":"LeafInserted","type":"event"},{"inputs":[],"name":"ROOT_HISTORY_SIZE","outputs":[{"internalType":"uint256","name":"","type":"uint256"}],"stateMutability":"view","type":"function"},{"inputs":[{"internalType":"uint256","name":"","type":"uint256"}],"name":"filledSubtrees","outputs":[{"internalType":"bytes32","name":"","type":"bytes32"}],"stateMutability":"view","type":"function"},{"inputs":[],"name":"getLeafCount","outputs":[{"internalType":"uint256","name":"","type":"uint256"}],"stateMutability":"view","type":"function"},{"inputs":[],"name":"getRoot","outputs":[{"internalType":"bytes32","name":"","type":"bytes32"}],"stateMutability":"view","type":"function"},{"inputs":[],"name":"getRoots","outputs":[{"internalType":"bytes32[]","name":"","type":"bytes32[]"}],"stateMutability":"view","type":"function"},{"inputs":[{"internalType":"bytes32","name":"root","type":"bytes32"}],"name":"isKnownRoot","outputs":[{"internalType":"bool","name":"","type":"bool"}],"stateMutability":"view","type":"function"},{"inputs":[],"name":"levels","outputs":[{"internalType":"uint256","name":"","type":"uint256"}],"stateMutability":"view","type":"function"},{"inputs":[],"name":"nextIndex","outputs":[{"internalType":"uint256","name":"","type":"uint256"}],"stateMutability":"view","type":"function"},{"inputs":[{"internalType":"bytes32","name":"","type":"bytes32"}],"name":"rootHistory","outputs":[{"internalType":"bool","name":"","type":"bool"}],"stateMutability":"view","type":"function"},{"inputs":[{"internalType":"uint256","name":"","type":"uint256"}],"name":"roots","outputs":[{"internalType":"bytes32","name":"","type":"bytes32"}],"stateMutability":"view","type":"function"},{"inputs":[{"internalType":"bytes32","name":"leaf","type":"bytes32"},{"internalType":"bytes32[]","name":"pathElements","type":"bytes32[]"},{"internalType":"uint256[]","name":"pathIndices","type":"uint256[]"},{"internalType":"bytes32","name":"root","type":"bytes32"}],"name":"verifyMerkleProof","outputs":[{"internalType":"bool","name":"","type":"bool"}],"stateMutability":"pure","type":"function"},{"inputs":[{"internalType":"uint256","name":"","type":"uint256"}],"name":"zeros","outputs":[{"internalType":"bytes32","name":"","type":"bytes32"}],"stateMutability":"view","type":"function"}],"evm":{"bytecode":{"linkReferences":{},"object":"60a03461024d5761082a38819003601f8101601f191683016001600160401b0381118482101761012a5783928291604052833960209283918101031261024d575180151580610243575b1561020d57806080526000918254926801000000000000000092838510156101f9576001948581018084558110156101e5578290818052848220015560028054858110156101d1578681018083558110156101bd5781845284842001839055859291905b8184106101405750506100c1915080610252565b6003549283101561012a5783830180600355831015610114578060049360036000528360002001556000525260406000209060ff198254161790556040516105a390816102878239608051816102640152f35b634e487b7160e01b600052603260045260246000fd5b634e487b7160e01b600052604160045260246000fd5b90918061014c91610252565b92836000548781101561012a57888101806000558110156101145781906000805287600020015582548781101561012a57888101808555811015610114578360005286600020015560001981146101a75786019291906100ad565b634e487b7160e01b600052601160045260246000fd5b634e487b7160e01b84526032600452602484fd5b634e487b7160e01b84526041600452602484fd5b634e487b7160e01b83526032600452602483fd5b634e487b7160e01b82526041600452602482fd5b60405162461bcd60e51b815260048101839052600e60248201526d496e76616c6964206c6576656c7360901b6044820152606490fd5b5081811115610049565b600080fd5b604080516020810192835280820193909352825290606081016001600160401b0381118282101761012a576040525190209056fe608060408181526004918236101561001657600080fd5b600092833560e01c91826305d9e0a0146103655750816335a5e06d146102875781634ecf518b1461024c5781635ca1e1651461020b57816366dd97ab146101df5781636d9833e3146101df578163c2b40ae4146101a3578163cd87a3b414610187578163d3ea612514610168578163e82955881461011c578163f178e47c146100ca575063fc7e9c6f146100a957600080fd5b346100c657816003193601126100c6576020906001549051908152f35b5080fd5b9050346101185760203660031901126101185735600254811015610118576002602093527f405787fa12a823e0f2b7631cc41b3ba8828b3321ca811111fa75cd3aa3bb5ace01549051908152f35b8280fd5b905034610118576020366003190112610118573582548110156101185782602093527f290decd9548b62a8d60345a988386fc84ba6bc95484008f6362f93160ef3e56301549051908152f35b5050346100c657816003193601126100c6576020906001549051908152f35b5050346100c657816003193601126100c6576020905160648152f35b9050346101185760203660031901126101185735916003548310156101dc57506101ce6020926104c5565b90549060031b1c9051908152f35b80fd5b90503461011857602036600319011261011857816020938260ff93358252855220541690519015158152f35b8284346101dc57806003193601126101dc57600354600019810193908411610239576020836101ce866104c5565b634e487b7160e01b825260119052602490fd5b5050346100c657816003193601126100c657602090517f00000000000000000000000000000000000000000000000000000000000000008152f35b8284346101dc57806003193601126101dc57815180916003549384835260208093018095600384527fc2575a0e9e593c00f959f8c92f12db2869c3395a3b0502d05e2516446f71f85b90845b868282106103515750505050849003601f01601f191684019567ffffffffffffffff87118588101761033e575085815282865292518583018190528594938501939290915b82811061032757505050500390f35b835185528695509381019392810192600101610318565b634e487b7160e01b835260419052602482fd5b8354855290930192600192830192016102d3565b909291503461048b57608036600319011261048b5760249367ffffffffffffffff9385358581116101185761039d903690830161048f565b909560443590811161048b576103b6903690840161048f565b9690948783036104545750959392919081359683955b8287106103e157602089895190606435148152f35b909192939495976103f3898389610512565b356104395761040e906104078a8686610512565b3590610522565b975b6000198114610427576001019594939291906103cc565b634e487b7160e01b8652601185528986fd5b61044e906104488a8686610512565b35610522565b97610410565b62461bcd60e51b815260208482015260148982015273092dcecc2d8d2c840e0e4dedecc40d8cadccee8d60631b6044820152606490fd5b8380fd5b9181601f840112156104c05782359167ffffffffffffffff83116104c0576020808501948460051b0101116104c057565b600080fd5b6003548110156104fc5760036000527fc2575a0e9e593c00f959f8c92f12db2869c3395a3b0502d05e2516446f71f85b0190600090565b634e487b7160e01b600052603260045260246000fd5b91908110156104fc5760051b0190565b9060405190602082019283526040820152604081526060810181811067ffffffffffffffff8211176105575760405251902090565b634e487b7160e01b600052604160045260246000fdfea2646970667358221220ade761b88308aa638086501db34f0e72f0ad470aca1a1b906183d002e5607f2d64736f6c63430008140033","opcodes":"PUSH1 0xA0 CALLVALUE PUSH2 0x24D JUMPI PUSH2 0x82A CODESIZE DUP2 SWAP1 SUB PUSH1 0x1F DUP2 ADD PUSH1 0x1F NOT AND DUP4 ADD PUSH1 0x1 PUSH1 0x1 PUSH1 0x40 SHL SUB DUP2 GT DUP5 DUP3 LT OR PUSH2 0x12A JUMPI DUP4 SWAP3 DUP3 SWAP2 PUSH1 0x40 MSTORE DUP4 CODECOPY PUSH1 0x20 SWAP3 DUP4 SWAP2 DUP2 ADD SUB SLT PUSH2 0x24D JUMPI MLOAD DUP1 ISZERO ISZERO DUP1 PUSH2 0x243 JUMPI JUMPDEST ISZERO PUSH2 0x20D JUMPI DUP1 PUSH1 0x80 MSTORE PUSH1 0x0 SWAP2 DUP3 SLOAD SWAP3 PUSH9 0x10000000000000000 SWAP3 DUP4 DUP6 LT ISZERO PUSH2 0x1F9 JUMPI PUSH1 0x1 SWAP5 DUP6 DUP2 ADD DUP1 DUP5 SSTORE DUP2 LT ISZERO PUSH2 0x1E5 JUMPI DUP3 SWAP1 DUP2 DUP1 MSTORE DUP5 DUP3 KECCAK256 ADD SSTORE PUSH1 0x2 DUP1 SLOAD DUP6 DUP2 LT ISZERO PUSH2 0x1D1 JUMPI DUP7 DUP2 ADD DUP1 DUP4 SSTORE DUP2 LT ISZERO PUSH2 0x1BD JUMPI DUP2 DUP5 MSTORE DUP5 DUP5 KECCAK256 ADD DUP4 SWAP1 SSTORE DUP6 SWAP3 SWAP2 SWAP1 JUMPDEST DUP2 DUP5 LT PUSH2 0x140 JUMPI POP POP PUSH2 0xC1 SWAP2 POP DUP1 PUSH2 0x252 JUMP JUMPDEST PUSH1 0x3 SLOAD SWAP3 DUP4 LT ISZERO PUSH2 0x12A JUMPI DUP4 DUP4 ADD DUP1 PUSH1 0x3 SSTORE DUP4 LT ISZERO PUSH2 0x114 JUMPI DUP1 PUSH1 0x4 SWAP4 PUSH1 0x3 PUSH1 0x0 MSTORE DUP4 PUSH1 0x0 KECCAK256 ADD SSTORE PUSH1 0x0 MSTORE MSTORE PUSH1 0x40 PUSH1 0x0 KECCAK256 SWAP1 PUSH1 0xFF NOT DUP3 SLOAD AND OR SWAP1 SSTORE PUSH1 0x40 MLOAD PUSH2 0x5A3 SWAP1 DUP2 PUSH2 0x287 DUP3 CODECOPY PUSH1 0x80 MLOAD DUP2 PUSH2 0x264 ADD MSTORE RETURN JUMPDEST PUSH4 0x4E487B71 PUSH1 0xE0 SHL PUSH1 0x0 MSTORE PUSH1 0x32 PUSH1 0x4 MSTORE PUSH1 0x24 PUSH1 0x0 REVERT JUMPDEST PUSH4 0x4E487B71 PUSH1 0xE0 SHL PUSH1 0x0 MSTORE PUSH1 0x41 PUSH1 0x4 MSTORE PUSH1 0x24 PUSH1 0x0 REVERT JUMPDEST SWAP1 SWAP2 DUP1 PUSH2 0x14C SWAP2 PUSH2 0x252 JUMP JUMPDEST SWAP3 DUP4 PUSH1 0x0 SLOAD DUP8 DUP2 LT ISZERO PUSH2 0x12A JUMPI DUP9 DUP2 ADD DUP1 PUSH1 0x0 SSTORE DUP2 LT ISZERO PUSH2 0x114 JUMPI DUP2 SWAP1 PUSH1 0x0 DUP1 MSTORE DUP8 PUSH1 0x0 KECCAK256 ADD SSTORE DUP3 SLOAD DUP8 DUP2 LT ISZERO PUSH2 0x12A JUMPI DUP9 DUP2 ADD DUP1 DUP6 SSTORE DUP2 LT ISZERO PUSH2 0x114 JUMPI DUP4 PUSH1 0x0 MSTORE DUP7 PUSH1 0x0 KECCAK256 ADD SSTORE PUSH1 0x0 NOT DUP2 EQ PUSH2 0x1A7 JUMPI DUP7 ADD SWAP3 SWAP2 SWAP1 PUSH2 0xAD JUMP JUMPDEST PUSH4 0x4E487B71 PUSH1 0xE0 SHL PUSH1 0x0 MSTORE PUSH1 0x11 PUSH1 0x4 MSTORE PUSH1 0x24 PUSH1 0x0 REVERT JUMPDEST PUSH4 0x4E487B71 PUSH1 0xE0 SHL DUP5 MSTORE PUSH1 0x32 PUSH1 0x4 MSTORE PUSH1 0x24 DUP5 REVERT JUMPDEST PUSH4 0x4E487B71 PUSH1 0xE0 SHL DUP5 MSTORE PUSH1 0x41 PUSH1 0x4 MSTORE PUSH1 0x24 DUP5 REVERT JUMPDEST PUSH4 0x4E487B71 PUSH1 0xE0 SHL DUP4 MSTORE PUSH1 0x32 PUSH1 0x4 MSTORE PUSH1 0x24 DUP4 REVERT JUMPDEST PUSH4 0x4E487B71 PUSH1 0xE0 SHL DUP3 MSTORE PUSH1 0x41 PUSH1 0x4 MSTORE PUSH1 0x24 DUP3 REVERT JUMPDEST PUSH1 0x40 MLOAD PUSH3 0x461BCD PUSH1 0xE5 SHL DUP2 MSTORE PUSH1 0x4 DUP2 ADD DUP4 SWAP1 MSTORE PUSH1 0xE PUSH1 0x24 DUP3 ADD MSTORE PUSH14 0x496E76616C6964206C6576656C73 PUSH1 0x90 SHL PUSH1 0x44 DUP3 ADD MSTORE PUSH1 0x64 SWAP1 REVERT JUMPDEST POP DUP2 DUP2 GT ISZERO PUSH2 0x49 JUMP JUMPDEST PUSH1 0x0 DUP1 REVERT JUMPDEST PUSH1 0x40 DUP1 MLOAD PUSH1 0x20 DUP2 ADD SWAP3 DUP4 MSTORE DUP1 DUP3 ADD SWAP4 SWAP1 SWAP4 MSTORE DUP3 MSTORE SWAP1 PUSH1 0x60 DUP2 ADD PUSH1 0x1 PUSH1 0x1 PUSH1 0x40 SHL SUB DUP2 GT DUP3 DUP3 LT OR PUSH2 0x12A JUMPI PUSH1 0x40 MSTORE MLOAD SWAP1 KECCAK256 SWAP1 JUMP INVALID PUSH1 0x80 PUSH1 0x40 DUP2 DUP2 MSTORE PUSH1 0x4 SWAP2 DUP3 CALLDATASIZE LT ISZERO PUSH2 0x16 JUMPI PUSH1 0x0 DUP1 REVERT JUMPDEST PUSH1 0x0 SWAP3 DUP4 CALLDATALOAD PUSH1 0xE0 SHR SWAP2 DUP3 PUSH4 0x5D9E0A0 EQ PUSH2 0x365 JUMPI POP DUP2 PUSH4 0x35A5E06D EQ PUSH2 0x287 JUMPI DUP2 PUSH4 0x4ECF518B EQ PUSH2 0x24C JUMPI DUP2 PUSH4 0x5CA1E165 EQ PUSH2 0x20B JUMPI DUP2 PUSH4 0x66DD97AB EQ PUSH2 0x1DF JUMPI DUP2 PUSH4 0x6D9833E3 EQ PUSH2 0x1DF JUMPI DUP2 PUSH4 0xC2B40AE4 EQ PUSH2 0x1A3 JUMPI DUP2 PUSH4 0xCD87A3B4 EQ PUSH2 0x187 JUMPI DUP2 PUSH4 0xD3EA6125 EQ PUSH2 0x168 JUMPI DUP2 PUSH4 0xE8295588 EQ PUSH2 0x11C JUMPI DUP2 PUSH4 0xF178E47C EQ PUSH2 0xCA JUMPI POP PUSH4 0xFC7E9C6F EQ PUSH2 0xA9 JUMPI PUSH1 0x0 DUP1 REVERT JUMPDEST CALLVALUE PUSH2 0xC6 JUMPI DUP2 PUSH1 0x3 NOT CALLDATASIZE ADD SLT PUSH2 0xC6 JUMPI PUSH1 0x20 SWAP1 PUSH1 0x1 SLOAD SWAP1 MLOAD SWAP1 DUP2 MSTORE RETURN JUMPDEST POP DUP1 REVERT JUMPDEST SWAP1 POP CALLVALUE PUSH2 0x118 JUMPI PUSH1 0x20 CALLDATASIZE PUSH1 0x3 NOT ADD SLT PUSH2 0x118 JUMPI CALLDATALOAD PUSH1 0x2 SLOAD DUP2 LT ISZERO PUSH2 0x118 JUMPI PUSH1 0x2 PUSH1 0x20 SWAP4 MSTORE PUSH32 0x405787FA12A823E0F2B7631CC41B3BA8828B3321CA811111FA75CD3AA3BB5ACE ADD SLOAD SWAP1 MLOAD SWAP1 DUP2 MSTORE RETURN JUMPDEST DUP3 DUP1 REVERT JUMPDEST SWAP1 POP CALLVALUE PUSH2 0x118 JUMPI PUSH1 0x20 CALLDATASIZE PUSH1 0x3 NOT ADD SLT PUSH2 0x118 JUMPI CALLDATALOAD DUP3 SLOAD DUP2 LT ISZERO PUSH2 0x118 JUMPI DUP3 PUSH1 0x20 SWAP4 MSTORE PUSH32 0x290DECD9548B62A8D60345A988386FC84BA6BC95484008F6362F93160EF3E563 ADD SLOAD SWAP1 MLOAD SWAP1 DUP2 MSTORE RETURN JUMPDEST POP POP CALLVALUE PUSH2 0xC6 JUMPI DUP2 PUSH1 0x3 NOT CALLDATASIZE ADD SLT PUSH2 0xC6 JUMPI PUSH1 0x20 SWAP1 PUSH1 0x1 SLOAD SWAP1 MLOAD SWAP1 DUP2 MSTORE RETURN JUMPDEST POP POP CALLVALUE PUSH2 0xC6 JUMPI DUP2 PUSH1 0x3 NOT CALLDATASIZE ADD SLT PUSH2 0xC6 JUMPI PUSH1 0x20 SWAP1 MLOAD PUSH1 0x64 DUP2 MSTORE RETURN JUMPDEST SWAP1 POP CALLVALUE PUSH2 0x118 JUMPI PUSH1 0x20 CALLDATASIZE PUSH1 0x3 NOT ADD SLT PUSH2 0x118 JUMPI CALLDATALOAD SWAP2 PUSH1 0x3 SLOAD DUP4 LT ISZERO PUSH2 0x1DC JUMPI POP PUSH2 0x1CE PUSH1 0x20 SWAP3 PUSH2 0x4C5 JUMP JUMPDEST SWAP1 SLOAD SWAP1 PUSH1 0x3 SHL SHR SWAP1 MLOAD SWAP1 DUP2 MSTORE RETURN JUMPDEST DUP1 REVERT JUMPDEST SWAP1 POP CALLVALUE PUSH2 0x118 JUMPI PUSH1 0x20 CALLDATASIZE PUSH1 0x3 NOT ADD SLT PUSH2 0x118 JUMPI DUP2 PUSH1 0x20 SWAP4 DUP3 PUSH1 0xFF SWAP4 CALLDATALOAD DUP3 MSTORE DUP6 MSTORE KECCAK256 SLOAD AND SWAP1 MLOAD SWAP1 ISZERO ISZERO DUP2 MSTORE RETURN JUMPDEST DUP3 DUP5 CALLVALUE PUSH2 0x1DC JUMPI DUP1 PUSH1 0x3 NOT CALLDATASIZE ADD SLT PUSH2 0x1DC JUMPI PUSH1 0x3 SLOAD PUSH1 0x0 NOT DUP2 ADD SWAP4 SWAP1 DUP5 GT PUSH2 0x239 JUMPI PUSH1 0x20 DUP4 PUSH2 0x1CE DUP7 PUSH2 0x4C5 JUMP JUMPDEST PUSH4 0x4E487B71 PUSH1 0xE0 SHL DUP3 MSTORE PUSH1 0x11 SWAP1 MSTORE PUSH1 0x24 SWAP1 REVERT JUMPDEST POP POP CALLVALUE PUSH2 0xC6 JUMPI DUP2 PUSH1 0x3 NOT CALLDATASIZE ADD SLT PUSH2 0xC6 JUMPI PUSH1 0x20 SWAP1 MLOAD PUSH32 0x0 DUP2 MSTORE RETURN JUMPDEST DUP3 DUP5 CALLVALUE PUSH2 0x1DC JUMPI DUP1 PUSH1 0x3 NOT CALLDATASIZE ADD SLT PUSH2 0x1DC JUMPI DUP2 MLOAD DUP1 SWAP2 PUSH1 0x3 SLOAD SWAP4 DUP5 DUP4 MSTORE PUSH1 0x20 DUP1 SWAP4 ADD DUP1 SWAP6 PUSH1 0x3 DUP5 MSTORE PUSH32 0xC2575A0E9E593C00F959F8C92F12DB2869C3395A3B0502D05E2516446F71F85B SWAP1 DUP5 JUMPDEST DUP7 DUP3 DUP3 LT PUSH2 0x351 JUMPI POP POP POP POP DUP5 SWAP1 SUB PUSH1 0x1F ADD PUSH1 0x1F NOT AND DUP5 ADD SWAP6 PUSH8 0xFFFFFFFFFFFFFFFF DUP8 GT DUP6 DUP9 LT OR PUSH2 0x33E JUMPI POP DUP6 DUP2 MSTORE DUP3 DUP7 MSTORE SWAP3 MLOAD DUP6 DUP4 ADD DUP2 SWAP1 MSTORE DUP6 SWAP5 SWAP4 DUP6 ADD SWAP4 SWAP3 SWAP1 SWAP2 JUMPDEST DUP3 DUP2 LT PUSH2 0x327 JUMPI POP POP POP POP SUB SWAP1 RETURN JUMPDEST DUP4 MLOAD DUP6 MSTORE DUP7 SWAP6 POP SWAP4 DUP2 ADD SWAP4 SWAP3 DUP2 ADD SWAP3 PUSH1 0x1 ADD PUSH2 0x318 JUMP JUMPDEST PUSH4 0x4E487B71 PUSH1 0xE0 SHL DUP4 MSTORE PUSH1 0x41 SWAP1 MSTORE PUSH1 0x24 DUP3 REVERT JUMPDEST DUP4 SLOAD DUP6 MSTORE SWAP1 SWAP4 ADD SWAP3 PUSH1 0x1 SWAP3 DUP4 ADD SWAP3 ADD PUSH2 0x2D3 JUMP JUMPDEST SWAP1 SWAP3 SWAP2 POP CALLVALUE PUSH2 0x48B JUMPI PUSH1 0x80 CALLDATASIZE PUSH1 0x3 NOT ADD SLT PUSH2 0x48B JUMPI PUSH1 0x24 SWAP4 PUSH8 0xFFFFFFFFFFFFFFFF SWAP4 DUP6 CALLDATALOAD DUP6 DUP2 GT PUSH2 0x118 JUMPI PUSH2 0x39D SWAP1 CALLDATASIZE SWAP1 DUP4 ADD PUSH2 0x48F JUMP JUMPDEST SWAP1 SWAP6 PUSH1 0x44 CALLDATALOAD SWAP1 DUP2 GT PUSH2 0x48B JUMPI PUSH2 0x3B6 SWAP1 CALLDATASIZE SWAP1 DUP5 ADD PUSH2 0x48F JUMP JUMPDEST SWAP7 SWAP1 SWAP5 DUP8 DUP4 SUB PUSH2 0x454 JUMPI POP SWAP6 SWAP4 SWAP3 SWAP2 SWAP1 DUP2 CALLDATALOAD SWAP7 DUP4 SWAP6 JUMPDEST DUP3 DUP8 LT PUSH2 0x3E1 JUMPI PUSH1 0x20 DUP10 DUP10 MLOAD SWAP1 PUSH1 0x64 CALLDATALOAD EQ DUP2 MSTORE RETURN JUMPDEST SWAP1 SWAP2 SWAP3 SWAP4 SWAP5 SWAP6 SWAP8 PUSH2 0x3F3 DUP10 DUP4 DUP10 PUSH2 0x512 JUMP JUMPDEST CALLDATALOAD PUSH2 0x439 JUMPI PUSH2 0x40E SWAP1 PUSH2 0x407 DUP11 DUP7 DUP7 PUSH2 0x512 JUMP JUMPDEST CALLDATALOAD SWAP1 PUSH2 0x522 JUMP JUMPDEST SWAP8 JUMPDEST PUSH1 0x0 NOT DUP2 EQ PUSH2 0x427 JUMPI PUSH1 0x1 ADD SWAP6 SWAP5 SWAP4 SWAP3 SWAP2 SWAP1 PUSH2 0x3CC JUMP JUMPDEST PUSH4 0x4E487B71 PUSH1 0xE0 SHL DUP7 MSTORE PUSH1 0x11 DUP6 MSTORE DUP10 DUP7 REVERT JUMPDEST PUSH2 0x44E SWAP1 PUSH2 0x448 DUP11 DUP7 DUP7 PUSH2 0x512 JUMP JUMPDEST CALLDATALOAD PUSH2 0x522 JUMP JUMPDEST SWAP8 PUSH2 0x410 JUMP JUMPDEST PUSH3 0x461BCD PUSH1 0xE5 SHL DUP2 MSTORE PUSH1 0x20 DUP5 DUP3 ADD MSTORE PUSH1 0x14 DUP10 DUP3 ADD MSTORE PUSH20 0x92DCECC2D8D2C840E0E4DEDECC40D8CADCCEE8D PUSH1 0x63 SHL PUSH1 0x44 DUP3 ADD MSTORE PUSH1 0x64 SWAP1 REVERT JUMPDEST DUP4 DUP1 REVERT JUMPDEST SWAP2 DUP2 PUSH1 0x1F DUP5 ADD SLT ISZERO PUSH2 0x4C0 JUMPI DUP3 CALLDATALOAD SWAP2 PUSH8 0xFFFFFFFFFFFFFFFF DUP4 GT PUSH2 0x4C0 JUMPI PUSH1 0x20 DUP1 DUP6 ADD SWAP5 DUP5 PUSH1 0x5 SHL ADD ADD GT PUSH2 0x4C0 JUMPI JUMP JUMPDEST PUSH1 0x0 DUP1 REVERT JUMPDEST PUSH1 0x3 SLOAD DUP2 LT ISZERO PUSH2 0x4FC JUMPI PUSH1 0x3 PUSH1 0x0 MSTORE PUSH32 0xC2575A0E9E593C00F959F8C92F12DB2869C3395A3B0502D05E2516446F71F85B ADD SWAP1 PUSH1 0x0 SWAP1 JUMP JUMPDEST PUSH4 0x4E487B71 PUSH1 0xE0 SHL PUSH1 0x0 MSTORE PUSH1 0x32 PUSH1 0x4 MSTORE PUSH1 0x24 PUSH1 0x0 REVERT JUMPDEST SWAP2 SWAP1 DUP2 LT ISZERO PUSH2 0x4FC JUMPI PUSH1 0x5 SHL ADD SWAP1 JUMP JUMPDEST SWAP1 PUSH1 0x40 MLOAD SWAP1 PUSH1 0x20 DUP3 ADD SWAP3 DUP4 MSTORE PUSH1 0x40 DUP3 ADD MSTORE PUSH1 0x40 DUP2 MSTORE PUSH1 0x60 DUP2 ADD DUP2 DUP2 LT PUSH8 0xFFFFFFFFFFFFFFFF DUP3 GT OR PUSH2 0x557 JUMPI PUSH1 0x40 MSTORE MLOAD SWAP1 KECCAK256 SWAP1 JUMP JUMPDEST PUSH4 0x4E487B71 PUSH1 0xE0 SHL PUSH1 0x0 MSTORE PUSH1 0x41 PUSH1 0x4 MSTORE PUSH1 0x24 PUSH1 0x0 REVERT INVALID LOG2 PUSH5 0x6970667358 0x22 SLT KECCAK256 0xAD 0xE7 PUSH2 0xB883 ADDMOD 0xAA PUSH4 0x8086501D 0xB3 0x4F 0xE PUSH19 0xF0AD470ACA1A1B906183D002E5607F2D64736F PUSH13 0x63430008140033000000000000 "},"methodIdentifiers":{"ROOT_HISTORY_SIZE()":"cd87a3b4","filledSubtrees(uint256)":"f178e47c","getLeafCount()":"d3ea6125","getRoot()":"5ca1e165","getRoots()":"35a5e06d","isKnownRoot(bytes32)":"6d9833e3","levels()":"4ecf518b","nextIndex()":"fc7e9c6f","rootHistory(bytes32)":"66dd97ab","roots(uint256)":"c2b40ae4","verifyMerkleProof(bytes32,bytes32[],uint256[],bytes32)":"05d9e0a0","zeros(uint256)":"e8295588"}}}}}