{"contracts/PrivacyPoolStandalone.sol":{"PrivacyPoolStandalone":{"abi":[{"inputs":[{"internalType":"address","name":"_token","type":"address"},{"internalType":"address","name":"_verifier","type":"address"},{"internalType":"address","name":"_owner","type":"address"}],"stateMutability":"nonpayable","type":"constructor"},{"inputs":[],"name":"CommitmentAlreadyExists","type":"error"},{"inputs":[],"name":"InvalidDenomination","type":"error"},{"inputs":[],"name":"InvalidProof","type":"error"},{"inputs":[],"name":"InvalidRoot","type":"error"},{"inputs":[],"name":"NullifierAlreadyUsed","type":"error"},{"inputs":[],"name":"TreeFull","type":"error"},{"inputs":[],"name":"ZeroAddress","type":"error"},{"anonymous":false,"inputs":[{"indexed":true,"internalType":"bytes32","name":"commitment","type":"bytes32"},{"indexed":true,"internalType":"uint256","name":"leafIndex","type":"uint256"},{"indexed":false,"internalType":"uint256","name":"amount","type":"uint256"},{"indexed":false,"internalType":"uint256","name":"timestamp","type":"uint256"}],"name":"Deposit","type":"event"},{"anonymous":false,"inputs":[{"indexed":true,"internalType":"bytes32","name":"root","type":"bytes32"},{"indexed":false,"internalType":"uint256","name":"leafCount","type":"uint256"}],"name":"MerkleRoot","type":"event"},{"anonymous":false,"inputs":[{"indexed":true,"internalType":"address","name":"previousOwner","type":"address"},{"indexed":true,"internalType":"address","name":"newOwner","type":"address"}],"name":"OwnershipTransferred","type":"event"},{"anonymous":false,"inputs":[{"indexed":true,"internalType":"bytes32","name":"nullifier","type":"bytes32"},{"indexed":true,"internalType":"address","name":"recipient","type":"address"},{"indexed":false,"internalType":"uint256","name":"amount","type":"uint256"},{"indexed":false,"internalType":"uint256","name":"timestamp","type":"uint256"}],"name":"Withdrawal","type":"event"},{"inputs":[],"name":"DENOM_100","outputs":[{"internalType":"uint256","name":"","type":"uint256"}],"stateMutability":"view","type":"function"},{"inputs":[],"name":"DENOM_1000","outputs":[{"internalType":"uint256","name":"","type":"uint256"}],"stateMutability":"view","type":"function"},{"inputs":[],"name":"DENOM_10000","outputs":[{"internalType":"uint256","name":"","type":"uint256"}],"stateMutability":"view","type":"function"},{"inputs":[],"name":"DENOM_100000","outputs":[{"internalType":"uint256","name":"","type":"uint256"}],"stateMutability":"view","type":"function"},{"inputs":[],"name":"MERKLE_TREE_LEVELS","outputs":[{"internalType":"uint256","name":"","type":"uint256"}],"stateMutability":"view","type":"function"},{"inputs":[],"name":"ROOT_HISTORY_SIZE","outputs":[{"internalType":"uint256","name":"","type":"uint256"}],"stateMutability":"view","type":"function"},{"inputs":[{"internalType":"bytes32","name":"","type":"bytes32"}],"name":"commitments","outputs":[{"internalType":"bool","name":"","type":"bool"}],"stateMutability":"view","type":"function"},{"inputs":[{"internalType":"bytes32","name":"commitment","type":"bytes32"},{"internalType":"uint256","name":"amount","type":"uint256"}],"name":"deposit","outputs":[],"stateMutability":"nonpayable","type":"function"},{"inputs":[],"name":"depositFeeBps","outputs":[{"internalType":"uint256","name":"","type":"uint256"}],"stateMutability":"view","type":"function"},{"inputs":[],"name":"feeRecipient","outputs":[{"internalType":"address","name":"","type":"address"}],"stateMutability":"view","type":"function"},{"inputs":[{"internalType":"uint256","name":"","type":"uint256"}],"name":"filledSubtrees","outputs":[{"internalType":"bytes32","name":"","type":"bytes32"}],"stateMutability":"view","type":"function"},{"inputs":[],"name":"getRoot","outputs":[{"internalType":"bytes32","name":"","type":"bytes32"}],"stateMutability":"view","type":"function"},{"inputs":[],"name":"getStats","outputs":[{"internalType":"uint256","name":"deposited","type":"uint256"},{"internalType":"uint256","name":"withdrawn","type":"uint256"},{"internalType":"uint256","name":"commitmentCount","type":"uint256"},{"internalType":"bytes32","name":"currentRoot","type":"bytes32"}],"stateMutability":"view","type":"function"},{"inputs":[{"internalType":"bytes32","name":"root","type":"bytes32"}],"name":"isKnownRoot","outputs":[{"internalType":"bool","name":"","type":"bool"}],"stateMutability":"view","type":"function"},{"inputs":[{"internalType":"uint256","name":"amount","type":"uint256"}],"name":"isValidDenomination","outputs":[{"internalType":"bool","name":"","type":"bool"}],"stateMutability":"pure","type":"function"},{"inputs":[],"name":"nextIndex","outputs":[{"internalType":"uint256","name":"","type":"uint256"}],"stateMutability":"view","type":"function"},{"inputs":[{"internalType":"bytes32","name":"","type":"bytes32"}],"name":"nullifiers","outputs":[{"internalType":"bool","name":"","type":"bool"}],"stateMutability":"view","type":"function"},{"inputs":[],"name":"owner","outputs":[{"internalType":"address","name":"","type":"address"}],"stateMutability":"view","type":"function"},{"inputs":[],"name":"renounceOwnership","outputs":[],"stateMutability":"nonpayable","type":"function"},{"inputs":[{"internalType":"bytes32","name":"","type":"bytes32"}],"name":"rootHistory","outputs":[{"internalType":"bool","name":"","type":"bool"}],"stateMutability":"view","type":"function"},{"inputs":[{"internalType":"uint256","name":"","type":"uint256"}],"name":"roots","outputs":[{"internalType":"bytes32","name":"","type":"bytes32"}],"stateMutability":"view","type":"function"},{"inputs":[{"internalType":"address","name":"_feeRecipient","type":"address"}],"name":"setFeeRecipient","outputs":[],"stateMutability":"nonpayable","type":"function"},{"inputs":[{"internalType":"uint256","name":"_depositFeeBps","type":"uint256"},{"internalType":"uint256","name":"_withdrawFeeBps","type":"uint256"}],"name":"setFees","outputs":[],"stateMutability":"nonpayable","type":"function"},{"inputs":[{"internalType":"address","name":"_verifier","type":"address"}],"name":"setVerifier","outputs":[],"stateMutability":"nonpayable","type":"function"},{"inputs":[],"name":"token","outputs":[{"internalType":"contract IERC20","name":"","type":"address"}],"stateMutability":"view","type":"function"},{"inputs":[],"name":"totalDeposited","outputs":[{"internalType":"uint256","name":"","type":"uint256"}],"stateMutability":"view","type":"function"},{"inputs":[],"name":"totalWithdrawn","outputs":[{"internalType":"uint256","name":"","type":"uint256"}],"stateMutability":"view","type":"function"},{"inputs":[{"internalType":"address","name":"newOwner","type":"address"}],"name":"transferOwnership","outputs":[],"stateMutability":"nonpayable","type":"function"},{"inputs":[],"name":"verifier","outputs":[{"internalType":"address","name":"","type":"address"}],"stateMutability":"view","type":"function"},{"inputs":[{"internalType":"bytes","name":"proof","type":"bytes"},{"internalType":"bytes32","name":"root","type":"bytes32"},{"internalType":"bytes32","name":"nullifier","type":"bytes32"},{"internalType":"address","name":"recipient","type":"address"},{"internalType":"uint256","name":"amount","type":"uint256"}],"name":"withdraw","outputs":[],"stateMutability":"nonpayable","type":"function"},{"inputs":[],"name":"withdrawFeeBps","outputs":[{"internalType":"uint256","name":"","type":"uint256"}],"stateMutability":"view","type":"function"},{"inputs":[{"internalType":"uint256","name":"","type":"uint256"}],"name":"zeros","outputs":[{"internalType":"bytes32","name":"","type":"bytes32"}],"stateMutability":"view","type":"function"}],"evm":{"bytecode":{"linkReferences":{},"object":"60a034620002c457601f620016c938819003918201601f19168301916001600160401b03831184841017620002c957808492606094604052833981010312620002c4576200004d81620002df565b9060206200006b604062000063838501620002df565b9301620002df565b926001936000938585556200008033620002f4565b600a600c819055600d556001600160a01b03928316928315620002b257620000ca936080528060018060a01b03199216826002541617600255821690600e541617600e55620002f4565b6004805468010000000000000000908490828110156200029f578681018085558110156200028c5785908482528582200155600580548381101562000279578781018083558110156200026657818752858720018690558691905b60148310620001c657506200013c9150806200033d565b9160065491821015620001b35785820180600655821015620001a05750918160079285946006604097528386200155835252209060ff1982541617905560405161135690816200037382396080518181816101d50152818161053d0152610a920152f35b634e487b7160e01b855260329052602484fd5b634e487b7160e01b855260419052602484fd5b9080620001d3916200033d565b9182855485811015620002535789810180885581101562000240578190878a52888a20015582548581101562000253578981018085558110156200024057838952878920015560001981146200022d578701919062000125565b634e487b7160e01b875260118552602487fd5b634e487b7160e01b895260328752602489fd5b634e487b7160e01b895260418752602489fd5b634e487b7160e01b875260328552602487fd5b634e487b7160e01b875260418552602487fd5b634e487b7160e01b865260328452602486fd5b634e487b7160e01b865260418452602486fd5b60405163d92e233d60e01b8152600490fd5b600080fd5b634e487b7160e01b600052604160045260246000fd5b51906001600160a01b0382168203620002c457565b600180546001600160a01b039283166001600160a01b0319821681179092559091167f8be0079c531659141344cd1fd0a4f28419497f9722a3daafe3b4186f6b6457e0600080a3565b604080516020810192835280820193909352825290606081016001600160401b03811182821017620002c9576040525190209056fe608080604052600436101561001357600080fd5b60003560e01c908162bb56c514610e20575080630b78f9c014610daa5780631b4c52c914610d825780631de26e1614610a2f5780632997e86b146109fe5780632b7ac3f3146109d557806346904840146109ac5780634b3197131461098e5780635437988d1461094b5780635ca1e1651461092857806366dd97ab146108d757806367126b43146109085780636d9833e3146108d7578063715018a61461087a5780637aca2b591461085c578063839df9451461082b5780638cff8f3d1461080c5780638da5cb5b146107e35780638dc3395a146107c3578063a6a12ac4146107a7578063aa93018e1461042b578063ab8798271461040d578063c2b40ae4146103e4578063c59d4847146103a8578063cd87a3b41461038c578063e74b981b1461032d578063e829558814610304578063f178e47c146102cd578063f2fde38b14610204578063fc0c546a146101bf578063fc7e9c6f146101a15763ff50abdc1461017e57600080fd5b3461019c57600036600319011261019c576020600a54604051908152f35b600080fd5b3461019c57600036600319011261019c576020600354604051908152f35b3461019c57600036600319011261019c576040517f00000000000000000000000000000000000000000000000000000000000000006001600160a01b03168152602090f35b3461019c57602036600319011261019c5761021d610e3d565b610225610f0e565b6001600160a01b0390811690811561027957600154826bffffffffffffffffffffffff60a01b821617600155167f8be0079c531659141344cd1fd0a4f28419497f9722a3daafe3b4186f6b6457e0600080a3005b60405162461bcd60e51b815260206004820152602660248201527f4f776e61626c653a206e6577206f776e657220697320746865207a65726f206160448201526564647265737360d01b6064820152608490fd5b3461019c57602036600319011261019c5760043560055481101561019c576102f6602091610e53565b90546040519160031b1c8152f35b3461019c57602036600319011261019c5760043560045481101561019c576102f6602091610ea0565b3461019c57602036600319011261019c57610346610e3d565b61034e610f0e565b6001600160a01b0316801561037a576bffffffffffffffffffffffff60a01b600e541617600e55600080f35b60405163d92e233d60e01b8152600490fd5b3461019c57600036600319011261019c57602060405160648152f35b3461019c57600036600319011261019c576080600a54600b546003546103cc6112b5565b91604051938452602084015260408301526060820152f35b3461019c57602036600319011261019c5760043560065481101561019c576102f6602091610ed7565b3461019c57600036600319011261019c576020600c54604051908152f35b3461019c5760a036600319011261019c5760043567ffffffffffffffff811161019c573660238201121561019c57806004013567ffffffffffffffff811161019c57810190602482019136831161019c576064356001600160a01b038116900361019c57610497610fa9565b604435600052600960205260ff60406000205416610795576024359283600052600760205260ff6040600020541615610783576064356001600160a01b03161561037a576002546001600160a01b031691826105d8575b505050505060443560005260096020526040600020600160ff19825416179055600d546127106105216084359283610f66565b0461053861052f8284610f8f565b92600b54610f9c565b600b557f00000000000000000000000000000000000000000000000000000000000000009061056a8360643584610fff565b806105b9575b604080518481524260208201526064356001600160a01b031691604435917f2865d567636cfb8b64e349af19627e3ef92dc0c2cabfe3b1fd3e659425938e8f9190a36001600055005b600e546105d1926001600160a01b0390911690610fff565b8180610570565b8390610100948591031261019c578160438201121561019c5760405193840184811067ffffffffffffffff821117610731576040528390610124810192831161019c57602401905b82821061077357505050604051926080840184811067ffffffffffffffff8211176107315760405283526044356020840152608435604084015260018060a01b03606435166060840152604051926020840192632357251160e01b8452602485016000905b6008821061075d5750505061012484016000905b600482106107475750505061018483526101c083019183831067ffffffffffffffff84111761073157600093849360405251915afa6106d6611161565b9015908115610701575b506106ef5780808080806104ee565b6040516309bde33960e01b8152600490fd5b8051801515925082610716575b5050816106e0565b6107299250602080918301019101611051565b15818061070e565b634e487b7160e01b600052604160045260246000fd5b6020806001928551815201930191019091610699565b6020806001928551815201930191019091610685565b8135815260209182019101610620565b60405163504570e360e01b8152600490fd5b604051636569570160e11b8152600490fd5b3461019c57600036600319011261019c57602060405160148152f35b3461019c57600036600319011261019c5760206040516402540be4008152f35b3461019c57600036600319011261019c576001546040516001600160a01b039091168152602090f35b3461019c57600036600319011261019c5760206040516305f5e1008152f35b3461019c57602036600319011261019c576004356000526008602052602060ff604060002054166040519015158152f35b3461019c57600036600319011261019c576020600d54604051908152f35b3461019c57600036600319011261019c57610893610f0e565b600180546001600160a01b031981169091556000906001600160a01b03167f8be0079c531659141344cd1fd0a4f28419497f9722a3daafe3b4186f6b6457e08280a3005b3461019c57602036600319011261019c576004356000526007602052602060ff604060002054166040519015158152f35b3461019c57600036600319011261019c57602060405164174876e8008152f35b3461019c57600036600319011261019c5760206109436112b5565b604051908152f35b3461019c57602036600319011261019c57610964610e3d565b61096c610f0e565b600280546001600160a01b0319166001600160a01b0392909216919091179055005b3461019c57600036600319011261019c576020600b54604051908152f35b3461019c57600036600319011261019c57600e546040516001600160a01b039091168152602090f35b3461019c57600036600319011261019c576002546040516001600160a01b039091168152602090f35b3461019c57602036600319011261019c576004356000526009602052602060ff604060002054166040519015158152f35b3461019c57604036600319011261019c5760246004358135610a4f610fa9565b610a58816112d7565b15610d70578160005260206008815260ff60406000205416610d5e57612710610a83600c5484610f66565b0491610a8f8382610f8f565b927f000000000000000000000000000000000000000000000000000000000000000091604051906323b872dd60e01b85830152338883015230604483015260648201526064815260a081019080821067ffffffffffffffff831117610d4957610afb9160405283611069565b80610d2a575b5050600380549462100000861015610d185784906000875b60148210610cb457505060065468010000000000000000811015610c9f5782610b4b826001610b649401600655610ed7565b90919082549060031b91821b91600019901b1916179055565b816000526007845260406000209260ff199360018582541617905560065460648111610c36575b506001880191828911610c225750917f03d8083da8e2218b3f5ebe30cdddd9f649eeb4f898a728c4b40c2735839ab11a85837faefea07450efad478ebe2bfc47102612d416637dc1b8e0555b6f7507df6c720c98969460409896558751908152a2856000526008825260018460002091825416179055610c0d82600a54610f9c565b600a5582519182524290820152a36001600055005b634e487b7160e01b60009081526011600452fd5b606319810190808211610c8a5760641901908111610c7557610c5790610ed7565b905490821b1c60005260078552604060002084815416905588610b8b565b82634e487b7160e01b60005260116004526000fd5b83634e487b7160e01b60005260116004526000fd5b50634e487b7160e01b60009081526041600452fd5b600193818516610cfa5780610ccf610ce492610b4b86610e53565b610cd884610ea0565b905490881b1c90611280565b935b1c906000198114610c755760010190610b19565b610d1290610d0784610e53565b905490881b1c611280565b93610ce6565b604051631691e59f60e31b8152600490fd5b600e54610d42926001600160a01b0390911690610fff565b8480610b01565b87634e487b7160e01b60005260416004526000fd5b60405163145718a760e01b8152600490fd5b604051637833d9e360e11b8152600490fd5b3461019c57602036600319011261019c576020610da06004356112d7565b6040519015158152f35b3461019c57604036600319011261019c57602435600435610dc9610f0e565b606481111580610e15575b15610de157600c55600d55005b60405162461bcd60e51b815260206004820152600c60248201526b08ccaca40e8dede40d0d2ced60a31b6044820152606490fd5b506064821115610dd4565b3461019c57600036600319011261019c5780633b9aca0060209252f35b600435906001600160a01b038216820361019c57565b600554811015610e8a5760056000527f036b6384b5eca791c62761152d0c79bb0604c104a5fb6f4eb0703f3154bb3db00190600090565b634e487b7160e01b600052603260045260246000fd5b600454811015610e8a5760046000527f8a35acfbc15ff81a39ae7d344fd709f28e8600b4aa8c65c6b64bfe7fe36bd19b0190600090565b600654811015610e8a5760066000527ff652222313e28459528d920b65115c16c04f3efc82aaedc97be59f3f377c0d3f0190600090565b6001546001600160a01b03163303610f2257565b606460405162461bcd60e51b815260206004820152602060248201527f4f776e61626c653a2063616c6c6572206973206e6f7420746865206f776e65726044820152fd5b81810292918115918404141715610f7957565b634e487b7160e01b600052601160045260246000fd5b91908203918211610f7957565b91908201809211610f7957565b600260005414610fba576002600055565b60405162461bcd60e51b815260206004820152601f60248201527f5265656e7472616e637947756172643a207265656e7472616e742063616c6c006044820152606490fd5b60405163a9059cbb60e01b60208201526001600160a01b039092166024830152604480830193909352918152608081019167ffffffffffffffff8311828410176107315761104f92604052611069565b565b9081602091031261019c5751801515810361019c5790565b60408051908101916001600160a01b031667ffffffffffffffff831182841017610731576110d9926040526000806020958685527f5361666545524332303a206c6f772d6c6576656c2063616c6c206661696c656487860152868151910182855af16110d3611161565b916111ac565b805190828215928315611149575b505050156110f25750565b6084906040519062461bcd60e51b82526004820152602a60248201527f5361666545524332303a204552433230206f7065726174696f6e20646964206e6044820152691bdd081cdd58d8d9595960b21b6064820152fd5b6111599350820181019101611051565b3882816110e7565b3d156111a75767ffffffffffffffff903d8281116107315760405192601f8201601f19908116603f01168401908111848210176107315760405282523d6000602084013e565b606090565b9192901561120e57508151156111c0575090565b3b156111c95790565b60405162461bcd60e51b815260206004820152601d60248201527f416464726573733a2063616c6c20746f206e6f6e2d636f6e74726163740000006044820152606490fd5b8251909150156112215750805190602001fd5b6040519062461bcd60e51b82528160208060048301528251908160248401526000935b828510611267575050604492506000838284010152601f80199101168101030190fd5b8481018201518686016044015293810193859350611244565b9060405190602082019283526040820152604081526060810181811067ffffffffffffffff8211176107315760405251902090565b6006546000198101908111610f79576112cd90610ed7565b90549060031b1c90565b6305f5e1008114908115611312575b8115611303575b81156112f7575090565b64174876e80091501490565b6402540be400811491506112ed565b633b9aca00811491506112e656fea2646970667358221220b0c84ba9c2d2620cb3bea29bc002f90e33faf13d81f6f5b6a3763f652aea438e64736f6c63430008140033","opcodes":"PUSH1 0xA0 CALLVALUE PUSH3 0x2C4 JUMPI PUSH1 0x1F PUSH3 0x16C9 CODESIZE DUP2 SWAP1 SUB SWAP2 DUP3 ADD PUSH1 0x1F NOT AND DUP4 ADD SWAP2 PUSH1 0x1 PUSH1 0x1 PUSH1 0x40 SHL SUB DUP4 GT DUP5 DUP5 LT OR PUSH3 0x2C9 JUMPI DUP1 DUP5 SWAP3 PUSH1 0x60 SWAP5 PUSH1 0x40 MSTORE DUP4 CODECOPY DUP2 ADD SUB SLT PUSH3 0x2C4 JUMPI PUSH3 0x4D DUP2 PUSH3 0x2DF JUMP JUMPDEST SWAP1 PUSH1 0x20 PUSH3 0x6B PUSH1 0x40 PUSH3 0x63 DUP4 DUP6 ADD PUSH3 0x2DF JUMP JUMPDEST SWAP4 ADD PUSH3 0x2DF JUMP JUMPDEST SWAP3 PUSH1 0x1 SWAP4 PUSH1 0x0 SWAP4 DUP6 DUP6 SSTORE PUSH3 0x80 CALLER PUSH3 0x2F4 JUMP JUMPDEST PUSH1 0xA PUSH1 0xC DUP2 SWAP1 SSTORE PUSH1 0xD SSTORE PUSH1 0x1 PUSH1 0x1 PUSH1 0xA0 SHL SUB SWAP3 DUP4 AND SWAP3 DUP4 ISZERO PUSH3 0x2B2 JUMPI PUSH3 0xCA SWAP4 PUSH1 0x80 MSTORE DUP1 PUSH1 0x1 DUP1 PUSH1 0xA0 SHL SUB NOT SWAP3 AND DUP3 PUSH1 0x2 SLOAD AND OR PUSH1 0x2 SSTORE DUP3 AND SWAP1 PUSH1 0xE SLOAD AND OR PUSH1 0xE SSTORE PUSH3 0x2F4 JUMP JUMPDEST PUSH1 0x4 DUP1 SLOAD PUSH9 0x10000000000000000 SWAP1 DUP5 SWAP1 DUP3 DUP2 LT ISZERO PUSH3 0x29F JUMPI DUP7 DUP2 ADD DUP1 DUP6 SSTORE DUP2 LT ISZERO PUSH3 0x28C JUMPI DUP6 SWAP1 DUP5 DUP3 MSTORE DUP6 DUP3 KECCAK256 ADD SSTORE PUSH1 0x5 DUP1 SLOAD DUP4 DUP2 LT ISZERO PUSH3 0x279 JUMPI DUP8 DUP2 ADD DUP1 DUP4 SSTORE DUP2 LT ISZERO PUSH3 0x266 JUMPI DUP2 DUP8 MSTORE DUP6 DUP8 KECCAK256 ADD DUP7 SWAP1 SSTORE DUP7 SWAP2 SWAP1 JUMPDEST PUSH1 0x14 DUP4 LT PUSH3 0x1C6 JUMPI POP PUSH3 0x13C SWAP2 POP DUP1 PUSH3 0x33D JUMP JUMPDEST SWAP2 PUSH1 0x6 SLOAD SWAP2 DUP3 LT ISZERO PUSH3 0x1B3 JUMPI DUP6 DUP3 ADD DUP1 PUSH1 0x6 SSTORE DUP3 LT ISZERO PUSH3 0x1A0 JUMPI POP SWAP2 DUP2 PUSH1 0x7 SWAP3 DUP6 SWAP5 PUSH1 0x6 PUSH1 0x40 SWAP8 MSTORE DUP4 DUP7 KECCAK256 ADD SSTORE DUP4 MSTORE MSTORE KECCAK256 SWAP1 PUSH1 0xFF NOT DUP3 SLOAD AND OR SWAP1 SSTORE PUSH1 0x40 MLOAD PUSH2 0x1356 SWAP1 DUP2 PUSH3 0x373 DUP3 CODECOPY PUSH1 0x80 MLOAD DUP2 DUP2 DUP2 PUSH2 0x1D5 ADD MSTORE DUP2 DUP2 PUSH2 0x53D ADD MSTORE PUSH2 0xA92 ADD MSTORE RETURN JUMPDEST PUSH4 0x4E487B71 PUSH1 0xE0 SHL DUP6 MSTORE PUSH1 0x32 SWAP1 MSTORE PUSH1 0x24 DUP5 REVERT JUMPDEST PUSH4 0x4E487B71 PUSH1 0xE0 SHL DUP6 MSTORE PUSH1 0x41 SWAP1 MSTORE PUSH1 0x24 DUP5 REVERT JUMPDEST SWAP1 DUP1 PUSH3 0x1D3 SWAP2 PUSH3 0x33D JUMP JUMPDEST SWAP2 DUP3 DUP6 SLOAD DUP6 DUP2 LT ISZERO PUSH3 0x253 JUMPI DUP10 DUP2 ADD DUP1 DUP9 SSTORE DUP2 LT ISZERO PUSH3 0x240 JUMPI DUP2 SWAP1 DUP8 DUP11 MSTORE DUP9 DUP11 KECCAK256 ADD SSTORE DUP3 SLOAD DUP6 DUP2 LT ISZERO PUSH3 0x253 JUMPI DUP10 DUP2 ADD DUP1 DUP6 SSTORE DUP2 LT ISZERO PUSH3 0x240 JUMPI DUP4 DUP10 MSTORE DUP8 DUP10 KECCAK256 ADD SSTORE PUSH1 0x0 NOT DUP2 EQ PUSH3 0x22D JUMPI DUP8 ADD SWAP2 SWAP1 PUSH3 0x125 JUMP JUMPDEST PUSH4 0x4E487B71 PUSH1 0xE0 SHL DUP8 MSTORE PUSH1 0x11 DUP6 MSTORE PUSH1 0x24 DUP8 REVERT JUMPDEST PUSH4 0x4E487B71 PUSH1 0xE0 SHL DUP10 MSTORE PUSH1 0x32 DUP8 MSTORE PUSH1 0x24 DUP10 REVERT JUMPDEST PUSH4 0x4E487B71 PUSH1 0xE0 SHL DUP10 MSTORE PUSH1 0x41 DUP8 MSTORE PUSH1 0x24 DUP10 REVERT JUMPDEST PUSH4 0x4E487B71 PUSH1 0xE0 SHL DUP8 MSTORE PUSH1 0x32 DUP6 MSTORE PUSH1 0x24 DUP8 REVERT JUMPDEST PUSH4 0x4E487B71 PUSH1 0xE0 SHL DUP8 MSTORE PUSH1 0x41 DUP6 MSTORE PUSH1 0x24 DUP8 REVERT JUMPDEST PUSH4 0x4E487B71 PUSH1 0xE0 SHL DUP7 MSTORE PUSH1 0x32 DUP5 MSTORE PUSH1 0x24 DUP7 REVERT JUMPDEST PUSH4 0x4E487B71 PUSH1 0xE0 SHL DUP7 MSTORE PUSH1 0x41 DUP5 MSTORE PUSH1 0x24 DUP7 REVERT JUMPDEST PUSH1 0x40 MLOAD PUSH4 0xD92E233D PUSH1 0xE0 SHL DUP2 MSTORE PUSH1 0x4 SWAP1 REVERT JUMPDEST PUSH1 0x0 DUP1 REVERT JUMPDEST PUSH4 0x4E487B71 PUSH1 0xE0 SHL PUSH1 0x0 MSTORE PUSH1 0x41 PUSH1 0x4 MSTORE PUSH1 0x24 PUSH1 0x0 REVERT JUMPDEST MLOAD SWAP1 PUSH1 0x1 PUSH1 0x1 PUSH1 0xA0 SHL SUB DUP3 AND DUP3 SUB PUSH3 0x2C4 JUMPI JUMP JUMPDEST PUSH1 0x1 DUP1 SLOAD PUSH1 0x1 PUSH1 0x1 PUSH1 0xA0 SHL SUB SWAP3 DUP4 AND PUSH1 0x1 PUSH1 0x1 PUSH1 0xA0 SHL SUB NOT DUP3 AND DUP2 OR SWAP1 SWAP3 SSTORE SWAP1 SWAP2 AND PUSH32 0x8BE0079C531659141344CD1FD0A4F28419497F9722A3DAAFE3B4186F6B6457E0 PUSH1 0x0 DUP1 LOG3 JUMP JUMPDEST PUSH1 0x40 DUP1 MLOAD PUSH1 0x20 DUP2 ADD SWAP3 DUP4 MSTORE DUP1 DUP3 ADD SWAP4 SWAP1 SWAP4 MSTORE DUP3 MSTORE SWAP1 PUSH1 0x60 DUP2 ADD PUSH1 0x1 PUSH1 0x1 PUSH1 0x40 SHL SUB DUP2 GT DUP3 DUP3 LT OR PUSH3 0x2C9 JUMPI PUSH1 0x40 MSTORE MLOAD SWAP1 KECCAK256 SWAP1 JUMP INVALID PUSH1 0x80 DUP1 PUSH1 0x40 MSTORE PUSH1 0x4 CALLDATASIZE LT ISZERO PUSH2 0x13 JUMPI PUSH1 0x0 DUP1 REVERT JUMPDEST PUSH1 0x0 CALLDATALOAD PUSH1 0xE0 SHR SWAP1 DUP2 PUSH3 0xBB56C5 EQ PUSH2 0xE20 JUMPI POP DUP1 PUSH4 0xB78F9C0 EQ PUSH2 0xDAA JUMPI DUP1 PUSH4 0x1B4C52C9 EQ PUSH2 0xD82 JUMPI DUP1 PUSH4 0x1DE26E16 EQ PUSH2 0xA2F JUMPI DUP1 PUSH4 0x2997E86B EQ PUSH2 0x9FE JUMPI DUP1 PUSH4 0x2B7AC3F3 EQ PUSH2 0x9D5 JUMPI DUP1 PUSH4 0x46904840 EQ PUSH2 0x9AC JUMPI DUP1 PUSH4 0x4B319713 EQ PUSH2 0x98E JUMPI DUP1 PUSH4 0x5437988D EQ PUSH2 0x94B JUMPI DUP1 PUSH4 0x5CA1E165 EQ PUSH2 0x928 JUMPI DUP1 PUSH4 0x66DD97AB EQ PUSH2 0x8D7 JUMPI DUP1 PUSH4 0x67126B43 EQ PUSH2 0x908 JUMPI DUP1 PUSH4 0x6D9833E3 EQ PUSH2 0x8D7 JUMPI DUP1 PUSH4 0x715018A6 EQ PUSH2 0x87A JUMPI DUP1 PUSH4 0x7ACA2B59 EQ PUSH2 0x85C JUMPI DUP1 PUSH4 0x839DF945 EQ PUSH2 0x82B JUMPI DUP1 PUSH4 0x8CFF8F3D EQ PUSH2 0x80C JUMPI DUP1 PUSH4 0x8DA5CB5B EQ PUSH2 0x7E3 JUMPI DUP1 PUSH4 0x8DC3395A EQ PUSH2 0x7C3 JUMPI DUP1 PUSH4 0xA6A12AC4 EQ PUSH2 0x7A7 JUMPI DUP1 PUSH4 0xAA93018E EQ PUSH2 0x42B JUMPI DUP1 PUSH4 0xAB879827 EQ PUSH2 0x40D JUMPI DUP1 PUSH4 0xC2B40AE4 EQ PUSH2 0x3E4 JUMPI DUP1 PUSH4 0xC59D4847 EQ PUSH2 0x3A8 JUMPI DUP1 PUSH4 0xCD87A3B4 EQ PUSH2 0x38C JUMPI DUP1 PUSH4 0xE74B981B EQ PUSH2 0x32D JUMPI DUP1 PUSH4 0xE8295588 EQ PUSH2 0x304 JUMPI DUP1 PUSH4 0xF178E47C EQ PUSH2 0x2CD JUMPI DUP1 PUSH4 0xF2FDE38B EQ PUSH2 0x204 JUMPI DUP1 PUSH4 0xFC0C546A EQ PUSH2 0x1BF JUMPI DUP1 PUSH4 0xFC7E9C6F EQ PUSH2 0x1A1 JUMPI PUSH4 0xFF50ABDC EQ PUSH2 0x17E JUMPI PUSH1 0x0 DUP1 REVERT JUMPDEST CALLVALUE PUSH2 0x19C JUMPI PUSH1 0x0 CALLDATASIZE PUSH1 0x3 NOT ADD SLT PUSH2 0x19C JUMPI PUSH1 0x20 PUSH1 0xA SLOAD PUSH1 0x40 MLOAD SWAP1 DUP2 MSTORE RETURN JUMPDEST PUSH1 0x0 DUP1 REVERT JUMPDEST CALLVALUE PUSH2 0x19C JUMPI PUSH1 0x0 CALLDATASIZE PUSH1 0x3 NOT ADD SLT PUSH2 0x19C JUMPI PUSH1 0x20 PUSH1 0x3 SLOAD PUSH1 0x40 MLOAD SWAP1 DUP2 MSTORE RETURN JUMPDEST CALLVALUE PUSH2 0x19C JUMPI PUSH1 0x0 CALLDATASIZE PUSH1 0x3 NOT ADD SLT PUSH2 0x19C JUMPI PUSH1 0x40 MLOAD PUSH32 0x0 PUSH1 0x1 PUSH1 0x1 PUSH1 0xA0 SHL SUB AND DUP2 MSTORE PUSH1 0x20 SWAP1 RETURN JUMPDEST CALLVALUE PUSH2 0x19C JUMPI PUSH1 0x20 CALLDATASIZE PUSH1 0x3 NOT ADD SLT PUSH2 0x19C JUMPI PUSH2 0x21D PUSH2 0xE3D JUMP JUMPDEST PUSH2 0x225 PUSH2 0xF0E JUMP JUMPDEST PUSH1 0x1 PUSH1 0x1 PUSH1 0xA0 SHL SUB SWAP1 DUP2 AND SWAP1 DUP2 ISZERO PUSH2 0x279 JUMPI PUSH1 0x1 SLOAD DUP3 PUSH12 0xFFFFFFFFFFFFFFFFFFFFFFFF PUSH1 0xA0 SHL DUP3 AND OR PUSH1 0x1 SSTORE AND PUSH32 0x8BE0079C531659141344CD1FD0A4F28419497F9722A3DAAFE3B4186F6B6457E0 PUSH1 0x0 DUP1 LOG3 STOP JUMPDEST PUSH1 0x40 MLOAD PUSH3 0x461BCD PUSH1 0xE5 SHL DUP2 MSTORE PUSH1 0x20 PUSH1 0x4 DUP3 ADD MSTORE PUSH1 0x26 PUSH1 0x24 DUP3 ADD MSTORE PUSH32 0x4F776E61626C653A206E6577206F776E657220697320746865207A65726F2061 PUSH1 0x44 DUP3 ADD MSTORE PUSH6 0x646472657373 PUSH1 0xD0 SHL PUSH1 0x64 DUP3 ADD MSTORE PUSH1 0x84 SWAP1 REVERT JUMPDEST CALLVALUE PUSH2 0x19C JUMPI PUSH1 0x20 CALLDATASIZE PUSH1 0x3 NOT ADD SLT PUSH2 0x19C JUMPI PUSH1 0x4 CALLDATALOAD PUSH1 0x5 SLOAD DUP2 LT ISZERO PUSH2 0x19C JUMPI PUSH2 0x2F6 PUSH1 0x20 SWAP2 PUSH2 0xE53 JUMP JUMPDEST SWAP1 SLOAD PUSH1 0x40 MLOAD SWAP2 PUSH1 0x3 SHL SHR DUP2 MSTORE RETURN JUMPDEST CALLVALUE PUSH2 0x19C JUMPI PUSH1 0x20 CALLDATASIZE PUSH1 0x3 NOT ADD SLT PUSH2 0x19C JUMPI PUSH1 0x4 CALLDATALOAD PUSH1 0x4 SLOAD DUP2 LT ISZERO PUSH2 0x19C JUMPI PUSH2 0x2F6 PUSH1 0x20 SWAP2 PUSH2 0xEA0 JUMP JUMPDEST CALLVALUE PUSH2 0x19C JUMPI PUSH1 0x20 CALLDATASIZE PUSH1 0x3 NOT ADD SLT PUSH2 0x19C JUMPI PUSH2 0x346 PUSH2 0xE3D JUMP JUMPDEST PUSH2 0x34E PUSH2 0xF0E JUMP JUMPDEST PUSH1 0x1 PUSH1 0x1 PUSH1 0xA0 SHL SUB AND DUP1 ISZERO PUSH2 0x37A JUMPI PUSH12 0xFFFFFFFFFFFFFFFFFFFFFFFF PUSH1 0xA0 SHL PUSH1 0xE SLOAD AND OR PUSH1 0xE SSTORE PUSH1 0x0 DUP1 RETURN JUMPDEST PUSH1 0x40 MLOAD PUSH4 0xD92E233D PUSH1 0xE0 SHL DUP2 MSTORE PUSH1 0x4 SWAP1 REVERT JUMPDEST CALLVALUE PUSH2 0x19C JUMPI PUSH1 0x0 CALLDATASIZE PUSH1 0x3 NOT ADD SLT PUSH2 0x19C JUMPI PUSH1 0x20 PUSH1 0x40 MLOAD PUSH1 0x64 DUP2 MSTORE RETURN JUMPDEST CALLVALUE PUSH2 0x19C JUMPI PUSH1 0x0 CALLDATASIZE PUSH1 0x3 NOT ADD SLT PUSH2 0x19C JUMPI PUSH1 0x80 PUSH1 0xA SLOAD PUSH1 0xB SLOAD PUSH1 0x3 SLOAD PUSH2 0x3CC PUSH2 0x12B5 JUMP JUMPDEST SWAP2 PUSH1 0x40 MLOAD SWAP4 DUP5 MSTORE PUSH1 0x20 DUP5 ADD MSTORE PUSH1 0x40 DUP4 ADD MSTORE PUSH1 0x60 DUP3 ADD MSTORE RETURN JUMPDEST CALLVALUE PUSH2 0x19C JUMPI PUSH1 0x20 CALLDATASIZE PUSH1 0x3 NOT ADD SLT PUSH2 0x19C JUMPI PUSH1 0x4 CALLDATALOAD PUSH1 0x6 SLOAD DUP2 LT ISZERO PUSH2 0x19C JUMPI PUSH2 0x2F6 PUSH1 0x20 SWAP2 PUSH2 0xED7 JUMP JUMPDEST CALLVALUE PUSH2 0x19C JUMPI PUSH1 0x0 CALLDATASIZE PUSH1 0x3 NOT ADD SLT PUSH2 0x19C JUMPI PUSH1 0x20 PUSH1 0xC SLOAD PUSH1 0x40 MLOAD SWAP1 DUP2 MSTORE RETURN JUMPDEST CALLVALUE PUSH2 0x19C JUMPI PUSH1 0xA0 CALLDATASIZE PUSH1 0x3 NOT ADD SLT PUSH2 0x19C JUMPI PUSH1 0x4 CALLDATALOAD PUSH8 0xFFFFFFFFFFFFFFFF DUP2 GT PUSH2 0x19C JUMPI CALLDATASIZE PUSH1 0x23 DUP3 ADD SLT ISZERO PUSH2 0x19C JUMPI DUP1 PUSH1 0x4 ADD CALLDATALOAD PUSH8 0xFFFFFFFFFFFFFFFF DUP2 GT PUSH2 0x19C JUMPI DUP2 ADD SWAP1 PUSH1 0x24 DUP3 ADD SWAP2 CALLDATASIZE DUP4 GT PUSH2 0x19C JUMPI PUSH1 0x64 CALLDATALOAD PUSH1 0x1 PUSH1 0x1 PUSH1 0xA0 SHL SUB DUP2 AND SWAP1 SUB PUSH2 0x19C JUMPI PUSH2 0x497 PUSH2 0xFA9 JUMP JUMPDEST PUSH1 0x44 CALLDATALOAD PUSH1 0x0 MSTORE PUSH1 0x9 PUSH1 0x20 MSTORE PUSH1 0xFF PUSH1 0x40 PUSH1 0x0 KECCAK256 SLOAD AND PUSH2 0x795 JUMPI PUSH1 0x24 CALLDATALOAD SWAP3 DUP4 PUSH1 0x0 MSTORE PUSH1 0x7 PUSH1 0x20 MSTORE PUSH1 0xFF PUSH1 0x40 PUSH1 0x0 KECCAK256 SLOAD AND ISZERO PUSH2 0x783 JUMPI PUSH1 0x64 CALLDATALOAD PUSH1 0x1 PUSH1 0x1 PUSH1 0xA0 SHL SUB AND ISZERO PUSH2 0x37A JUMPI PUSH1 0x2 SLOAD PUSH1 0x1 PUSH1 0x1 PUSH1 0xA0 SHL SUB AND SWAP2 DUP3 PUSH2 0x5D8 JUMPI JUMPDEST POP POP POP POP POP PUSH1 0x44 CALLDATALOAD PUSH1 0x0 MSTORE PUSH1 0x9 PUSH1 0x20 MSTORE PUSH1 0x40 PUSH1 0x0 KECCAK256 PUSH1 0x1 PUSH1 0xFF NOT DUP3 SLOAD AND OR SWAP1 SSTORE PUSH1 0xD SLOAD PUSH2 0x2710 PUSH2 0x521 PUSH1 0x84 CALLDATALOAD SWAP3 DUP4 PUSH2 0xF66 JUMP JUMPDEST DIV PUSH2 0x538 PUSH2 0x52F DUP3 DUP5 PUSH2 0xF8F JUMP JUMPDEST SWAP3 PUSH1 0xB SLOAD PUSH2 0xF9C JUMP JUMPDEST PUSH1 0xB SSTORE PUSH32 0x0 SWAP1 PUSH2 0x56A DUP4 PUSH1 0x64 CALLDATALOAD DUP5 PUSH2 0xFFF JUMP JUMPDEST DUP1 PUSH2 0x5B9 JUMPI JUMPDEST PUSH1 0x40 DUP1 MLOAD DUP5 DUP2 MSTORE TIMESTAMP PUSH1 0x20 DUP3 ADD MSTORE PUSH1 0x64 CALLDATALOAD PUSH1 0x1 PUSH1 0x1 PUSH1 0xA0 SHL SUB AND SWAP2 PUSH1 0x44 CALLDATALOAD SWAP2 PUSH32 0x2865D567636CFB8B64E349AF19627E3EF92DC0C2CABFE3B1FD3E659425938E8F SWAP2 SWAP1 LOG3 PUSH1 0x1 PUSH1 0x0 SSTORE STOP JUMPDEST PUSH1 0xE SLOAD PUSH2 0x5D1 SWAP3 PUSH1 0x1 PUSH1 0x1 PUSH1 0xA0 SHL SUB SWAP1 SWAP2 AND SWAP1 PUSH2 0xFFF JUMP JUMPDEST DUP2 DUP1 PUSH2 0x570 JUMP JUMPDEST DUP4 SWAP1 PUSH2 0x100 SWAP5 DUP6 SWAP2 SUB SLT PUSH2 0x19C JUMPI DUP2 PUSH1 0x43 DUP3 ADD SLT ISZERO PUSH2 0x19C JUMPI PUSH1 0x40 MLOAD SWAP4 DUP5 ADD DUP5 DUP2 LT PUSH8 0xFFFFFFFFFFFFFFFF DUP3 GT OR PUSH2 0x731 JUMPI PUSH1 0x40 MSTORE DUP4 SWAP1 PUSH2 0x124 DUP2 ADD SWAP3 DUP4 GT PUSH2 0x19C JUMPI PUSH1 0x24 ADD SWAP1 JUMPDEST DUP3 DUP3 LT PUSH2 0x773 JUMPI POP POP POP PUSH1 0x40 MLOAD SWAP3 PUSH1 0x80 DUP5 ADD DUP5 DUP2 LT PUSH8 0xFFFFFFFFFFFFFFFF DUP3 GT OR PUSH2 0x731 JUMPI PUSH1 0x40 MSTORE DUP4 MSTORE PUSH1 0x44 CALLDATALOAD PUSH1 0x20 DUP5 ADD MSTORE PUSH1 0x84 CALLDATALOAD PUSH1 0x40 DUP5 ADD MSTORE PUSH1 0x1 DUP1 PUSH1 0xA0 SHL SUB PUSH1 0x64 CALLDATALOAD AND PUSH1 0x60 DUP5 ADD MSTORE PUSH1 0x40 MLOAD SWAP3 PUSH1 0x20 DUP5 ADD SWAP3 PUSH4 0x23572511 PUSH1 0xE0 SHL DUP5 MSTORE PUSH1 0x24 DUP6 ADD PUSH1 0x0 SWAP1 JUMPDEST PUSH1 0x8 DUP3 LT PUSH2 0x75D JUMPI POP POP POP PUSH2 0x124 DUP5 ADD PUSH1 0x0 SWAP1 JUMPDEST PUSH1 0x4 DUP3 LT PUSH2 0x747 JUMPI POP POP POP PUSH2 0x184 DUP4 MSTORE PUSH2 0x1C0 DUP4 ADD SWAP2 DUP4 DUP4 LT PUSH8 0xFFFFFFFFFFFFFFFF DUP5 GT OR PUSH2 0x731 JUMPI PUSH1 0x0 SWAP4 DUP5 SWAP4 PUSH1 0x40 MSTORE MLOAD SWAP2 GAS STATICCALL PUSH2 0x6D6 PUSH2 0x1161 JUMP JUMPDEST SWAP1 ISZERO SWAP1 DUP2 ISZERO PUSH2 0x701 JUMPI JUMPDEST POP PUSH2 0x6EF JUMPI DUP1 DUP1 DUP1 DUP1 DUP1 PUSH2 0x4EE JUMP JUMPDEST PUSH1 0x40 MLOAD PUSH4 0x9BDE339 PUSH1 0xE0 SHL DUP2 MSTORE PUSH1 0x4 SWAP1 REVERT JUMPDEST DUP1 MLOAD DUP1 ISZERO ISZERO SWAP3 POP DUP3 PUSH2 0x716 JUMPI JUMPDEST POP POP DUP2 PUSH2 0x6E0 JUMP JUMPDEST PUSH2 0x729 SWAP3 POP PUSH1 0x20 DUP1 SWAP2 DUP4 ADD ADD SWAP2 ADD PUSH2 0x1051 JUMP JUMPDEST ISZERO DUP2 DUP1 PUSH2 0x70E JUMP JUMPDEST PUSH4 0x4E487B71 PUSH1 0xE0 SHL PUSH1 0x0 MSTORE PUSH1 0x41 PUSH1 0x4 MSTORE PUSH1 0x24 PUSH1 0x0 REVERT JUMPDEST PUSH1 0x20 DUP1 PUSH1 0x1 SWAP3 DUP6 MLOAD DUP2 MSTORE ADD SWAP4 ADD SWAP2 ADD SWAP1 SWAP2 PUSH2 0x699 JUMP JUMPDEST PUSH1 0x20 DUP1 PUSH1 0x1 SWAP3 DUP6 MLOAD DUP2 MSTORE ADD SWAP4 ADD SWAP2 ADD SWAP1 SWAP2 PUSH2 0x685 JUMP JUMPDEST DUP2 CALLDATALOAD DUP2 MSTORE PUSH1 0x20 SWAP2 DUP3 ADD SWAP2 ADD PUSH2 0x620 JUMP JUMPDEST PUSH1 0x40 MLOAD PUSH4 0x504570E3 PUSH1 0xE0 SHL DUP2 MSTORE PUSH1 0x4 SWAP1 REVERT JUMPDEST PUSH1 0x40 MLOAD PUSH4 0x65695701 PUSH1 0xE1 SHL DUP2 MSTORE PUSH1 0x4 SWAP1 REVERT JUMPDEST CALLVALUE PUSH2 0x19C JUMPI PUSH1 0x0 CALLDATASIZE PUSH1 0x3 NOT ADD SLT PUSH2 0x19C JUMPI PUSH1 0x20 PUSH1 0x40 MLOAD PUSH1 0x14 DUP2 MSTORE RETURN JUMPDEST CALLVALUE PUSH2 0x19C JUMPI PUSH1 0x0 CALLDATASIZE PUSH1 0x3 NOT ADD SLT PUSH2 0x19C JUMPI PUSH1 0x20 PUSH1 0x40 MLOAD PUSH5 0x2540BE400 DUP2 MSTORE RETURN JUMPDEST CALLVALUE PUSH2 0x19C JUMPI PUSH1 0x0 CALLDATASIZE PUSH1 0x3 NOT ADD SLT PUSH2 0x19C JUMPI PUSH1 0x1 SLOAD PUSH1 0x40 MLOAD PUSH1 0x1 PUSH1 0x1 PUSH1 0xA0 SHL SUB SWAP1 SWAP2 AND DUP2 MSTORE PUSH1 0x20 SWAP1 RETURN JUMPDEST CALLVALUE PUSH2 0x19C JUMPI PUSH1 0x0 CALLDATASIZE PUSH1 0x3 NOT ADD SLT PUSH2 0x19C JUMPI PUSH1 0x20 PUSH1 0x40 MLOAD PUSH4 0x5F5E100 DUP2 MSTORE RETURN JUMPDEST CALLVALUE PUSH2 0x19C JUMPI PUSH1 0x20 CALLDATASIZE PUSH1 0x3 NOT ADD SLT PUSH2 0x19C JUMPI PUSH1 0x4 CALLDATALOAD PUSH1 0x0 MSTORE PUSH1 0x8 PUSH1 0x20 MSTORE PUSH1 0x20 PUSH1 0xFF PUSH1 0x40 PUSH1 0x0 KECCAK256 SLOAD AND PUSH1 0x40 MLOAD SWAP1 ISZERO ISZERO DUP2 MSTORE RETURN JUMPDEST CALLVALUE PUSH2 0x19C JUMPI PUSH1 0x0 CALLDATASIZE PUSH1 0x3 NOT ADD SLT PUSH2 0x19C JUMPI PUSH1 0x20 PUSH1 0xD SLOAD PUSH1 0x40 MLOAD SWAP1 DUP2 MSTORE RETURN JUMPDEST CALLVALUE PUSH2 0x19C JUMPI PUSH1 0x0 CALLDATASIZE PUSH1 0x3 NOT ADD SLT PUSH2 0x19C JUMPI PUSH2 0x893 PUSH2 0xF0E JUMP JUMPDEST PUSH1 0x1 DUP1 SLOAD PUSH1 0x1 PUSH1 0x1 PUSH1 0xA0 SHL SUB NOT DUP2 AND SWAP1 SWAP2 SSTORE PUSH1 0x0 SWAP1 PUSH1 0x1 PUSH1 0x1 PUSH1 0xA0 SHL SUB AND PUSH32 0x8BE0079C531659141344CD1FD0A4F28419497F9722A3DAAFE3B4186F6B6457E0 DUP3 DUP1 LOG3 STOP JUMPDEST CALLVALUE PUSH2 0x19C JUMPI PUSH1 0x20 CALLDATASIZE PUSH1 0x3 NOT ADD SLT PUSH2 0x19C JUMPI PUSH1 0x4 CALLDATALOAD PUSH1 0x0 MSTORE PUSH1 0x7 PUSH1 0x20 MSTORE PUSH1 0x20 PUSH1 0xFF PUSH1 0x40 PUSH1 0x0 KECCAK256 SLOAD AND PUSH1 0x40 MLOAD SWAP1 ISZERO ISZERO DUP2 MSTORE RETURN JUMPDEST CALLVALUE PUSH2 0x19C JUMPI PUSH1 0x0 CALLDATASIZE PUSH1 0x3 NOT ADD SLT PUSH2 0x19C JUMPI PUSH1 0x20 PUSH1 0x40 MLOAD PUSH5 0x174876E800 DUP2 MSTORE RETURN JUMPDEST CALLVALUE PUSH2 0x19C JUMPI PUSH1 0x0 CALLDATASIZE PUSH1 0x3 NOT ADD SLT PUSH2 0x19C JUMPI PUSH1 0x20 PUSH2 0x943 PUSH2 0x12B5 JUMP JUMPDEST PUSH1 0x40 MLOAD SWAP1 DUP2 MSTORE RETURN JUMPDEST CALLVALUE PUSH2 0x19C JUMPI PUSH1 0x20 CALLDATASIZE PUSH1 0x3 NOT ADD SLT PUSH2 0x19C JUMPI PUSH2 0x964 PUSH2 0xE3D JUMP JUMPDEST PUSH2 0x96C PUSH2 0xF0E JUMP JUMPDEST PUSH1 0x2 DUP1 SLOAD PUSH1 0x1 PUSH1 0x1 PUSH1 0xA0 SHL SUB NOT AND PUSH1 0x1 PUSH1 0x1 PUSH1 0xA0 SHL SUB SWAP3 SWAP1 SWAP3 AND SWAP2 SWAP1 SWAP2 OR SWAP1 SSTORE STOP JUMPDEST CALLVALUE PUSH2 0x19C JUMPI PUSH1 0x0 CALLDATASIZE PUSH1 0x3 NOT ADD SLT PUSH2 0x19C JUMPI PUSH1 0x20 PUSH1 0xB SLOAD PUSH1 0x40 MLOAD SWAP1 DUP2 MSTORE RETURN JUMPDEST CALLVALUE PUSH2 0x19C JUMPI PUSH1 0x0 CALLDATASIZE PUSH1 0x3 NOT ADD SLT PUSH2 0x19C JUMPI PUSH1 0xE SLOAD PUSH1 0x40 MLOAD PUSH1 0x1 PUSH1 0x1 PUSH1 0xA0 SHL SUB SWAP1 SWAP2 AND DUP2 MSTORE PUSH1 0x20 SWAP1 RETURN JUMPDEST CALLVALUE PUSH2 0x19C JUMPI PUSH1 0x0 CALLDATASIZE PUSH1 0x3 NOT ADD SLT PUSH2 0x19C JUMPI PUSH1 0x2 SLOAD PUSH1 0x40 MLOAD PUSH1 0x1 PUSH1 0x1 PUSH1 0xA0 SHL SUB SWAP1 SWAP2 AND DUP2 MSTORE PUSH1 0x20 SWAP1 RETURN JUMPDEST CALLVALUE PUSH2 0x19C JUMPI PUSH1 0x20 CALLDATASIZE PUSH1 0x3 NOT ADD SLT PUSH2 0x19C JUMPI PUSH1 0x4 CALLDATALOAD PUSH1 0x0 MSTORE PUSH1 0x9 PUSH1 0x20 MSTORE PUSH1 0x20 PUSH1 0xFF PUSH1 0x40 PUSH1 0x0 KECCAK256 SLOAD AND PUSH1 0x40 MLOAD SWAP1 ISZERO ISZERO DUP2 MSTORE RETURN JUMPDEST CALLVALUE PUSH2 0x19C JUMPI PUSH1 0x40 CALLDATASIZE PUSH1 0x3 NOT ADD SLT PUSH2 0x19C JUMPI PUSH1 0x24 PUSH1 0x4 CALLDATALOAD DUP2 CALLDATALOAD PUSH2 0xA4F PUSH2 0xFA9 JUMP JUMPDEST PUSH2 0xA58 DUP2 PUSH2 0x12D7 JUMP JUMPDEST ISZERO PUSH2 0xD70 JUMPI DUP2 PUSH1 0x0 MSTORE PUSH1 0x20 PUSH1 0x8 DUP2 MSTORE PUSH1 0xFF PUSH1 0x40 PUSH1 0x0 KECCAK256 SLOAD AND PUSH2 0xD5E JUMPI PUSH2 0x2710 PUSH2 0xA83 PUSH1 0xC SLOAD DUP5 PUSH2 0xF66 JUMP JUMPDEST DIV SWAP2 PUSH2 0xA8F DUP4 DUP3 PUSH2 0xF8F JUMP JUMPDEST SWAP3 PUSH32 0x0 SWAP2 PUSH1 0x40 MLOAD SWAP1 PUSH4 0x23B872DD PUSH1 0xE0 SHL DUP6 DUP4 ADD MSTORE CALLER DUP9 DUP4 ADD MSTORE ADDRESS PUSH1 0x44 DUP4 ADD MSTORE PUSH1 0x64 DUP3 ADD MSTORE PUSH1 0x64 DUP2 MSTORE PUSH1 0xA0 DUP2 ADD SWAP1 DUP1 DUP3 LT PUSH8 0xFFFFFFFFFFFFFFFF DUP4 GT OR PUSH2 0xD49 JUMPI PUSH2 0xAFB SWAP2 PUSH1 0x40 MSTORE DUP4 PUSH2 0x1069 JUMP JUMPDEST DUP1 PUSH2 0xD2A JUMPI JUMPDEST POP POP PUSH1 0x3 DUP1 SLOAD SWAP5 PUSH3 0x100000 DUP7 LT ISZERO PUSH2 0xD18 JUMPI DUP5 SWAP1 PUSH1 0x0 DUP8 JUMPDEST PUSH1 0x14 DUP3 LT PUSH2 0xCB4 JUMPI POP POP PUSH1 0x6 SLOAD PUSH9 0x10000000000000000 DUP2 LT ISZERO PUSH2 0xC9F JUMPI DUP3 PUSH2 0xB4B DUP3 PUSH1 0x1 PUSH2 0xB64 SWAP5 ADD PUSH1 0x6 SSTORE PUSH2 0xED7 JUMP JUMPDEST SWAP1 SWAP2 SWAP1 DUP3 SLOAD SWAP1 PUSH1 0x3 SHL SWAP2 DUP3 SHL SWAP2 PUSH1 0x0 NOT SWAP1 SHL NOT AND OR SWAP1 SSTORE JUMP JUMPDEST DUP2 PUSH1 0x0 MSTORE PUSH1 0x7 DUP5 MSTORE PUSH1 0x40 PUSH1 0x0 KECCAK256 SWAP3 PUSH1 0xFF NOT SWAP4 PUSH1 0x1 DUP6 DUP3 SLOAD AND OR SWAP1 SSTORE PUSH1 0x6 SLOAD PUSH1 0x64 DUP2 GT PUSH2 0xC36 JUMPI JUMPDEST POP PUSH1 0x1 DUP9 ADD SWAP2 DUP3 DUP10 GT PUSH2 0xC22 JUMPI POP SWAP2 PUSH32 0x3D8083DA8E2218B3F5EBE30CDDDD9F649EEB4F898A728C4B40C2735839AB11A DUP6 DUP4 PUSH32 0xAEFEA07450EFAD478EBE2BFC47102612D416637DC1B8E0555B6F7507DF6C720C SWAP9 SWAP7 SWAP5 PUSH1 0x40 SWAP9 SWAP7 SSTORE DUP8 MLOAD SWAP1 DUP2 MSTORE LOG2 DUP6 PUSH1 0x0 MSTORE PUSH1 0x8 DUP3 MSTORE PUSH1 0x1 DUP5 PUSH1 0x0 KECCAK256 SWAP2 DUP3 SLOAD AND OR SWAP1 SSTORE PUSH2 0xC0D DUP3 PUSH1 0xA SLOAD PUSH2 0xF9C JUMP JUMPDEST PUSH1 0xA SSTORE DUP3 MLOAD SWAP2 DUP3 MSTORE TIMESTAMP SWAP1 DUP3 ADD MSTORE LOG3 PUSH1 0x1 PUSH1 0x0 SSTORE STOP JUMPDEST PUSH4 0x4E487B71 PUSH1 0xE0 SHL PUSH1 0x0 SWAP1 DUP2 MSTORE PUSH1 0x11 PUSH1 0x4 MSTORE REVERT JUMPDEST PUSH1 0x63 NOT DUP2 ADD SWAP1 DUP1 DUP3 GT PUSH2 0xC8A JUMPI PUSH1 0x64 NOT ADD SWAP1 DUP2 GT PUSH2 0xC75 JUMPI PUSH2 0xC57 SWAP1 PUSH2 0xED7 JUMP JUMPDEST SWAP1 SLOAD SWAP1 DUP3 SHL SHR PUSH1 0x0 MSTORE PUSH1 0x7 DUP6 MSTORE PUSH1 0x40 PUSH1 0x0 KECCAK256 DUP5 DUP2 SLOAD AND SWAP1 SSTORE DUP9 PUSH2 0xB8B JUMP JUMPDEST DUP3 PUSH4 0x4E487B71 PUSH1 0xE0 SHL PUSH1 0x0 MSTORE PUSH1 0x11 PUSH1 0x4 MSTORE PUSH1 0x0 REVERT JUMPDEST DUP4 PUSH4 0x4E487B71 PUSH1 0xE0 SHL PUSH1 0x0 MSTORE PUSH1 0x11 PUSH1 0x4 MSTORE PUSH1 0x0 REVERT JUMPDEST POP PUSH4 0x4E487B71 PUSH1 0xE0 SHL PUSH1 0x0 SWAP1 DUP2 MSTORE PUSH1 0x41 PUSH1 0x4 MSTORE REVERT JUMPDEST PUSH1 0x1 SWAP4 DUP2 DUP6 AND PUSH2 0xCFA JUMPI DUP1 PUSH2 0xCCF PUSH2 0xCE4 SWAP3 PUSH2 0xB4B DUP7 PUSH2 0xE53 JUMP JUMPDEST PUSH2 0xCD8 DUP5 PUSH2 0xEA0 JUMP JUMPDEST SWAP1 SLOAD SWAP1 DUP9 SHL SHR SWAP1 PUSH2 0x1280 JUMP JUMPDEST SWAP4 JUMPDEST SHR SWAP1 PUSH1 0x0 NOT DUP2 EQ PUSH2 0xC75 JUMPI PUSH1 0x1 ADD SWAP1 PUSH2 0xB19 JUMP JUMPDEST PUSH2 0xD12 SWAP1 PUSH2 0xD07 DUP5 PUSH2 0xE53 JUMP JUMPDEST SWAP1 SLOAD SWAP1 DUP9 SHL SHR PUSH2 0x1280 JUMP JUMPDEST SWAP4 PUSH2 0xCE6 JUMP JUMPDEST PUSH1 0x40 MLOAD PUSH4 0x1691E59F PUSH1 0xE3 SHL DUP2 MSTORE PUSH1 0x4 SWAP1 REVERT JUMPDEST PUSH1 0xE SLOAD PUSH2 0xD42 SWAP3 PUSH1 0x1 PUSH1 0x1 PUSH1 0xA0 SHL SUB SWAP1 SWAP2 AND SWAP1 PUSH2 0xFFF JUMP JUMPDEST DUP5 DUP1 PUSH2 0xB01 JUMP JUMPDEST DUP8 PUSH4 0x4E487B71 PUSH1 0xE0 SHL PUSH1 0x0 MSTORE PUSH1 0x41 PUSH1 0x4 MSTORE PUSH1 0x0 REVERT JUMPDEST PUSH1 0x40 MLOAD PUSH4 0x145718A7 PUSH1 0xE0 SHL DUP2 MSTORE PUSH1 0x4 SWAP1 REVERT JUMPDEST PUSH1 0x40 MLOAD PUSH4 0x7833D9E3 PUSH1 0xE1 SHL DUP2 MSTORE PUSH1 0x4 SWAP1 REVERT JUMPDEST CALLVALUE PUSH2 0x19C JUMPI PUSH1 0x20 CALLDATASIZE PUSH1 0x3 NOT ADD SLT PUSH2 0x19C JUMPI PUSH1 0x20 PUSH2 0xDA0 PUSH1 0x4 CALLDATALOAD PUSH2 0x12D7 JUMP JUMPDEST PUSH1 0x40 MLOAD SWAP1 ISZERO ISZERO DUP2 MSTORE RETURN JUMPDEST CALLVALUE PUSH2 0x19C JUMPI PUSH1 0x40 CALLDATASIZE PUSH1 0x3 NOT ADD SLT PUSH2 0x19C JUMPI PUSH1 0x24 CALLDATALOAD PUSH1 0x4 CALLDATALOAD PUSH2 0xDC9 PUSH2 0xF0E JUMP JUMPDEST PUSH1 0x64 DUP2 GT ISZERO DUP1 PUSH2 0xE15 JUMPI JUMPDEST ISZERO PUSH2 0xDE1 JUMPI PUSH1 0xC SSTORE PUSH1 0xD SSTORE STOP JUMPDEST PUSH1 0x40 MLOAD PUSH3 0x461BCD PUSH1 0xE5 SHL DUP2 MSTORE PUSH1 0x20 PUSH1 0x4 DUP3 ADD MSTORE PUSH1 0xC PUSH1 0x24 DUP3 ADD MSTORE PUSH12 0x8CCACA40E8DEDE40D0D2CED PUSH1 0xA3 SHL PUSH1 0x44 DUP3 ADD MSTORE PUSH1 0x64 SWAP1 REVERT JUMPDEST POP PUSH1 0x64 DUP3 GT ISZERO PUSH2 0xDD4 JUMP JUMPDEST CALLVALUE PUSH2 0x19C JUMPI PUSH1 0x0 CALLDATASIZE PUSH1 0x3 NOT ADD SLT PUSH2 0x19C JUMPI DUP1 PUSH4 0x3B9ACA00 PUSH1 0x20 SWAP3 MSTORE RETURN JUMPDEST PUSH1 0x4 CALLDATALOAD SWAP1 PUSH1 0x1 PUSH1 0x1 PUSH1 0xA0 SHL SUB DUP3 AND DUP3 SUB PUSH2 0x19C JUMPI JUMP JUMPDEST PUSH1 0x5 SLOAD DUP2 LT ISZERO PUSH2 0xE8A JUMPI PUSH1 0x5 PUSH1 0x0 MSTORE PUSH32 0x36B6384B5ECA791C62761152D0C79BB0604C104A5FB6F4EB0703F3154BB3DB0 ADD SWAP1 PUSH1 0x0 SWAP1 JUMP JUMPDEST PUSH4 0x4E487B71 PUSH1 0xE0 SHL PUSH1 0x0 MSTORE PUSH1 0x32 PUSH1 0x4 MSTORE PUSH1 0x24 PUSH1 0x0 REVERT JUMPDEST PUSH1 0x4 SLOAD DUP2 LT ISZERO PUSH2 0xE8A JUMPI PUSH1 0x4 PUSH1 0x0 MSTORE PUSH32 0x8A35ACFBC15FF81A39AE7D344FD709F28E8600B4AA8C65C6B64BFE7FE36BD19B ADD SWAP1 PUSH1 0x0 SWAP1 JUMP JUMPDEST PUSH1 0x6 SLOAD DUP2 LT ISZERO PUSH2 0xE8A JUMPI PUSH1 0x6 PUSH1 0x0 MSTORE PUSH32 0xF652222313E28459528D920B65115C16C04F3EFC82AAEDC97BE59F3F377C0D3F ADD SWAP1 PUSH1 0x0 SWAP1 JUMP JUMPDEST PUSH1 0x1 SLOAD PUSH1 0x1 PUSH1 0x1 PUSH1 0xA0 SHL SUB AND CALLER SUB PUSH2 0xF22 JUMPI JUMP JUMPDEST PUSH1 0x64 PUSH1 0x40 MLOAD PUSH3 0x461BCD PUSH1 0xE5 SHL DUP2 MSTORE PUSH1 0x20 PUSH1 0x4 DUP3 ADD MSTORE PUSH1 0x20 PUSH1 0x24 DUP3 ADD MSTORE PUSH32 0x4F776E61626C653A2063616C6C6572206973206E6F7420746865206F776E6572 PUSH1 0x44 DUP3 ADD MSTORE REVERT JUMPDEST DUP2 DUP2 MUL SWAP3 SWAP2 DUP2 ISZERO SWAP2 DUP5 DIV EQ OR ISZERO PUSH2 0xF79 JUMPI JUMP JUMPDEST PUSH4 0x4E487B71 PUSH1 0xE0 SHL PUSH1 0x0 MSTORE PUSH1 0x11 PUSH1 0x4 MSTORE PUSH1 0x24 PUSH1 0x0 REVERT JUMPDEST SWAP2 SWAP1 DUP3 SUB SWAP2 DUP3 GT PUSH2 0xF79 JUMPI JUMP JUMPDEST SWAP2 SWAP1 DUP3 ADD DUP1 SWAP3 GT PUSH2 0xF79 JUMPI JUMP JUMPDEST PUSH1 0x2 PUSH1 0x0 SLOAD EQ PUSH2 0xFBA JUMPI PUSH1 0x2 PUSH1 0x0 SSTORE JUMP JUMPDEST PUSH1 0x40 MLOAD PUSH3 0x461BCD PUSH1 0xE5 SHL DUP2 MSTORE PUSH1 0x20 PUSH1 0x4 DUP3 ADD MSTORE PUSH1 0x1F PUSH1 0x24 DUP3 ADD MSTORE PUSH32 0x5265656E7472616E637947756172643A207265656E7472616E742063616C6C00 PUSH1 0x44 DUP3 ADD MSTORE PUSH1 0x64 SWAP1 REVERT JUMPDEST PUSH1 0x40 MLOAD PUSH4 0xA9059CBB PUSH1 0xE0 SHL PUSH1 0x20 DUP3 ADD MSTORE PUSH1 0x1 PUSH1 0x1 PUSH1 0xA0 SHL SUB SWAP1 SWAP3 AND PUSH1 0x24 DUP4 ADD MSTORE PUSH1 0x44 DUP1 DUP4 ADD SWAP4 SWAP1 SWAP4 MSTORE SWAP2 DUP2 MSTORE PUSH1 0x80 DUP2 ADD SWAP2 PUSH8 0xFFFFFFFFFFFFFFFF DUP4 GT DUP3 DUP5 LT OR PUSH2 0x731 JUMPI PUSH2 0x104F SWAP3 PUSH1 0x40 MSTORE PUSH2 0x1069 JUMP JUMPDEST JUMP JUMPDEST SWAP1 DUP2 PUSH1 0x20 SWAP2 SUB SLT PUSH2 0x19C JUMPI MLOAD DUP1 ISZERO ISZERO DUP2 SUB PUSH2 0x19C JUMPI SWAP1 JUMP JUMPDEST PUSH1 0x40 DUP1 MLOAD SWAP1 DUP2 ADD SWAP2 PUSH1 0x1 PUSH1 0x1 PUSH1 0xA0 SHL SUB AND PUSH8 0xFFFFFFFFFFFFFFFF DUP4 GT DUP3 DUP5 LT OR PUSH2 0x731 JUMPI PUSH2 0x10D9 SWAP3 PUSH1 0x40 MSTORE PUSH1 0x0 DUP1 PUSH1 0x20 SWAP6 DUP7 DUP6 MSTORE PUSH32 0x5361666545524332303A206C6F772D6C6576656C2063616C6C206661696C6564 DUP8 DUP7 ADD MSTORE DUP7 DUP2 MLOAD SWAP2 ADD DUP3 DUP6 GAS CALL PUSH2 0x10D3 PUSH2 0x1161 JUMP JUMPDEST SWAP2 PUSH2 0x11AC JUMP JUMPDEST DUP1 MLOAD SWAP1 DUP3 DUP3 ISZERO SWAP3 DUP4 ISZERO PUSH2 0x1149 JUMPI JUMPDEST POP POP POP ISZERO PUSH2 0x10F2 JUMPI POP JUMP JUMPDEST PUSH1 0x84 SWAP1 PUSH1 0x40 MLOAD SWAP1 PUSH3 0x461BCD PUSH1 0xE5 SHL DUP3 MSTORE PUSH1 0x4 DUP3 ADD MSTORE PUSH1 0x2A PUSH1 0x24 DUP3 ADD MSTORE PUSH32 0x5361666545524332303A204552433230206F7065726174696F6E20646964206E PUSH1 0x44 DUP3 ADD MSTORE PUSH10 0x1BDD081CDD58D8D95959 PUSH1 0xB2 SHL PUSH1 0x64 DUP3 ADD MSTORE REVERT JUMPDEST PUSH2 0x1159 SWAP4 POP DUP3 ADD DUP2 ADD SWAP2 ADD PUSH2 0x1051 JUMP JUMPDEST CODESIZE DUP3 DUP2 PUSH2 0x10E7 JUMP JUMPDEST RETURNDATASIZE ISZERO PUSH2 0x11A7 JUMPI PUSH8 0xFFFFFFFFFFFFFFFF SWAP1 RETURNDATASIZE DUP3 DUP2 GT PUSH2 0x731 JUMPI PUSH1 0x40 MLOAD SWAP3 PUSH1 0x1F DUP3 ADD PUSH1 0x1F NOT SWAP1 DUP2 AND PUSH1 0x3F ADD AND DUP5 ADD SWAP1 DUP2 GT DUP5 DUP3 LT OR PUSH2 0x731 JUMPI PUSH1 0x40 MSTORE DUP3 MSTORE RETURNDATASIZE PUSH1 0x0 PUSH1 0x20 DUP5 ADD RETURNDATACOPY JUMP JUMPDEST PUSH1 0x60 SWAP1 JUMP JUMPDEST SWAP2 SWAP3 SWAP1 ISZERO PUSH2 0x120E JUMPI POP DUP2 MLOAD ISZERO PUSH2 0x11C0 JUMPI POP SWAP1 JUMP JUMPDEST EXTCODESIZE ISZERO PUSH2 0x11C9 JUMPI SWAP1 JUMP JUMPDEST PUSH1 0x40 MLOAD PUSH3 0x461BCD PUSH1 0xE5 SHL DUP2 MSTORE PUSH1 0x20 PUSH1 0x4 DUP3 ADD MSTORE PUSH1 0x1D PUSH1 0x24 DUP3 ADD MSTORE PUSH32 0x416464726573733A2063616C6C20746F206E6F6E2D636F6E7472616374000000 PUSH1 0x44 DUP3 ADD MSTORE PUSH1 0x64 SWAP1 REVERT JUMPDEST DUP3 MLOAD SWAP1 SWAP2 POP ISZERO PUSH2 0x1221 JUMPI POP DUP1 MLOAD SWAP1 PUSH1 0x20 ADD REVERT JUMPDEST PUSH1 0x40 MLOAD SWAP1 PUSH3 0x461BCD PUSH1 0xE5 SHL DUP3 MSTORE DUP2 PUSH1 0x20 DUP1 PUSH1 0x4 DUP4 ADD MSTORE DUP3 MLOAD SWAP1 DUP2 PUSH1 0x24 DUP5 ADD MSTORE PUSH1 0x0 SWAP4 JUMPDEST DUP3 DUP6 LT PUSH2 0x1267 JUMPI POP POP PUSH1 0x44 SWAP3 POP PUSH1 0x0 DUP4 DUP3 DUP5 ADD ADD MSTORE PUSH1 0x1F DUP1 NOT SWAP2 ADD AND DUP2 ADD SUB ADD SWAP1 REVERT JUMPDEST DUP5 DUP2 ADD DUP3 ADD MLOAD DUP7 DUP7 ADD PUSH1 0x44 ADD MSTORE SWAP4 DUP2 ADD SWAP4 DUP6 SWAP4 POP PUSH2 0x1244 JUMP JUMPDEST SWAP1 PUSH1 0x40 MLOAD SWAP1 PUSH1 0x20 DUP3 ADD SWAP3 DUP4 MSTORE PUSH1 0x40 DUP3 ADD MSTORE PUSH1 0x40 DUP2 MSTORE PUSH1 0x60 DUP2 ADD DUP2 DUP2 LT PUSH8 0xFFFFFFFFFFFFFFFF DUP3 GT OR PUSH2 0x731 JUMPI PUSH1 0x40 MSTORE MLOAD SWAP1 KECCAK256 SWAP1 JUMP JUMPDEST PUSH1 0x6 SLOAD PUSH1 0x0 NOT DUP2 ADD SWAP1 DUP2 GT PUSH2 0xF79 JUMPI PUSH2 0x12CD SWAP1 PUSH2 0xED7 JUMP JUMPDEST SWAP1 SLOAD SWAP1 PUSH1 0x3 SHL SHR SWAP1 JUMP JUMPDEST PUSH4 0x5F5E100 DUP2 EQ SWAP1 DUP2 ISZERO PUSH2 0x1312 JUMPI JUMPDEST DUP2 ISZERO PUSH2 0x1303 JUMPI JUMPDEST DUP2 ISZERO PUSH2 0x12F7 JUMPI POP SWAP1 JUMP JUMPDEST PUSH5 0x174876E800 SWAP2 POP EQ SWAP1 JUMP JUMPDEST PUSH5 0x2540BE400 DUP2 EQ SWAP2 POP PUSH2 0x12ED JUMP JUMPDEST PUSH4 0x3B9ACA00 DUP2 EQ SWAP2 POP PUSH2 0x12E6 JUMP INVALID LOG2 PUSH5 0x6970667358 0x22 SLT KECCAK256 0xB0 0xC8 0x4B 0xA9 0xC2 0xD2 PUSH3 0xCB3BE LOG2 SWAP12 0xC0 MUL 0xF9 0xE CALLER STATICCALL CALL RETURNDATASIZE DUP2 0xF6 CREATE2 0xB6 LOG3 PUSH23 0x3F652AEA438E64736F6C63430008140033000000000000 "},"methodIdentifiers":{"DENOM_100()":"8cff8f3d","DENOM_1000()":"00bb56c5","DENOM_10000()":"8dc3395a","DENOM_100000()":"67126b43","MERKLE_TREE_LEVELS()":"a6a12ac4","ROOT_HISTORY_SIZE()":"cd87a3b4","commitments(bytes32)":"839df945","deposit(bytes32,uint256)":"1de26e16","depositFeeBps()":"ab879827","feeRecipient()":"46904840","filledSubtrees(uint256)":"f178e47c","getRoot()":"5ca1e165","getStats()":"c59d4847","isKnownRoot(bytes32)":"6d9833e3","isValidDenomination(uint256)":"1b4c52c9","nextIndex()":"fc7e9c6f","nullifiers(bytes32)":"2997e86b","owner()":"8da5cb5b","renounceOwnership()":"715018a6","rootHistory(bytes32)":"66dd97ab","roots(uint256)":"c2b40ae4","setFeeRecipient(address)":"e74b981b","setFees(uint256,uint256)":"0b78f9c0","setVerifier(address)":"5437988d","token()":"fc0c546a","totalDeposited()":"ff50abdc","totalWithdrawn()":"4b319713","transferOwnership(address)":"f2fde38b","verifier()":"2b7ac3f3","withdraw(bytes,bytes32,bytes32,address,uint256)":"aa93018e","withdrawFeeBps()":"7aca2b59","zeros(uint256)":"e8295588"}}}}}