{"contracts/PrivacyPoolBridge.sol":{"PrivacyPoolBridge":{"abi":[{"inputs":[{"internalType":"address","name":"_token","type":"address"},{"internalType":"address","name":"_verifier","type":"address"},{"internalType":"address","name":"_owner","type":"address"}],"stateMutability":"nonpayable","type":"constructor"},{"inputs":[],"name":"CommitmentAlreadyExists","type":"error"},{"inputs":[],"name":"InsufficientLiquidity","type":"error"},{"inputs":[],"name":"InvalidProof","type":"error"},{"inputs":[],"name":"InvalidRoot","type":"error"},{"inputs":[],"name":"NotRelayer","type":"error"},{"inputs":[],"name":"NullifierAlreadyUsed","type":"error"},{"inputs":[],"name":"RootAlreadyExists","type":"error"},{"inputs":[],"name":"TreeFull","type":"error"},{"inputs":[],"name":"ZeroAddress","type":"error"},{"anonymous":false,"inputs":[{"indexed":true,"internalType":"bytes32","name":"commitment","type":"bytes32"},{"indexed":true,"internalType":"uint256","name":"leafIndex","type":"uint256"},{"indexed":false,"internalType":"uint256","name":"amount","type":"uint256"},{"indexed":false,"internalType":"uint256","name":"timestamp","type":"uint256"}],"name":"Deposit","type":"event"},{"anonymous":false,"inputs":[{"indexed":true,"internalType":"bytes32","name":"root","type":"bytes32"},{"indexed":true,"internalType":"uint256","name":"sourceChainId","type":"uint256"},{"indexed":false,"internalType":"address","name":"relayer","type":"address"}],"name":"ExternalRootAdded","type":"event"},{"anonymous":false,"inputs":[{"indexed":true,"internalType":"bytes32","name":"root","type":"bytes32"}],"name":"ExternalRootRevoked","type":"event"},{"anonymous":false,"inputs":[{"indexed":true,"internalType":"bytes32","name":"root","type":"bytes32"},{"indexed":false,"internalType":"uint256","name":"leafCount","type":"uint256"}],"name":"MerkleRoot","type":"event"},{"anonymous":false,"inputs":[{"indexed":true,"internalType":"address","name":"previousOwner","type":"address"},{"indexed":true,"internalType":"address","name":"newOwner","type":"address"}],"name":"OwnershipTransferred","type":"event"},{"anonymous":false,"inputs":[{"indexed":true,"internalType":"address","name":"relayer","type":"address"},{"indexed":false,"internalType":"bool","name":"authorized","type":"bool"}],"name":"RelayerUpdated","type":"event"},{"anonymous":false,"inputs":[{"indexed":true,"internalType":"bytes32","name":"nullifier","type":"bytes32"},{"indexed":true,"internalType":"address","name":"recipient","type":"address"},{"indexed":false,"internalType":"uint256","name":"amount","type":"uint256"},{"indexed":false,"internalType":"uint256","name":"sourceChainId","type":"uint256"}],"name":"Withdrawal","type":"event"},{"inputs":[],"name":"MERKLE_TREE_LEVELS","outputs":[{"internalType":"uint256","name":"","type":"uint256"}],"stateMutability":"view","type":"function"},{"inputs":[],"name":"ROOT_HISTORY_SIZE","outputs":[{"internalType":"uint256","name":"","type":"uint256"}],"stateMutability":"view","type":"function"},{"inputs":[{"internalType":"bytes32","name":"root","type":"bytes32"},{"internalType":"uint256","name":"sourceChainId","type":"uint256"}],"name":"addExternalRoot","outputs":[],"stateMutability":"nonpayable","type":"function"},{"inputs":[{"internalType":"uint256","name":"amount","type":"uint256"}],"name":"addLiquidity","outputs":[],"stateMutability":"nonpayable","type":"function"},{"inputs":[],"name":"bridgeFeeBps","outputs":[{"internalType":"uint256","name":"","type":"uint256"}],"stateMutability":"view","type":"function"},{"inputs":[{"internalType":"bytes32","name":"","type":"bytes32"}],"name":"commitments","outputs":[{"internalType":"bool","name":"","type":"bool"}],"stateMutability":"view","type":"function"},{"inputs":[{"internalType":"bytes32","name":"commitment","type":"bytes32"},{"internalType":"uint256","name":"amount","type":"uint256"}],"name":"deposit","outputs":[],"stateMutability":"nonpayable","type":"function"},{"inputs":[],"name":"depositFeeBps","outputs":[{"internalType":"uint256","name":"","type":"uint256"}],"stateMutability":"view","type":"function"},{"inputs":[{"internalType":"uint256","name":"amount","type":"uint256"}],"name":"emergencyWithdraw","outputs":[],"stateMutability":"nonpayable","type":"function"},{"inputs":[{"internalType":"uint256","name":"","type":"uint256"}],"name":"externalRootList","outputs":[{"internalType":"bytes32","name":"","type":"bytes32"}],"stateMutability":"view","type":"function"},{"inputs":[{"internalType":"bytes32","name":"","type":"bytes32"}],"name":"externalRoots","outputs":[{"internalType":"bytes32","name":"root","type":"bytes32"},{"internalType":"uint256","name":"sourceChainId","type":"uint256"},{"internalType":"uint256","name":"timestamp","type":"uint256"},{"internalType":"bool","name":"active","type":"bool"}],"stateMutability":"view","type":"function"},{"inputs":[],"name":"feeRecipient","outputs":[{"internalType":"address","name":"","type":"address"}],"stateMutability":"view","type":"function"},{"inputs":[{"internalType":"uint256","name":"","type":"uint256"}],"name":"filledSubtrees","outputs":[{"internalType":"bytes32","name":"","type":"bytes32"}],"stateMutability":"view","type":"function"},{"inputs":[],"name":"getExternalRootCount","outputs":[{"internalType":"uint256","name":"","type":"uint256"}],"stateMutability":"view","type":"function"},{"inputs":[],"name":"getLastRoot","outputs":[{"internalType":"bytes32","name":"","type":"bytes32"}],"stateMutability":"view","type":"function"},{"inputs":[],"name":"getLiquidity","outputs":[{"internalType":"uint256","name":"","type":"uint256"}],"stateMutability":"view","type":"function"},{"inputs":[],"name":"getStats","outputs":[{"internalType":"uint256","name":"deposited","type":"uint256"},{"internalType":"uint256","name":"withdrawn","type":"uint256"},{"internalType":"uint256","name":"bridgedIn","type":"uint256"},{"internalType":"uint256","name":"commitmentCount","type":"uint256"},{"internalType":"bytes32","name":"currentRoot","type":"bytes32"},{"internalType":"uint256","name":"liquidity","type":"uint256"}],"stateMutability":"view","type":"function"},{"inputs":[{"internalType":"bytes32","name":"root","type":"bytes32"}],"name":"isValidRoot","outputs":[{"internalType":"bool","name":"isValid","type":"bool"},{"internalType":"uint256","name":"sourceChainId","type":"uint256"}],"stateMutability":"view","type":"function"},{"inputs":[{"internalType":"bytes32","name":"","type":"bytes32"}],"name":"localRootHistory","outputs":[{"internalType":"bool","name":"","type":"bool"}],"stateMutability":"view","type":"function"},{"inputs":[],"name":"nextIndex","outputs":[{"internalType":"uint256","name":"","type":"uint256"}],"stateMutability":"view","type":"function"},{"inputs":[{"internalType":"bytes32","name":"","type":"bytes32"}],"name":"nullifiers","outputs":[{"internalType":"bool","name":"","type":"bool"}],"stateMutability":"view","type":"function"},{"inputs":[],"name":"owner","outputs":[{"internalType":"address","name":"","type":"address"}],"stateMutability":"view","type":"function"},{"inputs":[{"internalType":"address","name":"","type":"address"}],"name":"relayers","outputs":[{"internalType":"bool","name":"","type":"bool"}],"stateMutability":"view","type":"function"},{"inputs":[],"name":"renounceOwnership","outputs":[],"stateMutability":"nonpayable","type":"function"},{"inputs":[{"internalType":"bytes32","name":"root","type":"bytes32"}],"name":"revokeExternalRoot","outputs":[],"stateMutability":"nonpayable","type":"function"},{"inputs":[{"internalType":"uint256","name":"","type":"uint256"}],"name":"roots","outputs":[{"internalType":"bytes32","name":"","type":"bytes32"}],"stateMutability":"view","type":"function"},{"inputs":[{"internalType":"address","name":"_feeRecipient","type":"address"}],"name":"setFeeRecipient","outputs":[],"stateMutability":"nonpayable","type":"function"},{"inputs":[{"internalType":"uint256","name":"_depositFeeBps","type":"uint256"},{"internalType":"uint256","name":"_withdrawFeeBps","type":"uint256"},{"internalType":"uint256","name":"_bridgeFeeBps","type":"uint256"}],"name":"setFees","outputs":[],"stateMutability":"nonpayable","type":"function"},{"inputs":[{"internalType":"address","name":"relayer","type":"address"},{"internalType":"bool","name":"authorized","type":"bool"}],"name":"setRelayer","outputs":[],"stateMutability":"nonpayable","type":"function"},{"inputs":[{"internalType":"address","name":"_verifier","type":"address"}],"name":"setVerifier","outputs":[],"stateMutability":"nonpayable","type":"function"},{"inputs":[],"name":"token","outputs":[{"internalType":"contract IERC20","name":"","type":"address"}],"stateMutability":"view","type":"function"},{"inputs":[],"name":"totalBridgedIn","outputs":[{"internalType":"uint256","name":"","type":"uint256"}],"stateMutability":"view","type":"function"},{"inputs":[],"name":"totalDeposited","outputs":[{"internalType":"uint256","name":"","type":"uint256"}],"stateMutability":"view","type":"function"},{"inputs":[],"name":"totalWithdrawn","outputs":[{"internalType":"uint256","name":"","type":"uint256"}],"stateMutability":"view","type":"function"},{"inputs":[{"internalType":"address","name":"newOwner","type":"address"}],"name":"transferOwnership","outputs":[],"stateMutability":"nonpayable","type":"function"},{"inputs":[],"name":"verifier","outputs":[{"internalType":"address","name":"","type":"address"}],"stateMutability":"view","type":"function"},{"inputs":[{"internalType":"bytes","name":"proof","type":"bytes"},{"internalType":"bytes32","name":"root","type":"bytes32"},{"internalType":"bytes32","name":"nullifier","type":"bytes32"},{"internalType":"address","name":"recipient","type":"address"},{"internalType":"uint256","name":"amount","type":"uint256"}],"name":"withdraw","outputs":[],"stateMutability":"nonpayable","type":"function"},{"inputs":[],"name":"withdrawFeeBps","outputs":[{"internalType":"uint256","name":"","type":"uint256"}],"stateMutability":"view","type":"function"},{"inputs":[{"internalType":"uint256","name":"","type":"uint256"}],"name":"zeros","outputs":[{"internalType":"bytes32","name":"","type":"bytes32"}],"stateMutability":"view","type":"function"}],"evm":{"bytecode":{"linkReferences":{},"object":"60a0346200030f57601f62001cea38819003918201601f191683019291906001600160401b03841183851017620003145781606092849260409687528339810103126200030f5762000051816200032a565b60206200006d84620000658386016200032a565b94016200032a565b9060019260009284845562000082336200033f565b600a60108190556011908155601e601255916001600160a01b039081168015620002fe5790620000d692916080528060018060a01b031998168860025416176002558116809760135416176013556200033f565b8290600491825491680100000000000000009283811015620002eb57878101808655811015620002d85786908582528682200155600590815484811015620002c557888101808455811015620002b25782885286882001879055879291905b60148410620002115750506200014d91508062000388565b9160065491821015620001fe5785820180600655821015620001eb57509181600a92859460068a975283862001558352600781528383209560ff1996868882541617905583525220918254161790555161192c9081620003be82396080518181816102200152818161073c01528181610909015281816109c801528181610a4c01528181610e4801528181610ec80152818161104901526112e10152f35b634e487b7160e01b855260329052602484fd5b634e487b7160e01b855260419052602484fd5b9091806200021f9162000388565b92838654868110156200029f578a81018089558110156200028c578190888b52898b2001558354868110156200029f578a81018086558110156200028c57848a52888a20015560001981146200027a57880192919062000135565b634e487b7160e01b8852818652602488fd5b634e487b7160e01b8a526032885260248afd5b634e487b7160e01b8a526041885260248afd5b634e487b7160e01b885260328652602488fd5b634e487b7160e01b885260418652602488fd5b634e487b7160e01b875260328552602487fd5b634e487b7160e01b875260418552602487fd5b885163d92e233d60e01b8152600490fd5b600080fd5b634e487b7160e01b600052604160045260246000fd5b51906001600160a01b03821682036200030f57565b600180546001600160a01b039283166001600160a01b0319821681179092559091167f8be0079c531659141344cd1fd0a4f28419497f9722a3daafe3b4186f6b6457e0600080a3565b604080516020810192835280820193909352825290606081016001600160401b0381118282101762000314576040525190209056fe6080604052600436101561001257600080fd5b60003560e01c806306eb1d30146113565780630910a510146112b55780630ce611e6146112895780631de26e1614610ffa578063235b6f5014610fc95780632997e86b14610f985780632b7ac3f314610f6f5780632bb4218314610f515780634690484014610f285780634b31971314610f0a5780634f6aa42b14610eec57806351c6590a14610ead5780635300f84114610e6e5780635312ea8e14610e195780635437988d14610dd6578063715018a614610d7957806372515f7514610d285780637aca2b5914610d0a578063839df94514610cd95780638da5cb5b14610cb0578063a6a12ac414610c94578063aa93018e14610844578063ab87982714610826578063ba70f75714610803578063c2b40ae4146107da578063c59d4847146106f6578063c714c9a8146106a3578063cd87a3b414610687578063cec10c11146105fa578063cff3faba1461047d578063e74b981b1461041e578063e8295588146103f5578063ecd8dc3a1461036d578063ed48478d1461034f578063f178e47c14610318578063f2fde38b1461024f578063fc0c546a1461020a578063fc7e9c6f146101ec5763ff50abdc146101c957600080fd5b346101e75760003660031901126101e7576020600d54604051908152f35b600080fd5b346101e75760003660031901126101e7576020600354604051908152f35b346101e75760003660031901126101e7576040517f00000000000000000000000000000000000000000000000000000000000000006001600160a01b03168152602090f35b346101e75760203660031901126101e7576102686113c8565b610270611483565b6001600160a01b039081169081156102c457600154826bffffffffffffffffffffffff60a01b821617600155167f8be0079c531659141344cd1fd0a4f28419497f9722a3daafe3b4186f6b6457e0600080a3005b60405162461bcd60e51b815260206004820152602660248201527f4f776e61626c653a206e6577206f776e657220697320746865207a65726f206160448201526564647265737360d01b6064820152608490fd5b346101e75760203660031901126101e7576004356005548110156101e7576103416020916113de565b90546040519160031b1c8152f35b346101e75760003660031901126101e7576020600954604051908152f35b346101e75760403660031901126101e7576103866113c8565b60243590811515908183036101e7577f4b36b2e66f38ed349bec532105790177f1283bcbc094e6cd48565195d3033c43916103ec6020926103c5611483565b60018060a01b03169485600052600a845260406000209060ff801983541691151516179055565b604051908152a2005b346101e75760203660031901126101e7576004356004548110156101e757610341602091611415565b346101e75760203660031901126101e7576104376113c8565b61043f611483565b6001600160a01b0316801561046b576bffffffffffffffffffffffff60a01b6013541617601355600080f35b60405163d92e233d60e01b8152600490fd5b346101e75761048b366113b2565b9033600052600a60205260ff6040600020541615806105e5575b6105d35780600052600860205260ff600360406000200154166105c1576105216040516104d1816114db565b8281526003602082018581526040830142815260608401916001835286600052600860205260406000209451855551600185015551600284015551151591019060ff801983541691151516179055565b600954600160401b8110156105ab57600181018060095581101561059557819060096000527f6e1540171b6c0c960b71a7020d9f60077f6af931a8bbf590da0223dacf75c7af01557f3eda3c68461537d16bbebd874034b060d74ed32fe35c923d1d6a2a0ebf615e136020604051338152a3005b634e487b7160e01b600052603260045260246000fd5b634e487b7160e01b600052604160045260246000fd5b604051632746d63760e21b8152600490fd5b60405163c64891a560e01b8152600490fd5b506001546001600160a01b03163314156104a5565b346101e75760603660031901126101e75760443560243560043561061c611483565b60648111158061067c575b80610671575b1561063d57601055601155601255005b60405162461bcd60e51b815260206004820152600c60248201526b08ccaca40e8dede40d0d2ced60a31b6044820152606490fd5b50606483111561062d565b506064821115610627565b346101e75760003660031901126101e757602060405160648152f35b346101e75760203660031901126101e75760043560005260086020526080604060002080549060018101549060ff6003600283015492015416916040519384526020840152604083015215156060820152f35b346101e75760003660031901126101e757600d54600e5490600f549160035461071d6118d4565b6040516370a0823160e01b8152306004820152949091906020866024817f00000000000000000000000000000000000000000000000000000000000000006001600160a01b03165afa9384156107ce5760009461079a575b60c09650604051958652602086015260408501526060840152608083015260a0820152f35b93506020863d82116107c6575b816107b4602093836114f7565b810103126101e75760c0955193610775565b3d91506107a7565b6040513d6000823e3d90fd5b346101e75760203660031901126101e7576004356006548110156101e75761034160209161144c565b346101e75760003660031901126101e757602061081e6118d4565b604051908152f35b346101e75760003660031901126101e7576020601054604051908152f35b346101e75760a03660031901126101e75767ffffffffffffffff600435116101e7573660236004350112156101e7576004356004013567ffffffffffffffff81116101e75760043501602481013681116101e7576064356001600160a01b03811690036101e7576108b361158c565b604435600052600b60205260ff60406000205416610c82576064356001600160a01b03161561046b576108e7602435611519565b929015610c70576040516370a0823160e01b81523060048201526020816024817f00000000000000000000000000000000000000000000000000000000000000006001600160a01b03165afa9081156107ce57600091610c3e575b5060843511610c2c576002546001600160a01b03169182610a9a575b505050604435600052600b6020526040600020600160ff19825416179055468114159081600014610a8c5761271061099b6012545b60843561155f565b046109a881608435611572565b926109b7608435600e5461157f565b600e55610a76575b6109ec836064357f00000000000000000000000000000000000000000000000000000000000000006115e2565b80610a39575b50604051918252602082015260018060a01b0360643516907f2865d567636cfb8b64e349af19627e3ef92dc0c2cabfe3b1fd3e659425938e8f604060443592a36001600055005b601354610a7091906001600160a01b03167f00000000000000000000000000000000000000000000000000000000000000006115e2565b826109f2565b610a84608435600f5461157f565b600f556109bf565b61271061099b601154610993565b61010080926004359003126101e7578060436004350112156101e75760405191820182811067ffffffffffffffff8211176105ab57604052819061012460043501116101e757602460043501905b610124600435018210610c1c575050604051610b03816114db565b60243581526044356020820152608435604082015260018060a01b0360643516606082015260405191632357251160e01b6020840152602483016000905b60088210610c065750505061012482016000905b60048210610bf05750505061018481526101c081019080821067ffffffffffffffff8311176105ab576000928392604052602082519201905afa610b9761178b565b9015908115610bc0575b50610bae5781808061095e565b6040516309bde33960e01b8152600490fd5b8051801515925082610bd5575b505082610ba1565b610be8925060208091830101910161167b565b158280610bcd565b6020806001928551815201930191019091610b55565b6020806001928551815201930191019091610b41565b8135815260209182019101610ae8565b60405163bb55fd2760e01b8152600490fd5b90506020813d602011610c68575b81610c59602093836114f7565b810103126101e7575184610942565b3d9150610c4c565b60405163504570e360e01b8152600490fd5b604051636569570160e11b8152600490fd5b346101e75760003660031901126101e757602060405160148152f35b346101e75760003660031901126101e7576001546040516001600160a01b039091168152602090f35b346101e75760203660031901126101e757600435600052600c602052602060ff604060002054166040519015158152f35b346101e75760003660031901126101e7576020601154604051908152f35b346101e75760203660031901126101e7576004356009548110156101e75760209060096000527f6e1540171b6c0c960b71a7020d9f60077f6af931a8bbf590da0223dacf75c7af0154604051908152f35b346101e75760003660031901126101e757610d92611483565b600180546001600160a01b031981169091556000906001600160a01b03167f8be0079c531659141344cd1fd0a4f28419497f9722a3daafe3b4186f6b6457e08280a3005b346101e75760203660031901126101e757610def6113c8565b610df7611483565b600280546001600160a01b0319166001600160a01b0392909216919091179055005b346101e75760203660031901126101e757610e32611483565b600154610e6c90600435906001600160a01b03167f00000000000000000000000000000000000000000000000000000000000000006115e2565b005b346101e75760203660031901126101e7576001600160a01b03610e8f6113c8565b16600052600a602052602060ff604060002054166040519015158152f35b346101e75760203660031901126101e757610e6c60043530337f0000000000000000000000000000000000000000000000000000000000000000611622565b346101e75760003660031901126101e7576020601254604051908152f35b346101e75760003660031901126101e7576020600e54604051908152f35b346101e75760003660031901126101e7576013546040516001600160a01b039091168152602090f35b346101e75760003660031901126101e7576020600f54604051908152f35b346101e75760003660031901126101e7576002546040516001600160a01b039091168152602090f35b346101e75760203660031901126101e757600435600052600b602052602060ff604060002054166040519015158152f35b346101e75760203660031901126101e7576004356000526007602052602060ff604060002054166040519015158152f35b346101e757611008366113b2565b9061101161158c565b806000526020600c815260ff60406000205416611277576127106110376010548561155f565b04926110438482611572565b936110717f000000000000000000000000000000000000000000000000000000000000000092303385611622565b80611258575b50506003805493621000008510156112465783926000865b601482106111e2575050600654600160401b8110156105ab57846110bc8260016110d5940160065561144c565b90919082549060031b91821b91600019901b1916179055565b8360005260078152604060002060ff1990600182825416179055600654606481116111a3575b50600187019485881161118d577f03d8083da8e2218b3f5ebe30cdddd9f649eeb4f898a728c4b40c2735839ab11a83877faefea07450efad478ebe2bfc47102612d416637dc1b8e0555b6f7507df6c720c98604098558751908152a285600052600c82526001846000209182541617905561117882600d5461157f565b600d5582519182524290820152a36001600055005b634e487b7160e01b600052601160045260246000fd5b60631981019080821161118d576064190190811161118d576111c49061144c565b905490851b1c600052600782526040600020818154169055876110fb565b60019581871661122857806111fd611212926110bc866113de565b61120684611415565b905490881b1c9061189f565b955b1c90600019811461118d576001019061108f565b61124090611235846113de565b905490881b1c61189f565b95611214565b604051631691e59f60e31b8152600490fd5b601354611270926001600160a01b03909116906115e2565b8380611077565b60405163145718a760e01b8152600490fd5b346101e75760203660031901126101e75760406112a7600435611519565b825191151582526020820152f35b346101e75760003660031901126101e7576040516370a0823160e01b81523060048201526020816024817f00000000000000000000000000000000000000000000000000000000000000006001600160a01b03165afa80156107ce57600090611324575b602090604051908152f35b506020813d821161134e575b8161133d602093836114f7565b810103126101e75760209051611319565b3d9150611330565b346101e75760203660031901126101e757600435611372611483565b806000526008602052600360406000200160ff1981541690557fbd075808507375b5ef0cf026e93ba5f11ca4f50156f13b62f4ff5afa2a1b5272600080a2005b60409060031901126101e7576004359060243590565b600435906001600160a01b03821682036101e757565b6005548110156105955760056000527f036b6384b5eca791c62761152d0c79bb0604c104a5fb6f4eb0703f3154bb3db00190600090565b6004548110156105955760046000527f8a35acfbc15ff81a39ae7d344fd709f28e8600b4aa8c65c6b64bfe7fe36bd19b0190600090565b6006548110156105955760066000527ff652222313e28459528d920b65115c16c04f3efc82aaedc97be59f3f377c0d3f0190600090565b6001546001600160a01b0316330361149757565b606460405162461bcd60e51b815260206004820152602060248201527f4f776e61626c653a2063616c6c6572206973206e6f7420746865206f776e65726044820152fd5b6080810190811067ffffffffffffffff8211176105ab57604052565b90601f8019910116810190811067ffffffffffffffff8211176105ab57604052565b600052600760205260ff60406000205416611558576008602052604060002060ff60038201541661154d5750600090600090565b600101549060019190565b6001904690565b8181029291811591840414171561118d57565b9190820391821161118d57565b9190820180921161118d57565b60026000541461159d576002600055565b60405162461bcd60e51b815260206004820152601f60248201527f5265656e7472616e637947756172643a207265656e7472616e742063616c6c006044820152606490fd5b60405163a9059cbb60e01b60208201526001600160a01b0390921660248301526044808301939093529181526116209161161b826114db565b611693565b565b6040516323b872dd60e01b60208201526001600160a01b03928316602482015292909116604483015260648083019390935291815260a081019181831067ffffffffffffffff8411176105ab5761162092604052611693565b908160209103126101e7575180151581036101e75790565b60408051908101916001600160a01b031667ffffffffffffffff8311828410176105ab57611703926040526000806020958685527f5361666545524332303a206c6f772d6c6576656c2063616c6c206661696c656487860152868151910182855af16116fd61178b565b916117cb565b805190828215928315611773575b5050501561171c5750565b6084906040519062461bcd60e51b82526004820152602a60248201527f5361666545524332303a204552433230206f7065726174696f6e20646964206e6044820152691bdd081cdd58d8d9595960b21b6064820152fd5b611783935082018101910161167b565b388281611711565b3d156117c6573d9067ffffffffffffffff82116105ab57604051916117ba601f8201601f1916602001846114f7565b82523d6000602084013e565b606090565b9192901561182d57508151156117df575090565b3b156117e85790565b60405162461bcd60e51b815260206004820152601d60248201527f416464726573733a2063616c6c20746f206e6f6e2d636f6e74726163740000006044820152606490fd5b8251909150156118405750805190602001fd5b6040519062461bcd60e51b82528160208060048301528251908160248401526000935b828510611886575050604492506000838284010152601f80199101168101030190fd5b8481018201518686016044015293810193859350611863565b9060405190602082019283526040820152604081526060810181811067ffffffffffffffff8211176105ab5760405251902090565b600654600019810190811161118d576118ec9061144c565b90549060031b1c9056fea2646970667358221220b326f61412dc1a1400ed9bf9d8a9a80718e055d9d1bd1f4e11d27c2c09f6601964736f6c63430008140033","opcodes":"PUSH1 0xA0 CALLVALUE PUSH3 0x30F JUMPI PUSH1 0x1F PUSH3 0x1CEA CODESIZE DUP2 SWAP1 SUB SWAP2 DUP3 ADD PUSH1 0x1F NOT AND DUP4 ADD SWAP3 SWAP2 SWAP1 PUSH1 0x1 PUSH1 0x1 PUSH1 0x40 SHL SUB DUP5 GT DUP4 DUP6 LT OR PUSH3 0x314 JUMPI DUP2 PUSH1 0x60 SWAP3 DUP5 SWAP3 PUSH1 0x40 SWAP7 DUP8 MSTORE DUP4 CODECOPY DUP2 ADD SUB SLT PUSH3 0x30F JUMPI PUSH3 0x51 DUP2 PUSH3 0x32A JUMP JUMPDEST PUSH1 0x20 PUSH3 0x6D DUP5 PUSH3 0x65 DUP4 DUP7 ADD PUSH3 0x32A JUMP JUMPDEST SWAP5 ADD PUSH3 0x32A JUMP JUMPDEST SWAP1 PUSH1 0x1 SWAP3 PUSH1 0x0 SWAP3 DUP5 DUP5 SSTORE PUSH3 0x82 CALLER PUSH3 0x33F JUMP JUMPDEST PUSH1 0xA PUSH1 0x10 DUP2 SWAP1 SSTORE PUSH1 0x11 SWAP1 DUP2 SSTORE PUSH1 0x1E PUSH1 0x12 SSTORE SWAP2 PUSH1 0x1 PUSH1 0x1 PUSH1 0xA0 SHL SUB SWAP1 DUP2 AND DUP1 ISZERO PUSH3 0x2FE JUMPI SWAP1 PUSH3 0xD6 SWAP3 SWAP2 PUSH1 0x80 MSTORE DUP1 PUSH1 0x1 DUP1 PUSH1 0xA0 SHL SUB NOT SWAP9 AND DUP9 PUSH1 0x2 SLOAD AND OR PUSH1 0x2 SSTORE DUP2 AND DUP1 SWAP8 PUSH1 0x13 SLOAD AND OR PUSH1 0x13 SSTORE PUSH3 0x33F JUMP JUMPDEST DUP3 SWAP1 PUSH1 0x4 SWAP2 DUP3 SLOAD SWAP2 PUSH9 0x10000000000000000 SWAP3 DUP4 DUP2 LT ISZERO PUSH3 0x2EB JUMPI DUP8 DUP2 ADD DUP1 DUP7 SSTORE DUP2 LT ISZERO PUSH3 0x2D8 JUMPI DUP7 SWAP1 DUP6 DUP3 MSTORE DUP7 DUP3 KECCAK256 ADD SSTORE PUSH1 0x5 SWAP1 DUP2 SLOAD DUP5 DUP2 LT ISZERO PUSH3 0x2C5 JUMPI DUP9 DUP2 ADD DUP1 DUP5 SSTORE DUP2 LT ISZERO PUSH3 0x2B2 JUMPI DUP3 DUP9 MSTORE DUP7 DUP9 KECCAK256 ADD DUP8 SWAP1 SSTORE DUP8 SWAP3 SWAP2 SWAP1 JUMPDEST PUSH1 0x14 DUP5 LT PUSH3 0x211 JUMPI POP POP PUSH3 0x14D SWAP2 POP DUP1 PUSH3 0x388 JUMP JUMPDEST SWAP2 PUSH1 0x6 SLOAD SWAP2 DUP3 LT ISZERO PUSH3 0x1FE JUMPI DUP6 DUP3 ADD DUP1 PUSH1 0x6 SSTORE DUP3 LT ISZERO PUSH3 0x1EB JUMPI POP SWAP2 DUP2 PUSH1 0xA SWAP3 DUP6 SWAP5 PUSH1 0x6 DUP11 SWAP8 MSTORE DUP4 DUP7 KECCAK256 ADD SSTORE DUP4 MSTORE PUSH1 0x7 DUP2 MSTORE DUP4 DUP4 KECCAK256 SWAP6 PUSH1 0xFF NOT SWAP7 DUP7 DUP9 DUP3 SLOAD AND OR SWAP1 SSTORE DUP4 MSTORE MSTORE KECCAK256 SWAP2 DUP3 SLOAD AND OR SWAP1 SSTORE MLOAD PUSH2 0x192C SWAP1 DUP2 PUSH3 0x3BE DUP3 CODECOPY PUSH1 0x80 MLOAD DUP2 DUP2 DUP2 PUSH2 0x220 ADD MSTORE DUP2 DUP2 PUSH2 0x73C ADD MSTORE DUP2 DUP2 PUSH2 0x909 ADD MSTORE DUP2 DUP2 PUSH2 0x9C8 ADD MSTORE DUP2 DUP2 PUSH2 0xA4C ADD MSTORE DUP2 DUP2 PUSH2 0xE48 ADD MSTORE DUP2 DUP2 PUSH2 0xEC8 ADD MSTORE DUP2 DUP2 PUSH2 0x1049 ADD MSTORE PUSH2 0x12E1 ADD MSTORE RETURN JUMPDEST PUSH4 0x4E487B71 PUSH1 0xE0 SHL DUP6 MSTORE PUSH1 0x32 SWAP1 MSTORE PUSH1 0x24 DUP5 REVERT JUMPDEST PUSH4 0x4E487B71 PUSH1 0xE0 SHL DUP6 MSTORE PUSH1 0x41 SWAP1 MSTORE PUSH1 0x24 DUP5 REVERT JUMPDEST SWAP1 SWAP2 DUP1 PUSH3 0x21F SWAP2 PUSH3 0x388 JUMP JUMPDEST SWAP3 DUP4 DUP7 SLOAD DUP7 DUP2 LT ISZERO PUSH3 0x29F JUMPI DUP11 DUP2 ADD DUP1 DUP10 SSTORE DUP2 LT ISZERO PUSH3 0x28C JUMPI DUP2 SWAP1 DUP9 DUP12 MSTORE DUP10 DUP12 KECCAK256 ADD SSTORE DUP4 SLOAD DUP7 DUP2 LT ISZERO PUSH3 0x29F JUMPI DUP11 DUP2 ADD DUP1 DUP7 SSTORE DUP2 LT ISZERO PUSH3 0x28C JUMPI DUP5 DUP11 MSTORE DUP9 DUP11 KECCAK256 ADD SSTORE PUSH1 0x0 NOT DUP2 EQ PUSH3 0x27A JUMPI DUP9 ADD SWAP3 SWAP2 SWAP1 PUSH3 0x135 JUMP JUMPDEST PUSH4 0x4E487B71 PUSH1 0xE0 SHL DUP9 MSTORE DUP2 DUP7 MSTORE PUSH1 0x24 DUP9 REVERT JUMPDEST PUSH4 0x4E487B71 PUSH1 0xE0 SHL DUP11 MSTORE PUSH1 0x32 DUP9 MSTORE PUSH1 0x24 DUP11 REVERT JUMPDEST PUSH4 0x4E487B71 PUSH1 0xE0 SHL DUP11 MSTORE PUSH1 0x41 DUP9 MSTORE PUSH1 0x24 DUP11 REVERT JUMPDEST PUSH4 0x4E487B71 PUSH1 0xE0 SHL DUP9 MSTORE PUSH1 0x32 DUP7 MSTORE PUSH1 0x24 DUP9 REVERT JUMPDEST PUSH4 0x4E487B71 PUSH1 0xE0 SHL DUP9 MSTORE PUSH1 0x41 DUP7 MSTORE PUSH1 0x24 DUP9 REVERT JUMPDEST PUSH4 0x4E487B71 PUSH1 0xE0 SHL DUP8 MSTORE PUSH1 0x32 DUP6 MSTORE PUSH1 0x24 DUP8 REVERT JUMPDEST PUSH4 0x4E487B71 PUSH1 0xE0 SHL DUP8 MSTORE PUSH1 0x41 DUP6 MSTORE PUSH1 0x24 DUP8 REVERT JUMPDEST DUP9 MLOAD PUSH4 0xD92E233D PUSH1 0xE0 SHL DUP2 MSTORE PUSH1 0x4 SWAP1 REVERT JUMPDEST PUSH1 0x0 DUP1 REVERT JUMPDEST PUSH4 0x4E487B71 PUSH1 0xE0 SHL PUSH1 0x0 MSTORE PUSH1 0x41 PUSH1 0x4 MSTORE PUSH1 0x24 PUSH1 0x0 REVERT JUMPDEST MLOAD SWAP1 PUSH1 0x1 PUSH1 0x1 PUSH1 0xA0 SHL SUB DUP3 AND DUP3 SUB PUSH3 0x30F JUMPI JUMP JUMPDEST PUSH1 0x1 DUP1 SLOAD PUSH1 0x1 PUSH1 0x1 PUSH1 0xA0 SHL SUB SWAP3 DUP4 AND PUSH1 0x1 PUSH1 0x1 PUSH1 0xA0 SHL SUB NOT DUP3 AND DUP2 OR SWAP1 SWAP3 SSTORE SWAP1 SWAP2 AND PUSH32 0x8BE0079C531659141344CD1FD0A4F28419497F9722A3DAAFE3B4186F6B6457E0 PUSH1 0x0 DUP1 LOG3 JUMP JUMPDEST PUSH1 0x40 DUP1 MLOAD PUSH1 0x20 DUP2 ADD SWAP3 DUP4 MSTORE DUP1 DUP3 ADD SWAP4 SWAP1 SWAP4 MSTORE DUP3 MSTORE SWAP1 PUSH1 0x60 DUP2 ADD PUSH1 0x1 PUSH1 0x1 PUSH1 0x40 SHL SUB DUP2 GT DUP3 DUP3 LT OR PUSH3 0x314 JUMPI PUSH1 0x40 MSTORE MLOAD SWAP1 KECCAK256 SWAP1 JUMP INVALID PUSH1 0x80 PUSH1 0x40 MSTORE PUSH1 0x4 CALLDATASIZE LT ISZERO PUSH2 0x12 JUMPI PUSH1 0x0 DUP1 REVERT JUMPDEST PUSH1 0x0 CALLDATALOAD PUSH1 0xE0 SHR DUP1 PUSH4 0x6EB1D30 EQ PUSH2 0x1356 JUMPI DUP1 PUSH4 0x910A510 EQ PUSH2 0x12B5 JUMPI DUP1 PUSH4 0xCE611E6 EQ PUSH2 0x1289 JUMPI DUP1 PUSH4 0x1DE26E16 EQ PUSH2 0xFFA JUMPI DUP1 PUSH4 0x235B6F50 EQ PUSH2 0xFC9 JUMPI DUP1 PUSH4 0x2997E86B EQ PUSH2 0xF98 JUMPI DUP1 PUSH4 0x2B7AC3F3 EQ PUSH2 0xF6F JUMPI DUP1 PUSH4 0x2BB42183 EQ PUSH2 0xF51 JUMPI DUP1 PUSH4 0x46904840 EQ PUSH2 0xF28 JUMPI DUP1 PUSH4 0x4B319713 EQ PUSH2 0xF0A JUMPI DUP1 PUSH4 0x4F6AA42B EQ PUSH2 0xEEC JUMPI DUP1 PUSH4 0x51C6590A EQ PUSH2 0xEAD JUMPI DUP1 PUSH4 0x5300F841 EQ PUSH2 0xE6E JUMPI DUP1 PUSH4 0x5312EA8E EQ PUSH2 0xE19 JUMPI DUP1 PUSH4 0x5437988D EQ PUSH2 0xDD6 JUMPI DUP1 PUSH4 0x715018A6 EQ PUSH2 0xD79 JUMPI DUP1 PUSH4 0x72515F75 EQ PUSH2 0xD28 JUMPI DUP1 PUSH4 0x7ACA2B59 EQ PUSH2 0xD0A JUMPI DUP1 PUSH4 0x839DF945 EQ PUSH2 0xCD9 JUMPI DUP1 PUSH4 0x8DA5CB5B EQ PUSH2 0xCB0 JUMPI DUP1 PUSH4 0xA6A12AC4 EQ PUSH2 0xC94 JUMPI DUP1 PUSH4 0xAA93018E EQ PUSH2 0x844 JUMPI DUP1 PUSH4 0xAB879827 EQ PUSH2 0x826 JUMPI DUP1 PUSH4 0xBA70F757 EQ PUSH2 0x803 JUMPI DUP1 PUSH4 0xC2B40AE4 EQ PUSH2 0x7DA JUMPI DUP1 PUSH4 0xC59D4847 EQ PUSH2 0x6F6 JUMPI DUP1 PUSH4 0xC714C9A8 EQ PUSH2 0x6A3 JUMPI DUP1 PUSH4 0xCD87A3B4 EQ PUSH2 0x687 JUMPI DUP1 PUSH4 0xCEC10C11 EQ PUSH2 0x5FA JUMPI DUP1 PUSH4 0xCFF3FABA EQ PUSH2 0x47D JUMPI DUP1 PUSH4 0xE74B981B EQ PUSH2 0x41E JUMPI DUP1 PUSH4 0xE8295588 EQ PUSH2 0x3F5 JUMPI DUP1 PUSH4 0xECD8DC3A EQ PUSH2 0x36D JUMPI DUP1 PUSH4 0xED48478D EQ PUSH2 0x34F JUMPI DUP1 PUSH4 0xF178E47C EQ PUSH2 0x318 JUMPI DUP1 PUSH4 0xF2FDE38B EQ PUSH2 0x24F JUMPI DUP1 PUSH4 0xFC0C546A EQ PUSH2 0x20A JUMPI DUP1 PUSH4 0xFC7E9C6F EQ PUSH2 0x1EC JUMPI PUSH4 0xFF50ABDC EQ PUSH2 0x1C9 JUMPI PUSH1 0x0 DUP1 REVERT JUMPDEST CALLVALUE PUSH2 0x1E7 JUMPI PUSH1 0x0 CALLDATASIZE PUSH1 0x3 NOT ADD SLT PUSH2 0x1E7 JUMPI PUSH1 0x20 PUSH1 0xD SLOAD PUSH1 0x40 MLOAD SWAP1 DUP2 MSTORE RETURN JUMPDEST PUSH1 0x0 DUP1 REVERT JUMPDEST CALLVALUE PUSH2 0x1E7 JUMPI PUSH1 0x0 CALLDATASIZE PUSH1 0x3 NOT ADD SLT PUSH2 0x1E7 JUMPI PUSH1 0x20 PUSH1 0x3 SLOAD PUSH1 0x40 MLOAD SWAP1 DUP2 MSTORE RETURN JUMPDEST CALLVALUE PUSH2 0x1E7 JUMPI PUSH1 0x0 CALLDATASIZE PUSH1 0x3 NOT ADD SLT PUSH2 0x1E7 JUMPI PUSH1 0x40 MLOAD PUSH32 0x0 PUSH1 0x1 PUSH1 0x1 PUSH1 0xA0 SHL SUB AND DUP2 MSTORE PUSH1 0x20 SWAP1 RETURN JUMPDEST CALLVALUE PUSH2 0x1E7 JUMPI PUSH1 0x20 CALLDATASIZE PUSH1 0x3 NOT ADD SLT PUSH2 0x1E7 JUMPI PUSH2 0x268 PUSH2 0x13C8 JUMP JUMPDEST PUSH2 0x270 PUSH2 0x1483 JUMP JUMPDEST PUSH1 0x1 PUSH1 0x1 PUSH1 0xA0 SHL SUB SWAP1 DUP2 AND SWAP1 DUP2 ISZERO PUSH2 0x2C4 JUMPI PUSH1 0x1 SLOAD DUP3 PUSH12 0xFFFFFFFFFFFFFFFFFFFFFFFF PUSH1 0xA0 SHL DUP3 AND OR PUSH1 0x1 SSTORE AND PUSH32 0x8BE0079C531659141344CD1FD0A4F28419497F9722A3DAAFE3B4186F6B6457E0 PUSH1 0x0 DUP1 LOG3 STOP JUMPDEST PUSH1 0x40 MLOAD PUSH3 0x461BCD PUSH1 0xE5 SHL DUP2 MSTORE PUSH1 0x20 PUSH1 0x4 DUP3 ADD MSTORE PUSH1 0x26 PUSH1 0x24 DUP3 ADD MSTORE PUSH32 0x4F776E61626C653A206E6577206F776E657220697320746865207A65726F2061 PUSH1 0x44 DUP3 ADD MSTORE PUSH6 0x646472657373 PUSH1 0xD0 SHL PUSH1 0x64 DUP3 ADD MSTORE PUSH1 0x84 SWAP1 REVERT JUMPDEST CALLVALUE PUSH2 0x1E7 JUMPI PUSH1 0x20 CALLDATASIZE PUSH1 0x3 NOT ADD SLT PUSH2 0x1E7 JUMPI PUSH1 0x4 CALLDATALOAD PUSH1 0x5 SLOAD DUP2 LT ISZERO PUSH2 0x1E7 JUMPI PUSH2 0x341 PUSH1 0x20 SWAP2 PUSH2 0x13DE JUMP JUMPDEST SWAP1 SLOAD PUSH1 0x40 MLOAD SWAP2 PUSH1 0x3 SHL SHR DUP2 MSTORE RETURN JUMPDEST CALLVALUE PUSH2 0x1E7 JUMPI PUSH1 0x0 CALLDATASIZE PUSH1 0x3 NOT ADD SLT PUSH2 0x1E7 JUMPI PUSH1 0x20 PUSH1 0x9 SLOAD PUSH1 0x40 MLOAD SWAP1 DUP2 MSTORE RETURN JUMPDEST CALLVALUE PUSH2 0x1E7 JUMPI PUSH1 0x40 CALLDATASIZE PUSH1 0x3 NOT ADD SLT PUSH2 0x1E7 JUMPI PUSH2 0x386 PUSH2 0x13C8 JUMP JUMPDEST PUSH1 0x24 CALLDATALOAD SWAP1 DUP2 ISZERO ISZERO SWAP1 DUP2 DUP4 SUB PUSH2 0x1E7 JUMPI PUSH32 0x4B36B2E66F38ED349BEC532105790177F1283BCBC094E6CD48565195D3033C43 SWAP2 PUSH2 0x3EC PUSH1 0x20 SWAP3 PUSH2 0x3C5 PUSH2 0x1483 JUMP JUMPDEST PUSH1 0x1 DUP1 PUSH1 0xA0 SHL SUB AND SWAP5 DUP6 PUSH1 0x0 MSTORE PUSH1 0xA DUP5 MSTORE PUSH1 0x40 PUSH1 0x0 KECCAK256 SWAP1 PUSH1 0xFF DUP1 NOT DUP4 SLOAD AND SWAP2 ISZERO ISZERO AND OR SWAP1 SSTORE JUMP JUMPDEST PUSH1 0x40 MLOAD SWAP1 DUP2 MSTORE LOG2 STOP JUMPDEST CALLVALUE PUSH2 0x1E7 JUMPI PUSH1 0x20 CALLDATASIZE PUSH1 0x3 NOT ADD SLT PUSH2 0x1E7 JUMPI PUSH1 0x4 CALLDATALOAD PUSH1 0x4 SLOAD DUP2 LT ISZERO PUSH2 0x1E7 JUMPI PUSH2 0x341 PUSH1 0x20 SWAP2 PUSH2 0x1415 JUMP JUMPDEST CALLVALUE PUSH2 0x1E7 JUMPI PUSH1 0x20 CALLDATASIZE PUSH1 0x3 NOT ADD SLT PUSH2 0x1E7 JUMPI PUSH2 0x437 PUSH2 0x13C8 JUMP JUMPDEST PUSH2 0x43F PUSH2 0x1483 JUMP JUMPDEST PUSH1 0x1 PUSH1 0x1 PUSH1 0xA0 SHL SUB AND DUP1 ISZERO PUSH2 0x46B JUMPI PUSH12 0xFFFFFFFFFFFFFFFFFFFFFFFF PUSH1 0xA0 SHL PUSH1 0x13 SLOAD AND OR PUSH1 0x13 SSTORE PUSH1 0x0 DUP1 RETURN JUMPDEST PUSH1 0x40 MLOAD PUSH4 0xD92E233D PUSH1 0xE0 SHL DUP2 MSTORE PUSH1 0x4 SWAP1 REVERT JUMPDEST CALLVALUE PUSH2 0x1E7 JUMPI PUSH2 0x48B CALLDATASIZE PUSH2 0x13B2 JUMP JUMPDEST SWAP1 CALLER PUSH1 0x0 MSTORE PUSH1 0xA PUSH1 0x20 MSTORE PUSH1 0xFF PUSH1 0x40 PUSH1 0x0 KECCAK256 SLOAD AND ISZERO DUP1 PUSH2 0x5E5 JUMPI JUMPDEST PUSH2 0x5D3 JUMPI DUP1 PUSH1 0x0 MSTORE PUSH1 0x8 PUSH1 0x20 MSTORE PUSH1 0xFF PUSH1 0x3 PUSH1 0x40 PUSH1 0x0 KECCAK256 ADD SLOAD AND PUSH2 0x5C1 JUMPI PUSH2 0x521 PUSH1 0x40 MLOAD PUSH2 0x4D1 DUP2 PUSH2 0x14DB JUMP JUMPDEST DUP3 DUP2 MSTORE PUSH1 0x3 PUSH1 0x20 DUP3 ADD DUP6 DUP2 MSTORE PUSH1 0x40 DUP4 ADD TIMESTAMP DUP2 MSTORE PUSH1 0x60 DUP5 ADD SWAP2 PUSH1 0x1 DUP4 MSTORE DUP7 PUSH1 0x0 MSTORE PUSH1 0x8 PUSH1 0x20 MSTORE PUSH1 0x40 PUSH1 0x0 KECCAK256 SWAP5 MLOAD DUP6 SSTORE MLOAD PUSH1 0x1 DUP6 ADD SSTORE MLOAD PUSH1 0x2 DUP5 ADD SSTORE MLOAD ISZERO ISZERO SWAP2 ADD SWAP1 PUSH1 0xFF DUP1 NOT DUP4 SLOAD AND SWAP2 ISZERO ISZERO AND OR SWAP1 SSTORE JUMP JUMPDEST PUSH1 0x9 SLOAD PUSH1 0x1 PUSH1 0x40 SHL DUP2 LT ISZERO PUSH2 0x5AB JUMPI PUSH1 0x1 DUP2 ADD DUP1 PUSH1 0x9 SSTORE DUP2 LT ISZERO PUSH2 0x595 JUMPI DUP2 SWAP1 PUSH1 0x9 PUSH1 0x0 MSTORE PUSH32 0x6E1540171B6C0C960B71A7020D9F60077F6AF931A8BBF590DA0223DACF75C7AF ADD SSTORE PUSH32 0x3EDA3C68461537D16BBEBD874034B060D74ED32FE35C923D1D6A2A0EBF615E13 PUSH1 0x20 PUSH1 0x40 MLOAD CALLER DUP2 MSTORE LOG3 STOP JUMPDEST PUSH4 0x4E487B71 PUSH1 0xE0 SHL PUSH1 0x0 MSTORE PUSH1 0x32 PUSH1 0x4 MSTORE PUSH1 0x24 PUSH1 0x0 REVERT JUMPDEST PUSH4 0x4E487B71 PUSH1 0xE0 SHL PUSH1 0x0 MSTORE PUSH1 0x41 PUSH1 0x4 MSTORE PUSH1 0x24 PUSH1 0x0 REVERT JUMPDEST PUSH1 0x40 MLOAD PUSH4 0x2746D637 PUSH1 0xE2 SHL DUP2 MSTORE PUSH1 0x4 SWAP1 REVERT JUMPDEST PUSH1 0x40 MLOAD PUSH4 0xC64891A5 PUSH1 0xE0 SHL DUP2 MSTORE PUSH1 0x4 SWAP1 REVERT JUMPDEST POP PUSH1 0x1 SLOAD PUSH1 0x1 PUSH1 0x1 PUSH1 0xA0 SHL SUB AND CALLER EQ ISZERO PUSH2 0x4A5 JUMP JUMPDEST CALLVALUE PUSH2 0x1E7 JUMPI PUSH1 0x60 CALLDATASIZE PUSH1 0x3 NOT ADD SLT PUSH2 0x1E7 JUMPI PUSH1 0x44 CALLDATALOAD PUSH1 0x24 CALLDATALOAD PUSH1 0x4 CALLDATALOAD PUSH2 0x61C PUSH2 0x1483 JUMP JUMPDEST PUSH1 0x64 DUP2 GT ISZERO DUP1 PUSH2 0x67C JUMPI JUMPDEST DUP1 PUSH2 0x671 JUMPI JUMPDEST ISZERO PUSH2 0x63D JUMPI PUSH1 0x10 SSTORE PUSH1 0x11 SSTORE PUSH1 0x12 SSTORE STOP JUMPDEST PUSH1 0x40 MLOAD PUSH3 0x461BCD PUSH1 0xE5 SHL DUP2 MSTORE PUSH1 0x20 PUSH1 0x4 DUP3 ADD MSTORE PUSH1 0xC PUSH1 0x24 DUP3 ADD MSTORE PUSH12 0x8CCACA40E8DEDE40D0D2CED PUSH1 0xA3 SHL PUSH1 0x44 DUP3 ADD MSTORE PUSH1 0x64 SWAP1 REVERT JUMPDEST POP PUSH1 0x64 DUP4 GT ISZERO PUSH2 0x62D JUMP JUMPDEST POP PUSH1 0x64 DUP3 GT ISZERO PUSH2 0x627 JUMP JUMPDEST CALLVALUE PUSH2 0x1E7 JUMPI PUSH1 0x0 CALLDATASIZE PUSH1 0x3 NOT ADD SLT PUSH2 0x1E7 JUMPI PUSH1 0x20 PUSH1 0x40 MLOAD PUSH1 0x64 DUP2 MSTORE RETURN JUMPDEST CALLVALUE PUSH2 0x1E7 JUMPI PUSH1 0x20 CALLDATASIZE PUSH1 0x3 NOT ADD SLT PUSH2 0x1E7 JUMPI PUSH1 0x4 CALLDATALOAD PUSH1 0x0 MSTORE PUSH1 0x8 PUSH1 0x20 MSTORE PUSH1 0x80 PUSH1 0x40 PUSH1 0x0 KECCAK256 DUP1 SLOAD SWAP1 PUSH1 0x1 DUP2 ADD SLOAD SWAP1 PUSH1 0xFF PUSH1 0x3 PUSH1 0x2 DUP4 ADD SLOAD SWAP3 ADD SLOAD AND SWAP2 PUSH1 0x40 MLOAD SWAP4 DUP5 MSTORE PUSH1 0x20 DUP5 ADD MSTORE PUSH1 0x40 DUP4 ADD MSTORE ISZERO ISZERO PUSH1 0x60 DUP3 ADD MSTORE RETURN JUMPDEST CALLVALUE PUSH2 0x1E7 JUMPI PUSH1 0x0 CALLDATASIZE PUSH1 0x3 NOT ADD SLT PUSH2 0x1E7 JUMPI PUSH1 0xD SLOAD PUSH1 0xE SLOAD SWAP1 PUSH1 0xF SLOAD SWAP2 PUSH1 0x3 SLOAD PUSH2 0x71D PUSH2 0x18D4 JUMP JUMPDEST PUSH1 0x40 MLOAD PUSH4 0x70A08231 PUSH1 0xE0 SHL DUP2 MSTORE ADDRESS PUSH1 0x4 DUP3 ADD MSTORE SWAP5 SWAP1 SWAP2 SWAP1 PUSH1 0x20 DUP7 PUSH1 0x24 DUP2 PUSH32 0x0 PUSH1 0x1 PUSH1 0x1 PUSH1 0xA0 SHL SUB AND GAS STATICCALL SWAP4 DUP5 ISZERO PUSH2 0x7CE JUMPI PUSH1 0x0 SWAP5 PUSH2 0x79A JUMPI JUMPDEST PUSH1 0xC0 SWAP7 POP PUSH1 0x40 MLOAD SWAP6 DUP7 MSTORE PUSH1 0x20 DUP7 ADD MSTORE PUSH1 0x40 DUP6 ADD MSTORE PUSH1 0x60 DUP5 ADD MSTORE PUSH1 0x80 DUP4 ADD MSTORE PUSH1 0xA0 DUP3 ADD MSTORE RETURN JUMPDEST SWAP4 POP PUSH1 0x20 DUP7 RETURNDATASIZE DUP3 GT PUSH2 0x7C6 JUMPI JUMPDEST DUP2 PUSH2 0x7B4 PUSH1 0x20 SWAP4 DUP4 PUSH2 0x14F7 JUMP JUMPDEST DUP2 ADD SUB SLT PUSH2 0x1E7 JUMPI PUSH1 0xC0 SWAP6 MLOAD SWAP4 PUSH2 0x775 JUMP JUMPDEST RETURNDATASIZE SWAP2 POP PUSH2 0x7A7 JUMP JUMPDEST PUSH1 0x40 MLOAD RETURNDATASIZE PUSH1 0x0 DUP3 RETURNDATACOPY RETURNDATASIZE SWAP1 REVERT JUMPDEST CALLVALUE PUSH2 0x1E7 JUMPI PUSH1 0x20 CALLDATASIZE PUSH1 0x3 NOT ADD SLT PUSH2 0x1E7 JUMPI PUSH1 0x4 CALLDATALOAD PUSH1 0x6 SLOAD DUP2 LT ISZERO PUSH2 0x1E7 JUMPI PUSH2 0x341 PUSH1 0x20 SWAP2 PUSH2 0x144C JUMP JUMPDEST CALLVALUE PUSH2 0x1E7 JUMPI PUSH1 0x0 CALLDATASIZE PUSH1 0x3 NOT ADD SLT PUSH2 0x1E7 JUMPI PUSH1 0x20 PUSH2 0x81E PUSH2 0x18D4 JUMP JUMPDEST PUSH1 0x40 MLOAD SWAP1 DUP2 MSTORE RETURN JUMPDEST CALLVALUE PUSH2 0x1E7 JUMPI PUSH1 0x0 CALLDATASIZE PUSH1 0x3 NOT ADD SLT PUSH2 0x1E7 JUMPI PUSH1 0x20 PUSH1 0x10 SLOAD PUSH1 0x40 MLOAD SWAP1 DUP2 MSTORE RETURN JUMPDEST CALLVALUE PUSH2 0x1E7 JUMPI PUSH1 0xA0 CALLDATASIZE PUSH1 0x3 NOT ADD SLT PUSH2 0x1E7 JUMPI PUSH8 0xFFFFFFFFFFFFFFFF PUSH1 0x4 CALLDATALOAD GT PUSH2 0x1E7 JUMPI CALLDATASIZE PUSH1 0x23 PUSH1 0x4 CALLDATALOAD ADD SLT ISZERO PUSH2 0x1E7 JUMPI PUSH1 0x4 CALLDATALOAD PUSH1 0x4 ADD CALLDATALOAD PUSH8 0xFFFFFFFFFFFFFFFF DUP2 GT PUSH2 0x1E7 JUMPI PUSH1 0x4 CALLDATALOAD ADD PUSH1 0x24 DUP2 ADD CALLDATASIZE DUP2 GT PUSH2 0x1E7 JUMPI PUSH1 0x64 CALLDATALOAD PUSH1 0x1 PUSH1 0x1 PUSH1 0xA0 SHL SUB DUP2 AND SWAP1 SUB PUSH2 0x1E7 JUMPI PUSH2 0x8B3 PUSH2 0x158C JUMP JUMPDEST PUSH1 0x44 CALLDATALOAD PUSH1 0x0 MSTORE PUSH1 0xB PUSH1 0x20 MSTORE PUSH1 0xFF PUSH1 0x40 PUSH1 0x0 KECCAK256 SLOAD AND PUSH2 0xC82 JUMPI PUSH1 0x64 CALLDATALOAD PUSH1 0x1 PUSH1 0x1 PUSH1 0xA0 SHL SUB AND ISZERO PUSH2 0x46B JUMPI PUSH2 0x8E7 PUSH1 0x24 CALLDATALOAD PUSH2 0x1519 JUMP JUMPDEST SWAP3 SWAP1 ISZERO PUSH2 0xC70 JUMPI PUSH1 0x40 MLOAD PUSH4 0x70A08231 PUSH1 0xE0 SHL DUP2 MSTORE ADDRESS PUSH1 0x4 DUP3 ADD MSTORE PUSH1 0x20 DUP2 PUSH1 0x24 DUP2 PUSH32 0x0 PUSH1 0x1 PUSH1 0x1 PUSH1 0xA0 SHL SUB AND GAS STATICCALL SWAP1 DUP2 ISZERO PUSH2 0x7CE JUMPI PUSH1 0x0 SWAP2 PUSH2 0xC3E JUMPI JUMPDEST POP PUSH1 0x84 CALLDATALOAD GT PUSH2 0xC2C JUMPI PUSH1 0x2 SLOAD PUSH1 0x1 PUSH1 0x1 PUSH1 0xA0 SHL SUB AND SWAP2 DUP3 PUSH2 0xA9A JUMPI JUMPDEST POP POP POP PUSH1 0x44 CALLDATALOAD PUSH1 0x0 MSTORE PUSH1 0xB PUSH1 0x20 MSTORE PUSH1 0x40 PUSH1 0x0 KECCAK256 PUSH1 0x1 PUSH1 0xFF NOT DUP3 SLOAD AND OR SWAP1 SSTORE CHAINID DUP2 EQ ISZERO SWAP1 DUP2 PUSH1 0x0 EQ PUSH2 0xA8C JUMPI PUSH2 0x2710 PUSH2 0x99B PUSH1 0x12 SLOAD JUMPDEST PUSH1 0x84 CALLDATALOAD PUSH2 0x155F JUMP JUMPDEST DIV PUSH2 0x9A8 DUP2 PUSH1 0x84 CALLDATALOAD PUSH2 0x1572 JUMP JUMPDEST SWAP3 PUSH2 0x9B7 PUSH1 0x84 CALLDATALOAD PUSH1 0xE SLOAD PUSH2 0x157F JUMP JUMPDEST PUSH1 0xE SSTORE PUSH2 0xA76 JUMPI JUMPDEST PUSH2 0x9EC DUP4 PUSH1 0x64 CALLDATALOAD PUSH32 0x0 PUSH2 0x15E2 JUMP JUMPDEST DUP1 PUSH2 0xA39 JUMPI JUMPDEST POP PUSH1 0x40 MLOAD SWAP2 DUP3 MSTORE PUSH1 0x20 DUP3 ADD MSTORE PUSH1 0x1 DUP1 PUSH1 0xA0 SHL SUB PUSH1 0x64 CALLDATALOAD AND SWAP1 PUSH32 0x2865D567636CFB8B64E349AF19627E3EF92DC0C2CABFE3B1FD3E659425938E8F PUSH1 0x40 PUSH1 0x44 CALLDATALOAD SWAP3 LOG3 PUSH1 0x1 PUSH1 0x0 SSTORE STOP JUMPDEST PUSH1 0x13 SLOAD PUSH2 0xA70 SWAP2 SWAP1 PUSH1 0x1 PUSH1 0x1 PUSH1 0xA0 SHL SUB AND PUSH32 0x0 PUSH2 0x15E2 JUMP JUMPDEST DUP3 PUSH2 0x9F2 JUMP JUMPDEST PUSH2 0xA84 PUSH1 0x84 CALLDATALOAD PUSH1 0xF SLOAD PUSH2 0x157F JUMP JUMPDEST PUSH1 0xF SSTORE PUSH2 0x9BF JUMP JUMPDEST PUSH2 0x2710 PUSH2 0x99B PUSH1 0x11 SLOAD PUSH2 0x993 JUMP JUMPDEST PUSH2 0x100 DUP1 SWAP3 PUSH1 0x4 CALLDATALOAD SWAP1 SUB SLT PUSH2 0x1E7 JUMPI DUP1 PUSH1 0x43 PUSH1 0x4 CALLDATALOAD ADD SLT ISZERO PUSH2 0x1E7 JUMPI PUSH1 0x40 MLOAD SWAP2 DUP3 ADD DUP3 DUP2 LT PUSH8 0xFFFFFFFFFFFFFFFF DUP3 GT OR PUSH2 0x5AB JUMPI PUSH1 0x40 MSTORE DUP2 SWAP1 PUSH2 0x124 PUSH1 0x4 CALLDATALOAD ADD GT PUSH2 0x1E7 JUMPI PUSH1 0x24 PUSH1 0x4 CALLDATALOAD ADD SWAP1 JUMPDEST PUSH2 0x124 PUSH1 0x4 CALLDATALOAD ADD DUP3 LT PUSH2 0xC1C JUMPI POP POP PUSH1 0x40 MLOAD PUSH2 0xB03 DUP2 PUSH2 0x14DB JUMP JUMPDEST PUSH1 0x24 CALLDATALOAD DUP2 MSTORE PUSH1 0x44 CALLDATALOAD PUSH1 0x20 DUP3 ADD MSTORE PUSH1 0x84 CALLDATALOAD PUSH1 0x40 DUP3 ADD MSTORE PUSH1 0x1 DUP1 PUSH1 0xA0 SHL SUB PUSH1 0x64 CALLDATALOAD AND PUSH1 0x60 DUP3 ADD MSTORE PUSH1 0x40 MLOAD SWAP2 PUSH4 0x23572511 PUSH1 0xE0 SHL PUSH1 0x20 DUP5 ADD MSTORE PUSH1 0x24 DUP4 ADD PUSH1 0x0 SWAP1 JUMPDEST PUSH1 0x8 DUP3 LT PUSH2 0xC06 JUMPI POP POP POP PUSH2 0x124 DUP3 ADD PUSH1 0x0 SWAP1 JUMPDEST PUSH1 0x4 DUP3 LT PUSH2 0xBF0 JUMPI POP POP POP PUSH2 0x184 DUP2 MSTORE PUSH2 0x1C0 DUP2 ADD SWAP1 DUP1 DUP3 LT PUSH8 0xFFFFFFFFFFFFFFFF DUP4 GT OR PUSH2 0x5AB JUMPI PUSH1 0x0 SWAP3 DUP4 SWAP3 PUSH1 0x40 MSTORE PUSH1 0x20 DUP3 MLOAD SWAP3 ADD SWAP1 GAS STATICCALL PUSH2 0xB97 PUSH2 0x178B JUMP JUMPDEST SWAP1 ISZERO SWAP1 DUP2 ISZERO PUSH2 0xBC0 JUMPI JUMPDEST POP PUSH2 0xBAE JUMPI DUP2 DUP1 DUP1 PUSH2 0x95E JUMP JUMPDEST PUSH1 0x40 MLOAD PUSH4 0x9BDE339 PUSH1 0xE0 SHL DUP2 MSTORE PUSH1 0x4 SWAP1 REVERT JUMPDEST DUP1 MLOAD DUP1 ISZERO ISZERO SWAP3 POP DUP3 PUSH2 0xBD5 JUMPI JUMPDEST POP POP DUP3 PUSH2 0xBA1 JUMP JUMPDEST PUSH2 0xBE8 SWAP3 POP PUSH1 0x20 DUP1 SWAP2 DUP4 ADD ADD SWAP2 ADD PUSH2 0x167B JUMP JUMPDEST ISZERO DUP3 DUP1 PUSH2 0xBCD JUMP JUMPDEST PUSH1 0x20 DUP1 PUSH1 0x1 SWAP3 DUP6 MLOAD DUP2 MSTORE ADD SWAP4 ADD SWAP2 ADD SWAP1 SWAP2 PUSH2 0xB55 JUMP JUMPDEST PUSH1 0x20 DUP1 PUSH1 0x1 SWAP3 DUP6 MLOAD DUP2 MSTORE ADD SWAP4 ADD SWAP2 ADD SWAP1 SWAP2 PUSH2 0xB41 JUMP JUMPDEST DUP2 CALLDATALOAD DUP2 MSTORE PUSH1 0x20 SWAP2 DUP3 ADD SWAP2 ADD PUSH2 0xAE8 JUMP JUMPDEST PUSH1 0x40 MLOAD PUSH4 0xBB55FD27 PUSH1 0xE0 SHL DUP2 MSTORE PUSH1 0x4 SWAP1 REVERT JUMPDEST SWAP1 POP PUSH1 0x20 DUP2 RETURNDATASIZE PUSH1 0x20 GT PUSH2 0xC68 JUMPI JUMPDEST DUP2 PUSH2 0xC59 PUSH1 0x20 SWAP4 DUP4 PUSH2 0x14F7 JUMP JUMPDEST DUP2 ADD SUB SLT PUSH2 0x1E7 JUMPI MLOAD DUP5 PUSH2 0x942 JUMP JUMPDEST RETURNDATASIZE SWAP2 POP PUSH2 0xC4C JUMP JUMPDEST PUSH1 0x40 MLOAD PUSH4 0x504570E3 PUSH1 0xE0 SHL DUP2 MSTORE PUSH1 0x4 SWAP1 REVERT JUMPDEST PUSH1 0x40 MLOAD PUSH4 0x65695701 PUSH1 0xE1 SHL DUP2 MSTORE PUSH1 0x4 SWAP1 REVERT JUMPDEST CALLVALUE PUSH2 0x1E7 JUMPI PUSH1 0x0 CALLDATASIZE PUSH1 0x3 NOT ADD SLT PUSH2 0x1E7 JUMPI PUSH1 0x20 PUSH1 0x40 MLOAD PUSH1 0x14 DUP2 MSTORE RETURN JUMPDEST CALLVALUE PUSH2 0x1E7 JUMPI PUSH1 0x0 CALLDATASIZE PUSH1 0x3 NOT ADD SLT PUSH2 0x1E7 JUMPI PUSH1 0x1 SLOAD PUSH1 0x40 MLOAD PUSH1 0x1 PUSH1 0x1 PUSH1 0xA0 SHL SUB SWAP1 SWAP2 AND DUP2 MSTORE PUSH1 0x20 SWAP1 RETURN JUMPDEST CALLVALUE PUSH2 0x1E7 JUMPI PUSH1 0x20 CALLDATASIZE PUSH1 0x3 NOT ADD SLT PUSH2 0x1E7 JUMPI PUSH1 0x4 CALLDATALOAD PUSH1 0x0 MSTORE PUSH1 0xC PUSH1 0x20 MSTORE PUSH1 0x20 PUSH1 0xFF PUSH1 0x40 PUSH1 0x0 KECCAK256 SLOAD AND PUSH1 0x40 MLOAD SWAP1 ISZERO ISZERO DUP2 MSTORE RETURN JUMPDEST CALLVALUE PUSH2 0x1E7 JUMPI PUSH1 0x0 CALLDATASIZE PUSH1 0x3 NOT ADD SLT PUSH2 0x1E7 JUMPI PUSH1 0x20 PUSH1 0x11 SLOAD PUSH1 0x40 MLOAD SWAP1 DUP2 MSTORE RETURN JUMPDEST CALLVALUE PUSH2 0x1E7 JUMPI PUSH1 0x20 CALLDATASIZE PUSH1 0x3 NOT ADD SLT PUSH2 0x1E7 JUMPI PUSH1 0x4 CALLDATALOAD PUSH1 0x9 SLOAD DUP2 LT ISZERO PUSH2 0x1E7 JUMPI PUSH1 0x20 SWAP1 PUSH1 0x9 PUSH1 0x0 MSTORE PUSH32 0x6E1540171B6C0C960B71A7020D9F60077F6AF931A8BBF590DA0223DACF75C7AF ADD SLOAD PUSH1 0x40 MLOAD SWAP1 DUP2 MSTORE RETURN JUMPDEST CALLVALUE PUSH2 0x1E7 JUMPI PUSH1 0x0 CALLDATASIZE PUSH1 0x3 NOT ADD SLT PUSH2 0x1E7 JUMPI PUSH2 0xD92 PUSH2 0x1483 JUMP JUMPDEST PUSH1 0x1 DUP1 SLOAD PUSH1 0x1 PUSH1 0x1 PUSH1 0xA0 SHL SUB NOT DUP2 AND SWAP1 SWAP2 SSTORE PUSH1 0x0 SWAP1 PUSH1 0x1 PUSH1 0x1 PUSH1 0xA0 SHL SUB AND PUSH32 0x8BE0079C531659141344CD1FD0A4F28419497F9722A3DAAFE3B4186F6B6457E0 DUP3 DUP1 LOG3 STOP JUMPDEST CALLVALUE PUSH2 0x1E7 JUMPI PUSH1 0x20 CALLDATASIZE PUSH1 0x3 NOT ADD SLT PUSH2 0x1E7 JUMPI PUSH2 0xDEF PUSH2 0x13C8 JUMP JUMPDEST PUSH2 0xDF7 PUSH2 0x1483 JUMP JUMPDEST PUSH1 0x2 DUP1 SLOAD PUSH1 0x1 PUSH1 0x1 PUSH1 0xA0 SHL SUB NOT AND PUSH1 0x1 PUSH1 0x1 PUSH1 0xA0 SHL SUB SWAP3 SWAP1 SWAP3 AND SWAP2 SWAP1 SWAP2 OR SWAP1 SSTORE STOP JUMPDEST CALLVALUE PUSH2 0x1E7 JUMPI PUSH1 0x20 CALLDATASIZE PUSH1 0x3 NOT ADD SLT PUSH2 0x1E7 JUMPI PUSH2 0xE32 PUSH2 0x1483 JUMP JUMPDEST PUSH1 0x1 SLOAD PUSH2 0xE6C SWAP1 PUSH1 0x4 CALLDATALOAD SWAP1 PUSH1 0x1 PUSH1 0x1 PUSH1 0xA0 SHL SUB AND PUSH32 0x0 PUSH2 0x15E2 JUMP JUMPDEST STOP JUMPDEST CALLVALUE PUSH2 0x1E7 JUMPI PUSH1 0x20 CALLDATASIZE PUSH1 0x3 NOT ADD SLT PUSH2 0x1E7 JUMPI PUSH1 0x1 PUSH1 0x1 PUSH1 0xA0 SHL SUB PUSH2 0xE8F PUSH2 0x13C8 JUMP JUMPDEST AND PUSH1 0x0 MSTORE PUSH1 0xA PUSH1 0x20 MSTORE PUSH1 0x20 PUSH1 0xFF PUSH1 0x40 PUSH1 0x0 KECCAK256 SLOAD AND PUSH1 0x40 MLOAD SWAP1 ISZERO ISZERO DUP2 MSTORE RETURN JUMPDEST CALLVALUE PUSH2 0x1E7 JUMPI PUSH1 0x20 CALLDATASIZE PUSH1 0x3 NOT ADD SLT PUSH2 0x1E7 JUMPI PUSH2 0xE6C PUSH1 0x4 CALLDATALOAD ADDRESS CALLER PUSH32 0x0 PUSH2 0x1622 JUMP JUMPDEST CALLVALUE PUSH2 0x1E7 JUMPI PUSH1 0x0 CALLDATASIZE PUSH1 0x3 NOT ADD SLT PUSH2 0x1E7 JUMPI PUSH1 0x20 PUSH1 0x12 SLOAD PUSH1 0x40 MLOAD SWAP1 DUP2 MSTORE RETURN JUMPDEST CALLVALUE PUSH2 0x1E7 JUMPI PUSH1 0x0 CALLDATASIZE PUSH1 0x3 NOT ADD SLT PUSH2 0x1E7 JUMPI PUSH1 0x20 PUSH1 0xE SLOAD PUSH1 0x40 MLOAD SWAP1 DUP2 MSTORE RETURN JUMPDEST CALLVALUE PUSH2 0x1E7 JUMPI PUSH1 0x0 CALLDATASIZE PUSH1 0x3 NOT ADD SLT PUSH2 0x1E7 JUMPI PUSH1 0x13 SLOAD PUSH1 0x40 MLOAD PUSH1 0x1 PUSH1 0x1 PUSH1 0xA0 SHL SUB SWAP1 SWAP2 AND DUP2 MSTORE PUSH1 0x20 SWAP1 RETURN JUMPDEST CALLVALUE PUSH2 0x1E7 JUMPI PUSH1 0x0 CALLDATASIZE PUSH1 0x3 NOT ADD SLT PUSH2 0x1E7 JUMPI PUSH1 0x20 PUSH1 0xF SLOAD PUSH1 0x40 MLOAD SWAP1 DUP2 MSTORE RETURN JUMPDEST CALLVALUE PUSH2 0x1E7 JUMPI PUSH1 0x0 CALLDATASIZE PUSH1 0x3 NOT ADD SLT PUSH2 0x1E7 JUMPI PUSH1 0x2 SLOAD PUSH1 0x40 MLOAD PUSH1 0x1 PUSH1 0x1 PUSH1 0xA0 SHL SUB SWAP1 SWAP2 AND DUP2 MSTORE PUSH1 0x20 SWAP1 RETURN JUMPDEST CALLVALUE PUSH2 0x1E7 JUMPI PUSH1 0x20 CALLDATASIZE PUSH1 0x3 NOT ADD SLT PUSH2 0x1E7 JUMPI PUSH1 0x4 CALLDATALOAD PUSH1 0x0 MSTORE PUSH1 0xB PUSH1 0x20 MSTORE PUSH1 0x20 PUSH1 0xFF PUSH1 0x40 PUSH1 0x0 KECCAK256 SLOAD AND PUSH1 0x40 MLOAD SWAP1 ISZERO ISZERO DUP2 MSTORE RETURN JUMPDEST CALLVALUE PUSH2 0x1E7 JUMPI PUSH1 0x20 CALLDATASIZE PUSH1 0x3 NOT ADD SLT PUSH2 0x1E7 JUMPI PUSH1 0x4 CALLDATALOAD PUSH1 0x0 MSTORE PUSH1 0x7 PUSH1 0x20 MSTORE PUSH1 0x20 PUSH1 0xFF PUSH1 0x40 PUSH1 0x0 KECCAK256 SLOAD AND PUSH1 0x40 MLOAD SWAP1 ISZERO ISZERO DUP2 MSTORE RETURN JUMPDEST CALLVALUE PUSH2 0x1E7 JUMPI PUSH2 0x1008 CALLDATASIZE PUSH2 0x13B2 JUMP JUMPDEST SWAP1 PUSH2 0x1011 PUSH2 0x158C JUMP JUMPDEST DUP1 PUSH1 0x0 MSTORE PUSH1 0x20 PUSH1 0xC DUP2 MSTORE PUSH1 0xFF PUSH1 0x40 PUSH1 0x0 KECCAK256 SLOAD AND PUSH2 0x1277 JUMPI PUSH2 0x2710 PUSH2 0x1037 PUSH1 0x10 SLOAD DUP6 PUSH2 0x155F JUMP JUMPDEST DIV SWAP3 PUSH2 0x1043 DUP5 DUP3 PUSH2 0x1572 JUMP JUMPDEST SWAP4 PUSH2 0x1071 PUSH32 0x0 SWAP3 ADDRESS CALLER DUP6 PUSH2 0x1622 JUMP JUMPDEST DUP1 PUSH2 0x1258 JUMPI JUMPDEST POP POP PUSH1 0x3 DUP1 SLOAD SWAP4 PUSH3 0x100000 DUP6 LT ISZERO PUSH2 0x1246 JUMPI DUP4 SWAP3 PUSH1 0x0 DUP7 JUMPDEST PUSH1 0x14 DUP3 LT PUSH2 0x11E2 JUMPI POP POP PUSH1 0x6 SLOAD PUSH1 0x1 PUSH1 0x40 SHL DUP2 LT ISZERO PUSH2 0x5AB JUMPI DUP5 PUSH2 0x10BC DUP3 PUSH1 0x1 PUSH2 0x10D5 SWAP5 ADD PUSH1 0x6 SSTORE PUSH2 0x144C JUMP JUMPDEST SWAP1 SWAP2 SWAP1 DUP3 SLOAD SWAP1 PUSH1 0x3 SHL SWAP2 DUP3 SHL SWAP2 PUSH1 0x0 NOT SWAP1 SHL NOT AND OR SWAP1 SSTORE JUMP JUMPDEST DUP4 PUSH1 0x0 MSTORE PUSH1 0x7 DUP2 MSTORE PUSH1 0x40 PUSH1 0x0 KECCAK256 PUSH1 0xFF NOT SWAP1 PUSH1 0x1 DUP3 DUP3 SLOAD AND OR SWAP1 SSTORE PUSH1 0x6 SLOAD PUSH1 0x64 DUP2 GT PUSH2 0x11A3 JUMPI JUMPDEST POP PUSH1 0x1 DUP8 ADD SWAP5 DUP6 DUP9 GT PUSH2 0x118D JUMPI PUSH32 0x3D8083DA8E2218B3F5EBE30CDDDD9F649EEB4F898A728C4B40C2735839AB11A DUP4 DUP8 PUSH32 0xAEFEA07450EFAD478EBE2BFC47102612D416637DC1B8E0555B6F7507DF6C720C SWAP9 PUSH1 0x40 SWAP9 SSTORE DUP8 MLOAD SWAP1 DUP2 MSTORE LOG2 DUP6 PUSH1 0x0 MSTORE PUSH1 0xC DUP3 MSTORE PUSH1 0x1 DUP5 PUSH1 0x0 KECCAK256 SWAP2 DUP3 SLOAD AND OR SWAP1 SSTORE PUSH2 0x1178 DUP3 PUSH1 0xD SLOAD PUSH2 0x157F JUMP JUMPDEST PUSH1 0xD SSTORE DUP3 MLOAD SWAP2 DUP3 MSTORE TIMESTAMP SWAP1 DUP3 ADD MSTORE LOG3 PUSH1 0x1 PUSH1 0x0 SSTORE STOP JUMPDEST PUSH4 0x4E487B71 PUSH1 0xE0 SHL PUSH1 0x0 MSTORE PUSH1 0x11 PUSH1 0x4 MSTORE PUSH1 0x24 PUSH1 0x0 REVERT JUMPDEST PUSH1 0x63 NOT DUP2 ADD SWAP1 DUP1 DUP3 GT PUSH2 0x118D JUMPI PUSH1 0x64 NOT ADD SWAP1 DUP2 GT PUSH2 0x118D JUMPI PUSH2 0x11C4 SWAP1 PUSH2 0x144C JUMP JUMPDEST SWAP1 SLOAD SWAP1 DUP6 SHL SHR PUSH1 0x0 MSTORE PUSH1 0x7 DUP3 MSTORE PUSH1 0x40 PUSH1 0x0 KECCAK256 DUP2 DUP2 SLOAD AND SWAP1 SSTORE DUP8 PUSH2 0x10FB JUMP JUMPDEST PUSH1 0x1 SWAP6 DUP2 DUP8 AND PUSH2 0x1228 JUMPI DUP1 PUSH2 0x11FD PUSH2 0x1212 SWAP3 PUSH2 0x10BC DUP7 PUSH2 0x13DE JUMP JUMPDEST PUSH2 0x1206 DUP5 PUSH2 0x1415 JUMP JUMPDEST SWAP1 SLOAD SWAP1 DUP9 SHL SHR SWAP1 PUSH2 0x189F JUMP JUMPDEST SWAP6 JUMPDEST SHR SWAP1 PUSH1 0x0 NOT DUP2 EQ PUSH2 0x118D JUMPI PUSH1 0x1 ADD SWAP1 PUSH2 0x108F JUMP JUMPDEST PUSH2 0x1240 SWAP1 PUSH2 0x1235 DUP5 PUSH2 0x13DE JUMP JUMPDEST SWAP1 SLOAD SWAP1 DUP9 SHL SHR PUSH2 0x189F JUMP JUMPDEST SWAP6 PUSH2 0x1214 JUMP JUMPDEST PUSH1 0x40 MLOAD PUSH4 0x1691E59F PUSH1 0xE3 SHL DUP2 MSTORE PUSH1 0x4 SWAP1 REVERT JUMPDEST PUSH1 0x13 SLOAD PUSH2 0x1270 SWAP3 PUSH1 0x1 PUSH1 0x1 PUSH1 0xA0 SHL SUB SWAP1 SWAP2 AND SWAP1 PUSH2 0x15E2 JUMP JUMPDEST DUP4 DUP1 PUSH2 0x1077 JUMP JUMPDEST PUSH1 0x40 MLOAD PUSH4 0x145718A7 PUSH1 0xE0 SHL DUP2 MSTORE PUSH1 0x4 SWAP1 REVERT JUMPDEST CALLVALUE PUSH2 0x1E7 JUMPI PUSH1 0x20 CALLDATASIZE PUSH1 0x3 NOT ADD SLT PUSH2 0x1E7 JUMPI PUSH1 0x40 PUSH2 0x12A7 PUSH1 0x4 CALLDATALOAD PUSH2 0x1519 JUMP JUMPDEST DUP3 MLOAD SWAP2 ISZERO ISZERO DUP3 MSTORE PUSH1 0x20 DUP3 ADD MSTORE RETURN JUMPDEST CALLVALUE PUSH2 0x1E7 JUMPI PUSH1 0x0 CALLDATASIZE PUSH1 0x3 NOT ADD SLT PUSH2 0x1E7 JUMPI PUSH1 0x40 MLOAD PUSH4 0x70A08231 PUSH1 0xE0 SHL DUP2 MSTORE ADDRESS PUSH1 0x4 DUP3 ADD MSTORE PUSH1 0x20 DUP2 PUSH1 0x24 DUP2 PUSH32 0x0 PUSH1 0x1 PUSH1 0x1 PUSH1 0xA0 SHL SUB AND GAS STATICCALL DUP1 ISZERO PUSH2 0x7CE JUMPI PUSH1 0x0 SWAP1 PUSH2 0x1324 JUMPI JUMPDEST PUSH1 0x20 SWAP1 PUSH1 0x40 MLOAD SWAP1 DUP2 MSTORE RETURN JUMPDEST POP PUSH1 0x20 DUP2 RETURNDATASIZE DUP3 GT PUSH2 0x134E JUMPI JUMPDEST DUP2 PUSH2 0x133D PUSH1 0x20 SWAP4 DUP4 PUSH2 0x14F7 JUMP JUMPDEST DUP2 ADD SUB SLT PUSH2 0x1E7 JUMPI PUSH1 0x20 SWAP1 MLOAD PUSH2 0x1319 JUMP JUMPDEST RETURNDATASIZE SWAP2 POP PUSH2 0x1330 JUMP JUMPDEST CALLVALUE PUSH2 0x1E7 JUMPI PUSH1 0x20 CALLDATASIZE PUSH1 0x3 NOT ADD SLT PUSH2 0x1E7 JUMPI PUSH1 0x4 CALLDATALOAD PUSH2 0x1372 PUSH2 0x1483 JUMP JUMPDEST DUP1 PUSH1 0x0 MSTORE PUSH1 0x8 PUSH1 0x20 MSTORE PUSH1 0x3 PUSH1 0x40 PUSH1 0x0 KECCAK256 ADD PUSH1 0xFF NOT DUP2 SLOAD AND SWAP1 SSTORE PUSH32 0xBD075808507375B5EF0CF026E93BA5F11CA4F50156F13B62F4FF5AFA2A1B5272 PUSH1 0x0 DUP1 LOG2 STOP JUMPDEST PUSH1 0x40 SWAP1 PUSH1 0x3 NOT ADD SLT PUSH2 0x1E7 JUMPI PUSH1 0x4 CALLDATALOAD SWAP1 PUSH1 0x24 CALLDATALOAD SWAP1 JUMP JUMPDEST PUSH1 0x4 CALLDATALOAD SWAP1 PUSH1 0x1 PUSH1 0x1 PUSH1 0xA0 SHL SUB DUP3 AND DUP3 SUB PUSH2 0x1E7 JUMPI JUMP JUMPDEST PUSH1 0x5 SLOAD DUP2 LT ISZERO PUSH2 0x595 JUMPI PUSH1 0x5 PUSH1 0x0 MSTORE PUSH32 0x36B6384B5ECA791C62761152D0C79BB0604C104A5FB6F4EB0703F3154BB3DB0 ADD SWAP1 PUSH1 0x0 SWAP1 JUMP JUMPDEST PUSH1 0x4 SLOAD DUP2 LT ISZERO PUSH2 0x595 JUMPI PUSH1 0x4 PUSH1 0x0 MSTORE PUSH32 0x8A35ACFBC15FF81A39AE7D344FD709F28E8600B4AA8C65C6B64BFE7FE36BD19B ADD SWAP1 PUSH1 0x0 SWAP1 JUMP JUMPDEST PUSH1 0x6 SLOAD DUP2 LT ISZERO PUSH2 0x595 JUMPI PUSH1 0x6 PUSH1 0x0 MSTORE PUSH32 0xF652222313E28459528D920B65115C16C04F3EFC82AAEDC97BE59F3F377C0D3F ADD SWAP1 PUSH1 0x0 SWAP1 JUMP JUMPDEST PUSH1 0x1 SLOAD PUSH1 0x1 PUSH1 0x1 PUSH1 0xA0 SHL SUB AND CALLER SUB PUSH2 0x1497 JUMPI JUMP JUMPDEST PUSH1 0x64 PUSH1 0x40 MLOAD PUSH3 0x461BCD PUSH1 0xE5 SHL DUP2 MSTORE PUSH1 0x20 PUSH1 0x4 DUP3 ADD MSTORE PUSH1 0x20 PUSH1 0x24 DUP3 ADD MSTORE PUSH32 0x4F776E61626C653A2063616C6C6572206973206E6F7420746865206F776E6572 PUSH1 0x44 DUP3 ADD MSTORE REVERT JUMPDEST PUSH1 0x80 DUP2 ADD SWAP1 DUP2 LT PUSH8 0xFFFFFFFFFFFFFFFF DUP3 GT OR PUSH2 0x5AB JUMPI PUSH1 0x40 MSTORE JUMP JUMPDEST SWAP1 PUSH1 0x1F DUP1 NOT SWAP2 ADD AND DUP2 ADD SWAP1 DUP2 LT PUSH8 0xFFFFFFFFFFFFFFFF DUP3 GT OR PUSH2 0x5AB JUMPI PUSH1 0x40 MSTORE JUMP JUMPDEST PUSH1 0x0 MSTORE PUSH1 0x7 PUSH1 0x20 MSTORE PUSH1 0xFF PUSH1 0x40 PUSH1 0x0 KECCAK256 SLOAD AND PUSH2 0x1558 JUMPI PUSH1 0x8 PUSH1 0x20 MSTORE PUSH1 0x40 PUSH1 0x0 KECCAK256 PUSH1 0xFF PUSH1 0x3 DUP3 ADD SLOAD AND PUSH2 0x154D JUMPI POP PUSH1 0x0 SWAP1 PUSH1 0x0 SWAP1 JUMP JUMPDEST PUSH1 0x1 ADD SLOAD SWAP1 PUSH1 0x1 SWAP2 SWAP1 JUMP JUMPDEST PUSH1 0x1 SWAP1 CHAINID SWAP1 JUMP JUMPDEST DUP2 DUP2 MUL SWAP3 SWAP2 DUP2 ISZERO SWAP2 DUP5 DIV EQ OR ISZERO PUSH2 0x118D JUMPI JUMP JUMPDEST SWAP2 SWAP1 DUP3 SUB SWAP2 DUP3 GT PUSH2 0x118D JUMPI JUMP JUMPDEST SWAP2 SWAP1 DUP3 ADD DUP1 SWAP3 GT PUSH2 0x118D JUMPI JUMP JUMPDEST PUSH1 0x2 PUSH1 0x0 SLOAD EQ PUSH2 0x159D JUMPI PUSH1 0x2 PUSH1 0x0 SSTORE JUMP JUMPDEST PUSH1 0x40 MLOAD PUSH3 0x461BCD PUSH1 0xE5 SHL DUP2 MSTORE PUSH1 0x20 PUSH1 0x4 DUP3 ADD MSTORE PUSH1 0x1F PUSH1 0x24 DUP3 ADD MSTORE PUSH32 0x5265656E7472616E637947756172643A207265656E7472616E742063616C6C00 PUSH1 0x44 DUP3 ADD MSTORE PUSH1 0x64 SWAP1 REVERT JUMPDEST PUSH1 0x40 MLOAD PUSH4 0xA9059CBB PUSH1 0xE0 SHL PUSH1 0x20 DUP3 ADD MSTORE PUSH1 0x1 PUSH1 0x1 PUSH1 0xA0 SHL SUB SWAP1 SWAP3 AND PUSH1 0x24 DUP4 ADD MSTORE PUSH1 0x44 DUP1 DUP4 ADD SWAP4 SWAP1 SWAP4 MSTORE SWAP2 DUP2 MSTORE PUSH2 0x1620 SWAP2 PUSH2 0x161B DUP3 PUSH2 0x14DB JUMP JUMPDEST PUSH2 0x1693 JUMP JUMPDEST JUMP JUMPDEST PUSH1 0x40 MLOAD PUSH4 0x23B872DD PUSH1 0xE0 SHL PUSH1 0x20 DUP3 ADD MSTORE PUSH1 0x1 PUSH1 0x1 PUSH1 0xA0 SHL SUB SWAP3 DUP4 AND PUSH1 0x24 DUP3 ADD MSTORE SWAP3 SWAP1 SWAP2 AND PUSH1 0x44 DUP4 ADD MSTORE PUSH1 0x64 DUP1 DUP4 ADD SWAP4 SWAP1 SWAP4 MSTORE SWAP2 DUP2 MSTORE PUSH1 0xA0 DUP2 ADD SWAP2 DUP2 DUP4 LT PUSH8 0xFFFFFFFFFFFFFFFF DUP5 GT OR PUSH2 0x5AB JUMPI PUSH2 0x1620 SWAP3 PUSH1 0x40 MSTORE PUSH2 0x1693 JUMP JUMPDEST SWAP1 DUP2 PUSH1 0x20 SWAP2 SUB SLT PUSH2 0x1E7 JUMPI MLOAD DUP1 ISZERO ISZERO DUP2 SUB PUSH2 0x1E7 JUMPI SWAP1 JUMP JUMPDEST PUSH1 0x40 DUP1 MLOAD SWAP1 DUP2 ADD SWAP2 PUSH1 0x1 PUSH1 0x1 PUSH1 0xA0 SHL SUB AND PUSH8 0xFFFFFFFFFFFFFFFF DUP4 GT DUP3 DUP5 LT OR PUSH2 0x5AB JUMPI PUSH2 0x1703 SWAP3 PUSH1 0x40 MSTORE PUSH1 0x0 DUP1 PUSH1 0x20 SWAP6 DUP7 DUP6 MSTORE PUSH32 0x5361666545524332303A206C6F772D6C6576656C2063616C6C206661696C6564 DUP8 DUP7 ADD MSTORE DUP7 DUP2 MLOAD SWAP2 ADD DUP3 DUP6 GAS CALL PUSH2 0x16FD PUSH2 0x178B JUMP JUMPDEST SWAP2 PUSH2 0x17CB JUMP JUMPDEST DUP1 MLOAD SWAP1 DUP3 DUP3 ISZERO SWAP3 DUP4 ISZERO PUSH2 0x1773 JUMPI JUMPDEST POP POP POP ISZERO PUSH2 0x171C JUMPI POP JUMP JUMPDEST PUSH1 0x84 SWAP1 PUSH1 0x40 MLOAD SWAP1 PUSH3 0x461BCD PUSH1 0xE5 SHL DUP3 MSTORE PUSH1 0x4 DUP3 ADD MSTORE PUSH1 0x2A PUSH1 0x24 DUP3 ADD MSTORE PUSH32 0x5361666545524332303A204552433230206F7065726174696F6E20646964206E PUSH1 0x44 DUP3 ADD MSTORE PUSH10 0x1BDD081CDD58D8D95959 PUSH1 0xB2 SHL PUSH1 0x64 DUP3 ADD MSTORE REVERT JUMPDEST PUSH2 0x1783 SWAP4 POP DUP3 ADD DUP2 ADD SWAP2 ADD PUSH2 0x167B JUMP JUMPDEST CODESIZE DUP3 DUP2 PUSH2 0x1711 JUMP JUMPDEST RETURNDATASIZE ISZERO PUSH2 0x17C6 JUMPI RETURNDATASIZE SWAP1 PUSH8 0xFFFFFFFFFFFFFFFF DUP3 GT PUSH2 0x5AB JUMPI PUSH1 0x40 MLOAD SWAP2 PUSH2 0x17BA PUSH1 0x1F DUP3 ADD PUSH1 0x1F NOT AND PUSH1 0x20 ADD DUP5 PUSH2 0x14F7 JUMP JUMPDEST DUP3 MSTORE RETURNDATASIZE PUSH1 0x0 PUSH1 0x20 DUP5 ADD RETURNDATACOPY JUMP JUMPDEST PUSH1 0x60 SWAP1 JUMP JUMPDEST SWAP2 SWAP3 SWAP1 ISZERO PUSH2 0x182D JUMPI POP DUP2 MLOAD ISZERO PUSH2 0x17DF JUMPI POP SWAP1 JUMP JUMPDEST EXTCODESIZE ISZERO PUSH2 0x17E8 JUMPI SWAP1 JUMP JUMPDEST PUSH1 0x40 MLOAD PUSH3 0x461BCD PUSH1 0xE5 SHL DUP2 MSTORE PUSH1 0x20 PUSH1 0x4 DUP3 ADD MSTORE PUSH1 0x1D PUSH1 0x24 DUP3 ADD MSTORE PUSH32 0x416464726573733A2063616C6C20746F206E6F6E2D636F6E7472616374000000 PUSH1 0x44 DUP3 ADD MSTORE PUSH1 0x64 SWAP1 REVERT JUMPDEST DUP3 MLOAD SWAP1 SWAP2 POP ISZERO PUSH2 0x1840 JUMPI POP DUP1 MLOAD SWAP1 PUSH1 0x20 ADD REVERT JUMPDEST PUSH1 0x40 MLOAD SWAP1 PUSH3 0x461BCD PUSH1 0xE5 SHL DUP3 MSTORE DUP2 PUSH1 0x20 DUP1 PUSH1 0x4 DUP4 ADD MSTORE DUP3 MLOAD SWAP1 DUP2 PUSH1 0x24 DUP5 ADD MSTORE PUSH1 0x0 SWAP4 JUMPDEST DUP3 DUP6 LT PUSH2 0x1886 JUMPI POP POP PUSH1 0x44 SWAP3 POP PUSH1 0x0 DUP4 DUP3 DUP5 ADD ADD MSTORE PUSH1 0x1F DUP1 NOT SWAP2 ADD AND DUP2 ADD SUB ADD SWAP1 REVERT JUMPDEST DUP5 DUP2 ADD DUP3 ADD MLOAD DUP7 DUP7 ADD PUSH1 0x44 ADD MSTORE SWAP4 DUP2 ADD SWAP4 DUP6 SWAP4 POP PUSH2 0x1863 JUMP JUMPDEST SWAP1 PUSH1 0x40 MLOAD SWAP1 PUSH1 0x20 DUP3 ADD SWAP3 DUP4 MSTORE PUSH1 0x40 DUP3 ADD MSTORE PUSH1 0x40 DUP2 MSTORE PUSH1 0x60 DUP2 ADD DUP2 DUP2 LT PUSH8 0xFFFFFFFFFFFFFFFF DUP3 GT OR PUSH2 0x5AB JUMPI PUSH1 0x40 MSTORE MLOAD SWAP1 KECCAK256 SWAP1 JUMP JUMPDEST PUSH1 0x6 SLOAD PUSH1 0x0 NOT DUP2 ADD SWAP1 DUP2 GT PUSH2 0x118D JUMPI PUSH2 0x18EC SWAP1 PUSH2 0x144C JUMP JUMPDEST SWAP1 SLOAD SWAP1 PUSH1 0x3 SHL SHR SWAP1 JUMP INVALID LOG2 PUSH5 0x6970667358 0x22 SLT KECCAK256 0xB3 0x26 0xF6 EQ SLT 0xDC BYTE EQ STOP 0xED SWAP12 0xF9 0xD8 0xA9 0xA8 SMOD XOR 0xE0 SSTORE 0xD9 0xD1 0xBD 0x1F 0x4E GT 0xD2 PUSH29 0x2C09F6601964736F6C6343000814003300000000000000000000000000 "},"methodIdentifiers":{"MERKLE_TREE_LEVELS()":"a6a12ac4","ROOT_HISTORY_SIZE()":"cd87a3b4","addExternalRoot(bytes32,uint256)":"cff3faba","addLiquidity(uint256)":"51c6590a","bridgeFeeBps()":"4f6aa42b","commitments(bytes32)":"839df945","deposit(bytes32,uint256)":"1de26e16","depositFeeBps()":"ab879827","emergencyWithdraw(uint256)":"5312ea8e","externalRootList(uint256)":"72515f75","externalRoots(bytes32)":"c714c9a8","feeRecipient()":"46904840","filledSubtrees(uint256)":"f178e47c","getExternalRootCount()":"ed48478d","getLastRoot()":"ba70f757","getLiquidity()":"0910a510","getStats()":"c59d4847","isValidRoot(bytes32)":"0ce611e6","localRootHistory(bytes32)":"235b6f50","nextIndex()":"fc7e9c6f","nullifiers(bytes32)":"2997e86b","owner()":"8da5cb5b","relayers(address)":"5300f841","renounceOwnership()":"715018a6","revokeExternalRoot(bytes32)":"06eb1d30","roots(uint256)":"c2b40ae4","setFeeRecipient(address)":"e74b981b","setFees(uint256,uint256,uint256)":"cec10c11","setRelayer(address,bool)":"ecd8dc3a","setVerifier(address)":"5437988d","token()":"fc0c546a","totalBridgedIn()":"2bb42183","totalDeposited()":"ff50abdc","totalWithdrawn()":"4b319713","transferOwnership(address)":"f2fde38b","verifier()":"2b7ac3f3","withdraw(bytes,bytes32,bytes32,address,uint256)":"aa93018e","withdrawFeeBps()":"7aca2b59","zeros(uint256)":"e8295588"}}}}}