{
  "_format": "hh-sol-artifact-1",
  "contractName": "PoolRegistry",
  "sourceName": "contracts/game/PoolRegistry.sol",
  "abi": [
    {
      "inputs": [
        {
          "internalType": "address",
          "name": "_wattToken",
          "type": "address"
        }
      ],
      "stateMutability": "nonpayable",
      "type": "constructor"
    },
    {
      "inputs": [
        {
          "internalType": "address",
          "name": "owner",
          "type": "address"
        }
      ],
      "name": "OwnableInvalidOwner",
      "type": "error"
    },
    {
      "inputs": [
        {
          "internalType": "address",
          "name": "account",
          "type": "address"
        }
      ],
      "name": "OwnableUnauthorizedAccount",
      "type": "error"
    },
    {
      "inputs": [],
      "name": "ReentrancyGuardReentrantCall",
      "type": "error"
    },
    {
      "anonymous": false,
      "inputs": [
        {
          "indexed": true,
          "internalType": "address",
          "name": "operator",
          "type": "address"
        },
        {
          "indexed": false,
          "internalType": "uint256",
          "name": "blockHeight",
          "type": "uint256"
        },
        {
          "indexed": false,
          "internalType": "uint256",
          "name": "timestamp",
          "type": "uint256"
        }
      ],
      "name": "NodeHeartbeat",
      "type": "event"
    },
    {
      "anonymous": false,
      "inputs": [
        {
          "indexed": true,
          "internalType": "address",
          "name": "operator",
          "type": "address"
        },
        {
          "indexed": false,
          "internalType": "uint256",
          "name": "lastHeartbeat",
          "type": "uint256"
        }
      ],
      "name": "NodeOffline",
      "type": "event"
    },
    {
      "anonymous": false,
      "inputs": [
        {
          "indexed": true,
          "internalType": "address",
          "name": "operator",
          "type": "address"
        },
        {
          "indexed": false,
          "internalType": "string",
          "name": "rpcEndpoint",
          "type": "string"
        },
        {
          "indexed": false,
          "internalType": "string",
          "name": "p2pEndpoint",
          "type": "string"
        }
      ],
      "name": "NodeRegistered",
      "type": "event"
    },
    {
      "anonymous": false,
      "inputs": [
        {
          "indexed": true,
          "internalType": "address",
          "name": "operator",
          "type": "address"
        },
        {
          "indexed": false,
          "internalType": "string",
          "name": "rpcEndpoint",
          "type": "string"
        },
        {
          "indexed": false,
          "internalType": "string",
          "name": "p2pEndpoint",
          "type": "string"
        }
      ],
      "name": "NodeUpdated",
      "type": "event"
    },
    {
      "anonymous": false,
      "inputs": [
        {
          "indexed": true,
          "internalType": "address",
          "name": "operator",
          "type": "address"
        },
        {
          "indexed": false,
          "internalType": "bool",
          "name": "verified",
          "type": "bool"
        }
      ],
      "name": "NodeVerified",
      "type": "event"
    },
    {
      "anonymous": false,
      "inputs": [
        {
          "indexed": true,
          "internalType": "address",
          "name": "previousOwner",
          "type": "address"
        },
        {
          "indexed": true,
          "internalType": "address",
          "name": "newOwner",
          "type": "address"
        }
      ],
      "name": "OwnershipTransferred",
      "type": "event"
    },
    {
      "anonymous": false,
      "inputs": [
        {
          "indexed": true,
          "internalType": "address",
          "name": "operator",
          "type": "address"
        }
      ],
      "name": "PoolPaused",
      "type": "event"
    },
    {
      "anonymous": false,
      "inputs": [
        {
          "indexed": true,
          "internalType": "address",
          "name": "operator",
          "type": "address"
        },
        {
          "indexed": false,
          "internalType": "string",
          "name": "name",
          "type": "string"
        },
        {
          "indexed": false,
          "internalType": "uint256",
          "name": "feePercent",
          "type": "uint256"
        }
      ],
      "name": "PoolRegistered",
      "type": "event"
    },
    {
      "anonymous": false,
      "inputs": [
        {
          "indexed": true,
          "internalType": "address",
          "name": "operator",
          "type": "address"
        }
      ],
      "name": "PoolResumed",
      "type": "event"
    },
    {
      "anonymous": false,
      "inputs": [
        {
          "indexed": true,
          "internalType": "address",
          "name": "operator",
          "type": "address"
        },
        {
          "indexed": false,
          "internalType": "string",
          "name": "name",
          "type": "string"
        },
        {
          "indexed": false,
          "internalType": "uint256",
          "name": "feePercent",
          "type": "uint256"
        }
      ],
      "name": "PoolUpdated",
      "type": "event"
    },
    {
      "anonymous": false,
      "inputs": [
        {
          "indexed": true,
          "internalType": "address",
          "name": "relayer",
          "type": "address"
        },
        {
          "indexed": false,
          "internalType": "bool",
          "name": "authorized",
          "type": "bool"
        }
      ],
      "name": "RelayerUpdated",
      "type": "event"
    },
    {
      "anonymous": false,
      "inputs": [
        {
          "indexed": true,
          "internalType": "address",
          "name": "operator",
          "type": "address"
        }
      ],
      "name": "UnstakeCancelled",
      "type": "event"
    },
    {
      "anonymous": false,
      "inputs": [
        {
          "indexed": true,
          "internalType": "address",
          "name": "operator",
          "type": "address"
        },
        {
          "indexed": false,
          "internalType": "uint256",
          "name": "amount",
          "type": "uint256"
        }
      ],
      "name": "UnstakeCompleted",
      "type": "event"
    },
    {
      "anonymous": false,
      "inputs": [
        {
          "indexed": true,
          "internalType": "address",
          "name": "operator",
          "type": "address"
        },
        {
          "indexed": false,
          "internalType": "uint256",
          "name": "unlockTime",
          "type": "uint256"
        }
      ],
      "name": "UnstakeRequested",
      "type": "event"
    },
    {
      "inputs": [],
      "name": "MAX_ALGORITHMS",
      "outputs": [
        {
          "internalType": "uint8",
          "name": "",
          "type": "uint8"
        }
      ],
      "stateMutability": "view",
      "type": "function"
    },
    {
      "inputs": [],
      "name": "MAX_FEE_PERCENT",
      "outputs": [
        {
          "internalType": "uint256",
          "name": "",
          "type": "uint256"
        }
      ],
      "stateMutability": "view",
      "type": "function"
    },
    {
      "inputs": [],
      "name": "NODE_HEARTBEAT_INTERVAL",
      "outputs": [
        {
          "internalType": "uint256",
          "name": "",
          "type": "uint256"
        }
      ],
      "stateMutability": "view",
      "type": "function"
    },
    {
      "inputs": [],
      "name": "NODE_OFFLINE_THRESHOLD",
      "outputs": [
        {
          "internalType": "uint256",
          "name": "",
          "type": "uint256"
        }
      ],
      "stateMutability": "view",
      "type": "function"
    },
    {
      "inputs": [],
      "name": "REQUIRED_STAKE",
      "outputs": [
        {
          "internalType": "uint256",
          "name": "",
          "type": "uint256"
        }
      ],
      "stateMutability": "view",
      "type": "function"
    },
    {
      "inputs": [],
      "name": "UNSTAKE_HOLD_PERIOD",
      "outputs": [
        {
          "internalType": "uint256",
          "name": "",
          "type": "uint256"
        }
      ],
      "stateMutability": "view",
      "type": "function"
    },
    {
      "inputs": [
        {
          "internalType": "uint8",
          "name": "",
          "type": "uint8"
        },
        {
          "internalType": "uint256",
          "name": "",
          "type": "uint256"
        }
      ],
      "name": "algorithmOperators",
      "outputs": [
        {
          "internalType": "address",
          "name": "",
          "type": "address"
        }
      ],
      "stateMutability": "view",
      "type": "function"
    },
    {
      "inputs": [],
      "name": "cancelUnstake",
      "outputs": [],
      "stateMutability": "nonpayable",
      "type": "function"
    },
    {
      "inputs": [],
      "name": "completeUnstake",
      "outputs": [],
      "stateMutability": "nonpayable",
      "type": "function"
    },
    {
      "inputs": [
        {
          "internalType": "address",
          "name": "operator",
          "type": "address"
        }
      ],
      "name": "forceClosePool",
      "outputs": [],
      "stateMutability": "nonpayable",
      "type": "function"
    },
    {
      "inputs": [],
      "name": "getActivePools",
      "outputs": [
        {
          "internalType": "address[]",
          "name": "operators",
          "type": "address[]"
        },
        {
          "components": [
            {
              "internalType": "address",
              "name": "operator",
              "type": "address"
            },
            {
              "internalType": "string",
              "name": "name",
              "type": "string"
            },
            {
              "internalType": "string",
              "name": "description",
              "type": "string"
            },
            {
              "internalType": "string",
              "name": "endpoint",
              "type": "string"
            },
            {
              "internalType": "uint256",
              "name": "feePercent",
              "type": "uint256"
            },
            {
              "internalType": "uint256",
              "name": "minPayout",
              "type": "uint256"
            },
            {
              "internalType": "uint256",
              "name": "stakedAmount",
              "type": "uint256"
            },
            {
              "internalType": "uint256",
              "name": "registeredAt",
              "type": "uint256"
            },
            {
              "internalType": "uint256",
              "name": "unstakeRequestedAt",
              "type": "uint256"
            },
            {
              "internalType": "enum IPoolRegistry.PoolStatus",
              "name": "status",
              "type": "uint8"
            },
            {
              "internalType": "uint8[]",
              "name": "supportedAlgorithms",
              "type": "uint8[]"
            }
          ],
          "internalType": "struct IPoolRegistry.PoolInfo[]",
          "name": "poolList",
          "type": "tuple[]"
        }
      ],
      "stateMutability": "view",
      "type": "function"
    },
    {
      "inputs": [],
      "name": "getAllPoolsWithStatus",
      "outputs": [
        {
          "internalType": "address[]",
          "name": "operators",
          "type": "address[]"
        },
        {
          "components": [
            {
              "internalType": "address",
              "name": "operator",
              "type": "address"
            },
            {
              "internalType": "string",
              "name": "name",
              "type": "string"
            },
            {
              "internalType": "string",
              "name": "description",
              "type": "string"
            },
            {
              "internalType": "string",
              "name": "endpoint",
              "type": "string"
            },
            {
              "internalType": "uint256",
              "name": "feePercent",
              "type": "uint256"
            },
            {
              "internalType": "uint256",
              "name": "minPayout",
              "type": "uint256"
            },
            {
              "internalType": "uint256",
              "name": "stakedAmount",
              "type": "uint256"
            },
            {
              "internalType": "uint256",
              "name": "registeredAt",
              "type": "uint256"
            },
            {
              "internalType": "uint256",
              "name": "unstakeRequestedAt",
              "type": "uint256"
            },
            {
              "internalType": "enum IPoolRegistry.PoolStatus",
              "name": "status",
              "type": "uint8"
            },
            {
              "internalType": "uint8[]",
              "name": "supportedAlgorithms",
              "type": "uint8[]"
            }
          ],
          "internalType": "struct IPoolRegistry.PoolInfo[]",
          "name": "poolList",
          "type": "tuple[]"
        },
        {
          "components": [
            {
              "internalType": "string",
              "name": "rpcEndpoint",
              "type": "string"
            },
            {
              "internalType": "string",
              "name": "p2pEndpoint",
              "type": "string"
            },
            {
              "internalType": "uint256",
              "name": "lastHeartbeat",
              "type": "uint256"
            },
            {
              "internalType": "uint256",
              "name": "reportedBlockHeight",
              "type": "uint256"
            },
            {
              "internalType": "bool",
              "name": "verified",
              "type": "bool"
            },
            {
              "internalType": "uint256",
              "name": "uptime",
              "type": "uint256"
            },
            {
              "internalType": "uint256",
              "name": "downtimeCount",
              "type": "uint256"
            }
          ],
          "internalType": "struct PoolRegistry.NodeInfo[]",
          "name": "nodes",
          "type": "tuple[]"
        },
        {
          "internalType": "bool[]",
          "name": "online",
          "type": "bool[]"
        }
      ],
      "stateMutability": "view",
      "type": "function"
    },
    {
      "inputs": [
        {
          "internalType": "address",
          "name": "operator",
          "type": "address"
        }
      ],
      "name": "getNode",
      "outputs": [
        {
          "components": [
            {
              "internalType": "string",
              "name": "rpcEndpoint",
              "type": "string"
            },
            {
              "internalType": "string",
              "name": "p2pEndpoint",
              "type": "string"
            },
            {
              "internalType": "uint256",
              "name": "lastHeartbeat",
              "type": "uint256"
            },
            {
              "internalType": "uint256",
              "name": "reportedBlockHeight",
              "type": "uint256"
            },
            {
              "internalType": "bool",
              "name": "verified",
              "type": "bool"
            },
            {
              "internalType": "uint256",
              "name": "uptime",
              "type": "uint256"
            },
            {
              "internalType": "uint256",
              "name": "downtimeCount",
              "type": "uint256"
            }
          ],
          "internalType": "struct PoolRegistry.NodeInfo",
          "name": "",
          "type": "tuple"
        }
      ],
      "stateMutability": "view",
      "type": "function"
    },
    {
      "inputs": [
        {
          "internalType": "address",
          "name": "operator",
          "type": "address"
        }
      ],
      "name": "getNodeUptime",
      "outputs": [
        {
          "internalType": "uint256",
          "name": "totalUptime",
          "type": "uint256"
        },
        {
          "internalType": "uint256",
          "name": "downtimeCount",
          "type": "uint256"
        }
      ],
      "stateMutability": "view",
      "type": "function"
    },
    {
      "inputs": [
        {
          "internalType": "address",
          "name": "operator",
          "type": "address"
        }
      ],
      "name": "getPool",
      "outputs": [
        {
          "components": [
            {
              "internalType": "address",
              "name": "operator",
              "type": "address"
            },
            {
              "internalType": "string",
              "name": "name",
              "type": "string"
            },
            {
              "internalType": "string",
              "name": "description",
              "type": "string"
            },
            {
              "internalType": "string",
              "name": "endpoint",
              "type": "string"
            },
            {
              "internalType": "uint256",
              "name": "feePercent",
              "type": "uint256"
            },
            {
              "internalType": "uint256",
              "name": "minPayout",
              "type": "uint256"
            },
            {
              "internalType": "uint256",
              "name": "stakedAmount",
              "type": "uint256"
            },
            {
              "internalType": "uint256",
              "name": "registeredAt",
              "type": "uint256"
            },
            {
              "internalType": "uint256",
              "name": "unstakeRequestedAt",
              "type": "uint256"
            },
            {
              "internalType": "enum IPoolRegistry.PoolStatus",
              "name": "status",
              "type": "uint8"
            },
            {
              "internalType": "uint8[]",
              "name": "supportedAlgorithms",
              "type": "uint8[]"
            }
          ],
          "internalType": "struct IPoolRegistry.PoolInfo",
          "name": "",
          "type": "tuple"
        }
      ],
      "stateMutability": "view",
      "type": "function"
    },
    {
      "inputs": [
        {
          "internalType": "uint8",
          "name": "algorithm",
          "type": "uint8"
        }
      ],
      "name": "getPoolsByAlgorithm",
      "outputs": [
        {
          "internalType": "address[]",
          "name": "operators",
          "type": "address[]"
        },
        {
          "components": [
            {
              "internalType": "address",
              "name": "operator",
              "type": "address"
            },
            {
              "internalType": "string",
              "name": "name",
              "type": "string"
            },
            {
              "internalType": "string",
              "name": "description",
              "type": "string"
            },
            {
              "internalType": "string",
              "name": "endpoint",
              "type": "string"
            },
            {
              "internalType": "uint256",
              "name": "feePercent",
              "type": "uint256"
            },
            {
              "internalType": "uint256",
              "name": "minPayout",
              "type": "uint256"
            },
            {
              "internalType": "uint256",
              "name": "stakedAmount",
              "type": "uint256"
            },
            {
              "internalType": "uint256",
              "name": "registeredAt",
              "type": "uint256"
            },
            {
              "internalType": "uint256",
              "name": "unstakeRequestedAt",
              "type": "uint256"
            },
            {
              "internalType": "enum IPoolRegistry.PoolStatus",
              "name": "status",
              "type": "uint8"
            },
            {
              "internalType": "uint8[]",
              "name": "supportedAlgorithms",
              "type": "uint8[]"
            }
          ],
          "internalType": "struct IPoolRegistry.PoolInfo[]",
          "name": "poolList",
          "type": "tuple[]"
        }
      ],
      "stateMutability": "view",
      "type": "function"
    },
    {
      "inputs": [],
      "name": "getRegisteredOperatorCount",
      "outputs": [
        {
          "internalType": "uint256",
          "name": "",
          "type": "uint256"
        }
      ],
      "stateMutability": "view",
      "type": "function"
    },
    {
      "inputs": [
        {
          "internalType": "address",
          "name": "operator",
          "type": "address"
        }
      ],
      "name": "getTimeSinceLastHeartbeat",
      "outputs": [
        {
          "internalType": "uint256",
          "name": "",
          "type": "uint256"
        }
      ],
      "stateMutability": "view",
      "type": "function"
    },
    {
      "inputs": [
        {
          "internalType": "address",
          "name": "operator",
          "type": "address"
        }
      ],
      "name": "getTimeUntilUnstake",
      "outputs": [
        {
          "internalType": "uint256",
          "name": "",
          "type": "uint256"
        }
      ],
      "stateMutability": "view",
      "type": "function"
    },
    {
      "inputs": [
        {
          "internalType": "address",
          "name": "operator",
          "type": "address"
        }
      ],
      "name": "getUnstakeUnlockTime",
      "outputs": [
        {
          "internalType": "uint256",
          "name": "",
          "type": "uint256"
        }
      ],
      "stateMutability": "view",
      "type": "function"
    },
    {
      "inputs": [
        {
          "internalType": "address",
          "name": "",
          "type": "address"
        }
      ],
      "name": "heartbeatRelayers",
      "outputs": [
        {
          "internalType": "bool",
          "name": "",
          "type": "bool"
        }
      ],
      "stateMutability": "view",
      "type": "function"
    },
    {
      "inputs": [
        {
          "internalType": "address",
          "name": "operator",
          "type": "address"
        }
      ],
      "name": "isNodeOnline",
      "outputs": [
        {
          "internalType": "bool",
          "name": "",
          "type": "bool"
        }
      ],
      "stateMutability": "view",
      "type": "function"
    },
    {
      "inputs": [
        {
          "internalType": "address",
          "name": "operator",
          "type": "address"
        }
      ],
      "name": "isNodeVerified",
      "outputs": [
        {
          "internalType": "bool",
          "name": "",
          "type": "bool"
        }
      ],
      "stateMutability": "view",
      "type": "function"
    },
    {
      "inputs": [
        {
          "internalType": "address",
          "name": "operator",
          "type": "address"
        }
      ],
      "name": "isRegistered",
      "outputs": [
        {
          "internalType": "bool",
          "name": "",
          "type": "bool"
        }
      ],
      "stateMutability": "view",
      "type": "function"
    },
    {
      "inputs": [
        {
          "internalType": "address",
          "name": "",
          "type": "address"
        }
      ],
      "name": "nodeInfo",
      "outputs": [
        {
          "internalType": "string",
          "name": "rpcEndpoint",
          "type": "string"
        },
        {
          "internalType": "string",
          "name": "p2pEndpoint",
          "type": "string"
        },
        {
          "internalType": "uint256",
          "name": "lastHeartbeat",
          "type": "uint256"
        },
        {
          "internalType": "uint256",
          "name": "reportedBlockHeight",
          "type": "uint256"
        },
        {
          "internalType": "bool",
          "name": "verified",
          "type": "bool"
        },
        {
          "internalType": "uint256",
          "name": "uptime",
          "type": "uint256"
        },
        {
          "internalType": "uint256",
          "name": "downtimeCount",
          "type": "uint256"
        }
      ],
      "stateMutability": "view",
      "type": "function"
    },
    {
      "inputs": [],
      "name": "owner",
      "outputs": [
        {
          "internalType": "address",
          "name": "",
          "type": "address"
        }
      ],
      "stateMutability": "view",
      "type": "function"
    },
    {
      "inputs": [],
      "name": "pausePool",
      "outputs": [],
      "stateMutability": "nonpayable",
      "type": "function"
    },
    {
      "inputs": [
        {
          "internalType": "address",
          "name": "",
          "type": "address"
        }
      ],
      "name": "pools",
      "outputs": [
        {
          "internalType": "address",
          "name": "operator",
          "type": "address"
        },
        {
          "internalType": "string",
          "name": "name",
          "type": "string"
        },
        {
          "internalType": "string",
          "name": "description",
          "type": "string"
        },
        {
          "internalType": "string",
          "name": "endpoint",
          "type": "string"
        },
        {
          "internalType": "uint256",
          "name": "feePercent",
          "type": "uint256"
        },
        {
          "internalType": "uint256",
          "name": "minPayout",
          "type": "uint256"
        },
        {
          "internalType": "uint256",
          "name": "stakedAmount",
          "type": "uint256"
        },
        {
          "internalType": "uint256",
          "name": "registeredAt",
          "type": "uint256"
        },
        {
          "internalType": "uint256",
          "name": "unstakeRequestedAt",
          "type": "uint256"
        },
        {
          "internalType": "enum IPoolRegistry.PoolStatus",
          "name": "status",
          "type": "uint8"
        }
      ],
      "stateMutability": "view",
      "type": "function"
    },
    {
      "inputs": [
        {
          "internalType": "string",
          "name": "name",
          "type": "string"
        },
        {
          "internalType": "string",
          "name": "description",
          "type": "string"
        },
        {
          "internalType": "string",
          "name": "endpoint",
          "type": "string"
        },
        {
          "internalType": "uint256",
          "name": "feePercent",
          "type": "uint256"
        },
        {
          "internalType": "uint256",
          "name": "minPayout",
          "type": "uint256"
        },
        {
          "internalType": "uint8[]",
          "name": "algorithms",
          "type": "uint8[]"
        }
      ],
      "name": "registerPool",
      "outputs": [],
      "stateMutability": "nonpayable",
      "type": "function"
    },
    {
      "inputs": [
        {
          "internalType": "string",
          "name": "name",
          "type": "string"
        },
        {
          "internalType": "string",
          "name": "description",
          "type": "string"
        },
        {
          "internalType": "string",
          "name": "stratumEndpoint",
          "type": "string"
        },
        {
          "internalType": "string",
          "name": "nodeRpcEndpoint",
          "type": "string"
        },
        {
          "internalType": "string",
          "name": "nodeP2pEndpoint",
          "type": "string"
        },
        {
          "internalType": "uint256",
          "name": "feePercent",
          "type": "uint256"
        },
        {
          "internalType": "uint256",
          "name": "minPayout",
          "type": "uint256"
        },
        {
          "internalType": "uint8[]",
          "name": "algorithms",
          "type": "uint8[]"
        }
      ],
      "name": "registerPoolWithNode",
      "outputs": [],
      "stateMutability": "nonpayable",
      "type": "function"
    },
    {
      "inputs": [
        {
          "internalType": "uint256",
          "name": "",
          "type": "uint256"
        }
      ],
      "name": "registeredOperators",
      "outputs": [
        {
          "internalType": "address",
          "name": "",
          "type": "address"
        }
      ],
      "stateMutability": "view",
      "type": "function"
    },
    {
      "inputs": [],
      "name": "renounceOwnership",
      "outputs": [],
      "stateMutability": "nonpayable",
      "type": "function"
    },
    {
      "inputs": [],
      "name": "requestUnstake",
      "outputs": [],
      "stateMutability": "nonpayable",
      "type": "function"
    },
    {
      "inputs": [],
      "name": "requiredStake",
      "outputs": [
        {
          "internalType": "uint256",
          "name": "",
          "type": "uint256"
        }
      ],
      "stateMutability": "pure",
      "type": "function"
    },
    {
      "inputs": [],
      "name": "resumePool",
      "outputs": [],
      "stateMutability": "nonpayable",
      "type": "function"
    },
    {
      "inputs": [
        {
          "internalType": "address",
          "name": "relayer",
          "type": "address"
        },
        {
          "internalType": "bool",
          "name": "authorized",
          "type": "bool"
        }
      ],
      "name": "setHeartbeatRelayer",
      "outputs": [],
      "stateMutability": "nonpayable",
      "type": "function"
    },
    {
      "inputs": [
        {
          "internalType": "address",
          "name": "operator",
          "type": "address"
        },
        {
          "internalType": "uint256",
          "name": "blockHeight",
          "type": "uint256"
        }
      ],
      "name": "submitHeartbeat",
      "outputs": [],
      "stateMutability": "nonpayable",
      "type": "function"
    },
    {
      "inputs": [
        {
          "internalType": "address[]",
          "name": "operators",
          "type": "address[]"
        },
        {
          "internalType": "uint256[]",
          "name": "blockHeights",
          "type": "uint256[]"
        }
      ],
      "name": "submitHeartbeats",
      "outputs": [],
      "stateMutability": "nonpayable",
      "type": "function"
    },
    {
      "inputs": [],
      "name": "totalStaked",
      "outputs": [
        {
          "internalType": "uint256",
          "name": "",
          "type": "uint256"
        }
      ],
      "stateMutability": "view",
      "type": "function"
    },
    {
      "inputs": [
        {
          "internalType": "address",
          "name": "newOwner",
          "type": "address"
        }
      ],
      "name": "transferOwnership",
      "outputs": [],
      "stateMutability": "nonpayable",
      "type": "function"
    },
    {
      "inputs": [],
      "name": "unstakeHoldPeriod",
      "outputs": [
        {
          "internalType": "uint256",
          "name": "",
          "type": "uint256"
        }
      ],
      "stateMutability": "pure",
      "type": "function"
    },
    {
      "inputs": [
        {
          "internalType": "string",
          "name": "rpcEndpoint",
          "type": "string"
        },
        {
          "internalType": "string",
          "name": "p2pEndpoint",
          "type": "string"
        }
      ],
      "name": "updateNode",
      "outputs": [],
      "stateMutability": "nonpayable",
      "type": "function"
    },
    {
      "inputs": [
        {
          "internalType": "string",
          "name": "name",
          "type": "string"
        },
        {
          "internalType": "string",
          "name": "description",
          "type": "string"
        },
        {
          "internalType": "string",
          "name": "endpoint",
          "type": "string"
        },
        {
          "internalType": "uint256",
          "name": "feePercent",
          "type": "uint256"
        },
        {
          "internalType": "uint256",
          "name": "minPayout",
          "type": "uint256"
        },
        {
          "internalType": "uint8[]",
          "name": "algorithms",
          "type": "uint8[]"
        }
      ],
      "name": "updatePool",
      "outputs": [],
      "stateMutability": "nonpayable",
      "type": "function"
    },
    {
      "inputs": [
        {
          "internalType": "address",
          "name": "operator",
          "type": "address"
        },
        {
          "internalType": "bool",
          "name": "verified",
          "type": "bool"
        }
      ],
      "name": "verifyNode",
      "outputs": [],
      "stateMutability": "nonpayable",
      "type": "function"
    },
    {
      "inputs": [],
      "name": "wattToken",
      "outputs": [
        {
          "internalType": "contract IWATT",
          "name": "",
          "type": "address"
        }
      ],
      "stateMutability": "view",
      "type": "function"
    },
    {
      "inputs": [
        {
          "internalType": "address",
          "name": "to",
          "type": "address"
        },
        {
          "internalType": "uint256",
          "name": "amount",
          "type": "uint256"
        }
      ],
      "name": "withdrawForfeitedStakes",
      "outputs": [],
      "stateMutability": "nonpayable",
      "type": "function"
    }
  ],
  "bytecode": "0x60a0346200013457601f620057c438819003918201601f19168301916001600160401b0383118484101762000139578084926020946040528339810103126200013457516001600160a01b0380821691829003620001345733156200011b576000543360018060a01b0319821617600055604051913391167f8be0079c531659141344cd1fd0a4f28419497f9722a3daafe3b4186f6b6457e0600080a3600180558115620000d9575060805260405161567490816200015082396080518181816104c901528181610fe401528181612ebf0152613bc20152f35b62461bcd60e51b815260206004820152601460248201527f496e76616c6964205741545420616464726573730000000000000000000000006044820152606490fd5b604051631e4fbdf760e01b815260006004820152602490fd5b600080fd5b634e487b7160e01b600052604160045260246000fdfe608080604052600436101561001357600080fd5b60003560e01c9081630cc182921461498e5750806311ec106b1461489b57806319cb355d146114ac57806323c2e2bc146147ef578063371ca6e514614309578063373623791461423f5780634ab17969146141165780634afb470e146140e95780634fa4ed7414611213578063517fb20314613d7c578063532e459a14613d5f5780635d70d7e814613c9057806363803b2314613b1257806367d8174014613af5578063715018a614613a9c57806376b94d4c14613a5d5780637c5fe31b146139f55780637f92ca19146139af578063817b1cd2146139915780638da5cb5b146139685780638ec08354146131af5780639d20904814613102578063a4063dbc1461301b578063a54870af14612fff578063a551c1b814612fd6578063a66e5cbe14612f7b578063a77e04e214612f5d578063aa09d5b714612eee578063ab46398014612ea9578063b0ccff4614612e8c578063bbe4f6db146127fc578063c3c5a5471461277d578063c6cc1197146125dc578063cde5e36714611dbc578063d276fd8614611d99578063d49e09b3146114f4578063dce99fe0146114d1578063e32994f9146114ac578063e430744414611481578063ee8b31ea14611231578063eeb60a5e14611213578063f2fde38b14611185578063f59b98fe14611118578063f884844c14610fa8578063f960aa04146103295763fc63958e1461021957600080fd5b34610324576000366003190112610324573360005260026020526040600020600981019081549060ff8216600581101561030e5760018114908115610303575b50156102cd5761027c926003600a9360ff19161790554260088201550133615517565b6276a70042018042116102b7576040519081527f828764c21e74c28710e19919735825aba966621c95cbd913f8ed65a2d298f48c60203392a2005b634e487b7160e01b600052601160045260246000fd5b60405162461bcd60e51b815260206004820152600e60248201526d43616e6e6f7420756e7374616b6560901b6044820152606490fd5b600291501438610259565b634e487b7160e01b600052602160045260246000fd5b600080fd5b3461032457610100366003190112610324576004356001600160401b0381116103245761035a903690600401614b59565b906024356001600160401b0381116103245761037a903690600401614b59565b926044356001600160401b0381116103245761039a903690600401614b59565b9190946064356001600160401b038111610324576103bc903690600401614b59565b9390966084356001600160401b038111610324576103de903690600401614b59565b93909660e4356001600160401b03811161032457610400903690600401614b86565b93909461040b6154f4565b33600052600260205260ff60096040600020015416600581101561030e57610f6e5787151580610f63575b61043f90614f2a565b80151580610f57575b15610f125788151580610f06575b15610ec15786151580610eb5575b15610e70576104796103e860a4351115614f65565b84151580610e65575b61048b90614fa0565b60005b858110610e0857506040516323b872dd60e01b815233600482015230602482015269152d02c7e14af6800000604482015260208160648160007f00000000000000000000000000000000000000000000000000000000000000006001600160a01b03165af1908115610dfc57600091610dcd575b5015610d9057610538610544938c9561052c6040519761052189614a1c565b3389528c36916154ae565b602088015236916154ae565b604085015236916154ae565b606082015260a435608082015260c43560a082015269152d02c7e14af680000060c08201524260e0820152600061010082015260016101208201526105888261525f565b6105956040519182614a53565b82815260208101368460051b8601116103245784905b8460051b86018210610d7657505061014082015233600052600260205260406000209060018060a01b038151166bffffffffffffffffffffffff60a01b83541617825560208101518051906001600160401b038211610a825761061e8261061560018701546149e2565b60018701614ff8565b602090601f8311600114610d045761064f929160009183610b18575b50508160011b916000199060031b1c19161790565b60018301555b60408101518051906001600160401b038211610a82576106858261067c60028701546149e2565b60028701614ff8565b602090601f8311600114610c92576106b5929160009183610b185750508160011b916000199060031b1c19161790565b60028301555b60608101518051906001600160401b038211610a82576106eb826106e260038701546149e2565b60038701614ff8565b602090601f8311600114610c205761071b929160009183610b185750508160011b916000199060031b1c19161790565b60038301555b6080810151600483015560a0810151600583015560c0810151600683015560e081015160078301556101008101516008830155600982019061012081015191600583101561030e576101409260ff8019835416911617905501518051906001600160401b038211610a82576020600a9161079d8484870161503d565b01920160005260206000209060005b8160051c8110610be05750601f198116808203610b8f575b505050506040516107d481614a38565b6107df36878b6154ae565b81526107ec3685896154ae565b60208201524260408201526000606082015260006080820152600060a0820152600060c082015233600052600360205260406000209080518051906001600160401b038211610a82576108498261084386546149e2565b86614ff8565b602090601f8311600114610b2357610879929160009183610b185750508160011b916000199060031b1c19161790565b82555b60208101518051906001600160401b038211610a82576108a38261061560018701546149e2565b602090601f8311600114610aa3578260c093600695936108d993600092610a985750508160011b916000199060031b1c19161790565b60018501555b604081015160028501556060810151600385015561091260808201511515600486019060ff801983541691151516179055565b60a08101516005850155015191015533600052600760205260ff6040600020541615610a18575b60005b8181106109e3575050506008549169152d02c7e14af680000083018093116102b7577f3e468f3e65ca46a6d1c17def8bdd31dfd344f226d0485b23d8db5fef25ae693b6109bd7f46406905bae74cf0ddefdf7faf9043b12cf891a01d9c85b17d88c6447fd9cd34976109da9560085560405193604085526040850191615100565b9160a43560208201528033930390a26040519384933397856151c6565b0390a260018055005b8060ff6109fb6109f660019486886150af565b6150a1565b166000526005602052610a123360406000206150bf565b0161093c565b600454600660205280604060002055600160401b811015610a8257610a46816001610a649301600455614e77565b81546001600160a01b0360039290921b91821b19163390911b179055565b3360005260076020526040600020600160ff19825416179055610939565b634e487b7160e01b600052604160045260246000fd5b015190508f8061063a565b906001850160005260206000209160005b601f1985168110610b005750926006949260019260c09583601f19811610610ae7575b505050811b0160018501556108df565b015160001960f88460031b161c191690558e8080610ad7565b91926020600181928685015181550194019201610ab4565b015190508d8061063a565b9190846000526020600020906000935b601f1984168510610b74576001945083601f19811610610b5b575b505050811b01825561087c565b015160001960f88460031b161c191690558c8080610b4e565b81810151835560209485019460019093019290910190610b33565b9260009360005b8184038110610bb05750505060051c0155888080806107c4565b9091946020610bd66001928460ff8a5116919060ff809160031b9316831b921b19161790565b9601929101610b96565b6000805b60208110610bf95750838201556001016107ac565b855190959160019160209160ff60038a901b81811b199092169216901b1792019501610be4565b9190600385016000526020600020906000935b601f1984168510610c77576001945083601f19811610610c5e575b505050811b016003830155610721565b015160001960f88460031b161c191690558c8080610c4e565b81810151835560209485019460019093019290910190610c33565b9190600285016000526020600020906000935b601f1984168510610ce9576001945083601f19811610610cd0575b505050811b0160028301556106bb565b015160001960f88460031b161c191690558c8080610cc0565b81810151835560209485019460019093019290910190610ca5565b9190600185016000526020600020906000935b601f1984168510610d5b576001945083601f19811610610d42575b505050811b016001830155610655565b015160001960f88460031b161c191690558c8080610d32565b81810151835560209485019460019093019290910190610d17565b813560ff81168103610324578152602091820191016105ab565b60405162461bcd60e51b815260206004820152601560248201527414dd185ad9481d1c985b9cd9995c8819985a5b1959605a1b6044820152606490fd5b610def915060203d602011610df5575b610de78183614a53565b8101906151fa565b8d610502565b503d610ddd565b6040513d6000823e3d90fd5b600760ff610e1a6109f6848a8c6150af565b161015610e295760010161048e565b60405162461bcd60e51b8152602060048201526014602482015273125b9d985b1a5908185b19dbdc9a5d1a1b48125160621b6044820152606490fd5b506007851115610482565b60405162461bcd60e51b815260206004820152601960248201527f496e76616c6964206e6f64652050325020656e64706f696e74000000000000006044820152606490fd5b50610200871115610464565b60405162461bcd60e51b815260206004820152601960248201527f496e76616c6964206e6f64652052504320656e64706f696e74000000000000006044820152606490fd5b50610100891115610456565b60405162461bcd60e51b815260206004820152601860248201527f496e76616c6964207374726174756d20656e64706f696e7400000000000000006044820152606490fd5b50610100811115610448565b506040881115610436565b60405162461bcd60e51b8152602060048201526012602482015271105b1c9958591e481c9959da5cdd195c995960721b6044820152606490fd5b3461032457604036600319011261032457610fc16149cc565b602435610fcc615612565b6040516370a0823160e01b81523060048201526020927f00000000000000000000000000000000000000000000000000000000000000006001600160a01b0316918481602481865afa8015610dfc576000906110e9575b61103191506008549061517d565b83116110a45760405163a9059cbb60e01b81526001600160a01b0391909116600482015260248101929092528290829060449082906000905af1908115610dfc5761108592600092611087575b5050615212565b005b61109d9250803d10610df557610de78183614a53565b828061107e565b60405162461bcd60e51b815260048101859052601860248201527f4578636565647320666f7266656974656420616d6f756e7400000000000000006044820152606490fd5b508481813d8311611111575b6110ff8183614a53565b81010312610324576110319051611023565b503d6110f5565b346103245760207f4b36b2e66f38ed349bec532105790177f1283bcbc094e6cd48565195d3033c4361114936614c3e565b9290611153615612565b6001600160a01b031660008181526009835260409020805460ff191660ff86151516179055925b6040519015158152a2005b346103245760203660031901126103245761119e6149cc565b6111a6615612565b6001600160a01b039081169081156111fa57600054826bffffffffffffffffffffffff60a01b821617600055167f8be0079c531659141344cd1fd0a4f28419497f9722a3daafe3b4186f6b6457e0600080a3005b604051631e4fbdf760e01b815260006004820152602490fd5b346103245760003660031901126103245760206040516276a7008152f35b34610324576040366003190112610324576001600160401b0360043581811161032457611262903690600401614b86565b916024359081116103245761127b903690600401614b86565b9290336000526020916009835260ff9060ff604060002054161561144c578581036114155760005b8181106112ac57005b6112b78183886150af565b356001600160a01b0381169190829003610324578160005260029182875284600960406000200154169260058085101561030e578482600180971415918261140a575b50506114025782600052600389526040600020918201908382548b8115158080916113ed575b1561139a575050505061134261133783544261517d565b9184019182546151ed565b90555b4290556003611355848c8a6150af565b359101557ffee081285389647d5197026bab706df929c6f2d268997eea3b1784150ce3b3806040611387848c8a6150af565b358151908152428a820152a25b016112a3565b90919293506113ac575b505050611345565b7f272b235d1950bf73aa2523520e1c71072e6246a7481228513933ddd3d2d77b3891600686016113dc8154615250565b9055604051908152a2828c8a6113a4565b506138406113fb844261517d565b1115611320565b505050611394565b14159050828d6112fa565b60405162461bcd60e51b815260048101859052600f60248201526e098cadccee8d040dad2e6dac2e8c6d608b1b6044820152606490fd5b60405162461bcd60e51b815260048101859052600d60248201526c2737ba1030903932b630bcb2b960991b6044820152606490fd5b346103245760203660031901126103245760206114a461149f6149cc565b615446565b604051908152f35b3461032457600036600319011261032457602060405169152d02c7e14af68000008152f35b346103245760203660031901126103245760206114a46114ef6149cc565b6153d5565b346103245760003660031901126103245760045461151181615276565b9061151b816152fa565b6115248261525f565b906115326040519283614a53565b82825261153e8361525f565b601f190160005b818110611d825750506115578361525f565b906115656040519283614a53565b8382526115718461525f565b602083019490601f190136863760005b818110611658576115a7878787876115b588604051968796608088526080880190614c6d565b908682036020880152614d93565b8481036040860152825180825260208201916020808360051b8301019501926000915b8383106116235750505050506020908483036060860152519182815201919060005b818110611608575050500390f35b825115158452859450602093840193909201916001016115fa565b9193969750919394602080611644600193601f198682030187528a51614e18565b9801930193019092889796959492936115d8565b61166181614e77565b90546001600160a01b0391600381901b82901c8316611680858c61534a565b5282828260031b1c1660005260026020526040600020600a604051916116a583614a1c565b8581541683526116b760018201614a74565b60208401526116c860028201614a74565b60408401526116d960038201614a74565b606084015260048101546080840152600581015460a0840152600681015460c0840152600781015460e0840152600881015461010084015261172660ff600983015416610120850161535e565b016040519081602082549182815201916000526020600020906000915b81601f840110611be0579361191797959381936118689360019c9b99975491818110611bcd575b818110611bb7575b818110611ba1575b818110611b8b575b818110611b76575b818110611b60575b818110611b4a575b818110611b34575b818110611b1e575b818110611b08575b818110611af2575b818110611adc575b818110611ac6575b818110611ab0575b818110611a9a575b818110611a84575b818110611a6e575b818110611a58575b818110611a42575b818110611a2c575b818110611a16575b818110611a00575b8181106119ea575b8181106119d4575b8181106119be575b8181106119a8575b818110611992575b81811061197c575b818110611966575b818110611950575b81811061193a575b1061192c575b500382614a53565b610140820152611878868a61534a565b52611883858961534a565b5082828260031b1c16600052600360205260406000206006604051916118a883614a38565b6118b181614a74565b83526118be898201614a74565b6020840152600281015460408401526003810154606084015260ff60048201541615156080840152600581015460a0840152015460c0820152611901868c61534a565b5261190c858b61534a565b5060031b1c1661518a565b611921828761534a565b901515905201611581565b60f81c815260200138611860565b9260208e9160ff8560f01c16815201930161185a565b9260208e9160ff8560e81c168152019301611852565b9260208e9160ff8560e01c16815201930161184a565b9260208e9160ff8560d81c168152019301611842565b9260208e9160ff8560d01c16815201930161183a565b9260208e9160ff8560c81c168152019301611832565b9260208e9160ff8560c01c16815201930161182a565b9260208e9160ff8560b81c168152019301611822565b9260208e9160ff8560b01c16815201930161181a565b9260208e9160ff8560a81c168152019301611812565b9260208e9160ff8560a01c16815201930161180a565b9260208e9160ff8560981c168152019301611802565b9260208e9160ff8560901c1681520193016117fa565b9260208e9160ff8560881c1681520193016117f2565b9260208e9160ff8560801c1681520193016117ea565b9260208e9160ff8560781c1681520193016117e2565b9260208e9160ff8560701c1681520193016117da565b9260208e9160ff8560681c1681520193016117d2565b9260208e9160ff8560601c1681520193016117ca565b9260208e9160ff8560581c1681520193016117c2565b9260208e9160ff8560501c1681520193016117ba565b9260208e9160ff8560481c1681520193016117b2565b9260208e9160ff8560401c1681520193016117aa565b9260208e9160ff8560381c1681520193016117a2565b9260208e9160ff8560301c16815201930161179a565b9260208e9160ff8560281c168152019301611792565b9260208e9160ff85831c16815201930161178a565b9260208e9160ff8560181c168152019301611782565b9260208e9160ff8560101c16815201930161177a565b9260208e9160ff8560081c168152019301611772565b9260208e9160ff8516815201930161176a565b926001610400602092865460ff8116825260ff8160081c168583015260ff8160101c16604083015260ff8160181c16606083015260ff81861c16608083015260ff8160281c1660a083015260ff8160301c1660c083015260ff8160381c1660e083015260ff8160401c1661010083015260ff8160481c1661012083015260ff8160501c1661014083015260ff8160581c1661016083015260ff8160601c1661018083015260ff8160681c166101a083015260ff8160701c166101c083015260ff8160781c166101e083015260ff8160801c1661020083015260ff8160881c1661022083015260ff8160901c1661024083015260ff8160981c1661026083015260ff8160a01c1661028083015260ff8160a81c166102a083015260ff8160b01c166102c083015260ff8160b81c166102e083015260ff8160c01c1661030083015260ff8160c81c1661032083015260ff8160d01c1661034083015260ff8160d81c1661036083015260ff8160e01c1661038083015260ff8160e81c166103a083015260ff8160f01c166103c083015260f81c6103e0820152019401920191611743565b602090611d8d61536a565b82828701015201611545565b346103245760203660031901126103245760206114a4611db76149cc565b6153a3565b346103245760203660031901126103245760ff611dd7614edc565b1660078110156125a357600052600560205260406000206000808254905b81811061252d5750611e0f611e0983615276565b926152fa565b9260009060005b838110611e305760405180611e2c888883614df0565b0390f35b611e3a8183614ec4565b905460018060a01b03818360031b1c16600052600260205260ff60096040600020015416600581101561030e576001148061250e575b611e7f575b5050600101611e16565b919391600382901b81901c6001600160a01b0316611e9d848961534a565b5260018060a01b039160031b1c166000526002602052604060002060405190611ec582614a1c565b80546001600160a01b03168252611ede60018201614a74565b6020830152611eef60028201614a74565b6040830152611f0060038201614a74565b606083015260048101546080830152600581015460a0830152600681015460c0830152600781015460e08301526008810154610100830152611f4d60ff600983015416610120840161535e565b6040519081600a602081840154928381520192016000526020600020906000915b81601f84011061236c57936120b09593819361208f93600199975491818110612359575b818110612343575b81811061232d575b818110612317575b818110612302575b8181106122ec575b8181106122d6575b8181106122c0575b8181106122aa575b818110612294575b81811061227e575b818110612268575b818110612252575b81811061223c575b818110612226575b818110612210575b8181106121fa575b8181106121e4575b8181106121ce575b8181106121b8575b8181106121a2575b81811061218c575b818110612176575b818110612160575b81811061214a575b818110612134575b81811061211e575b818110612108575b8181106120f2575b8181106120dc575b8181106120c6575b106120b857500382614a53565b61014082015261209f828a61534a565b526120aa818961534a565b50615250565b929087611e75565b60f81c81526020018d611860565b9260208b9160ff8560f01c168152019301612082565b9260208b9160ff8560e81c16815201930161207a565b9260208b9160ff8560e01c168152019301612072565b9260208b9160ff8560d81c16815201930161206a565b9260208b9160ff8560d01c168152019301612062565b9260208b9160ff8560c81c16815201930161205a565b9260208b9160ff8560c01c168152019301612052565b9260208b9160ff8560b81c16815201930161204a565b9260208b9160ff8560b01c168152019301612042565b9260208b9160ff8560a81c16815201930161203a565b9260208b9160ff8560a01c168152019301612032565b9260208b9160ff8560981c16815201930161202a565b9260208b9160ff8560901c168152019301612022565b9260208b9160ff8560881c16815201930161201a565b9260208b9160ff8560801c168152019301612012565b9260208b9160ff8560781c16815201930161200a565b9260208b9160ff8560701c168152019301612002565b9260208b9160ff8560681c168152019301611ffa565b9260208b9160ff8560601c168152019301611ff2565b9260208b9160ff8560581c168152019301611fea565b9260208b9160ff8560501c168152019301611fe2565b9260208b9160ff8560481c168152019301611fda565b9260208b9160ff8560401c168152019301611fd2565b9260208b9160ff8560381c168152019301611fca565b9260208b9160ff8560301c168152019301611fc2565b9260208b9160ff8560281c168152019301611fba565b9260208b9160ff85831c168152019301611fb2565b9260208b9160ff8560181c168152019301611faa565b9260208b9160ff8560101c168152019301611fa2565b9260208b9160ff8560081c168152019301611f9a565b9260208b9160ff85168152019301611f92565b926001610400602092865460ff8116825260ff8160081c168583015260ff8160101c16604083015260ff8160181c16606083015260ff81861c16608083015260ff8160281c1660a083015260ff8160301c1660c083015260ff8160381c1660e083015260ff8160401c1661010083015260ff8160481c1661012083015260ff8160501c1661014083015260ff8160581c1661016083015260ff8160601c1661018083015260ff8160681c166101a083015260ff8160701c166101c083015260ff8160781c166101e083015260ff8160801c1661020083015260ff8160881c1661022083015260ff8160901c1661024083015260ff8160981c1661026083015260ff8160a01c1661028083015260ff8160a81c166102a083015260ff8160b01c166102c083015260ff8160b81c166102e083015260ff8160c01c1661030083015260ff8160c81c1661032083015260ff8160d01c1661034083015260ff8160d81c1661036083015260ff8160e01c1661038083015260ff8160e81c166103a083015260ff8160f01c166103c083015260f81c6103e0820152019401920191611f6e565b50612528600383901b82901c6001600160a01b031661518a565b611e70565b6125378185614ec4565b905460039190911b1c6001600160a01b031660008181526002602052604090206009015460ff16600581101561030e576001149081612593575b5061257f575b600101611df5565b9161258b600191615250565b929050612577565b61259d915061518a565b85612571565b60405162461bcd60e51b8152602060048201526011602482015270496e76616c696420616c676f726974686d60781b6044820152606490fd5b34610324576040366003190112610324576125f56149cc565b6001600160a01b03166024353382148015612765575b1561272f5781600052600260205260ff60096040600020015416600581101561030e577ffee081285389647d5197026bab706df929c6f2d268997eea3b1784150ce3b3809161266882600160409414908115612724575b50614eec565b836000526003602052806003836000206002810187815480151580809161270f575b156126c25750505061269d81544261517d565b6126ac600584019182546151ed565b90555b42905501558151908152426020820152a2005b6126ce575b50506126af565b60207f272b235d1950bf73aa2523520e1c71072e6246a7481228513933ddd3d2d77b3891600686016127008154615250565b90558951908152a287896126c7565b5061384061271d834261517d565b111561268a565b600291501486612662565b60405162461bcd60e51b815260206004820152600e60248201526d139bdd08185d5d1a1bdc9a5e995960921b6044820152606490fd5b5033600052600960205260ff6040600020541661260b565b34610324576020366003190112610324576001600160a01b0361279e6149cc565b1680600052600260205260ff60096040600020015416600581101561030e571515806127d2575b6020906040519015158152f35b50600052600260205260ff60096040600020015416600581101561030e57600460209114156127c5565b34610324576020366003190112610324576128156149cc565b61281d6152a8565b5060018060a01b038091166000526002602052600a60406000206040519261284484614a1c565b815416835261285560018201614a74565b602084015261286660028201614a74565b604084015261287760038201614a74565b606084015260048101546080840152600581015460a0840152600681015460c0840152600781015460e084015260088101546101008401526128c460ff600983015416610120850161535e565b019060405180602084549182815201936000526020600020906000915b81601f840110612cea57946129fd928492611e2c975491818110612cd6575b818110612cbf575b818110612ca8575b818110612c91575b818110612c7b575b818110612c64575b818110612c4d575b818110612c36575b818110612c1f575b818110612c08575b818110612bf1575b818110612bda575b818110612bc3575b818110612bac575b818110612b95575b818110612b7e575b818110612b67575b818110612b50575b818110612b39575b818110612b22575b818110612b0b575b818110612af4575b818110612add575b818110612ac6575b818110612aaf575b818110612a98575b818110612a81575b818110612a6a575b818110612a53575b818110612a3c575b818110612a25575b10612a1757500382614a53565b610140820152604051918291602083526020830190614cb7565b60f81c815260200186611860565b92602060019160ff8560f01c1681520193016129f0565b92602060019160ff8560e81c1681520193016129e8565b92602060019160ff8560e01c1681520193016129e0565b92602060019160ff8560d81c1681520193016129d8565b92602060019160ff8560d01c1681520193016129d0565b92602060019160ff8560c81c1681520193016129c8565b92602060019160ff8560c01c1681520193016129c0565b92602060019160ff8560b81c1681520193016129b8565b92602060019160ff8560b01c1681520193016129b0565b92602060019160ff8560a81c1681520193016129a8565b92602060019160ff8560a01c1681520193016129a0565b92602060019160ff8560981c168152019301612998565b92602060019160ff8560901c168152019301612990565b92602060019160ff8560881c168152019301612988565b92602060019160ff8560801c168152019301612980565b92602060019160ff8560781c168152019301612978565b92602060019160ff8560701c168152019301612970565b92602060019160ff8560681c168152019301612968565b92602060019160ff8560601c168152019301612960565b92602060019160ff8560581c168152019301612958565b92602060019160ff8560501c168152019301612950565b92602060019160ff8560481c168152019301612948565b92602060019160ff8560401c168152019301612940565b92602060019160ff8560381c168152019301612938565b92602060019160ff8560301c168152019301612930565b92602060019160ff8560281c168152019301612928565b92602060019160ff85831c168152019301612920565b92602060019160ff8560181c168152019301612918565b92602060019160ff8560101c168152019301612910565b92602060019160ff8560081c168152019301612908565b92602060019160ff85168152019301612900565b946001610400602092885460ff8116825260ff8160081c168583015260ff8160101c16604083015260ff8160181c16606083015260ff81861c16608083015260ff8160281c1660a083015260ff8160301c1660c083015260ff8160381c1660e083015260ff8160401c1661010083015260ff8160481c1661012083015260ff8160501c1661014083015260ff8160581c1661016083015260ff8160601c1661018083015260ff8160681c166101a083015260ff8160701c166101c083015260ff8160781c166101e083015260ff8160801c1661020083015260ff8160881c1661022083015260ff8160901c1661024083015260ff8160981c1661026083015260ff8160a01c1661028083015260ff8160a81c166102a083015260ff8160b01c166102c083015260ff8160b81c166102e083015260ff8160c01c1661030083015260ff8160c81c1661032083015260ff8160d01c1661034083015260ff8160d81c1661036083015260ff8160e01c1661038083015260ff8160e81c166103a083015260ff8160f01c166103c083015260f81c6103e08201520196019201916128e1565b34610324576000366003190112610324576020604051610e108152f35b34610324576000366003190112610324576040517f00000000000000000000000000000000000000000000000000000000000000006001600160a01b03168152602090f35b34610324576000366003190112610324573360005260026020526009604060002001805460ff811690600582101561030e57612f2e600160029314614eec565b60ff1916179055337fd971f597c759bbab7e07dc9b98eed49a71a525608003fc6c2fba424835984703600080a2005b34610324576000366003190112610324576020600454604051908152f35b3461032457604036600319011261032457612f94614edc565b60ff602435911660005260056020526040600020805482101561032457602091612fbd91614ec4565b905460405160039290921b1c6001600160a01b03168152f35b346103245760203660031901126103245760043560045481101561032457612fbd602091614e77565b3461032457600036600319011261032457602060405160078152f35b34610324576020366003190112610324576001600160a01b038061303d6149cc565b16600052600260205260406000209081541661305b60018301614a74565b91611e2c61306b60028301614a74565b61307760038401614a74565b9260048101549360058201546006830154906130dc6007850154936130ce60ff6009600889015498015416976130c06040519d8e9d8e6101409181528160208201520190614b19565b8c810360408e015290614b19565b908a820360608c0152614b19565b96608089015260a088015260c087015260e0860152610100850152610120840190614caa565b346103245760203660031901126103245761311b6149cc565b61312361536a565b5060018060a01b03166000526003602052611e2c604060002060066040519161314b83614a38565b61315481614a74565b835261316260018201614a74565b6020840152600281015460408401526003810154606084015260ff60048201541615156080840152600581015460a0840152015460c0820152604051918291602083526020830190614e18565b34610324576000366003190112610324576004546000805b8281106138f357506131e16131db82615276565b916152fa565b916000805b8282106131ff57505050611e2c60405192839283614df0565b61320882614e77565b905460018060a01b03818360031b1c16600052600260205260ff60096040600020015416600581101561030e57600114806138d4575b61324f575b505090600101906131e6565b600382901b81901c6001600160a01b031661326a848861534a565b5260018060a01b039160031b1c16600052600260205260406000206040519061329282614a1c565b80546001600160a01b031682526132ab60018201614a74565b60208301526132bc60028201614a74565b60408301526132cd60038201614a74565b606083015260048101546080830152600581015460a0830152600681015460c0830152600781015460e0830152600881015461010083015261331a60ff600983015416610120840161535e565b6040519081600a602081840154928381520192016000526020600020906000915b81601f84011061373257936134779593819361345c9360019997549181811061371f575b818110613709575b8181106136f3575b8181106136dd575b8181106136c8575b8181106136b2575b81811061369c575b818110613686575b818110613670575b81811061365a575b818110613644575b81811061362e575b818110613618575b818110613602575b8181106135ec575b8181106135d6575b8181106135c0575b8181106135aa575b818110613594575b81811061357e575b818110613568575b818110613552575b81811061353c575b818110613526575b818110613510575b8181106134fa575b8181106134e4575b8181106134ce575b8181106134b8575b8181106134a2575b81811061348c575b1061347e57500382614a53565b61014082015261346c828961534a565b526120aa818861534a565b9086613243565b60f81c81526020018c611860565b9260208b9160ff8560f01c16815201930161344f565b9260208b9160ff8560e81c168152019301613447565b9260208b9160ff8560e01c16815201930161343f565b9260208b9160ff8560d81c168152019301613437565b9260208b9160ff8560d01c16815201930161342f565b9260208b9160ff8560c81c168152019301613427565b9260208b9160ff8560c01c16815201930161341f565b9260208b9160ff8560b81c168152019301613417565b9260208b9160ff8560b01c16815201930161340f565b9260208b9160ff8560a81c168152019301613407565b9260208b9160ff8560a01c1681520193016133ff565b9260208b9160ff8560981c1681520193016133f7565b9260208b9160ff8560901c1681520193016133ef565b9260208b9160ff8560881c1681520193016133e7565b9260208b9160ff8560801c1681520193016133df565b9260208b9160ff8560781c1681520193016133d7565b9260208b9160ff8560701c1681520193016133cf565b9260208b9160ff8560681c1681520193016133c7565b9260208b9160ff8560601c1681520193016133bf565b9260208b9160ff8560581c1681520193016133b7565b9260208b9160ff8560501c1681520193016133af565b9260208b9160ff8560481c1681520193016133a7565b9260208b9160ff8560401c16815201930161339f565b9260208b9160ff8560381c168152019301613397565b9260208b9160ff8560301c16815201930161338f565b9260208b9160ff8560281c168152019301613387565b9260208b9160ff85831c16815201930161337f565b9260208b9160ff8560181c168152019301613377565b9260208b9160ff8560101c16815201930161336f565b9260208b9160ff8560081c168152019301613367565b9260208b9160ff8516815201930161335f565b926001610400602092865460ff8116825260ff8160081c168583015260ff8160101c16604083015260ff8160181c16606083015260ff81861c16608083015260ff8160281c1660a083015260ff8160301c1660c083015260ff8160381c1660e083015260ff8160401c1661010083015260ff8160481c1661012083015260ff8160501c1661014083015260ff8160581c1661016083015260ff8160601c1661018083015260ff8160681c166101a083015260ff8160701c166101c083015260ff8160781c166101e083015260ff8160801c1661020083015260ff8160881c1661022083015260ff8160901c1661024083015260ff8160981c1661026083015260ff8160a01c1661028083015260ff8160a81c166102a083015260ff8160b01c166102c083015260ff8160b81c166102e083015260ff8160c01c1661030083015260ff8160c81c1661032083015260ff8160d01c1661034083015260ff8160d81c1661036083015260ff8160e01c1661038083015260ff8160e81c166103a083015260ff8160f01c166103c083015260f81c6103e082015201940192019161333b565b506138ee600383901b82901c6001600160a01b031661518a565b61323e565b6138fc81614e77565b905460039190911b1c6001600160a01b031660008181526002602052604090206009015460ff16600581101561030e576001149081613958575b50613944575b6001016131c7565b90613950600191615250565b91905061393c565b613962915061518a565b84613936565b34610324576000366003190112610324576000546040516001600160a01b039091168152602090f35b34610324576000366003190112610324576020600854604051908152f35b34610324576020366003190112610324576001600160a01b036139d06149cc565b1660005260036020526040806000206006600582015491015482519182526020820152f35b3461032457613a0336614bb6565b50505050505050505050608460405162461bcd60e51b8152602060048201526024808201527f557365207265676973746572506f6f6c2077697468206e6f646520656e64706f604482015263696e747360e01b6064820152fd5b34610324576020366003190112610324576001600160a01b03613a7e6149cc565b166000526009602052602060ff604060002054166040519015158152f35b3461032457600036600319011261032457613ab5615612565b600080546001600160a01b0319811682556001600160a01b03167f8be0079c531659141344cd1fd0a4f28419497f9722a3daafe3b4186f6b6457e08280a3005b346103245760003660031901126103245760206040516103e88152f35b3461032457600036600319011261032457613b2b6154f4565b336000526020600281526040600020906009820180549260ff8416600581101561030e576003613b5b9114615121565b60088101546276a70081018091116102b7574210613c4b576006600491019360008554955560ff1916179055613b938260085461517d565b60085560405163a9059cbb60e01b81523360048201526024810183905290808260448160006001600160a01b037f0000000000000000000000000000000000000000000000000000000000000000165af1918215610dfc577fdf2b996992aeaae3212b8d32b9c3c224196146804bed6814ec28d864b4eb3fc592613c1f91600091613c2e575b50615212565b6040519283523392a260018055005b613c459150833d8511610df557610de78183614a53565b85613c19565b60405162461bcd60e51b815260048101849052601860248201527f486f6c6420706572696f64206e6f7420636f6d706c65746500000000000000006044820152606490fd5b3461032457602036600319011261032457613ca96149cc565b613cb1615612565b60018060a01b0381166000526002602052604060002090600982019060ff825416600581101561030e578015159081613d53575b5015613d1f5782613cff600692600a613d1a960190615517565b0190600082549255600460ff1982541617905560085461517d565b600855005b60405162461bcd60e51b815260206004820152600c60248201526b125b9d985b1a59081c1bdbdb60a21b6044820152606490fd5b60049150141584613ce5565b346103245760003660031901126103245760206040516138408152f35b34610324576040366003190112610324576001600160401b0360043581811161032457613dad903690600401614b59565b91602492833582811161032457613dc8903690600401614b59565b9490923360005260206002815260ff6009604060002001541660058110156140d45760018091148015614099575b613dff90614eec565b841561405e578715614023573360005260038252604060002093838611613f9a57613e3486613e2e87546149e2565b87614ff8565b600086601f8111600114613fb95780613e6392600091613fae575b508160011b916000199060031b1c19161790565b85555b818501938911613f9a5750613e8588613e7f85546149e2565b85614ff8565b600091601f8911600114613f0a575050613efa928792613ee0847f8dd72b3e159c2446f32a80f24459ad76e9f8fbb74165952a01c27adb16aba725999a600495600091613eff57508160011b916000199060031b1c19161790565b90555b0160ff1981541690556040519384933397856151c6565b0390a2005b90508901358c613e4f565b9091601f1989168460005282600020926000905b828210613f8357505092613efa95928a95927f8dd72b3e159c2446f32a80f24459ad76e9f8fbb74165952a01c27adb16aba7259a9b60049610613f69575b505084811b019055613ee3565b890135600019600388901b60f8161c191690558a80613f5c565b808685968294968d01358155019501930190613f1e565b634e487b7160e01b60009081526041600452fd5b90508a01358c613e4f565b50601f19871690866000528785600020928b87876000925b84841061400a575050505010613ff0575b50508186811b018555613e66565b890135600019600389901b60f8161c191690558980613fe2565b860135875590950194938401938b93500187878e613fd1565b60405162461bcd60e51b81526004810183905260148186015273125b9d985b1a5908140c9408195b991c1bda5b9d60621b6044820152606490fd5b60405162461bcd60e51b81526004810183905260148186015273125b9d985b1a5908149410c8195b991c1bda5b9d60621b6044820152606490fd5b50336000526002825260ff6009604060002001541660058110156140bf57600214613df6565b84634e487b7160e01b60005260216004526000fd5b83634e487b7160e01b60005260216004526000fd5b3461032457602036600319011261032457602061410c6141076149cc565b61518a565b6040519015158152f35b3461032457600036600319011261032457336000526020600260205260406000206009810180549260ff808516600593600582101561030e5761415c6003809314615121565b6141653361518a565b156141f0576001809760ff19161790556000600886015585600a60009601905b6141b2575b337f22cc830dad867e19cb47be932a438444a58da9fdc49c3f00d13fb9f0432b4e16600080a2005b80548610156141eb578686846141c983998561515d565b905490861b1c166000528686526141e43360406000206150bf565b0195614185565b61418a565b60405162461bcd60e51b815260206004820152602160248201527f4e6f6465206d757374206265206f6e6c696e6520746f207265616374697661746044820152606560f81b6064820152608490fd5b346103245761424d36614c3e565b90614256615612565b6001600160a01b031660008181526002602052604090206009015490919060ff16600581101561030e57156142ce5760207f4b9265cebcaf8bb06bc0aa497c5590ec0a65c2070842969f00a424c9c5d2be9e91836000526003825261117a8160046040600020019060ff801983541691151516179055565b60405162461bcd60e51b8152602060048201526013602482015272141bdbdb081b9bdd081c9959da5cdd195c9959606a1b6044820152606490fd5b346103245761431736614bb6565b9490956143289997949293996154f4565b33600052600260205260406000209460ff600987015416600581101561030e5780600161435d92149081156147e45750614eec565b891515806147d9575b61436f90614f2a565b831515806147cd575b156147955761438b6103e88c1115614f65565b8615158061478a575b61439d90614fa0565b6143aa600a870133615517565b6001600160401b038a11610a82576143d28a6143c960018901546149e2565b60018901614ff8565b60008a601f811160011461471b57806144009260009161471057508160011b916000199060031b1c19161790565b60018701555b6001600160401b038211610a825761442e8261442560028901546149e2565b60028901614ff8565b600090601f831160011461469f5761445e9291600091836146945750508160011b916000199060031b1c19161790565b60028501555b6001600160401b038211610a8257614483826106e260038701546149e2565b600090601f8311600114614623576144b39291600091836146185750508160011b916000199060031b1c19161790565b60038301555b86600483015560058201556001600160401b038211610a82576144df82600a830161503d565b600a839101600052602060002060005b8360051c81106145e25750601f19831683038061458f575b50505060005b81811061455f57857f9e436bbe2429ca2cf1e14cc4b5cd19abcd3d4da67b6e6c53a856d5ed7ef3ccc08661454d8760405192604084526040840191615100565b9260208201528033930390a260018055005b8060ff6145726109f660019486886150af565b1660005260056020526145893360406000206150bf565b0161450d565b9160009260005b8181106145ae575050508260051c0155858080614507565b90919360206145d8600192846145c3896150a1565b919060ff809160031b9316831b921b19161790565b9501929101614596565b6000805b602081106145fb5750828201556001016144ef565b9390602061460f600192876145c3866150a1565b920194016145e6565b013590508a8061063a565b600385939293016000526020600020906000935b601f198416851061467c576001945083601f19811610614662575b505050811b0160038301556144b9565b0135600019600384901b60f8161c19169055898080614652565b81810135835560209485019460019093019201614637565b013590508c8061063a565b600287939293016000526020600020906000935b601f19841685106146f8576001945083601f198116106146de575b505050811b016002850155614464565b0135600019600384901b60f8161c191690558b80806146ce565b818101358355602094850194600190930192016146b3565b90508b01358e613e4f565b506001870160005260206000209060005b8b601f198e1682106147725750508b601f19811610614758575b505060018a811b016001870155614406565b8a013560001960038d901b60f8161c191690558b80614746565b6001839460209394849301358155019301910161472c565b506007871115614394565b60405162461bcd60e51b815260206004820152601060248201526f125b9d985b1a5908195b991c1bda5b9d60821b6044820152606490fd5b50610100841115614378565b5060408a1115614366565b60029150148d612662565b34610324576020366003190112610324576001600160a01b036148106149cc565b16600052600360205261486d604060002061482a81614a74565b9061483760018201614a74565b600282015491600381015460ff6004830154169061487b600660058501549401549460405198899860e08a5260e08a0190614b19565b9088820360208a0152614b19565b94604087015260608601521515608085015260a084015260c08301520390f35b34610324576000366003190112610324573360005260026020526009604060002001805460ff8116600581101561030e57600203614957576148dc3361518a565b156149125760ff19166001179055337fd275c512a7f2473871bb3eb9d8f8c13b162befd288ca21f348a543021aba5e9c600080a2005b60405162461bcd60e51b815260206004820152601d60248201527f4e6f6465206d757374206265206f6e6c696e6520746f20726573756d650000006044820152606490fd5b60405162461bcd60e51b815260206004820152600f60248201526e141bdbdb081b9bdd081c185d5cd959608a1b6044820152606490fd5b34610324576020366003190112610324576020906001600160a01b036149b26149cc565b166000526003825260ff6004604060002001541615158152f35b600435906001600160a01b038216820361032457565b90600182811c92168015614a12575b60208310146149fc57565b634e487b7160e01b600052602260045260246000fd5b91607f16916149f1565b61016081019081106001600160401b03821117610a8257604052565b60e081019081106001600160401b03821117610a8257604052565b90601f801991011681019081106001600160401b03821117610a8257604052565b90604051918260008254614a87816149e2565b90818452602094600191600181169081600014614af75750600114614ab8575b505050614ab692500383614a53565b565b600090815285812095935091905b818310614adf575050614ab69350820101388080614aa7565b85548884018501529485019487945091830191614ac6565b92505050614ab694925060ff191682840152151560051b820101388080614aa7565b919082519283825260005b848110614b45575050826000602080949584010152601f8019910116010190565b602081830181015184830182015201614b24565b9181601f84011215610324578235916001600160401b038311610324576020838186019501011161032457565b9181601f84011215610324578235916001600160401b038311610324576020808501948460051b01011161032457565b60c0600319820112610324576001600160401b03916004358381116103245782614be291600401614b59565b939093926024358281116103245781614bfd91600401614b59565b939093926044358181116103245783614c1891600401614b59565b93909392606435926084359260a43591821161032457614c3a91600401614b86565b9091565b6040906003190112610324576004356001600160a01b0381168103610324579060243580151581036103245790565b90815180825260208080930193019160005b828110614c8d575050505090565b83516001600160a01b031685529381019392810192600101614c7f565b90600582101561030e5752565b906101609060018060a01b038351168152614d0a614cf8614ce660209485870151908087870152850190614b19565b60408601518482036040860152614b19565b60608501518382036060850152614b19565b906080840151608082015260a084015160a082015260c084015160c082015260e084015160e08201526101008085015190820152614d516101208086015190830190614caa565b610140809401519381830391015281808451928381520193019160005b828110614d7c575050505090565b835160ff1685529381019392810192600101614d6e565b90808251908181526020809101926020808460051b8301019501936000915b848310614dc25750505050505090565b9091929394958480614de0600193601f198682030187528a51614cb7565b9801930193019194939290614db2565b9091614e07614e1593604084526040840190614c6d565b916020818403910152614d93565b90565b9060c080614e44614e32855160e0865260e0860190614b19565b60208601518582036020870152614b19565b93604081015160408501526060810151606085015260808101511515608085015260a081015160a0850152015191015290565b600454811015614eae5760046000527f8a35acfbc15ff81a39ae7d344fd709f28e8600b4aa8c65c6b64bfe7fe36bd19b0190600090565b634e487b7160e01b600052603260045260246000fd5b8054821015614eae5760005260206000200190600090565b6004359060ff8216820361032457565b15614ef357565b60405162461bcd60e51b815260206004820152600f60248201526e506f6f6c206e6f742061637469766560881b6044820152606490fd5b15614f3157565b60405162461bcd60e51b815260206004820152600c60248201526b496e76616c6964206e616d6560a01b6044820152606490fd5b15614f6c57565b60405162461bcd60e51b815260206004820152600c60248201526b08ccaca40e8dede40d0d2ced60a31b6044820152606490fd5b15614fa757565b60405162461bcd60e51b8152602060048201526012602482015271496e76616c696420616c676f726974686d7360701b6044820152606490fd5b818110614fec575050565b60008155600101614fe1565b9190601f811161500757505050565b614ab6926000526020600020906020601f840160051c83019310615033575b601f0160051c0190614fe1565b9091508190615026565b90600160401b8111610a8257815481835580821061505a57505050565b614ab692600052601f6020600020918180850160051c8401941680615086575b500160051c0190614fe1565b600019908186019182549160200360031b1c1690553861507a565b3560ff811681036103245790565b9190811015614eae5760051b0190565b90815491600160401b831015610a8257826150e2916001614ab695018155614ec4565b90919060018060a01b038084549260031b9316831b921b1916179055565b908060209392818452848401376000828201840152601f01601f1916010190565b1561512857565b60405162461bcd60e51b815260206004820152600d60248201526c4e6f7420756e7374616b696e6760981b6044820152606490fd5b9190918054831015614eae57600052601f60206000208360051c01921690565b919082039182116102b757565b6001600160a01b031660009081526003602052604090206002015480151590816151b2575090565b61384091506151c1904261517d565b111590565b92906151df90614e159593604086526040860191615100565b926020818503910152615100565b919082018092116102b757565b90816020910312610324575180151581036103245790565b1561521957565b60405162461bcd60e51b815260206004820152600f60248201526e151c985b9cd9995c8819985a5b1959608a1b6044820152606490fd5b60001981146102b75760010190565b6001600160401b038111610a825760051b60200190565b906152808261525f565b61528d6040519182614a53565b828152809261529e601f199161525f565b0190602036910137565b604051906152b582614a1c565b606061014083600080825283602083015283604083015283808301528060808301528060a08301528060c08301528060e0830152806101008301526101208201520152565b906153048261525f565b6153116040519182614a53565b8281528092615322601f199161525f565b019060005b82811061533357505050565b60209061533e6152a8565b82828501015201615327565b8051821015614eae5760209160051b010190565b600582101561030e5752565b6040519061537782614a38565b600060c08360608152606060208201528260408201528260608201528260808201528260a08201520152565b6001600160a01b031660009081526003602052604090206002015480156153ce57614e15904261517d565b5060001990565b6001600160a01b03166000908152600260205260408120600981015460ff1660058110156154325760030361542e5760080154906276a700820180921161541a575090565b634e487b7160e01b81526011600452602490fd5b5090565b634e487b7160e01b83526021600452602483fd5b6001600160a01b03166000908152600260205260408120600981015460ff1660058110156154325760030361542e57600801546276a700810180911161549a578042101561542e57614e159150429061517d565b634e487b7160e01b82526011600452602482fd5b9291926001600160401b038211610a8257604051916154d7601f8201601f191660200184614a53565b829481845281830111610324578281602093846000960137010152565b600260015414615505576002600155565b604051633ee5aeb560e01b8152600490fd5b916000915b805483101561560c5790816155338460ff9461515d565b939054600394851b1c16600052600560205260406000209160005b8354808210156155fd576155628286614ec4565b90546001600160a01b039291881b1c82168983161461558557505060010161554e565b9296939560001995909390928187019182116102b7576150e2836155ac6155ba9487614ec4565b905490881b1c169185614ec4565b81549485156155e75760019501926155d28484614ec4565b81939154921b1b19169055555b01919061551c565b634e487b7160e01b600052603160045260246000fd5b505093909250600191506155df565b50915050565b6000546001600160a01b0316330361562657565b60405163118cdaa760e01b8152336004820152602490fdfea2646970667358221220608381f79819c3b85bd487300e09a3f45e4ba7c742aad489e9871fca5a2a5e7864736f6c63430008180033",
  "linkReferences": {},
  "deployedLinkReferences": {}
}