{
  "_format": "hh-sol-artifact-1",
  "contractName": "PrivacyPoolBridge",
  "sourceName": "contracts/PrivacyPoolBridge.sol",
  "abi": [
    {
      "inputs": [
        {
          "internalType": "address",
          "name": "_token",
          "type": "address"
        },
        {
          "internalType": "address",
          "name": "_verifier",
          "type": "address"
        },
        {
          "internalType": "address",
          "name": "_owner",
          "type": "address"
        }
      ],
      "stateMutability": "nonpayable",
      "type": "constructor"
    },
    {
      "inputs": [],
      "name": "CommitmentAlreadyExists",
      "type": "error"
    },
    {
      "inputs": [],
      "name": "InsufficientLiquidity",
      "type": "error"
    },
    {
      "inputs": [],
      "name": "InvalidProof",
      "type": "error"
    },
    {
      "inputs": [],
      "name": "InvalidRoot",
      "type": "error"
    },
    {
      "inputs": [],
      "name": "NotRelayer",
      "type": "error"
    },
    {
      "inputs": [],
      "name": "NullifierAlreadyUsed",
      "type": "error"
    },
    {
      "inputs": [],
      "name": "RootAlreadyExists",
      "type": "error"
    },
    {
      "inputs": [],
      "name": "TreeFull",
      "type": "error"
    },
    {
      "inputs": [],
      "name": "ZeroAddress",
      "type": "error"
    },
    {
      "anonymous": false,
      "inputs": [
        {
          "indexed": true,
          "internalType": "bytes32",
          "name": "commitment",
          "type": "bytes32"
        },
        {
          "indexed": true,
          "internalType": "uint256",
          "name": "leafIndex",
          "type": "uint256"
        },
        {
          "indexed": false,
          "internalType": "uint256",
          "name": "amount",
          "type": "uint256"
        },
        {
          "indexed": false,
          "internalType": "uint256",
          "name": "timestamp",
          "type": "uint256"
        }
      ],
      "name": "Deposit",
      "type": "event"
    },
    {
      "anonymous": false,
      "inputs": [
        {
          "indexed": true,
          "internalType": "bytes32",
          "name": "root",
          "type": "bytes32"
        },
        {
          "indexed": true,
          "internalType": "uint256",
          "name": "sourceChainId",
          "type": "uint256"
        },
        {
          "indexed": false,
          "internalType": "address",
          "name": "relayer",
          "type": "address"
        }
      ],
      "name": "ExternalRootAdded",
      "type": "event"
    },
    {
      "anonymous": false,
      "inputs": [
        {
          "indexed": true,
          "internalType": "bytes32",
          "name": "root",
          "type": "bytes32"
        }
      ],
      "name": "ExternalRootRevoked",
      "type": "event"
    },
    {
      "anonymous": false,
      "inputs": [
        {
          "indexed": true,
          "internalType": "bytes32",
          "name": "root",
          "type": "bytes32"
        },
        {
          "indexed": false,
          "internalType": "uint256",
          "name": "leafCount",
          "type": "uint256"
        }
      ],
      "name": "MerkleRoot",
      "type": "event"
    },
    {
      "anonymous": false,
      "inputs": [
        {
          "indexed": true,
          "internalType": "address",
          "name": "previousOwner",
          "type": "address"
        },
        {
          "indexed": true,
          "internalType": "address",
          "name": "newOwner",
          "type": "address"
        }
      ],
      "name": "OwnershipTransferred",
      "type": "event"
    },
    {
      "anonymous": false,
      "inputs": [
        {
          "indexed": true,
          "internalType": "address",
          "name": "relayer",
          "type": "address"
        },
        {
          "indexed": false,
          "internalType": "bool",
          "name": "authorized",
          "type": "bool"
        }
      ],
      "name": "RelayerUpdated",
      "type": "event"
    },
    {
      "anonymous": false,
      "inputs": [
        {
          "indexed": true,
          "internalType": "bytes32",
          "name": "nullifier",
          "type": "bytes32"
        },
        {
          "indexed": true,
          "internalType": "address",
          "name": "recipient",
          "type": "address"
        },
        {
          "indexed": false,
          "internalType": "uint256",
          "name": "amount",
          "type": "uint256"
        },
        {
          "indexed": false,
          "internalType": "uint256",
          "name": "sourceChainId",
          "type": "uint256"
        }
      ],
      "name": "Withdrawal",
      "type": "event"
    },
    {
      "inputs": [],
      "name": "MERKLE_TREE_LEVELS",
      "outputs": [
        {
          "internalType": "uint256",
          "name": "",
          "type": "uint256"
        }
      ],
      "stateMutability": "view",
      "type": "function"
    },
    {
      "inputs": [],
      "name": "ROOT_HISTORY_SIZE",
      "outputs": [
        {
          "internalType": "uint256",
          "name": "",
          "type": "uint256"
        }
      ],
      "stateMutability": "view",
      "type": "function"
    },
    {
      "inputs": [
        {
          "internalType": "bytes32",
          "name": "root",
          "type": "bytes32"
        },
        {
          "internalType": "uint256",
          "name": "sourceChainId",
          "type": "uint256"
        }
      ],
      "name": "addExternalRoot",
      "outputs": [],
      "stateMutability": "nonpayable",
      "type": "function"
    },
    {
      "inputs": [
        {
          "internalType": "uint256",
          "name": "amount",
          "type": "uint256"
        }
      ],
      "name": "addLiquidity",
      "outputs": [],
      "stateMutability": "nonpayable",
      "type": "function"
    },
    {
      "inputs": [],
      "name": "bridgeFeeBps",
      "outputs": [
        {
          "internalType": "uint256",
          "name": "",
          "type": "uint256"
        }
      ],
      "stateMutability": "view",
      "type": "function"
    },
    {
      "inputs": [
        {
          "internalType": "bytes32",
          "name": "",
          "type": "bytes32"
        }
      ],
      "name": "commitments",
      "outputs": [
        {
          "internalType": "bool",
          "name": "",
          "type": "bool"
        }
      ],
      "stateMutability": "view",
      "type": "function"
    },
    {
      "inputs": [
        {
          "internalType": "bytes32",
          "name": "commitment",
          "type": "bytes32"
        },
        {
          "internalType": "uint256",
          "name": "amount",
          "type": "uint256"
        }
      ],
      "name": "deposit",
      "outputs": [],
      "stateMutability": "nonpayable",
      "type": "function"
    },
    {
      "inputs": [],
      "name": "depositFeeBps",
      "outputs": [
        {
          "internalType": "uint256",
          "name": "",
          "type": "uint256"
        }
      ],
      "stateMutability": "view",
      "type": "function"
    },
    {
      "inputs": [
        {
          "internalType": "uint256",
          "name": "amount",
          "type": "uint256"
        }
      ],
      "name": "emergencyWithdraw",
      "outputs": [],
      "stateMutability": "nonpayable",
      "type": "function"
    },
    {
      "inputs": [
        {
          "internalType": "uint256",
          "name": "",
          "type": "uint256"
        }
      ],
      "name": "externalRootList",
      "outputs": [
        {
          "internalType": "bytes32",
          "name": "",
          "type": "bytes32"
        }
      ],
      "stateMutability": "view",
      "type": "function"
    },
    {
      "inputs": [
        {
          "internalType": "bytes32",
          "name": "",
          "type": "bytes32"
        }
      ],
      "name": "externalRoots",
      "outputs": [
        {
          "internalType": "bytes32",
          "name": "root",
          "type": "bytes32"
        },
        {
          "internalType": "uint256",
          "name": "sourceChainId",
          "type": "uint256"
        },
        {
          "internalType": "uint256",
          "name": "timestamp",
          "type": "uint256"
        },
        {
          "internalType": "bool",
          "name": "active",
          "type": "bool"
        }
      ],
      "stateMutability": "view",
      "type": "function"
    },
    {
      "inputs": [],
      "name": "feeRecipient",
      "outputs": [
        {
          "internalType": "address",
          "name": "",
          "type": "address"
        }
      ],
      "stateMutability": "view",
      "type": "function"
    },
    {
      "inputs": [
        {
          "internalType": "uint256",
          "name": "",
          "type": "uint256"
        }
      ],
      "name": "filledSubtrees",
      "outputs": [
        {
          "internalType": "bytes32",
          "name": "",
          "type": "bytes32"
        }
      ],
      "stateMutability": "view",
      "type": "function"
    },
    {
      "inputs": [],
      "name": "getExternalRootCount",
      "outputs": [
        {
          "internalType": "uint256",
          "name": "",
          "type": "uint256"
        }
      ],
      "stateMutability": "view",
      "type": "function"
    },
    {
      "inputs": [],
      "name": "getLastRoot",
      "outputs": [
        {
          "internalType": "bytes32",
          "name": "",
          "type": "bytes32"
        }
      ],
      "stateMutability": "view",
      "type": "function"
    },
    {
      "inputs": [],
      "name": "getLiquidity",
      "outputs": [
        {
          "internalType": "uint256",
          "name": "",
          "type": "uint256"
        }
      ],
      "stateMutability": "view",
      "type": "function"
    },
    {
      "inputs": [],
      "name": "getStats",
      "outputs": [
        {
          "internalType": "uint256",
          "name": "deposited",
          "type": "uint256"
        },
        {
          "internalType": "uint256",
          "name": "withdrawn",
          "type": "uint256"
        },
        {
          "internalType": "uint256",
          "name": "bridgedIn",
          "type": "uint256"
        },
        {
          "internalType": "uint256",
          "name": "commitmentCount",
          "type": "uint256"
        },
        {
          "internalType": "bytes32",
          "name": "currentRoot",
          "type": "bytes32"
        },
        {
          "internalType": "uint256",
          "name": "liquidity",
          "type": "uint256"
        }
      ],
      "stateMutability": "view",
      "type": "function"
    },
    {
      "inputs": [
        {
          "internalType": "bytes32",
          "name": "root",
          "type": "bytes32"
        }
      ],
      "name": "isValidRoot",
      "outputs": [
        {
          "internalType": "bool",
          "name": "isValid",
          "type": "bool"
        },
        {
          "internalType": "uint256",
          "name": "sourceChainId",
          "type": "uint256"
        }
      ],
      "stateMutability": "view",
      "type": "function"
    },
    {
      "inputs": [
        {
          "internalType": "bytes32",
          "name": "",
          "type": "bytes32"
        }
      ],
      "name": "localRootHistory",
      "outputs": [
        {
          "internalType": "bool",
          "name": "",
          "type": "bool"
        }
      ],
      "stateMutability": "view",
      "type": "function"
    },
    {
      "inputs": [],
      "name": "nextIndex",
      "outputs": [
        {
          "internalType": "uint256",
          "name": "",
          "type": "uint256"
        }
      ],
      "stateMutability": "view",
      "type": "function"
    },
    {
      "inputs": [
        {
          "internalType": "bytes32",
          "name": "",
          "type": "bytes32"
        }
      ],
      "name": "nullifiers",
      "outputs": [
        {
          "internalType": "bool",
          "name": "",
          "type": "bool"
        }
      ],
      "stateMutability": "view",
      "type": "function"
    },
    {
      "inputs": [],
      "name": "owner",
      "outputs": [
        {
          "internalType": "address",
          "name": "",
          "type": "address"
        }
      ],
      "stateMutability": "view",
      "type": "function"
    },
    {
      "inputs": [
        {
          "internalType": "address",
          "name": "",
          "type": "address"
        }
      ],
      "name": "relayers",
      "outputs": [
        {
          "internalType": "bool",
          "name": "",
          "type": "bool"
        }
      ],
      "stateMutability": "view",
      "type": "function"
    },
    {
      "inputs": [],
      "name": "renounceOwnership",
      "outputs": [],
      "stateMutability": "nonpayable",
      "type": "function"
    },
    {
      "inputs": [
        {
          "internalType": "bytes32",
          "name": "root",
          "type": "bytes32"
        }
      ],
      "name": "revokeExternalRoot",
      "outputs": [],
      "stateMutability": "nonpayable",
      "type": "function"
    },
    {
      "inputs": [
        {
          "internalType": "uint256",
          "name": "",
          "type": "uint256"
        }
      ],
      "name": "roots",
      "outputs": [
        {
          "internalType": "bytes32",
          "name": "",
          "type": "bytes32"
        }
      ],
      "stateMutability": "view",
      "type": "function"
    },
    {
      "inputs": [
        {
          "internalType": "address",
          "name": "_feeRecipient",
          "type": "address"
        }
      ],
      "name": "setFeeRecipient",
      "outputs": [],
      "stateMutability": "nonpayable",
      "type": "function"
    },
    {
      "inputs": [
        {
          "internalType": "uint256",
          "name": "_depositFeeBps",
          "type": "uint256"
        },
        {
          "internalType": "uint256",
          "name": "_withdrawFeeBps",
          "type": "uint256"
        },
        {
          "internalType": "uint256",
          "name": "_bridgeFeeBps",
          "type": "uint256"
        }
      ],
      "name": "setFees",
      "outputs": [],
      "stateMutability": "nonpayable",
      "type": "function"
    },
    {
      "inputs": [
        {
          "internalType": "address",
          "name": "relayer",
          "type": "address"
        },
        {
          "internalType": "bool",
          "name": "authorized",
          "type": "bool"
        }
      ],
      "name": "setRelayer",
      "outputs": [],
      "stateMutability": "nonpayable",
      "type": "function"
    },
    {
      "inputs": [
        {
          "internalType": "address",
          "name": "_verifier",
          "type": "address"
        }
      ],
      "name": "setVerifier",
      "outputs": [],
      "stateMutability": "nonpayable",
      "type": "function"
    },
    {
      "inputs": [],
      "name": "token",
      "outputs": [
        {
          "internalType": "contract IERC20",
          "name": "",
          "type": "address"
        }
      ],
      "stateMutability": "view",
      "type": "function"
    },
    {
      "inputs": [],
      "name": "totalBridgedIn",
      "outputs": [
        {
          "internalType": "uint256",
          "name": "",
          "type": "uint256"
        }
      ],
      "stateMutability": "view",
      "type": "function"
    },
    {
      "inputs": [],
      "name": "totalDeposited",
      "outputs": [
        {
          "internalType": "uint256",
          "name": "",
          "type": "uint256"
        }
      ],
      "stateMutability": "view",
      "type": "function"
    },
    {
      "inputs": [],
      "name": "totalWithdrawn",
      "outputs": [
        {
          "internalType": "uint256",
          "name": "",
          "type": "uint256"
        }
      ],
      "stateMutability": "view",
      "type": "function"
    },
    {
      "inputs": [
        {
          "internalType": "address",
          "name": "newOwner",
          "type": "address"
        }
      ],
      "name": "transferOwnership",
      "outputs": [],
      "stateMutability": "nonpayable",
      "type": "function"
    },
    {
      "inputs": [],
      "name": "verifier",
      "outputs": [
        {
          "internalType": "address",
          "name": "",
          "type": "address"
        }
      ],
      "stateMutability": "view",
      "type": "function"
    },
    {
      "inputs": [
        {
          "internalType": "bytes",
          "name": "proof",
          "type": "bytes"
        },
        {
          "internalType": "bytes32",
          "name": "root",
          "type": "bytes32"
        },
        {
          "internalType": "bytes32",
          "name": "nullifier",
          "type": "bytes32"
        },
        {
          "internalType": "address",
          "name": "recipient",
          "type": "address"
        },
        {
          "internalType": "uint256",
          "name": "amount",
          "type": "uint256"
        }
      ],
      "name": "withdraw",
      "outputs": [],
      "stateMutability": "nonpayable",
      "type": "function"
    },
    {
      "inputs": [],
      "name": "withdrawFeeBps",
      "outputs": [
        {
          "internalType": "uint256",
          "name": "",
          "type": "uint256"
        }
      ],
      "stateMutability": "view",
      "type": "function"
    },
    {
      "inputs": [
        {
          "internalType": "uint256",
          "name": "",
          "type": "uint256"
        }
      ],
      "name": "zeros",
      "outputs": [
        {
          "internalType": "bytes32",
          "name": "",
          "type": "bytes32"
        }
      ],
      "stateMutability": "view",
      "type": "function"
    }
  ],
  "bytecode": "0x60a0346200030f57601f62001cea38819003918201601f191683019291906001600160401b03841183851017620003145781606092849260409687528339810103126200030f5762000051816200032a565b60206200006d84620000658386016200032a565b94016200032a565b9060019260009284845562000082336200033f565b600a60108190556011908155601e601255916001600160a01b039081168015620002fe5790620000d692916080528060018060a01b031998168860025416176002558116809760135416176013556200033f565b8290600491825491680100000000000000009283811015620002eb57878101808655811015620002d85786908582528682200155600590815484811015620002c557888101808455811015620002b25782885286882001879055879291905b60148410620002115750506200014d91508062000388565b9160065491821015620001fe5785820180600655821015620001eb57509181600a92859460068a975283862001558352600781528383209560ff1996868882541617905583525220918254161790555161192c9081620003be82396080518181816102200152818161073c01528181610909015281816109c801528181610a4c01528181610e4801528181610ec80152818161104901526112e10152f35b634e487b7160e01b855260329052602484fd5b634e487b7160e01b855260419052602484fd5b9091806200021f9162000388565b92838654868110156200029f578a81018089558110156200028c578190888b52898b2001558354868110156200029f578a81018086558110156200028c57848a52888a20015560001981146200027a57880192919062000135565b634e487b7160e01b8852818652602488fd5b634e487b7160e01b8a526032885260248afd5b634e487b7160e01b8a526041885260248afd5b634e487b7160e01b885260328652602488fd5b634e487b7160e01b885260418652602488fd5b634e487b7160e01b875260328552602487fd5b634e487b7160e01b875260418552602487fd5b885163d92e233d60e01b8152600490fd5b600080fd5b634e487b7160e01b600052604160045260246000fd5b51906001600160a01b03821682036200030f57565b600180546001600160a01b039283166001600160a01b0319821681179092559091167f8be0079c531659141344cd1fd0a4f28419497f9722a3daafe3b4186f6b6457e0600080a3565b604080516020810192835280820193909352825290606081016001600160401b0381118282101762000314576040525190209056fe6080604052600436101561001257600080fd5b60003560e01c806306eb1d30146113565780630910a510146112b55780630ce611e6146112895780631de26e1614610ffa578063235b6f5014610fc95780632997e86b14610f985780632b7ac3f314610f6f5780632bb4218314610f515780634690484014610f285780634b31971314610f0a5780634f6aa42b14610eec57806351c6590a14610ead5780635300f84114610e6e5780635312ea8e14610e195780635437988d14610dd6578063715018a614610d7957806372515f7514610d285780637aca2b5914610d0a578063839df94514610cd95780638da5cb5b14610cb0578063a6a12ac414610c94578063aa93018e14610844578063ab87982714610826578063ba70f75714610803578063c2b40ae4146107da578063c59d4847146106f6578063c714c9a8146106a3578063cd87a3b414610687578063cec10c11146105fa578063cff3faba1461047d578063e74b981b1461041e578063e8295588146103f5578063ecd8dc3a1461036d578063ed48478d1461034f578063f178e47c14610318578063f2fde38b1461024f578063fc0c546a1461020a578063fc7e9c6f146101ec5763ff50abdc146101c957600080fd5b346101e75760003660031901126101e7576020600d54604051908152f35b600080fd5b346101e75760003660031901126101e7576020600354604051908152f35b346101e75760003660031901126101e7576040517f00000000000000000000000000000000000000000000000000000000000000006001600160a01b03168152602090f35b346101e75760203660031901126101e7576102686113c8565b610270611483565b6001600160a01b039081169081156102c457600154826bffffffffffffffffffffffff60a01b821617600155167f8be0079c531659141344cd1fd0a4f28419497f9722a3daafe3b4186f6b6457e0600080a3005b60405162461bcd60e51b815260206004820152602660248201527f4f776e61626c653a206e6577206f776e657220697320746865207a65726f206160448201526564647265737360d01b6064820152608490fd5b346101e75760203660031901126101e7576004356005548110156101e7576103416020916113de565b90546040519160031b1c8152f35b346101e75760003660031901126101e7576020600954604051908152f35b346101e75760403660031901126101e7576103866113c8565b60243590811515908183036101e7577f4b36b2e66f38ed349bec532105790177f1283bcbc094e6cd48565195d3033c43916103ec6020926103c5611483565b60018060a01b03169485600052600a845260406000209060ff801983541691151516179055565b604051908152a2005b346101e75760203660031901126101e7576004356004548110156101e757610341602091611415565b346101e75760203660031901126101e7576104376113c8565b61043f611483565b6001600160a01b0316801561046b576bffffffffffffffffffffffff60a01b6013541617601355600080f35b60405163d92e233d60e01b8152600490fd5b346101e75761048b366113b2565b9033600052600a60205260ff6040600020541615806105e5575b6105d35780600052600860205260ff600360406000200154166105c1576105216040516104d1816114db565b8281526003602082018581526040830142815260608401916001835286600052600860205260406000209451855551600185015551600284015551151591019060ff801983541691151516179055565b600954600160401b8110156105ab57600181018060095581101561059557819060096000527f6e1540171b6c0c960b71a7020d9f60077f6af931a8bbf590da0223dacf75c7af01557f3eda3c68461537d16bbebd874034b060d74ed32fe35c923d1d6a2a0ebf615e136020604051338152a3005b634e487b7160e01b600052603260045260246000fd5b634e487b7160e01b600052604160045260246000fd5b604051632746d63760e21b8152600490fd5b60405163c64891a560e01b8152600490fd5b506001546001600160a01b03163314156104a5565b346101e75760603660031901126101e75760443560243560043561061c611483565b60648111158061067c575b80610671575b1561063d57601055601155601255005b60405162461bcd60e51b815260206004820152600c60248201526b08ccaca40e8dede40d0d2ced60a31b6044820152606490fd5b50606483111561062d565b506064821115610627565b346101e75760003660031901126101e757602060405160648152f35b346101e75760203660031901126101e75760043560005260086020526080604060002080549060018101549060ff6003600283015492015416916040519384526020840152604083015215156060820152f35b346101e75760003660031901126101e757600d54600e5490600f549160035461071d6118d4565b6040516370a0823160e01b8152306004820152949091906020866024817f00000000000000000000000000000000000000000000000000000000000000006001600160a01b03165afa9384156107ce5760009461079a575b60c09650604051958652602086015260408501526060840152608083015260a0820152f35b93506020863d82116107c6575b816107b4602093836114f7565b810103126101e75760c0955193610775565b3d91506107a7565b6040513d6000823e3d90fd5b346101e75760203660031901126101e7576004356006548110156101e75761034160209161144c565b346101e75760003660031901126101e757602061081e6118d4565b604051908152f35b346101e75760003660031901126101e7576020601054604051908152f35b346101e75760a03660031901126101e75767ffffffffffffffff600435116101e7573660236004350112156101e7576004356004013567ffffffffffffffff81116101e75760043501602481013681116101e7576064356001600160a01b03811690036101e7576108b361158c565b604435600052600b60205260ff60406000205416610c82576064356001600160a01b03161561046b576108e7602435611519565b929015610c70576040516370a0823160e01b81523060048201526020816024817f00000000000000000000000000000000000000000000000000000000000000006001600160a01b03165afa9081156107ce57600091610c3e575b5060843511610c2c576002546001600160a01b03169182610a9a575b505050604435600052600b6020526040600020600160ff19825416179055468114159081600014610a8c5761271061099b6012545b60843561155f565b046109a881608435611572565b926109b7608435600e5461157f565b600e55610a76575b6109ec836064357f00000000000000000000000000000000000000000000000000000000000000006115e2565b80610a39575b50604051918252602082015260018060a01b0360643516907f2865d567636cfb8b64e349af19627e3ef92dc0c2cabfe3b1fd3e659425938e8f604060443592a36001600055005b601354610a7091906001600160a01b03167f00000000000000000000000000000000000000000000000000000000000000006115e2565b826109f2565b610a84608435600f5461157f565b600f556109bf565b61271061099b601154610993565b61010080926004359003126101e7578060436004350112156101e75760405191820182811067ffffffffffffffff8211176105ab57604052819061012460043501116101e757602460043501905b610124600435018210610c1c575050604051610b03816114db565b60243581526044356020820152608435604082015260018060a01b0360643516606082015260405191632357251160e01b6020840152602483016000905b60088210610c065750505061012482016000905b60048210610bf05750505061018481526101c081019080821067ffffffffffffffff8311176105ab576000928392604052602082519201905afa610b9761178b565b9015908115610bc0575b50610bae5781808061095e565b6040516309bde33960e01b8152600490fd5b8051801515925082610bd5575b505082610ba1565b610be8925060208091830101910161167b565b158280610bcd565b6020806001928551815201930191019091610b55565b6020806001928551815201930191019091610b41565b8135815260209182019101610ae8565b60405163bb55fd2760e01b8152600490fd5b90506020813d602011610c68575b81610c59602093836114f7565b810103126101e7575184610942565b3d9150610c4c565b60405163504570e360e01b8152600490fd5b604051636569570160e11b8152600490fd5b346101e75760003660031901126101e757602060405160148152f35b346101e75760003660031901126101e7576001546040516001600160a01b039091168152602090f35b346101e75760203660031901126101e757600435600052600c602052602060ff604060002054166040519015158152f35b346101e75760003660031901126101e7576020601154604051908152f35b346101e75760203660031901126101e7576004356009548110156101e75760209060096000527f6e1540171b6c0c960b71a7020d9f60077f6af931a8bbf590da0223dacf75c7af0154604051908152f35b346101e75760003660031901126101e757610d92611483565b600180546001600160a01b031981169091556000906001600160a01b03167f8be0079c531659141344cd1fd0a4f28419497f9722a3daafe3b4186f6b6457e08280a3005b346101e75760203660031901126101e757610def6113c8565b610df7611483565b600280546001600160a01b0319166001600160a01b0392909216919091179055005b346101e75760203660031901126101e757610e32611483565b600154610e6c90600435906001600160a01b03167f00000000000000000000000000000000000000000000000000000000000000006115e2565b005b346101e75760203660031901126101e7576001600160a01b03610e8f6113c8565b16600052600a602052602060ff604060002054166040519015158152f35b346101e75760203660031901126101e757610e6c60043530337f0000000000000000000000000000000000000000000000000000000000000000611622565b346101e75760003660031901126101e7576020601254604051908152f35b346101e75760003660031901126101e7576020600e54604051908152f35b346101e75760003660031901126101e7576013546040516001600160a01b039091168152602090f35b346101e75760003660031901126101e7576020600f54604051908152f35b346101e75760003660031901126101e7576002546040516001600160a01b039091168152602090f35b346101e75760203660031901126101e757600435600052600b602052602060ff604060002054166040519015158152f35b346101e75760203660031901126101e7576004356000526007602052602060ff604060002054166040519015158152f35b346101e757611008366113b2565b9061101161158c565b806000526020600c815260ff60406000205416611277576127106110376010548561155f565b04926110438482611572565b936110717f000000000000000000000000000000000000000000000000000000000000000092303385611622565b80611258575b50506003805493621000008510156112465783926000865b601482106111e2575050600654600160401b8110156105ab57846110bc8260016110d5940160065561144c565b90919082549060031b91821b91600019901b1916179055565b8360005260078152604060002060ff1990600182825416179055600654606481116111a3575b50600187019485881161118d577f03d8083da8e2218b3f5ebe30cdddd9f649eeb4f898a728c4b40c2735839ab11a83877faefea07450efad478ebe2bfc47102612d416637dc1b8e0555b6f7507df6c720c98604098558751908152a285600052600c82526001846000209182541617905561117882600d5461157f565b600d5582519182524290820152a36001600055005b634e487b7160e01b600052601160045260246000fd5b60631981019080821161118d576064190190811161118d576111c49061144c565b905490851b1c600052600782526040600020818154169055876110fb565b60019581871661122857806111fd611212926110bc866113de565b61120684611415565b905490881b1c9061189f565b955b1c90600019811461118d576001019061108f565b61124090611235846113de565b905490881b1c61189f565b95611214565b604051631691e59f60e31b8152600490fd5b601354611270926001600160a01b03909116906115e2565b8380611077565b60405163145718a760e01b8152600490fd5b346101e75760203660031901126101e75760406112a7600435611519565b825191151582526020820152f35b346101e75760003660031901126101e7576040516370a0823160e01b81523060048201526020816024817f00000000000000000000000000000000000000000000000000000000000000006001600160a01b03165afa80156107ce57600090611324575b602090604051908152f35b506020813d821161134e575b8161133d602093836114f7565b810103126101e75760209051611319565b3d9150611330565b346101e75760203660031901126101e757600435611372611483565b806000526008602052600360406000200160ff1981541690557fbd075808507375b5ef0cf026e93ba5f11ca4f50156f13b62f4ff5afa2a1b5272600080a2005b60409060031901126101e7576004359060243590565b600435906001600160a01b03821682036101e757565b6005548110156105955760056000527f036b6384b5eca791c62761152d0c79bb0604c104a5fb6f4eb0703f3154bb3db00190600090565b6004548110156105955760046000527f8a35acfbc15ff81a39ae7d344fd709f28e8600b4aa8c65c6b64bfe7fe36bd19b0190600090565b6006548110156105955760066000527ff652222313e28459528d920b65115c16c04f3efc82aaedc97be59f3f377c0d3f0190600090565b6001546001600160a01b0316330361149757565b606460405162461bcd60e51b815260206004820152602060248201527f4f776e61626c653a2063616c6c6572206973206e6f7420746865206f776e65726044820152fd5b6080810190811067ffffffffffffffff8211176105ab57604052565b90601f8019910116810190811067ffffffffffffffff8211176105ab57604052565b600052600760205260ff60406000205416611558576008602052604060002060ff60038201541661154d5750600090600090565b600101549060019190565b6001904690565b8181029291811591840414171561118d57565b9190820391821161118d57565b9190820180921161118d57565b60026000541461159d576002600055565b60405162461bcd60e51b815260206004820152601f60248201527f5265656e7472616e637947756172643a207265656e7472616e742063616c6c006044820152606490fd5b60405163a9059cbb60e01b60208201526001600160a01b0390921660248301526044808301939093529181526116209161161b826114db565b611693565b565b6040516323b872dd60e01b60208201526001600160a01b03928316602482015292909116604483015260648083019390935291815260a081019181831067ffffffffffffffff8411176105ab5761162092604052611693565b908160209103126101e7575180151581036101e75790565b60408051908101916001600160a01b031667ffffffffffffffff8311828410176105ab57611703926040526000806020958685527f5361666545524332303a206c6f772d6c6576656c2063616c6c206661696c656487860152868151910182855af16116fd61178b565b916117cb565b805190828215928315611773575b5050501561171c5750565b6084906040519062461bcd60e51b82526004820152602a60248201527f5361666545524332303a204552433230206f7065726174696f6e20646964206e6044820152691bdd081cdd58d8d9595960b21b6064820152fd5b611783935082018101910161167b565b388281611711565b3d156117c6573d9067ffffffffffffffff82116105ab57604051916117ba601f8201601f1916602001846114f7565b82523d6000602084013e565b606090565b9192901561182d57508151156117df575090565b3b156117e85790565b60405162461bcd60e51b815260206004820152601d60248201527f416464726573733a2063616c6c20746f206e6f6e2d636f6e74726163740000006044820152606490fd5b8251909150156118405750805190602001fd5b6040519062461bcd60e51b82528160208060048301528251908160248401526000935b828510611886575050604492506000838284010152601f80199101168101030190fd5b8481018201518686016044015293810193859350611863565b9060405190602082019283526040820152604081526060810181811067ffffffffffffffff8211176105ab5760405251902090565b600654600019810190811161118d576118ec9061144c565b90549060031b1c9056fea2646970667358221220b326f61412dc1a1400ed9bf9d8a9a80718e055d9d1bd1f4e11d27c2c09f6601964736f6c63430008140033",
  "linkReferences": {},
  "deployedLinkReferences": {}
}