{
  "_format": "hh-sol-artifact-1",
  "contractName": "PrivacyPoolStandalone",
  "sourceName": "contracts/PrivacyPoolStandalone.sol",
  "abi": [
    {
      "inputs": [
        {
          "internalType": "address",
          "name": "_token",
          "type": "address"
        },
        {
          "internalType": "address",
          "name": "_verifier",
          "type": "address"
        },
        {
          "internalType": "address",
          "name": "_owner",
          "type": "address"
        }
      ],
      "stateMutability": "nonpayable",
      "type": "constructor"
    },
    {
      "inputs": [],
      "name": "CommitmentAlreadyExists",
      "type": "error"
    },
    {
      "inputs": [],
      "name": "InvalidDenomination",
      "type": "error"
    },
    {
      "inputs": [],
      "name": "InvalidProof",
      "type": "error"
    },
    {
      "inputs": [],
      "name": "InvalidRoot",
      "type": "error"
    },
    {
      "inputs": [],
      "name": "NullifierAlreadyUsed",
      "type": "error"
    },
    {
      "inputs": [],
      "name": "TreeFull",
      "type": "error"
    },
    {
      "inputs": [],
      "name": "ZeroAddress",
      "type": "error"
    },
    {
      "anonymous": false,
      "inputs": [
        {
          "indexed": true,
          "internalType": "bytes32",
          "name": "commitment",
          "type": "bytes32"
        },
        {
          "indexed": true,
          "internalType": "uint256",
          "name": "leafIndex",
          "type": "uint256"
        },
        {
          "indexed": false,
          "internalType": "uint256",
          "name": "amount",
          "type": "uint256"
        },
        {
          "indexed": false,
          "internalType": "uint256",
          "name": "timestamp",
          "type": "uint256"
        }
      ],
      "name": "Deposit",
      "type": "event"
    },
    {
      "anonymous": false,
      "inputs": [
        {
          "indexed": true,
          "internalType": "bytes32",
          "name": "root",
          "type": "bytes32"
        },
        {
          "indexed": false,
          "internalType": "uint256",
          "name": "leafCount",
          "type": "uint256"
        }
      ],
      "name": "MerkleRoot",
      "type": "event"
    },
    {
      "anonymous": false,
      "inputs": [
        {
          "indexed": true,
          "internalType": "address",
          "name": "previousOwner",
          "type": "address"
        },
        {
          "indexed": true,
          "internalType": "address",
          "name": "newOwner",
          "type": "address"
        }
      ],
      "name": "OwnershipTransferred",
      "type": "event"
    },
    {
      "anonymous": false,
      "inputs": [
        {
          "indexed": true,
          "internalType": "bytes32",
          "name": "nullifier",
          "type": "bytes32"
        },
        {
          "indexed": true,
          "internalType": "address",
          "name": "recipient",
          "type": "address"
        },
        {
          "indexed": false,
          "internalType": "uint256",
          "name": "amount",
          "type": "uint256"
        },
        {
          "indexed": false,
          "internalType": "uint256",
          "name": "timestamp",
          "type": "uint256"
        }
      ],
      "name": "Withdrawal",
      "type": "event"
    },
    {
      "inputs": [],
      "name": "DENOM_100",
      "outputs": [
        {
          "internalType": "uint256",
          "name": "",
          "type": "uint256"
        }
      ],
      "stateMutability": "view",
      "type": "function"
    },
    {
      "inputs": [],
      "name": "DENOM_1000",
      "outputs": [
        {
          "internalType": "uint256",
          "name": "",
          "type": "uint256"
        }
      ],
      "stateMutability": "view",
      "type": "function"
    },
    {
      "inputs": [],
      "name": "DENOM_10000",
      "outputs": [
        {
          "internalType": "uint256",
          "name": "",
          "type": "uint256"
        }
      ],
      "stateMutability": "view",
      "type": "function"
    },
    {
      "inputs": [],
      "name": "DENOM_100000",
      "outputs": [
        {
          "internalType": "uint256",
          "name": "",
          "type": "uint256"
        }
      ],
      "stateMutability": "view",
      "type": "function"
    },
    {
      "inputs": [],
      "name": "MERKLE_TREE_LEVELS",
      "outputs": [
        {
          "internalType": "uint256",
          "name": "",
          "type": "uint256"
        }
      ],
      "stateMutability": "view",
      "type": "function"
    },
    {
      "inputs": [],
      "name": "ROOT_HISTORY_SIZE",
      "outputs": [
        {
          "internalType": "uint256",
          "name": "",
          "type": "uint256"
        }
      ],
      "stateMutability": "view",
      "type": "function"
    },
    {
      "inputs": [
        {
          "internalType": "bytes32",
          "name": "",
          "type": "bytes32"
        }
      ],
      "name": "commitments",
      "outputs": [
        {
          "internalType": "bool",
          "name": "",
          "type": "bool"
        }
      ],
      "stateMutability": "view",
      "type": "function"
    },
    {
      "inputs": [
        {
          "internalType": "bytes32",
          "name": "commitment",
          "type": "bytes32"
        },
        {
          "internalType": "uint256",
          "name": "amount",
          "type": "uint256"
        }
      ],
      "name": "deposit",
      "outputs": [],
      "stateMutability": "nonpayable",
      "type": "function"
    },
    {
      "inputs": [],
      "name": "depositFeeBps",
      "outputs": [
        {
          "internalType": "uint256",
          "name": "",
          "type": "uint256"
        }
      ],
      "stateMutability": "view",
      "type": "function"
    },
    {
      "inputs": [],
      "name": "feeRecipient",
      "outputs": [
        {
          "internalType": "address",
          "name": "",
          "type": "address"
        }
      ],
      "stateMutability": "view",
      "type": "function"
    },
    {
      "inputs": [
        {
          "internalType": "uint256",
          "name": "",
          "type": "uint256"
        }
      ],
      "name": "filledSubtrees",
      "outputs": [
        {
          "internalType": "bytes32",
          "name": "",
          "type": "bytes32"
        }
      ],
      "stateMutability": "view",
      "type": "function"
    },
    {
      "inputs": [],
      "name": "getRoot",
      "outputs": [
        {
          "internalType": "bytes32",
          "name": "",
          "type": "bytes32"
        }
      ],
      "stateMutability": "view",
      "type": "function"
    },
    {
      "inputs": [],
      "name": "getStats",
      "outputs": [
        {
          "internalType": "uint256",
          "name": "deposited",
          "type": "uint256"
        },
        {
          "internalType": "uint256",
          "name": "withdrawn",
          "type": "uint256"
        },
        {
          "internalType": "uint256",
          "name": "commitmentCount",
          "type": "uint256"
        },
        {
          "internalType": "bytes32",
          "name": "currentRoot",
          "type": "bytes32"
        }
      ],
      "stateMutability": "view",
      "type": "function"
    },
    {
      "inputs": [
        {
          "internalType": "bytes32",
          "name": "root",
          "type": "bytes32"
        }
      ],
      "name": "isKnownRoot",
      "outputs": [
        {
          "internalType": "bool",
          "name": "",
          "type": "bool"
        }
      ],
      "stateMutability": "view",
      "type": "function"
    },
    {
      "inputs": [
        {
          "internalType": "uint256",
          "name": "amount",
          "type": "uint256"
        }
      ],
      "name": "isValidDenomination",
      "outputs": [
        {
          "internalType": "bool",
          "name": "",
          "type": "bool"
        }
      ],
      "stateMutability": "pure",
      "type": "function"
    },
    {
      "inputs": [],
      "name": "nextIndex",
      "outputs": [
        {
          "internalType": "uint256",
          "name": "",
          "type": "uint256"
        }
      ],
      "stateMutability": "view",
      "type": "function"
    },
    {
      "inputs": [
        {
          "internalType": "bytes32",
          "name": "",
          "type": "bytes32"
        }
      ],
      "name": "nullifiers",
      "outputs": [
        {
          "internalType": "bool",
          "name": "",
          "type": "bool"
        }
      ],
      "stateMutability": "view",
      "type": "function"
    },
    {
      "inputs": [],
      "name": "owner",
      "outputs": [
        {
          "internalType": "address",
          "name": "",
          "type": "address"
        }
      ],
      "stateMutability": "view",
      "type": "function"
    },
    {
      "inputs": [],
      "name": "renounceOwnership",
      "outputs": [],
      "stateMutability": "nonpayable",
      "type": "function"
    },
    {
      "inputs": [
        {
          "internalType": "bytes32",
          "name": "",
          "type": "bytes32"
        }
      ],
      "name": "rootHistory",
      "outputs": [
        {
          "internalType": "bool",
          "name": "",
          "type": "bool"
        }
      ],
      "stateMutability": "view",
      "type": "function"
    },
    {
      "inputs": [
        {
          "internalType": "uint256",
          "name": "",
          "type": "uint256"
        }
      ],
      "name": "roots",
      "outputs": [
        {
          "internalType": "bytes32",
          "name": "",
          "type": "bytes32"
        }
      ],
      "stateMutability": "view",
      "type": "function"
    },
    {
      "inputs": [
        {
          "internalType": "address",
          "name": "_feeRecipient",
          "type": "address"
        }
      ],
      "name": "setFeeRecipient",
      "outputs": [],
      "stateMutability": "nonpayable",
      "type": "function"
    },
    {
      "inputs": [
        {
          "internalType": "uint256",
          "name": "_depositFeeBps",
          "type": "uint256"
        },
        {
          "internalType": "uint256",
          "name": "_withdrawFeeBps",
          "type": "uint256"
        }
      ],
      "name": "setFees",
      "outputs": [],
      "stateMutability": "nonpayable",
      "type": "function"
    },
    {
      "inputs": [
        {
          "internalType": "address",
          "name": "_verifier",
          "type": "address"
        }
      ],
      "name": "setVerifier",
      "outputs": [],
      "stateMutability": "nonpayable",
      "type": "function"
    },
    {
      "inputs": [],
      "name": "token",
      "outputs": [
        {
          "internalType": "contract IERC20",
          "name": "",
          "type": "address"
        }
      ],
      "stateMutability": "view",
      "type": "function"
    },
    {
      "inputs": [],
      "name": "totalDeposited",
      "outputs": [
        {
          "internalType": "uint256",
          "name": "",
          "type": "uint256"
        }
      ],
      "stateMutability": "view",
      "type": "function"
    },
    {
      "inputs": [],
      "name": "totalWithdrawn",
      "outputs": [
        {
          "internalType": "uint256",
          "name": "",
          "type": "uint256"
        }
      ],
      "stateMutability": "view",
      "type": "function"
    },
    {
      "inputs": [
        {
          "internalType": "address",
          "name": "newOwner",
          "type": "address"
        }
      ],
      "name": "transferOwnership",
      "outputs": [],
      "stateMutability": "nonpayable",
      "type": "function"
    },
    {
      "inputs": [],
      "name": "verifier",
      "outputs": [
        {
          "internalType": "address",
          "name": "",
          "type": "address"
        }
      ],
      "stateMutability": "view",
      "type": "function"
    },
    {
      "inputs": [
        {
          "internalType": "bytes",
          "name": "proof",
          "type": "bytes"
        },
        {
          "internalType": "bytes32",
          "name": "root",
          "type": "bytes32"
        },
        {
          "internalType": "bytes32",
          "name": "nullifier",
          "type": "bytes32"
        },
        {
          "internalType": "address",
          "name": "recipient",
          "type": "address"
        },
        {
          "internalType": "uint256",
          "name": "amount",
          "type": "uint256"
        }
      ],
      "name": "withdraw",
      "outputs": [],
      "stateMutability": "nonpayable",
      "type": "function"
    },
    {
      "inputs": [],
      "name": "withdrawFeeBps",
      "outputs": [
        {
          "internalType": "uint256",
          "name": "",
          "type": "uint256"
        }
      ],
      "stateMutability": "view",
      "type": "function"
    },
    {
      "inputs": [
        {
          "internalType": "uint256",
          "name": "",
          "type": "uint256"
        }
      ],
      "name": "zeros",
      "outputs": [
        {
          "internalType": "bytes32",
          "name": "",
          "type": "bytes32"
        }
      ],
      "stateMutability": "view",
      "type": "function"
    }
  ],
  "bytecode": "0x60a034620002c457601f620016c938819003918201601f19168301916001600160401b03831184841017620002c957808492606094604052833981010312620002c4576200004d81620002df565b9060206200006b604062000063838501620002df565b9301620002df565b926001936000938585556200008033620002f4565b600a600c819055600d556001600160a01b03928316928315620002b257620000ca936080528060018060a01b03199216826002541617600255821690600e541617600e55620002f4565b6004805468010000000000000000908490828110156200029f578681018085558110156200028c5785908482528582200155600580548381101562000279578781018083558110156200026657818752858720018690558691905b60148310620001c657506200013c9150806200033d565b9160065491821015620001b35785820180600655821015620001a05750918160079285946006604097528386200155835252209060ff1982541617905560405161135690816200037382396080518181816101d50152818161053d0152610a920152f35b634e487b7160e01b855260329052602484fd5b634e487b7160e01b855260419052602484fd5b9080620001d3916200033d565b9182855485811015620002535789810180885581101562000240578190878a52888a20015582548581101562000253578981018085558110156200024057838952878920015560001981146200022d578701919062000125565b634e487b7160e01b875260118552602487fd5b634e487b7160e01b895260328752602489fd5b634e487b7160e01b895260418752602489fd5b634e487b7160e01b875260328552602487fd5b634e487b7160e01b875260418552602487fd5b634e487b7160e01b865260328452602486fd5b634e487b7160e01b865260418452602486fd5b60405163d92e233d60e01b8152600490fd5b600080fd5b634e487b7160e01b600052604160045260246000fd5b51906001600160a01b0382168203620002c457565b600180546001600160a01b039283166001600160a01b0319821681179092559091167f8be0079c531659141344cd1fd0a4f28419497f9722a3daafe3b4186f6b6457e0600080a3565b604080516020810192835280820193909352825290606081016001600160401b03811182821017620002c9576040525190209056fe608080604052600436101561001357600080fd5b60003560e01c908162bb56c514610e20575080630b78f9c014610daa5780631b4c52c914610d825780631de26e1614610a2f5780632997e86b146109fe5780632b7ac3f3146109d557806346904840146109ac5780634b3197131461098e5780635437988d1461094b5780635ca1e1651461092857806366dd97ab146108d757806367126b43146109085780636d9833e3146108d7578063715018a61461087a5780637aca2b591461085c578063839df9451461082b5780638cff8f3d1461080c5780638da5cb5b146107e35780638dc3395a146107c3578063a6a12ac4146107a7578063aa93018e1461042b578063ab8798271461040d578063c2b40ae4146103e4578063c59d4847146103a8578063cd87a3b41461038c578063e74b981b1461032d578063e829558814610304578063f178e47c146102cd578063f2fde38b14610204578063fc0c546a146101bf578063fc7e9c6f146101a15763ff50abdc1461017e57600080fd5b3461019c57600036600319011261019c576020600a54604051908152f35b600080fd5b3461019c57600036600319011261019c576020600354604051908152f35b3461019c57600036600319011261019c576040517f00000000000000000000000000000000000000000000000000000000000000006001600160a01b03168152602090f35b3461019c57602036600319011261019c5761021d610e3d565b610225610f0e565b6001600160a01b0390811690811561027957600154826bffffffffffffffffffffffff60a01b821617600155167f8be0079c531659141344cd1fd0a4f28419497f9722a3daafe3b4186f6b6457e0600080a3005b60405162461bcd60e51b815260206004820152602660248201527f4f776e61626c653a206e6577206f776e657220697320746865207a65726f206160448201526564647265737360d01b6064820152608490fd5b3461019c57602036600319011261019c5760043560055481101561019c576102f6602091610e53565b90546040519160031b1c8152f35b3461019c57602036600319011261019c5760043560045481101561019c576102f6602091610ea0565b3461019c57602036600319011261019c57610346610e3d565b61034e610f0e565b6001600160a01b0316801561037a576bffffffffffffffffffffffff60a01b600e541617600e55600080f35b60405163d92e233d60e01b8152600490fd5b3461019c57600036600319011261019c57602060405160648152f35b3461019c57600036600319011261019c576080600a54600b546003546103cc6112b5565b91604051938452602084015260408301526060820152f35b3461019c57602036600319011261019c5760043560065481101561019c576102f6602091610ed7565b3461019c57600036600319011261019c576020600c54604051908152f35b3461019c5760a036600319011261019c5760043567ffffffffffffffff811161019c573660238201121561019c57806004013567ffffffffffffffff811161019c57810190602482019136831161019c576064356001600160a01b038116900361019c57610497610fa9565b604435600052600960205260ff60406000205416610795576024359283600052600760205260ff6040600020541615610783576064356001600160a01b03161561037a576002546001600160a01b031691826105d8575b505050505060443560005260096020526040600020600160ff19825416179055600d546127106105216084359283610f66565b0461053861052f8284610f8f565b92600b54610f9c565b600b557f00000000000000000000000000000000000000000000000000000000000000009061056a8360643584610fff565b806105b9575b604080518481524260208201526064356001600160a01b031691604435917f2865d567636cfb8b64e349af19627e3ef92dc0c2cabfe3b1fd3e659425938e8f9190a36001600055005b600e546105d1926001600160a01b0390911690610fff565b8180610570565b8390610100948591031261019c578160438201121561019c5760405193840184811067ffffffffffffffff821117610731576040528390610124810192831161019c57602401905b82821061077357505050604051926080840184811067ffffffffffffffff8211176107315760405283526044356020840152608435604084015260018060a01b03606435166060840152604051926020840192632357251160e01b8452602485016000905b6008821061075d5750505061012484016000905b600482106107475750505061018483526101c083019183831067ffffffffffffffff84111761073157600093849360405251915afa6106d6611161565b9015908115610701575b506106ef5780808080806104ee565b6040516309bde33960e01b8152600490fd5b8051801515925082610716575b5050816106e0565b6107299250602080918301019101611051565b15818061070e565b634e487b7160e01b600052604160045260246000fd5b6020806001928551815201930191019091610699565b6020806001928551815201930191019091610685565b8135815260209182019101610620565b60405163504570e360e01b8152600490fd5b604051636569570160e11b8152600490fd5b3461019c57600036600319011261019c57602060405160148152f35b3461019c57600036600319011261019c5760206040516402540be4008152f35b3461019c57600036600319011261019c576001546040516001600160a01b039091168152602090f35b3461019c57600036600319011261019c5760206040516305f5e1008152f35b3461019c57602036600319011261019c576004356000526008602052602060ff604060002054166040519015158152f35b3461019c57600036600319011261019c576020600d54604051908152f35b3461019c57600036600319011261019c57610893610f0e565b600180546001600160a01b031981169091556000906001600160a01b03167f8be0079c531659141344cd1fd0a4f28419497f9722a3daafe3b4186f6b6457e08280a3005b3461019c57602036600319011261019c576004356000526007602052602060ff604060002054166040519015158152f35b3461019c57600036600319011261019c57602060405164174876e8008152f35b3461019c57600036600319011261019c5760206109436112b5565b604051908152f35b3461019c57602036600319011261019c57610964610e3d565b61096c610f0e565b600280546001600160a01b0319166001600160a01b0392909216919091179055005b3461019c57600036600319011261019c576020600b54604051908152f35b3461019c57600036600319011261019c57600e546040516001600160a01b039091168152602090f35b3461019c57600036600319011261019c576002546040516001600160a01b039091168152602090f35b3461019c57602036600319011261019c576004356000526009602052602060ff604060002054166040519015158152f35b3461019c57604036600319011261019c5760246004358135610a4f610fa9565b610a58816112d7565b15610d70578160005260206008815260ff60406000205416610d5e57612710610a83600c5484610f66565b0491610a8f8382610f8f565b927f000000000000000000000000000000000000000000000000000000000000000091604051906323b872dd60e01b85830152338883015230604483015260648201526064815260a081019080821067ffffffffffffffff831117610d4957610afb9160405283611069565b80610d2a575b5050600380549462100000861015610d185784906000875b60148210610cb457505060065468010000000000000000811015610c9f5782610b4b826001610b649401600655610ed7565b90919082549060031b91821b91600019901b1916179055565b816000526007845260406000209260ff199360018582541617905560065460648111610c36575b506001880191828911610c225750917f03d8083da8e2218b3f5ebe30cdddd9f649eeb4f898a728c4b40c2735839ab11a85837faefea07450efad478ebe2bfc47102612d416637dc1b8e0555b6f7507df6c720c98969460409896558751908152a2856000526008825260018460002091825416179055610c0d82600a54610f9c565b600a5582519182524290820152a36001600055005b634e487b7160e01b60009081526011600452fd5b606319810190808211610c8a5760641901908111610c7557610c5790610ed7565b905490821b1c60005260078552604060002084815416905588610b8b565b82634e487b7160e01b60005260116004526000fd5b83634e487b7160e01b60005260116004526000fd5b50634e487b7160e01b60009081526041600452fd5b600193818516610cfa5780610ccf610ce492610b4b86610e53565b610cd884610ea0565b905490881b1c90611280565b935b1c906000198114610c755760010190610b19565b610d1290610d0784610e53565b905490881b1c611280565b93610ce6565b604051631691e59f60e31b8152600490fd5b600e54610d42926001600160a01b0390911690610fff565b8480610b01565b87634e487b7160e01b60005260416004526000fd5b60405163145718a760e01b8152600490fd5b604051637833d9e360e11b8152600490fd5b3461019c57602036600319011261019c576020610da06004356112d7565b6040519015158152f35b3461019c57604036600319011261019c57602435600435610dc9610f0e565b606481111580610e15575b15610de157600c55600d55005b60405162461bcd60e51b815260206004820152600c60248201526b08ccaca40e8dede40d0d2ced60a31b6044820152606490fd5b506064821115610dd4565b3461019c57600036600319011261019c5780633b9aca0060209252f35b600435906001600160a01b038216820361019c57565b600554811015610e8a5760056000527f036b6384b5eca791c62761152d0c79bb0604c104a5fb6f4eb0703f3154bb3db00190600090565b634e487b7160e01b600052603260045260246000fd5b600454811015610e8a5760046000527f8a35acfbc15ff81a39ae7d344fd709f28e8600b4aa8c65c6b64bfe7fe36bd19b0190600090565b600654811015610e8a5760066000527ff652222313e28459528d920b65115c16c04f3efc82aaedc97be59f3f377c0d3f0190600090565b6001546001600160a01b03163303610f2257565b606460405162461bcd60e51b815260206004820152602060248201527f4f776e61626c653a2063616c6c6572206973206e6f7420746865206f776e65726044820152fd5b81810292918115918404141715610f7957565b634e487b7160e01b600052601160045260246000fd5b91908203918211610f7957565b91908201809211610f7957565b600260005414610fba576002600055565b60405162461bcd60e51b815260206004820152601f60248201527f5265656e7472616e637947756172643a207265656e7472616e742063616c6c006044820152606490fd5b60405163a9059cbb60e01b60208201526001600160a01b039092166024830152604480830193909352918152608081019167ffffffffffffffff8311828410176107315761104f92604052611069565b565b9081602091031261019c5751801515810361019c5790565b60408051908101916001600160a01b031667ffffffffffffffff831182841017610731576110d9926040526000806020958685527f5361666545524332303a206c6f772d6c6576656c2063616c6c206661696c656487860152868151910182855af16110d3611161565b916111ac565b805190828215928315611149575b505050156110f25750565b6084906040519062461bcd60e51b82526004820152602a60248201527f5361666545524332303a204552433230206f7065726174696f6e20646964206e6044820152691bdd081cdd58d8d9595960b21b6064820152fd5b6111599350820181019101611051565b3882816110e7565b3d156111a75767ffffffffffffffff903d8281116107315760405192601f8201601f19908116603f01168401908111848210176107315760405282523d6000602084013e565b606090565b9192901561120e57508151156111c0575090565b3b156111c95790565b60405162461bcd60e51b815260206004820152601d60248201527f416464726573733a2063616c6c20746f206e6f6e2d636f6e74726163740000006044820152606490fd5b8251909150156112215750805190602001fd5b6040519062461bcd60e51b82528160208060048301528251908160248401526000935b828510611267575050604492506000838284010152601f80199101168101030190fd5b8481018201518686016044015293810193859350611244565b9060405190602082019283526040820152604081526060810181811067ffffffffffffffff8211176107315760405251902090565b6006546000198101908111610f79576112cd90610ed7565b90549060031b1c90565b6305f5e1008114908115611312575b8115611303575b81156112f7575090565b64174876e80091501490565b6402540be400811491506112ed565b633b9aca00811491506112e656fea2646970667358221220b0c84ba9c2d2620cb3bea29bc002f90e33faf13d81f6f5b6a3763f652aea438e64736f6c63430008140033",
  "linkReferences": {},
  "deployedLinkReferences": {}
}