{
  "_format": "hh-sol-artifact-1",
  "contractName": "MiningGameTest",
  "sourceName": "contracts/testing/MiningGameTest.sol",
  "abi": [
    {
      "inputs": [
        {
          "internalType": "address",
          "name": "_rigNFT",
          "type": "address"
        },
        {
          "internalType": "address",
          "name": "_gamePool",
          "type": "address"
        },
        {
          "internalType": "address",
          "name": "_miningEngine",
          "type": "address"
        },
        {
          "internalType": "address",
          "name": "_stakingPool",
          "type": "address"
        },
        {
          "internalType": "address",
          "name": "_wattToken",
          "type": "address"
        }
      ],
      "stateMutability": "nonpayable",
      "type": "constructor"
    },
    {
      "anonymous": false,
      "inputs": [
        {
          "indexed": false,
          "internalType": "string",
          "name": "testName",
          "type": "string"
        },
        {
          "indexed": false,
          "internalType": "bool",
          "name": "passed",
          "type": "bool"
        },
        {
          "indexed": false,
          "internalType": "string",
          "name": "message",
          "type": "string"
        }
      ],
      "name": "TestResult",
      "type": "event"
    },
    {
      "inputs": [],
      "name": "gamePool",
      "outputs": [
        {
          "internalType": "contract GamePool",
          "name": "",
          "type": "address"
        }
      ],
      "stateMutability": "view",
      "type": "function"
    },
    {
      "inputs": [
        {
          "internalType": "uint256",
          "name": "tokenId",
          "type": "uint256"
        }
      ],
      "name": "getRigInfo",
      "outputs": [
        {
          "internalType": "uint16",
          "name": "hashRate",
          "type": "uint16"
        },
        {
          "internalType": "uint8",
          "name": "algorithm",
          "type": "uint8"
        },
        {
          "internalType": "string",
          "name": "algorithmName",
          "type": "string"
        },
        {
          "internalType": "uint8",
          "name": "efficiency",
          "type": "uint8"
        },
        {
          "internalType": "uint16",
          "name": "wattConsumption",
          "type": "uint16"
        },
        {
          "internalType": "uint8",
          "name": "rarity",
          "type": "uint8"
        },
        {
          "internalType": "string",
          "name": "rarityName",
          "type": "string"
        },
        {
          "internalType": "uint8",
          "name": "cooling",
          "type": "uint8"
        },
        {
          "internalType": "uint8",
          "name": "durability",
          "type": "uint8"
        },
        {
          "internalType": "uint256",
          "name": "effectivePower",
          "type": "uint256"
        },
        {
          "internalType": "uint256",
          "name": "stakeWeight",
          "type": "uint256"
        },
        {
          "internalType": "bool",
          "name": "isStaked",
          "type": "bool"
        },
        {
          "internalType": "bool",
          "name": "isMining",
          "type": "bool"
        }
      ],
      "stateMutability": "view",
      "type": "function"
    },
    {
      "inputs": [],
      "name": "miningEngine",
      "outputs": [
        {
          "internalType": "contract MiningEngine",
          "name": "",
          "type": "address"
        }
      ],
      "stateMutability": "view",
      "type": "function"
    },
    {
      "inputs": [],
      "name": "rigNFT",
      "outputs": [
        {
          "internalType": "contract MiningRigNFT",
          "name": "",
          "type": "address"
        }
      ],
      "stateMutability": "view",
      "type": "function"
    },
    {
      "inputs": [],
      "name": "stakingPool",
      "outputs": [
        {
          "internalType": "contract StakingPool",
          "name": "",
          "type": "address"
        }
      ],
      "stateMutability": "view",
      "type": "function"
    },
    {
      "inputs": [],
      "name": "testAlgorithmMapping",
      "outputs": [
        {
          "internalType": "bool",
          "name": "",
          "type": "bool"
        }
      ],
      "stateMutability": "view",
      "type": "function"
    },
    {
      "inputs": [
        {
          "internalType": "uint256",
          "name": "tokenId",
          "type": "uint256"
        }
      ],
      "name": "testEffectivePower",
      "outputs": [
        {
          "internalType": "uint256",
          "name": "",
          "type": "uint256"
        }
      ],
      "stateMutability": "view",
      "type": "function"
    },
    {
      "inputs": [],
      "name": "testMintRig",
      "outputs": [
        {
          "internalType": "uint256",
          "name": "",
          "type": "uint256"
        }
      ],
      "stateMutability": "payable",
      "type": "function"
    },
    {
      "inputs": [
        {
          "internalType": "uint256",
          "name": "tokenId",
          "type": "uint256"
        }
      ],
      "name": "testWattPerHour",
      "outputs": [
        {
          "internalType": "uint256",
          "name": "",
          "type": "uint256"
        }
      ],
      "stateMutability": "view",
      "type": "function"
    },
    {
      "inputs": [],
      "name": "wattToken",
      "outputs": [
        {
          "internalType": "address",
          "name": "",
          "type": "address"
        }
      ],
      "stateMutability": "view",
      "type": "function"
    },
    {
      "stateMutability": "payable",
      "type": "receive"
    }
  ],
  "bytecode": "0x6080346100d257601f610d4c38819003918201601f19168301916001600160401b038311848410176100d75780849260a0946040528339810103126100d257610047816100ed565b90610054602082016100ed565b90610061604082016100ed565b9161007a6080610073606085016100ed565b93016100ed565b9160018060a01b0380948180948160018060a01b0319991689600054161760005516876001541617600155168560025416176002551683600354161760035516906004541617600455604051610c4a90816101028239f35b600080fd5b634e487b7160e01b600052604160045260246000fd5b51906001600160a01b03821682036100d25756fe608080604052600436101561001d575b50361561001b57600080fd5b005b60003560e01c9081630c56ae3b14610a3157508063149a58de1461091a57806361e99e2f146108f1578063968e090714610822578063ab463980146107f9578063bcaf9eed146107d0578063bf616497146106e7578063d98ec807146106be578063efff25d2146103fe5763fccd2c3114610098573861000f565b3461034a57602036600319011261034a57600054604051633e1bc85160e11b81526004803590820152906001600160a01b031660e082602481845afa9182156102f0576000926103cd575b5061ffff91828151169260ff6020830151169260405191634d201d6960e11b83526004356004840152600083602481855afa9283156102f0576000936103b0575b5060ff604085015116906060850151169060ff6080860151169060405190637f09803960e11b82526004356004830152600082602481885afa9182156102f05760009261038b575b5060ff60c08160a08a015116980151169160405193630d50463d60e41b855260043560048601526020856024818a5afa9485156102f057600095610357575b5060405163291dd4b360e01b81526004803590820152956020876024818b5afa9687156102f05760009761031e575b50604051635d528fc360e11b815260048035908201529860208a6024818c5afa9889156102f05760249a60009a6102fc575b506020906040519b8c809263ec7bf95560e01b825260043560048301525afa998a156102f05760009a6102af575b5090610266610283959493926040519e8f9e8f906101a092825260208201528160408201520190610a78565b9360608d015260808c015260a08b015289820360c08b0152610a78565b9560e0880152610100870152610120860152610140850152151561016084015215156101808301520390f35b61028395949392919a506102dd6102669160203d6020116102e9575b6102d58183610a9d565b810190610bfc565b9a91929394955061023a565b503d6102cb565b6040513d6000823e3d90fd5b6020919a5061031790823d84116102e9576102d58183610a9d565b999061020c565b9096506020813d60201161034f575b8161033a60209383610a9d565b8101031261034a575195386101da565b600080fd5b3d915061032d565b9094506020813d602011610383575b8161037360209383610a9d565b8101031261034a575193386101ab565b3d9150610366565b6103a99192503d806000833e6103a18183610a9d565b810190610b90565b903861016c565b6103c69193503d806000833e6103a18183610a9d565b9138610124565b6103f091925060e03d60e0116103f7575b6103e88183610a9d565b810190610af2565b90386100e3565b503d6103de565b600036600319011261034a57600054604051631249c58b60e01b81526020916001600160a01b0390839083906004908290349086165af19182156102f05760009261068f575b5080600054166040516331a9108f60e11b815283600482015260249285828581865afa9182156102f057600092610657575b50309116036106205760e0829160405192838092633e1bc85160e11b82528760048301525afa9081156102f057600091610601575b5061ffff815116156105ca57600760ff858301511610156105925760ff60806004920151161161055e57507f8ded0018aee3555da4abd779e14b4af76bd1dd7caf6ac46b76386b28db137e4e60e060405160608152600b60608201526a746573744d696e7452696760a81b608082015260018582015260a06040820152601760a08201527f526967206d696e746564207375636365737366756c6c7900000000000000000060c0820152a1604051908152f35b82600e6064926040519262461bcd60e51b845260048401528201526d496e76616c69642072617269747960901b6044820152fd5b60405162461bcd60e51b81526004810185905260118184015270496e76616c696420616c676f726974686d60781b6044820152606490fd5b60405162461bcd60e51b8152600481018590526010818401526f12185cda14985d19481b9bdd081cd95d60821b6044820152606490fd5b61061a915060e03d60e0116103f7576103e88183610a9d565b846104ab565b60405162461bcd60e51b8152600481018590526010818401526f13dddb995c9cda1a5c0819985a5b195960821b6044820152606490fd5b9091508581813d8311610688575b61066f8183610a9d565b8101031261034a5751818116810361034a579086610476565b503d610665565b9091508281813d83116106b7575b6106a78183610a9d565b8101031261034a57519083610444565b503d61069d565b3461034a57600036600319011261034a576002546040516001600160a01b039091168152602090f35b3461034a5760208060031936011261034a57600054604051630186725360e51b81526004803590820152908290829060249082906001600160a01b03165afa9081156102f0576000916107a3575b5068056bc75e2d631000008110158061078f575b1561075657604051908152f35b60405162461bcd60e51b815260048101839052601160248201527024b73b30b634b2102ba0aa2a17b437bab960791b6044820152606490fd5b5069010f0cf064dd59200000811115610749565b90508181813d83116107c9575b6107ba8183610a9d565b8101031261034a575182610735565b503d6107b0565b3461034a57600036600319011261034a576000546040516001600160a01b039091168152602090f35b3461034a57600036600319011261034a576004546040516001600160a01b039091168152602090f35b3461034a5760208060031936011261034a57600054604051630d50463d60e41b81526004803590820152908290829060249082906001600160a01b03165afa9081156102f0576000916108c4575b50801561087f57604051908152f35b60405162461bcd60e51b815260048101839052601860248201527f506f7765722073686f756c6420626520706f73697469766500000000000000006044820152606490fd5b90508181813d83116108ea575b6108db8183610a9d565b8101031261034a575182610870565b503d6108d1565b3461034a57600036600319011261034a576001546040516001600160a01b039091168152602090f35b3461034a57600036600319011261034a57600180546001600160a01b0316906000815b61094d575b602060405160018152f35b60ff8082169060079081831015610a295760405192636327dec360e11b84526004840152602092602492848285818b5afa9182156102f0576000926109f2575b508110156109dd5760069116116109ab575050810160ff168161093d565b90600c6064926040519262461bcd60e51b845260048401528201526b24b73b30b634b21031b7b4b760a11b6044820152fd5b82634e487b7160e01b60005260216004526000fd5b9091508481813d8311610a22575b610a0a8183610a9d565b8101031261034a57518181101561034a57908861098d565b503d610a00565b505050610942565b3461034a57600036600319011261034a576003546001600160a01b03168152602090f35b60005b838110610a685750506000910152565b8181015183820152602001610a58565b90602091610a9181518092818552858086019101610a55565b601f01601f1916010190565b90601f8019910116810190811067ffffffffffffffff821117610abf57604052565b634e487b7160e01b600052604160045260246000fd5b519061ffff8216820361034a57565b519060ff8216820361034a57565b908160e091031261034a576040519060e0820182811067ffffffffffffffff821117610abf57610b889160c091604052610b2b81610ad5565b8452610b3960208201610ae4565b6020850152610b4a60408201610ae4565b6040850152610b5b60608201610ad5565b6060850152610b6c60808201610ae4565b6080850152610b7d60a08201610ae4565b60a085015201610ae4565b60c082015290565b60208183031261034a57805167ffffffffffffffff9182821161034a57019082601f8301121561034a578151908111610abf5760405192610bdb601f8301601f191660200185610a9d565b8184526020828401011161034a57610bf99160208085019101610a55565b90565b9081602091031261034a5751801515810361034a579056fea2646970667358221220bb6e45a859e879ca7bd2d5a8f94ebd96a723c1c2c719134b35497260f897c31e64736f6c63430008180033",
  "linkReferences": {},
  "deployedLinkReferences": {}
}