{
  "_format": "hh-sol-artifact-1",
  "contractName": "WTXBridge",
  "sourceName": "contracts/game/WTXBridge.sol",
  "abi": [
    {
      "inputs": [
        {
          "internalType": "address",
          "name": "_wattToken",
          "type": "address"
        }
      ],
      "stateMutability": "nonpayable",
      "type": "constructor"
    },
    {
      "inputs": [],
      "name": "EnforcedPause",
      "type": "error"
    },
    {
      "inputs": [],
      "name": "ExpectedPause",
      "type": "error"
    },
    {
      "inputs": [
        {
          "internalType": "address",
          "name": "owner",
          "type": "address"
        }
      ],
      "name": "OwnableInvalidOwner",
      "type": "error"
    },
    {
      "inputs": [
        {
          "internalType": "address",
          "name": "account",
          "type": "address"
        }
      ],
      "name": "OwnableUnauthorizedAccount",
      "type": "error"
    },
    {
      "inputs": [],
      "name": "ReentrancyGuardReentrantCall",
      "type": "error"
    },
    {
      "anonymous": false,
      "inputs": [
        {
          "indexed": false,
          "internalType": "uint256",
          "name": "oldLimit",
          "type": "uint256"
        },
        {
          "indexed": false,
          "internalType": "uint256",
          "name": "newLimit",
          "type": "uint256"
        }
      ],
      "name": "DailyLimitUpdated",
      "type": "event"
    },
    {
      "anonymous": false,
      "inputs": [
        {
          "indexed": false,
          "internalType": "uint256",
          "name": "oldRate",
          "type": "uint256"
        },
        {
          "indexed": false,
          "internalType": "uint256",
          "name": "newRate",
          "type": "uint256"
        }
      ],
      "name": "ExchangeRateUpdated",
      "type": "event"
    },
    {
      "anonymous": false,
      "inputs": [
        {
          "indexed": true,
          "internalType": "address",
          "name": "provider",
          "type": "address"
        },
        {
          "indexed": false,
          "internalType": "uint256",
          "name": "amount",
          "type": "uint256"
        }
      ],
      "name": "LiquidityAdded",
      "type": "event"
    },
    {
      "anonymous": false,
      "inputs": [
        {
          "indexed": true,
          "internalType": "address",
          "name": "provider",
          "type": "address"
        },
        {
          "indexed": false,
          "internalType": "uint256",
          "name": "amount",
          "type": "uint256"
        }
      ],
      "name": "LiquidityRemoved",
      "type": "event"
    },
    {
      "anonymous": false,
      "inputs": [
        {
          "indexed": false,
          "internalType": "uint256",
          "name": "oldMax",
          "type": "uint256"
        },
        {
          "indexed": false,
          "internalType": "uint256",
          "name": "newMax",
          "type": "uint256"
        }
      ],
      "name": "MaxSwapUpdated",
      "type": "event"
    },
    {
      "anonymous": false,
      "inputs": [
        {
          "indexed": false,
          "internalType": "uint256",
          "name": "oldMin",
          "type": "uint256"
        },
        {
          "indexed": false,
          "internalType": "uint256",
          "name": "newMin",
          "type": "uint256"
        }
      ],
      "name": "MinSwapUpdated",
      "type": "event"
    },
    {
      "anonymous": false,
      "inputs": [
        {
          "indexed": true,
          "internalType": "address",
          "name": "operator",
          "type": "address"
        },
        {
          "indexed": false,
          "internalType": "bool",
          "name": "authorized",
          "type": "bool"
        }
      ],
      "name": "OperatorUpdated",
      "type": "event"
    },
    {
      "anonymous": false,
      "inputs": [
        {
          "indexed": true,
          "internalType": "address",
          "name": "previousOwner",
          "type": "address"
        },
        {
          "indexed": true,
          "internalType": "address",
          "name": "newOwner",
          "type": "address"
        }
      ],
      "name": "OwnershipTransferred",
      "type": "event"
    },
    {
      "anonymous": false,
      "inputs": [
        {
          "indexed": false,
          "internalType": "address",
          "name": "account",
          "type": "address"
        }
      ],
      "name": "Paused",
      "type": "event"
    },
    {
      "anonymous": false,
      "inputs": [
        {
          "indexed": true,
          "internalType": "uint256",
          "name": "requestId",
          "type": "uint256"
        },
        {
          "indexed": true,
          "internalType": "address",
          "name": "user",
          "type": "address"
        }
      ],
      "name": "SwapCancelled",
      "type": "event"
    },
    {
      "anonymous": false,
      "inputs": [
        {
          "indexed": true,
          "internalType": "uint256",
          "name": "requestId",
          "type": "uint256"
        },
        {
          "indexed": true,
          "internalType": "address",
          "name": "user",
          "type": "address"
        },
        {
          "indexed": false,
          "internalType": "uint256",
          "name": "netAmount",
          "type": "uint256"
        }
      ],
      "name": "SwapCompleted",
      "type": "event"
    },
    {
      "anonymous": false,
      "inputs": [
        {
          "indexed": false,
          "internalType": "uint256",
          "name": "oldFee",
          "type": "uint256"
        },
        {
          "indexed": false,
          "internalType": "uint256",
          "name": "newFee",
          "type": "uint256"
        }
      ],
      "name": "SwapFeeUpdated",
      "type": "event"
    },
    {
      "anonymous": false,
      "inputs": [
        {
          "indexed": true,
          "internalType": "uint256",
          "name": "requestId",
          "type": "uint256"
        },
        {
          "indexed": true,
          "internalType": "address",
          "name": "user",
          "type": "address"
        },
        {
          "indexed": false,
          "internalType": "enum IWTXBridge.SwapDirection",
          "name": "direction",
          "type": "uint8"
        },
        {
          "indexed": false,
          "internalType": "uint256",
          "name": "amount",
          "type": "uint256"
        }
      ],
      "name": "SwapRequested",
      "type": "event"
    },
    {
      "anonymous": false,
      "inputs": [
        {
          "indexed": false,
          "internalType": "address",
          "name": "account",
          "type": "address"
        }
      ],
      "name": "Unpaused",
      "type": "event"
    },
    {
      "inputs": [],
      "name": "BASIS_POINTS",
      "outputs": [
        {
          "internalType": "uint256",
          "name": "",
          "type": "uint256"
        }
      ],
      "stateMutability": "view",
      "type": "function"
    },
    {
      "inputs": [],
      "name": "MAX_SWAP_FEE",
      "outputs": [
        {
          "internalType": "uint256",
          "name": "",
          "type": "uint256"
        }
      ],
      "stateMutability": "view",
      "type": "function"
    },
    {
      "inputs": [],
      "name": "REQUEST_EXPIRY",
      "outputs": [
        {
          "internalType": "uint256",
          "name": "",
          "type": "uint256"
        }
      ],
      "stateMutability": "view",
      "type": "function"
    },
    {
      "inputs": [
        {
          "internalType": "uint256",
          "name": "amount",
          "type": "uint256"
        }
      ],
      "name": "addLiquidity",
      "outputs": [],
      "stateMutability": "nonpayable",
      "type": "function"
    },
    {
      "inputs": [
        {
          "internalType": "uint256",
          "name": "requestId",
          "type": "uint256"
        }
      ],
      "name": "cancelSwap",
      "outputs": [],
      "stateMutability": "nonpayable",
      "type": "function"
    },
    {
      "inputs": [
        {
          "internalType": "address",
          "name": "to",
          "type": "address"
        }
      ],
      "name": "collectFees",
      "outputs": [],
      "stateMutability": "nonpayable",
      "type": "function"
    },
    {
      "inputs": [
        {
          "internalType": "uint256",
          "name": "requestId",
          "type": "uint256"
        }
      ],
      "name": "completeSwap",
      "outputs": [],
      "stateMutability": "nonpayable",
      "type": "function"
    },
    {
      "inputs": [],
      "name": "dailyUserLimit",
      "outputs": [
        {
          "internalType": "uint256",
          "name": "",
          "type": "uint256"
        }
      ],
      "stateMutability": "view",
      "type": "function"
    },
    {
      "inputs": [],
      "name": "exchangeRate",
      "outputs": [
        {
          "internalType": "uint256",
          "name": "",
          "type": "uint256"
        }
      ],
      "stateMutability": "view",
      "type": "function"
    },
    {
      "inputs": [
        {
          "internalType": "uint256[]",
          "name": "requestIds",
          "type": "uint256[]"
        }
      ],
      "name": "expireRequests",
      "outputs": [],
      "stateMutability": "nonpayable",
      "type": "function"
    },
    {
      "inputs": [],
      "name": "getBridgeStats",
      "outputs": [
        {
          "internalType": "uint256",
          "name": "_liquidity",
          "type": "uint256"
        },
        {
          "internalType": "uint256",
          "name": "_totalSwaps",
          "type": "uint256"
        },
        {
          "internalType": "uint256",
          "name": "_volumeWattToWtx",
          "type": "uint256"
        },
        {
          "internalType": "uint256",
          "name": "_volumeWtxToWatt",
          "type": "uint256"
        },
        {
          "internalType": "uint256",
          "name": "_exchangeRate",
          "type": "uint256"
        },
        {
          "internalType": "uint256",
          "name": "_swapFee",
          "type": "uint256"
        }
      ],
      "stateMutability": "view",
      "type": "function"
    },
    {
      "inputs": [
        {
          "internalType": "enum IWTXBridge.SwapDirection",
          "name": "direction",
          "type": "uint8"
        },
        {
          "internalType": "uint256",
          "name": "amount",
          "type": "uint256"
        }
      ],
      "name": "getQuote",
      "outputs": [
        {
          "internalType": "uint256",
          "name": "outputAmount",
          "type": "uint256"
        },
        {
          "internalType": "uint256",
          "name": "fee",
          "type": "uint256"
        }
      ],
      "stateMutability": "view",
      "type": "function"
    },
    {
      "inputs": [
        {
          "internalType": "uint256",
          "name": "requestId",
          "type": "uint256"
        }
      ],
      "name": "getSwapRequest",
      "outputs": [
        {
          "components": [
            {
              "internalType": "address",
              "name": "user",
              "type": "address"
            },
            {
              "internalType": "enum IWTXBridge.SwapDirection",
              "name": "direction",
              "type": "uint8"
            },
            {
              "internalType": "uint256",
              "name": "amount",
              "type": "uint256"
            },
            {
              "internalType": "uint256",
              "name": "fee",
              "type": "uint256"
            },
            {
              "internalType": "uint256",
              "name": "netAmount",
              "type": "uint256"
            },
            {
              "internalType": "uint256",
              "name": "requestedAt",
              "type": "uint256"
            },
            {
              "internalType": "uint256",
              "name": "completedAt",
              "type": "uint256"
            },
            {
              "internalType": "enum IWTXBridge.SwapStatus",
              "name": "status",
              "type": "uint8"
            },
            {
              "internalType": "string",
              "name": "wtxTxHash",
              "type": "string"
            }
          ],
          "internalType": "struct IWTXBridge.SwapRequest",
          "name": "",
          "type": "tuple"
        }
      ],
      "stateMutability": "view",
      "type": "function"
    },
    {
      "inputs": [
        {
          "internalType": "address",
          "name": "user",
          "type": "address"
        }
      ],
      "name": "getUserAllSwaps",
      "outputs": [
        {
          "internalType": "uint256[]",
          "name": "",
          "type": "uint256[]"
        }
      ],
      "stateMutability": "view",
      "type": "function"
    },
    {
      "inputs": [
        {
          "internalType": "address",
          "name": "user",
          "type": "address"
        }
      ],
      "name": "getUserDailyRemaining",
      "outputs": [
        {
          "internalType": "uint256",
          "name": "",
          "type": "uint256"
        }
      ],
      "stateMutability": "view",
      "type": "function"
    },
    {
      "inputs": [
        {
          "internalType": "address",
          "name": "user",
          "type": "address"
        }
      ],
      "name": "getUserPendingSwaps",
      "outputs": [
        {
          "internalType": "uint256[]",
          "name": "requestIds",
          "type": "uint256[]"
        }
      ],
      "stateMutability": "view",
      "type": "function"
    },
    {
      "inputs": [],
      "name": "maxSwapAmount",
      "outputs": [
        {
          "internalType": "uint256",
          "name": "",
          "type": "uint256"
        }
      ],
      "stateMutability": "view",
      "type": "function"
    },
    {
      "inputs": [],
      "name": "minSwapAmount",
      "outputs": [
        {
          "internalType": "uint256",
          "name": "",
          "type": "uint256"
        }
      ],
      "stateMutability": "view",
      "type": "function"
    },
    {
      "inputs": [],
      "name": "nextRequestId",
      "outputs": [
        {
          "internalType": "uint256",
          "name": "",
          "type": "uint256"
        }
      ],
      "stateMutability": "view",
      "type": "function"
    },
    {
      "inputs": [
        {
          "internalType": "address",
          "name": "",
          "type": "address"
        }
      ],
      "name": "operators",
      "outputs": [
        {
          "internalType": "bool",
          "name": "",
          "type": "bool"
        }
      ],
      "stateMutability": "view",
      "type": "function"
    },
    {
      "inputs": [],
      "name": "owner",
      "outputs": [
        {
          "internalType": "address",
          "name": "",
          "type": "address"
        }
      ],
      "stateMutability": "view",
      "type": "function"
    },
    {
      "inputs": [],
      "name": "pause",
      "outputs": [],
      "stateMutability": "nonpayable",
      "type": "function"
    },
    {
      "inputs": [],
      "name": "paused",
      "outputs": [
        {
          "internalType": "bool",
          "name": "",
          "type": "bool"
        }
      ],
      "stateMutability": "view",
      "type": "function"
    },
    {
      "inputs": [
        {
          "internalType": "uint256",
          "name": "amount",
          "type": "uint256"
        }
      ],
      "name": "removeLiquidity",
      "outputs": [],
      "stateMutability": "nonpayable",
      "type": "function"
    },
    {
      "inputs": [],
      "name": "renounceOwnership",
      "outputs": [],
      "stateMutability": "nonpayable",
      "type": "function"
    },
    {
      "inputs": [
        {
          "internalType": "uint256",
          "name": "amount",
          "type": "uint256"
        },
        {
          "internalType": "string",
          "name": "wtxAddress",
          "type": "string"
        }
      ],
      "name": "requestWattToWtx",
      "outputs": [],
      "stateMutability": "nonpayable",
      "type": "function"
    },
    {
      "inputs": [
        {
          "internalType": "uint256",
          "name": "amount",
          "type": "uint256"
        },
        {
          "internalType": "string",
          "name": "wtxTxHash",
          "type": "string"
        }
      ],
      "name": "requestWtxToWatt",
      "outputs": [],
      "stateMutability": "nonpayable",
      "type": "function"
    },
    {
      "inputs": [
        {
          "internalType": "uint256",
          "name": "newLimit",
          "type": "uint256"
        }
      ],
      "name": "setDailyUserLimit",
      "outputs": [],
      "stateMutability": "nonpayable",
      "type": "function"
    },
    {
      "inputs": [
        {
          "internalType": "uint256",
          "name": "newRate",
          "type": "uint256"
        }
      ],
      "name": "setExchangeRate",
      "outputs": [],
      "stateMutability": "nonpayable",
      "type": "function"
    },
    {
      "inputs": [
        {
          "internalType": "uint256",
          "name": "newMax",
          "type": "uint256"
        }
      ],
      "name": "setMaxSwapAmount",
      "outputs": [],
      "stateMutability": "nonpayable",
      "type": "function"
    },
    {
      "inputs": [
        {
          "internalType": "uint256",
          "name": "newMin",
          "type": "uint256"
        }
      ],
      "name": "setMinSwapAmount",
      "outputs": [],
      "stateMutability": "nonpayable",
      "type": "function"
    },
    {
      "inputs": [
        {
          "internalType": "address",
          "name": "operator",
          "type": "address"
        },
        {
          "internalType": "bool",
          "name": "authorized",
          "type": "bool"
        }
      ],
      "name": "setOperator",
      "outputs": [],
      "stateMutability": "nonpayable",
      "type": "function"
    },
    {
      "inputs": [
        {
          "internalType": "uint256",
          "name": "newFee",
          "type": "uint256"
        }
      ],
      "name": "setSwapFee",
      "outputs": [],
      "stateMutability": "nonpayable",
      "type": "function"
    },
    {
      "inputs": [],
      "name": "swapFee",
      "outputs": [
        {
          "internalType": "uint256",
          "name": "",
          "type": "uint256"
        }
      ],
      "stateMutability": "view",
      "type": "function"
    },
    {
      "inputs": [
        {
          "internalType": "uint256",
          "name": "",
          "type": "uint256"
        }
      ],
      "name": "swapRequests",
      "outputs": [
        {
          "internalType": "address",
          "name": "user",
          "type": "address"
        },
        {
          "internalType": "enum IWTXBridge.SwapDirection",
          "name": "direction",
          "type": "uint8"
        },
        {
          "internalType": "uint256",
          "name": "amount",
          "type": "uint256"
        },
        {
          "internalType": "uint256",
          "name": "fee",
          "type": "uint256"
        },
        {
          "internalType": "uint256",
          "name": "netAmount",
          "type": "uint256"
        },
        {
          "internalType": "uint256",
          "name": "requestedAt",
          "type": "uint256"
        },
        {
          "internalType": "uint256",
          "name": "completedAt",
          "type": "uint256"
        },
        {
          "internalType": "enum IWTXBridge.SwapStatus",
          "name": "status",
          "type": "uint8"
        },
        {
          "internalType": "string",
          "name": "wtxTxHash",
          "type": "string"
        }
      ],
      "stateMutability": "view",
      "type": "function"
    },
    {
      "inputs": [],
      "name": "totalSwapsCompleted",
      "outputs": [
        {
          "internalType": "uint256",
          "name": "",
          "type": "uint256"
        }
      ],
      "stateMutability": "view",
      "type": "function"
    },
    {
      "inputs": [],
      "name": "totalVolumeWattToWtx",
      "outputs": [
        {
          "internalType": "uint256",
          "name": "",
          "type": "uint256"
        }
      ],
      "stateMutability": "view",
      "type": "function"
    },
    {
      "inputs": [],
      "name": "totalVolumeWtxToWatt",
      "outputs": [
        {
          "internalType": "uint256",
          "name": "",
          "type": "uint256"
        }
      ],
      "stateMutability": "view",
      "type": "function"
    },
    {
      "inputs": [],
      "name": "totalWattLiquidity",
      "outputs": [
        {
          "internalType": "uint256",
          "name": "",
          "type": "uint256"
        }
      ],
      "stateMutability": "view",
      "type": "function"
    },
    {
      "inputs": [
        {
          "internalType": "address",
          "name": "newOwner",
          "type": "address"
        }
      ],
      "name": "transferOwnership",
      "outputs": [],
      "stateMutability": "nonpayable",
      "type": "function"
    },
    {
      "inputs": [],
      "name": "unpause",
      "outputs": [],
      "stateMutability": "nonpayable",
      "type": "function"
    },
    {
      "inputs": [
        {
          "internalType": "address",
          "name": "",
          "type": "address"
        },
        {
          "internalType": "uint256",
          "name": "",
          "type": "uint256"
        }
      ],
      "name": "userDailySwapped",
      "outputs": [
        {
          "internalType": "uint256",
          "name": "",
          "type": "uint256"
        }
      ],
      "stateMutability": "view",
      "type": "function"
    },
    {
      "inputs": [
        {
          "internalType": "address",
          "name": "",
          "type": "address"
        },
        {
          "internalType": "uint256",
          "name": "",
          "type": "uint256"
        }
      ],
      "name": "userRequests",
      "outputs": [
        {
          "internalType": "uint256",
          "name": "",
          "type": "uint256"
        }
      ],
      "stateMutability": "view",
      "type": "function"
    },
    {
      "inputs": [],
      "name": "wattToken",
      "outputs": [
        {
          "internalType": "contract IWATT",
          "name": "",
          "type": "address"
        }
      ],
      "stateMutability": "view",
      "type": "function"
    },
    {
      "inputs": [
        {
          "internalType": "string",
          "name": "",
          "type": "string"
        }
      ],
      "name": "wtxTxToRequest",
      "outputs": [
        {
          "internalType": "uint256",
          "name": "",
          "type": "uint256"
        }
      ],
      "stateMutability": "view",
      "type": "function"
    }
  ],
  "bytecode": "0x60a034620001d757601f620028b738819003918201601f191683019291906001600160401b03841183851017620001dc578160209284926040968752833981010312620001d757516001600160a01b03919082811690819003620001d7573315620001bf5760008054336001600160a01b03198216811783558451959293929091167f8be0079c531659141344cd1fd0a4f28419497f9722a3daafe3b4186f6b6457e08480a360018055670de0b6b3a7640000600355603260045568056bc75e2d6310000060055569d3c21bcecceda100000060065569152d02c7e14af6800000600755600160085580156200017d57829350608052338152600d60205220600160ff198254161790558051600181527f966c160e1c4dbc7df8d69af4ace01e9297c3cf016397b7914971f2fbfa32672d60203392a2516126c49081620001f38239608051818181610403015281816104d90152818161064d0152818161098d01528181610d2b01528181610f22015281816110770152611aa60152f35b62461bcd60e51b845260206004850152601460248501527f496e76616c6964205741545420616464726573730000000000000000000000006044850152606484fd5b8151631e4fbdf760e01b815260006004820152602490fd5b600080fd5b634e487b7160e01b600052604160045260246000fdfe608080604052600436101561001357600080fd5b60003560e01c90816307a63f57146121375750806313e7c9d8146120f857806319208e6c14611ce55780632165cbb714611c9d57806322f195b514611c7f578063263cb6b614611c27578063320d453414611bd4578063331ccd4c1461199a578063338246e21461197c57806334e19907146118ec57806335675f371461178e5780633ba0b9a9146117705780633f4ba83a1461170657806345488bd21461167f5780634a23656d146115165780634d031c801461146e5780634f5c59f61461141b578063513f0dd214610fce57806351c6590a14610ecc57806352e5b8e314610e5e57806354c26db714610e4057806354cf2aeb14610e2257806354d6a2b714610c0a578063558a729714610b8b5780635c975abb14610b685780636a84a98514610b4a5780636d09541e14610b2c578063715018a614610ad35780638456cb5914610a795780638da5cb5b14610a505780638e4821701461083c578063987a92ea146107cd5780639c61d7a41461070f5780639c8f9f23146105e4578063a480ca79146104a2578063a5f7f99d1461044f578063ab3d854414610432578063ab463980146103ed578063cce987d4146103cf578063cd82e7d3146103b1578063d433895514610393578063db068e0e14610306578063e1f1c4a7146102e9578063f2fde38b1461025b5763fd3328501461020e57600080fd5b34610256576040366003190112610256576001600160a01b0361022f612152565b16600052600b60205260406000206024356000526020526020604060002054604051908152f35b600080fd5b3461025657602036600319011261025657610274612152565b61027c612662565b6001600160a01b039081169081156102d057600054826bffffffffffffffffffffffff60a01b821617600055167f8be0079c531659141344cd1fd0a4f28419497f9722a3daafe3b4186f6b6457e0600080a3005b604051631e4fbdf760e01b815260006004820152602490fd5b346102565760003660031901126102565760206040516127108152f35b3461025657602036600319011261025657600435610322612662565b801561035f577fc8d1043f24843c0a1c9251fdc30017d84e87498fbcf232af9f86816b5e182bde60406003548151908152836020820152a1600355005b60405162461bcd60e51b815260206004820152600c60248201526b496e76616c6964207261746560a01b6044820152606490fd5b34610256576000366003190112610256576020600e54604051908152f35b34610256576000366003190112610256576020600f54604051908152f35b34610256576000366003190112610256576020600654604051908152f35b34610256576000366003190112610256576040517f00000000000000000000000000000000000000000000000000000000000000006001600160a01b03168152602090f35b346102565760003660031901126102565760206040516101f48152f35b346102565760203660031901126102565760043561046b612662565b7faf57c8113412bc956eaa5bd2e4bf4ab95f5d8cb43a6c952bc635f8a432358b3960406006548151908152836020820152a1600655005b3461025657602080600319360112610256576104bc612152565b6104c4612662565b6040516370a0823160e01b81523060048201527f00000000000000000000000000000000000000000000000000000000000000006001600160a01b031691908381602481865afa80156105a9576000906105b5575b6105279150600e54906124cd565b8061052e57005b60405163a9059cbb60e01b81526001600160a01b039290921660048301526024820152908290829060449082906000905af19081156105a95761057a9260009261057c575b50506125cb565b005b61059b9250803d106105a2575b6105938183612288565b8101906125b3565b8280610573565b503d610589565b6040513d6000823e3d90fd5b508381813d83116105dd575b6105cb8183612288565b81010312610256576105279051610519565b503d6105c1565b34610256576020806003193601126102565760043590610602612662565b61060a612621565b600e548083116106d6578261061e916124cd565b600e5560405163a9059cbb60e01b81523360048201526024810183905290808260448160006001600160a01b037f0000000000000000000000000000000000000000000000000000000000000000165af19182156105a9577fc2c3f06e49b9f15e7b4af9055e183b0d73362e033ad82a07dec9bf9840171719926106aa916000916106b9575b506125cb565b6040519283523392a260018055005b6106d09150833d85116105a2576105938183612288565b856106a4565b60405162461bcd60e51b815260048101839052601160248201527045786365656473206c697175696469747960781b6044820152606490fd5b3461025657602036600319011261025657600435600052600960205260406000206107976107c98254926001810154936107ba6002830154926003810154600482015460058301549161076c600760ff600687015416950161232b565b6040516001600160a01b03881681529a8b9a91986101209890929060208d019060a01c60ff16612209565b60408b015260608a0152608089015260a088015260c087015260e0860190612216565b80610100850152830190612246565b0390f35b34610256576020366003190112610256576001600160a01b036107ee612152565b16600052600b60205260406000206201518042046000526020526040600020546007548082101560001461082b575050602060005b604051908152f35b602091610837916124cd565b610823565b3461025657602080600319360112610256576004359067ffffffffffffffff9081831161025657366023840112156102565782600401359182116102565760249260053660248560051b840101116102565733600052600d835260ff9160ff604060002054168015610a3c575b6108b29061253b565b60005b8581106108be57005b8681841b83010135600052600985526040600020906006820180548681166004811015610a275715806109f8575b6108fd575b505060019150016108b5565b60ff19166003179055815460a01c8516916002808410156109e3578791600180951461092a575b506108f1565b61094061098995820192835490830154906124cd565b61094d600e9182546124cd565b905554905460405163a9059cbb60e01b81526001600160a01b039283166004820152602481019190915293849190829060009082906044820190565b03927f0000000000000000000000000000000000000000000000000000000000000000165af19182156105a9576001926109c6575b808791610924565b6109dc90873d89116105a2576105938183612288565b50886109be565b89634e487b7160e01b60005260216004526000fd5b50600484015462093a808101809111610a125742116108ec565b8a634e487b7160e01b60005260116004526000fd5b8a634e487b7160e01b60005260216004526000fd5b506000546001600160a01b031633146108a9565b34610256576000366003190112610256576000546040516001600160a01b039091168152602090f35b3461025657600036600319011261025657610a92612662565b610a9a612644565b600160ff1960025416176002557f62e78cea01bee320cd4e420270b5ea74000d11b0c9f74754ebdbfc544b05a2586020604051338152a1005b3461025657600036600319011261025657610aec612662565b600080546001600160a01b0319811682556001600160a01b03167f8be0079c531659141344cd1fd0a4f28419497f9722a3daafe3b4186f6b6457e08280a3005b34610256576000366003190112610256576020600754604051908152f35b34610256576000366003190112610256576020600854604051908152f35b3461025657600036600319011261025657602060ff600254166040519015158152f35b3461025657604036600319011261025657610ba4612152565b602435908115158092036102565760207f966c160e1c4dbc7df8d69af4ace01e9297c3cf016397b7914971f2fbfa32672d91610bde612662565b60018060a01b03169283600052600d8252604060002060ff1981541660ff8316179055604051908152a2005b34610256576020806003193601126102565760043590610c28612621565b81600052600981526040600020600681019182549260ff84166004811015610db257610c549015612576565b82546001600160a01b039490919033868416148015610e0b575b8015610dfe575b15610dc85790600260ff939284191617905560a01c166002811015610db257600114610ccb575b505416907fc9660176d761dbcab77c697281268e30dffb9a42cafafcbe4e3a58fc44496e32600080a360018055005b610d248160018401610cee610ce682546002880154906124cd565b600e546124cd565b600e558454905460405163a9059cbb60e01b81529187166001600160a01b03166004830152602482015291829081906044820190565b03816000887f0000000000000000000000000000000000000000000000000000000000000000165af19081156105a957600091610d95575b50610c9c576064906040519062461bcd60e51b82526004820152600d60248201526c1499599d5b990819985a5b1959609a1b6044820152fd5b610dac9150823d84116105a2576105938183612288565b85610d5c565b634e487b7160e01b600052602160045260246000fd5b60405162461bcd60e51b815260048101859052600e60248201526d139bdd08185d5d1a1bdc9a5e995960921b6044820152606490fd5b5085600054163314610c75565b5033600052600d845260ff60406000205416610c6e565b34610256576000366003190112610256576020600454604051908152f35b34610256576000366003190112610256576020601054604051908152f35b346102565760203660031901126102565760043567ffffffffffffffff8111610256573660238201121561025657610eb96020610ea6819336906024816004013591016122aa565b8160405193828580945193849201612223565b8101600c81520301902054604051908152f35b34610256576020806003193601126102565760043590610eea612621565b8115610f9c576040516323b872dd60e01b81523360048201523060248201526044810183905290808260648160006001600160a01b037f0000000000000000000000000000000000000000000000000000000000000000165af19182156105a9577fc17cea59c2955cb181b03393209566960365771dbba9dc3d510180e7cb31208892610f7e916000916106b957506125cb565b610f8a83600e5461246a565b600e556040519283523392a260018055005b6064906040519062461bcd60e51b82526004820152600b60248201526a16995c9bc8185b5bdd5b9d60aa1b6044820152fd5b3461025657610fdc36612168565b90610fe5612621565b610fed612644565b610ffb6005548410156123d0565b61100960065484111561240c565b81156113e05733600052600b602052604060002062015180420460005260205261104561103b8460406000205461246a565b6007541015612477565b6040516323b872dd60e01b81523360048201523060248201526044810184905260208160648160006001600160a01b037f0000000000000000000000000000000000000000000000000000000000000000165af180156105a9576110b0916000916113c757506125cb565b6127106110bf600454856124ba565b04906110cb82856124cd565b670de0b6b3a7640000908181029181830414901517156113b1576110f5611149916003549061244a565b9160085494611103866124da565b600855604051936111138561226b565b3385526001602086015287604086015285606086015260808501524260a0850152600060c0850152600060e085015236916122aa565b610100820152826000526009602052604060002060018060a01b0382511681549060208401516002811015610db25760ff60a01b9060a01b16916affffffffffffffffffffff60a81b161717815560408201516001820155606082015160028201556080820151600382015560a0820151600482015560c0820151600582015560e08201516004811015610db257816111ea600792600661010095016124e9565b0191015180519067ffffffffffffffff821161139b5761120a83546122f1565b601f8111611353575b50602090601f83116001146112e3579180611294949261129c96946000926112d8575b50508160011b916000199060031b1c19161790555b33600052600a602052611262846040600020612501565b33600052600b6020526040600020620151804204600052602052604060002061128c86825461246a565b9055846124cd565b600e5461246a565b600e55604051916001835260208301527f6f015f851a79c24fed390196f89e2fab5387593ac1a11af7c1df11a9eb00b45f60403393a360018055005b015190508880611236565b90601f198316918460005260206000209260005b81811061133b575092600192859261129c9896611294989610611322575b505050811b01905561124b565b015160001960f88460031b161c19169055888080611315565b929360206001819287860151815501950193016112f7565b836000526020600020601f840160051c81019160208510611391575b601f0160051c01905b8181106113855750611213565b60008155600101611378565b909150819061136f565b634e487b7160e01b600052604160045260246000fd5b634e487b7160e01b600052601160045260246000fd5b6106d0915060203d6020116105a2576105938183612288565b60405162461bcd60e51b8152602060048201526013602482015272496e76616c696420575458206164647265737360681b6044820152606490fd5b3461025657602036600319011261025657600435611437612662565b7f207c4cbdf55ec315a13f0d5e047732ec5d947da056e706593aa509909941cedf60406007548151908152836020820152a1600755005b3461025657604036600319011261025657600435600281101561025657602435906114d457670de0b6b3a76400006114ab604092600354906124ba565b046114c66127106114be600454846124ba565b0480926124cd565b905b82519182526020820152f35b6114e66127106114be600454846124ba565b90670de0b6b3a7640000918281029281840414901517156113b1576115106040926003549061244a565b906114c8565b3461025657602080600319360112610256576040516115348161226b565b60008152600082820152600060408201526000606082015260006080820152600060a0820152600060c0820152600060e08201526060610100809201526004356000526009825260406000209060405161158d8161226b565b82546001600160a01b0380821683529385830193909160a01c60ff166002811015610db257845260018201546040840190815260028301546060850190815260038401546080860190815260048501549060a0870191825260058601549260c0880193845260ff6006880154169460e08901956004811015610db2576107c99a611622600761166c9b611644948b520161232b565b9a8981019b8c526040519e8f9e8f9282845251169101525160408d0190612209565b5160608b01525160808a01525160a08901525160c08801525160e08701525190850190612216565b5161012080840152610140830190612246565b3461025657602080600319360112610256576001600160a01b036116a1612152565b16600052600a6020526040600020906040519081602084549182815201936000526020600020916000905b8282106116ef576107c9856116e381890382612288565b604051918291826121cd565b8354865294850194600193840193909101906116cc565b346102565760003660031901126102565761171f612662565b60025460ff81161561175e5760ff19166002557f5db9ee0a495bf2e6ff9c91a7834c1ba4fdd244a5e8aa4e537bd38aeae4b073aa6020604051338152a1005b604051638dfc202b60e01b8152600490fd5b34610256576000366003190112610256576020600354604051908152f35b3461025657602080600319360112610256576001600160a01b036117b0612152565b166000908152600a82526040812080549092825b82811061189d57506117d583612609565b926117e36040519485612288565b8084526117f2601f1991612609565b01368285013760009360005b83811061181357604051806107c987826121cd565b61181d81836121b5565b9054600391821b1c6000526009845260ff600660406000200154166004811015610db25715611850575b506001016117fe565b61185d82849893986121b5565b9054911b1c9561186c826124da565b968651831015611887578460019360051b8801015290611847565b634e487b7160e01b600052603260045260246000fd5b6118a781866121b5565b90549060031b1c6000526009825260ff600660406000200154166004811015610db257156118d8575b6001016117c4565b926118e46001916124da565b9390506118d0565b3461025657602036600319011261025657600435611908612662565b6101f48111611948577fc8273cce54f5cf71712dee009c7e6438ae7e1db578da0ec076cf360af45501b960406004548151908152836020820152a1600455005b60405162461bcd60e51b815260206004820152600c60248201526b08ccaca40e8dede40d0d2ced60a31b6044820152606490fd5b34610256576000366003190112610256576020600554604051908152f35b34610256576020806003193601126102565760043533600052600d825260ff604060002054168015611bc0575b6119d09061253b565b6119d8612621565b806000526009825260406000209160068301805460ff81166004811015610db257611a039015612576565b600485015462093a8081018091116113b1574211611b895760ff19166001179055426005840155600f54611a36906124da565b600f5560ff835460a01c166002811015610db257611b4f5780611aa29160038501611a648154600e546124cd565b600e558554905460405163a9059cbb60e01b81526001600160a01b039283166004820152602481019190915293849190829060009082906044820190565b03927f0000000000000000000000000000000000000000000000000000000000000000165af19182156105a9577f2f8dc9ad837a0ff514f483e92704293c1fdaba45dbe9e245b3f249059fb31edf92611b0291600091611b3257506125cb565b611b12600185015460115461246a565b6011555b600360018060a01b03855416940154604051908152a360018055005b611b499150833d85116105a2576105938183612288565b866106a4565b7f2f8dc9ad837a0ff514f483e92704293c1fdaba45dbe9e245b3f249059fb31edf90611b81600185015460105461246a565b601055611b16565b60405162461bcd60e51b815260048101849052600f60248201526e14995c5d595cdd08195e1c1a5c9959608a1b6044820152606490fd5b506000546001600160a01b031633146119c7565b3461025657602036600319011261025657600435611bf0612662565b7f829a762f0746c6dc2ce562474724cc4a432cc3af788dabfe704490ccbde2eb3d60406005548151908152836020820152a1600555005b3461025657604036600319011261025657611c40612152565b6001600160a01b03166000908152600a602052604090208054602435919082101561025657602091611c71916121b5565b90546040519160031b1c8152f35b3461025657600036600319011261025657602060405162093a808152f35b346102565760003660031901126102565760c0600e54600f546010546011546003549160045493604051958652602086015260408501526060840152608083015260a0820152f35b3461025657611cf336612168565b611cfe929192612621565b611d06612644565b611d146005548310156123d0565b611d2260065483111561240c565b80156120c15760405181848237602081838101600c8152030190205461208a5733600052600b6020526040600020620151804204600052602052611d6e61103b8360406000205461246a565b670de0b6b3a7640000611d83600354846124ba565b0490611d9f612710611d97600454856124ba565b0480936124cd565b93600e54851161204c5760085492611db6846124da565b60085560405195611dc68761226b565b338752602087019160008352866040890152606088015260808701524260a0870152600060c0870152600060e0870152611e013684846122aa565b61010087015283600052600960205260406000209060018060a01b03875116825491516002811015610db25760ff60a01b9060a01b16916affffffffffffffffffffff60a81b161717815560408601516001820155606086015160028201556080860151600382015560a0860151600482015560c0860151600582015560e08601516004811015610db25781611e9f600792600661010095016124e9565b0195015194855167ffffffffffffffff811161139b57611ebf82546122f1565b601f8111612004575b506020601f8211600114611f975790806020949392879899600092611f8c575b50508160011b916000199060031b1c19161790555b33600052600a8252611f13846040600020612501565b8260405193849283378101600c8152030190205533600052600b60205260406000206201518042046000526020526040600020611f5183825461246a565b9055604051916000835260208301527f6f015f851a79c24fed390196f89e2fab5387593ac1a11af7c1df11a9eb00b45f60403393a360018055005b015190508980611ee8565b601f198216978360005260206000209860005b818110611fec575098600192849260209796958a9b9c10611fd3575b505050811b019055611efd565b015160001960f88460031b161c19169055898080611fc6565b838301518b556001909a019960209384019301611faa565b826000526020600020601f830160051c81019160208410612042575b601f0160051c01905b8181106120365750611ec8565b60008155600101612029565b9091508190612020565b60405162461bcd60e51b8152602060048201526016602482015275496e73756666696369656e74206c697175696469747960501b6044820152606490fd5b60405162461bcd60e51b815260206004820152600f60248201526e151e08185b1c9958591e481d5cd959608a1b6044820152606490fd5b60405162461bcd60e51b815260206004820152600f60248201526e092dcecc2d8d2c840e8f040d0c2e6d608b1b6044820152606490fd5b34610256576020366003190112610256576001600160a01b03612119612152565b16600052600d602052602060ff604060002054166040519015158152f35b34610256576000366003190112610256576020906011548152f35b600435906001600160a01b038216820361025657565b6040600319820112610256576004359160243567ffffffffffffffff9283821161025657806023830112156102565781600401359384116102565760248483010111610256576024019190565b80548210156118875760005260206000200190600090565b602090602060408183019282815285518094520193019160005b8281106121f5575050505090565b8351855293810193928101926001016121e7565b906002821015610db25752565b906004821015610db25752565b60005b8381106122365750506000910152565b8181015183820152602001612226565b9060209161225f81518092818552858086019101612223565b601f01601f1916010190565b610120810190811067ffffffffffffffff82111761139b57604052565b90601f8019910116810190811067ffffffffffffffff82111761139b57604052565b92919267ffffffffffffffff821161139b57604051916122d4601f8201601f191660200184612288565b829481845281830111610256578281602093846000960137010152565b90600182811c92168015612321575b602083101461230b57565b634e487b7160e01b600052602260045260246000fd5b91607f1691612300565b9060405191826000825461233e816122f1565b908184526020946001916001811690816000146123ae575060011461236f575b50505061236d92500383612288565b565b600090815285812095935091905b81831061239657505061236d935082010138808061235e565b8554888401850152948501948794509183019161237d565b9250505061236d94925060ff191682840152151560051b82010138808061235e565b156123d757565b60405162461bcd60e51b815260206004820152600d60248201526c42656c6f77206d696e696d756d60981b6044820152606490fd5b1561241357565b60405162461bcd60e51b815260206004820152600f60248201526e45786365656473206d6178696d756d60881b6044820152606490fd5b8115612454570490565b634e487b7160e01b600052601260045260246000fd5b919082018092116113b157565b1561247e57565b60405162461bcd60e51b815260206004820152601460248201527311185a5b1e481b1a5b5a5d08195e18d95959195960621b6044820152606490fd5b818102929181159184041417156113b157565b919082039182116113b157565b60001981146113b15760010190565b906004811015610db25760ff80198354169116179055565b80546801000000000000000081101561139b57612523916001820181556121b5565b819291549060031b91821b91600019901b1916179055565b1561254257565b60405162461bcd60e51b815260206004820152600c60248201526b2737ba1037b832b930ba37b960a11b6044820152606490fd5b1561257d57565b60405162461bcd60e51b815260206004820152600e60248201526d496e76616c69642073746174757360901b6044820152606490fd5b90816020910312610256575180151581036102565790565b156125d257565b60405162461bcd60e51b815260206004820152600f60248201526e151c985b9cd9995c8819985a5b1959608a1b6044820152606490fd5b67ffffffffffffffff811161139b5760051b60200190565b600260015414612632576002600155565b604051633ee5aeb560e01b8152600490fd5b60ff6002541661265057565b60405163d93c066560e01b8152600490fd5b6000546001600160a01b0316330361267657565b60405163118cdaa760e01b8152336004820152602490fdfea2646970667358221220064c140b24c71d881efc532a2ba912a0635c5ce1dbf332b43cc63d3b804b168664736f6c63430008180033",
  "linkReferences": {},
  "deployedLinkReferences": {}
}