{
  "_format": "hh-sol-artifact-1",
  "contractName": "MiningRigNFT",
  "sourceName": "contracts/nfts/MiningRigNFT.sol",
  "abi": [
    {
      "inputs": [],
      "stateMutability": "nonpayable",
      "type": "constructor"
    },
    {
      "inputs": [],
      "name": "ERC721EnumerableForbiddenBatchMint",
      "type": "error"
    },
    {
      "inputs": [
        {
          "internalType": "address",
          "name": "sender",
          "type": "address"
        },
        {
          "internalType": "uint256",
          "name": "tokenId",
          "type": "uint256"
        },
        {
          "internalType": "address",
          "name": "owner",
          "type": "address"
        }
      ],
      "name": "ERC721IncorrectOwner",
      "type": "error"
    },
    {
      "inputs": [
        {
          "internalType": "address",
          "name": "operator",
          "type": "address"
        },
        {
          "internalType": "uint256",
          "name": "tokenId",
          "type": "uint256"
        }
      ],
      "name": "ERC721InsufficientApproval",
      "type": "error"
    },
    {
      "inputs": [
        {
          "internalType": "address",
          "name": "approver",
          "type": "address"
        }
      ],
      "name": "ERC721InvalidApprover",
      "type": "error"
    },
    {
      "inputs": [
        {
          "internalType": "address",
          "name": "operator",
          "type": "address"
        }
      ],
      "name": "ERC721InvalidOperator",
      "type": "error"
    },
    {
      "inputs": [
        {
          "internalType": "address",
          "name": "owner",
          "type": "address"
        }
      ],
      "name": "ERC721InvalidOwner",
      "type": "error"
    },
    {
      "inputs": [
        {
          "internalType": "address",
          "name": "receiver",
          "type": "address"
        }
      ],
      "name": "ERC721InvalidReceiver",
      "type": "error"
    },
    {
      "inputs": [
        {
          "internalType": "address",
          "name": "sender",
          "type": "address"
        }
      ],
      "name": "ERC721InvalidSender",
      "type": "error"
    },
    {
      "inputs": [
        {
          "internalType": "uint256",
          "name": "tokenId",
          "type": "uint256"
        }
      ],
      "name": "ERC721NonexistentToken",
      "type": "error"
    },
    {
      "inputs": [
        {
          "internalType": "address",
          "name": "owner",
          "type": "address"
        },
        {
          "internalType": "uint256",
          "name": "index",
          "type": "uint256"
        }
      ],
      "name": "ERC721OutOfBoundsIndex",
      "type": "error"
    },
    {
      "inputs": [
        {
          "internalType": "address",
          "name": "owner",
          "type": "address"
        }
      ],
      "name": "OwnableInvalidOwner",
      "type": "error"
    },
    {
      "inputs": [
        {
          "internalType": "address",
          "name": "account",
          "type": "address"
        }
      ],
      "name": "OwnableUnauthorizedAccount",
      "type": "error"
    },
    {
      "inputs": [],
      "name": "ReentrancyGuardReentrantCall",
      "type": "error"
    },
    {
      "anonymous": false,
      "inputs": [
        {
          "indexed": true,
          "internalType": "address",
          "name": "owner",
          "type": "address"
        },
        {
          "indexed": true,
          "internalType": "address",
          "name": "approved",
          "type": "address"
        },
        {
          "indexed": true,
          "internalType": "uint256",
          "name": "tokenId",
          "type": "uint256"
        }
      ],
      "name": "Approval",
      "type": "event"
    },
    {
      "anonymous": false,
      "inputs": [
        {
          "indexed": true,
          "internalType": "address",
          "name": "owner",
          "type": "address"
        },
        {
          "indexed": true,
          "internalType": "address",
          "name": "operator",
          "type": "address"
        },
        {
          "indexed": false,
          "internalType": "bool",
          "name": "approved",
          "type": "bool"
        }
      ],
      "name": "ApprovalForAll",
      "type": "event"
    },
    {
      "anonymous": false,
      "inputs": [
        {
          "indexed": true,
          "internalType": "address",
          "name": "contractAddress",
          "type": "address"
        },
        {
          "indexed": false,
          "internalType": "bool",
          "name": "authorized",
          "type": "bool"
        }
      ],
      "name": "ContractAuthorized",
      "type": "event"
    },
    {
      "anonymous": false,
      "inputs": [
        {
          "indexed": false,
          "internalType": "uint256",
          "name": "oldSupply",
          "type": "uint256"
        },
        {
          "indexed": false,
          "internalType": "uint256",
          "name": "newSupply",
          "type": "uint256"
        }
      ],
      "name": "MaxSupplyUpdated",
      "type": "event"
    },
    {
      "anonymous": false,
      "inputs": [
        {
          "indexed": false,
          "internalType": "uint256",
          "name": "oldPrice",
          "type": "uint256"
        },
        {
          "indexed": false,
          "internalType": "uint256",
          "name": "newPrice",
          "type": "uint256"
        }
      ],
      "name": "MintPriceUpdated",
      "type": "event"
    },
    {
      "anonymous": false,
      "inputs": [
        {
          "indexed": true,
          "internalType": "address",
          "name": "previousOwner",
          "type": "address"
        },
        {
          "indexed": true,
          "internalType": "address",
          "name": "newOwner",
          "type": "address"
        }
      ],
      "name": "OwnershipTransferred",
      "type": "event"
    },
    {
      "anonymous": false,
      "inputs": [
        {
          "indexed": true,
          "internalType": "uint256",
          "name": "tokenId",
          "type": "uint256"
        },
        {
          "indexed": true,
          "internalType": "address",
          "name": "owner",
          "type": "address"
        },
        {
          "components": [
            {
              "internalType": "uint16",
              "name": "hashRate",
              "type": "uint16"
            },
            {
              "internalType": "uint8",
              "name": "algorithm",
              "type": "uint8"
            },
            {
              "internalType": "uint8",
              "name": "efficiency",
              "type": "uint8"
            },
            {
              "internalType": "uint16",
              "name": "wattConsumption",
              "type": "uint16"
            },
            {
              "internalType": "uint8",
              "name": "rarity",
              "type": "uint8"
            },
            {
              "internalType": "uint8",
              "name": "cooling",
              "type": "uint8"
            },
            {
              "internalType": "uint8",
              "name": "durability",
              "type": "uint8"
            }
          ],
          "indexed": false,
          "internalType": "struct MiningRigNFT.RigTraits",
          "name": "traits",
          "type": "tuple"
        }
      ],
      "name": "RigMinted",
      "type": "event"
    },
    {
      "anonymous": false,
      "inputs": [
        {
          "indexed": true,
          "internalType": "address",
          "name": "from",
          "type": "address"
        },
        {
          "indexed": true,
          "internalType": "address",
          "name": "to",
          "type": "address"
        },
        {
          "indexed": true,
          "internalType": "uint256",
          "name": "tokenId",
          "type": "uint256"
        }
      ],
      "name": "Transfer",
      "type": "event"
    },
    {
      "inputs": [
        {
          "internalType": "address",
          "name": "to",
          "type": "address"
        },
        {
          "internalType": "uint256",
          "name": "tokenId",
          "type": "uint256"
        }
      ],
      "name": "approve",
      "outputs": [],
      "stateMutability": "nonpayable",
      "type": "function"
    },
    {
      "inputs": [
        {
          "internalType": "address",
          "name": "",
          "type": "address"
        }
      ],
      "name": "authorizedContracts",
      "outputs": [
        {
          "internalType": "bool",
          "name": "",
          "type": "bool"
        }
      ],
      "stateMutability": "view",
      "type": "function"
    },
    {
      "inputs": [
        {
          "internalType": "address",
          "name": "owner",
          "type": "address"
        }
      ],
      "name": "balanceOf",
      "outputs": [
        {
          "internalType": "uint256",
          "name": "",
          "type": "uint256"
        }
      ],
      "stateMutability": "view",
      "type": "function"
    },
    {
      "inputs": [
        {
          "internalType": "uint256",
          "name": "tokenId",
          "type": "uint256"
        }
      ],
      "name": "getAlgorithmName",
      "outputs": [
        {
          "internalType": "string",
          "name": "",
          "type": "string"
        }
      ],
      "stateMutability": "view",
      "type": "function"
    },
    {
      "inputs": [
        {
          "internalType": "uint256",
          "name": "tokenId",
          "type": "uint256"
        }
      ],
      "name": "getApproved",
      "outputs": [
        {
          "internalType": "address",
          "name": "",
          "type": "address"
        }
      ],
      "stateMutability": "view",
      "type": "function"
    },
    {
      "inputs": [
        {
          "internalType": "uint256",
          "name": "tokenId",
          "type": "uint256"
        }
      ],
      "name": "getEffectivePower",
      "outputs": [
        {
          "internalType": "uint256",
          "name": "",
          "type": "uint256"
        }
      ],
      "stateMutability": "view",
      "type": "function"
    },
    {
      "inputs": [
        {
          "internalType": "uint256",
          "name": "tokenId",
          "type": "uint256"
        }
      ],
      "name": "getRarityName",
      "outputs": [
        {
          "internalType": "string",
          "name": "",
          "type": "string"
        }
      ],
      "stateMutability": "view",
      "type": "function"
    },
    {
      "inputs": [
        {
          "internalType": "uint256",
          "name": "tokenId",
          "type": "uint256"
        }
      ],
      "name": "getRigTraits",
      "outputs": [
        {
          "components": [
            {
              "internalType": "uint16",
              "name": "hashRate",
              "type": "uint16"
            },
            {
              "internalType": "uint8",
              "name": "algorithm",
              "type": "uint8"
            },
            {
              "internalType": "uint8",
              "name": "efficiency",
              "type": "uint8"
            },
            {
              "internalType": "uint16",
              "name": "wattConsumption",
              "type": "uint16"
            },
            {
              "internalType": "uint8",
              "name": "rarity",
              "type": "uint8"
            },
            {
              "internalType": "uint8",
              "name": "cooling",
              "type": "uint8"
            },
            {
              "internalType": "uint8",
              "name": "durability",
              "type": "uint8"
            }
          ],
          "internalType": "struct MiningRigNFT.RigTraits",
          "name": "",
          "type": "tuple"
        }
      ],
      "stateMutability": "view",
      "type": "function"
    },
    {
      "inputs": [
        {
          "internalType": "uint256",
          "name": "tokenId",
          "type": "uint256"
        }
      ],
      "name": "getStakeWeight",
      "outputs": [
        {
          "internalType": "uint256",
          "name": "",
          "type": "uint256"
        }
      ],
      "stateMutability": "view",
      "type": "function"
    },
    {
      "inputs": [
        {
          "internalType": "address",
          "name": "owner",
          "type": "address"
        }
      ],
      "name": "getTokensByOwner",
      "outputs": [
        {
          "internalType": "uint256[]",
          "name": "",
          "type": "uint256[]"
        }
      ],
      "stateMutability": "view",
      "type": "function"
    },
    {
      "inputs": [
        {
          "internalType": "uint256",
          "name": "tokenId",
          "type": "uint256"
        }
      ],
      "name": "getWattPerHour",
      "outputs": [
        {
          "internalType": "uint256",
          "name": "",
          "type": "uint256"
        }
      ],
      "stateMutability": "view",
      "type": "function"
    },
    {
      "inputs": [
        {
          "internalType": "address",
          "name": "owner",
          "type": "address"
        },
        {
          "internalType": "address",
          "name": "operator",
          "type": "address"
        }
      ],
      "name": "isApprovedForAll",
      "outputs": [
        {
          "internalType": "bool",
          "name": "",
          "type": "bool"
        }
      ],
      "stateMutability": "view",
      "type": "function"
    },
    {
      "inputs": [
        {
          "internalType": "uint256",
          "name": "",
          "type": "uint256"
        }
      ],
      "name": "isMining",
      "outputs": [
        {
          "internalType": "bool",
          "name": "",
          "type": "bool"
        }
      ],
      "stateMutability": "view",
      "type": "function"
    },
    {
      "inputs": [
        {
          "internalType": "uint256",
          "name": "",
          "type": "uint256"
        }
      ],
      "name": "isStaked",
      "outputs": [
        {
          "internalType": "bool",
          "name": "",
          "type": "bool"
        }
      ],
      "stateMutability": "view",
      "type": "function"
    },
    {
      "inputs": [],
      "name": "maxSupply",
      "outputs": [
        {
          "internalType": "uint256",
          "name": "",
          "type": "uint256"
        }
      ],
      "stateMutability": "view",
      "type": "function"
    },
    {
      "inputs": [],
      "name": "mint",
      "outputs": [
        {
          "internalType": "uint256",
          "name": "",
          "type": "uint256"
        }
      ],
      "stateMutability": "payable",
      "type": "function"
    },
    {
      "inputs": [
        {
          "internalType": "uint256",
          "name": "count",
          "type": "uint256"
        }
      ],
      "name": "mintBatch",
      "outputs": [
        {
          "internalType": "uint256[]",
          "name": "",
          "type": "uint256[]"
        }
      ],
      "stateMutability": "payable",
      "type": "function"
    },
    {
      "inputs": [],
      "name": "mintPrice",
      "outputs": [
        {
          "internalType": "uint256",
          "name": "",
          "type": "uint256"
        }
      ],
      "stateMutability": "view",
      "type": "function"
    },
    {
      "inputs": [],
      "name": "name",
      "outputs": [
        {
          "internalType": "string",
          "name": "",
          "type": "string"
        }
      ],
      "stateMutability": "view",
      "type": "function"
    },
    {
      "inputs": [],
      "name": "nextTokenId",
      "outputs": [
        {
          "internalType": "uint256",
          "name": "",
          "type": "uint256"
        }
      ],
      "stateMutability": "view",
      "type": "function"
    },
    {
      "inputs": [],
      "name": "owner",
      "outputs": [
        {
          "internalType": "address",
          "name": "",
          "type": "address"
        }
      ],
      "stateMutability": "view",
      "type": "function"
    },
    {
      "inputs": [
        {
          "internalType": "address",
          "name": "to",
          "type": "address"
        }
      ],
      "name": "ownerMint",
      "outputs": [
        {
          "internalType": "uint256",
          "name": "",
          "type": "uint256"
        }
      ],
      "stateMutability": "nonpayable",
      "type": "function"
    },
    {
      "inputs": [
        {
          "internalType": "uint256",
          "name": "tokenId",
          "type": "uint256"
        }
      ],
      "name": "ownerOf",
      "outputs": [
        {
          "internalType": "address",
          "name": "",
          "type": "address"
        }
      ],
      "stateMutability": "view",
      "type": "function"
    },
    {
      "inputs": [],
      "name": "renounceOwnership",
      "outputs": [],
      "stateMutability": "nonpayable",
      "type": "function"
    },
    {
      "inputs": [
        {
          "internalType": "uint256",
          "name": "",
          "type": "uint256"
        }
      ],
      "name": "rigTraits",
      "outputs": [
        {
          "internalType": "uint16",
          "name": "hashRate",
          "type": "uint16"
        },
        {
          "internalType": "uint8",
          "name": "algorithm",
          "type": "uint8"
        },
        {
          "internalType": "uint8",
          "name": "efficiency",
          "type": "uint8"
        },
        {
          "internalType": "uint16",
          "name": "wattConsumption",
          "type": "uint16"
        },
        {
          "internalType": "uint8",
          "name": "rarity",
          "type": "uint8"
        },
        {
          "internalType": "uint8",
          "name": "cooling",
          "type": "uint8"
        },
        {
          "internalType": "uint8",
          "name": "durability",
          "type": "uint8"
        }
      ],
      "stateMutability": "view",
      "type": "function"
    },
    {
      "inputs": [
        {
          "internalType": "address",
          "name": "from",
          "type": "address"
        },
        {
          "internalType": "address",
          "name": "to",
          "type": "address"
        },
        {
          "internalType": "uint256",
          "name": "tokenId",
          "type": "uint256"
        }
      ],
      "name": "safeTransferFrom",
      "outputs": [],
      "stateMutability": "nonpayable",
      "type": "function"
    },
    {
      "inputs": [
        {
          "internalType": "address",
          "name": "from",
          "type": "address"
        },
        {
          "internalType": "address",
          "name": "to",
          "type": "address"
        },
        {
          "internalType": "uint256",
          "name": "tokenId",
          "type": "uint256"
        },
        {
          "internalType": "bytes",
          "name": "data",
          "type": "bytes"
        }
      ],
      "name": "safeTransferFrom",
      "outputs": [],
      "stateMutability": "nonpayable",
      "type": "function"
    },
    {
      "inputs": [
        {
          "internalType": "address",
          "name": "operator",
          "type": "address"
        },
        {
          "internalType": "bool",
          "name": "approved",
          "type": "bool"
        }
      ],
      "name": "setApprovalForAll",
      "outputs": [],
      "stateMutability": "nonpayable",
      "type": "function"
    },
    {
      "inputs": [
        {
          "internalType": "address",
          "name": "contractAddress",
          "type": "address"
        },
        {
          "internalType": "bool",
          "name": "authorized",
          "type": "bool"
        }
      ],
      "name": "setAuthorizedContract",
      "outputs": [],
      "stateMutability": "nonpayable",
      "type": "function"
    },
    {
      "inputs": [
        {
          "internalType": "string",
          "name": "baseURI",
          "type": "string"
        }
      ],
      "name": "setBaseURI",
      "outputs": [],
      "stateMutability": "nonpayable",
      "type": "function"
    },
    {
      "inputs": [
        {
          "internalType": "uint256",
          "name": "newMaxSupply",
          "type": "uint256"
        }
      ],
      "name": "setMaxSupply",
      "outputs": [],
      "stateMutability": "nonpayable",
      "type": "function"
    },
    {
      "inputs": [
        {
          "internalType": "uint256",
          "name": "tokenId",
          "type": "uint256"
        },
        {
          "internalType": "bool",
          "name": "mining",
          "type": "bool"
        }
      ],
      "name": "setMining",
      "outputs": [],
      "stateMutability": "nonpayable",
      "type": "function"
    },
    {
      "inputs": [
        {
          "internalType": "uint256",
          "name": "newPrice",
          "type": "uint256"
        }
      ],
      "name": "setMintPrice",
      "outputs": [],
      "stateMutability": "nonpayable",
      "type": "function"
    },
    {
      "inputs": [
        {
          "internalType": "uint256",
          "name": "tokenId",
          "type": "uint256"
        },
        {
          "internalType": "bool",
          "name": "staked",
          "type": "bool"
        }
      ],
      "name": "setStaked",
      "outputs": [],
      "stateMutability": "nonpayable",
      "type": "function"
    },
    {
      "inputs": [
        {
          "internalType": "bytes4",
          "name": "interfaceId",
          "type": "bytes4"
        }
      ],
      "name": "supportsInterface",
      "outputs": [
        {
          "internalType": "bool",
          "name": "",
          "type": "bool"
        }
      ],
      "stateMutability": "view",
      "type": "function"
    },
    {
      "inputs": [],
      "name": "symbol",
      "outputs": [
        {
          "internalType": "string",
          "name": "",
          "type": "string"
        }
      ],
      "stateMutability": "view",
      "type": "function"
    },
    {
      "inputs": [
        {
          "internalType": "uint256",
          "name": "index",
          "type": "uint256"
        }
      ],
      "name": "tokenByIndex",
      "outputs": [
        {
          "internalType": "uint256",
          "name": "",
          "type": "uint256"
        }
      ],
      "stateMutability": "view",
      "type": "function"
    },
    {
      "inputs": [
        {
          "internalType": "address",
          "name": "owner",
          "type": "address"
        },
        {
          "internalType": "uint256",
          "name": "index",
          "type": "uint256"
        }
      ],
      "name": "tokenOfOwnerByIndex",
      "outputs": [
        {
          "internalType": "uint256",
          "name": "",
          "type": "uint256"
        }
      ],
      "stateMutability": "view",
      "type": "function"
    },
    {
      "inputs": [
        {
          "internalType": "uint256",
          "name": "tokenId",
          "type": "uint256"
        }
      ],
      "name": "tokenURI",
      "outputs": [
        {
          "internalType": "string",
          "name": "",
          "type": "string"
        }
      ],
      "stateMutability": "view",
      "type": "function"
    },
    {
      "inputs": [],
      "name": "totalSupply",
      "outputs": [
        {
          "internalType": "uint256",
          "name": "",
          "type": "uint256"
        }
      ],
      "stateMutability": "view",
      "type": "function"
    },
    {
      "inputs": [
        {
          "internalType": "address",
          "name": "from",
          "type": "address"
        },
        {
          "internalType": "address",
          "name": "to",
          "type": "address"
        },
        {
          "internalType": "uint256",
          "name": "tokenId",
          "type": "uint256"
        }
      ],
      "name": "transferFrom",
      "outputs": [],
      "stateMutability": "nonpayable",
      "type": "function"
    },
    {
      "inputs": [
        {
          "internalType": "address",
          "name": "newOwner",
          "type": "address"
        }
      ],
      "name": "transferOwnership",
      "outputs": [],
      "stateMutability": "nonpayable",
      "type": "function"
    },
    {
      "inputs": [],
      "name": "withdraw",
      "outputs": [],
      "stateMutability": "nonpayable",
      "type": "function"
    }
  ],
  "bytecode": "0x608034620003b6576040906001600160401b039080830182811182821017620003a0578352601081526020916f5741545478204d696e696e672052696760801b8383015283519084820182811082821117620003a0578552600491828152635752494760e01b858201528351908282116200038b576000958654926001968785811c9516801562000380575b838610146200036d578190601f958681116200031a575b508390868311600114620002b6578a92620002aa575b5050600019600383901b1c191690871b1787555b8151938411620002975785548681811c911680156200028c575b828210146200027957908184869594931162000222575b5080928411600114620001ba57508692620001ae575b5050600019600383901b1c191690831b1782555b3315620001975750600a8054336001600160a01b0319821681179092559351936001600160a01b03167f8be0079c531659141344cd1fd0a4f28419497f9722a3daafe3b4186f6b6457e08480a380600b55600c5567016345785d8a0000600d55600e55612dcf9081620003bc8239f35b8351631e4fbdf760e01b8152908101839052602490fd5b01519050388062000113565b9190869450601f1984168589528389209389905b828210620002085750508411620001ee575b505050811b01825562000127565b015160001960f88460031b161c19169055388080620001e0565b8484015186558997909501949384019390810190620001ce565b90919293508688528188208480870160051c8201928488106200026f575b9187968a92969594930160051c01915b82811062000260575050620000fd565b8a815587965089910162000250565b9250819262000240565b634e487b7160e01b885260228652602488fd5b90607f1690620000e6565b634e487b7160e01b875260418552602487fd5b015190503880620000b8565b8a8052848b208a94509190601f1984168c5b87828210620003035750508411620002e9575b505050811b018755620000cc565b015160001960f88460031b161c19169055388080620002db565b8385015186558d97909501949384019301620002c8565b909150898052838a208680850160051c82019286861062000363575b918b91869594930160051c01915b82811062000354575050620000a2565b8c81558594508b910162000344565b9250819262000336565b634e487b7160e01b895260228752602489fd5b94607f16946200008b565b604184634e487b7160e01b6000525260246000fd5b634e487b7160e01b600052604160045260246000fd5b600080fdfe6080604081815260048036101561001557600080fd5b600092833560e01c90816301ffc9a71461196e5750806306fdde03146118bd578063081812fc14611882578063095ea7b3146117a65780631249c58b1461164557806318160ddd146116265780631e3bcc8e146114f157806320e409b41461129557806323b872dd1461127d578063291dd4b3146111de5780632f745c59146111b557806330ce4a60146111555780633ccfd60b146110da57806340398d671461107857806342842e0e146110495780634f6ccce714610ff55780635390271514610f6757806355f804b314610dc35780636352211e14610d925780636817c76c14610d735780636f8b44b014610cad57806370a0823114610c80578063715018a614610c235780637445f3af14610b9557806375794a3c14610b765780637c3790a214610aed5780638da5cb5b14610ac457806395d89b41146109e85780639a403ad2146109b8578063a22cb46514610915578063b88d4fde146108a2578063baa51f8614610876578063c02456be14610809578063c87b56dd14610550578063d50463d01461047e578063d5abeb011461045f578063d5b9221b14610421578063e985e9c5146103d3578063ec7bf955146103a7578063f2fa739214610328578063f2fde38b14610299578063f4a0a528146102465763fe130072146101fc57600080fd5b346102425760203660031901126102425760ff8261023e9461022b93358152600f602052205460301c16612c30565b9051918291602083526020830190611a17565b0390f35b8280fd5b5034610242576020366003190112610242577f2e1c9e000c6e8dda4d03536adb13b7cb6034ccff90d17f01de381e4d5097b525903591610284612957565b600d548151908152836020820152a1600d5580f35b5034610242576020366003190112610242576102b3611a3c565b906102bc612957565b6001600160a01b03918216928315610312575050600a54826bffffffffffffffffffffffff60a01b821617600a55167f8be0079c531659141344cd1fd0a4f28419497f9722a3daafe3b4186f6b6457e08380a380f35b51631e4fbdf760e01b8152908101849052602490fd5b5050346103a357806003193601126103a3577f3213ab8ec2ed122402f038736b41878b69ae9f61f49a7edd0666bce891d29fc96020610365611a3c565b61036d611ade565b90610376612957565b6001600160a01b031680865260128352848620805460ff191660ff8415151617905593519015158152a280f35b5080fd5b5034610242576020366003190112610242578160209360ff923581526011855220541690519015158152f35b5050346103a357806003193601126103a35760ff816020936103f3611a3c565b6103fb611a57565b6001600160a01b0391821683526005875283832091168252855220549151911615158152f35b5050346103a35760203660031901126103a35760209160ff9082906001600160a01b0361044c611a3c565b1681526012855220541690519015158152f35b5050346103a357816003193601126103a357602090600e549051908152f35b509190346103a35760203660031901126103a35782358252600f602052808220906105048151926104ae84611aed565b549261ffff908185169081815260ff8660101c16602082015260c060ff808860181c169485888501528860201c1697886060850152818160301c166080850152818160381c1660a0850152871c16910152611d31565b9260648402938085046064149015171561053d57821561052a5750602093505191048152f35b634e487b7160e01b815260128552602490fd5b634e487b7160e01b815260118552602490fd5b508290346103a35760209182600319360112610806578290848335610574816122cb565b5081519483916013548761058782611c41565b94858252888201956001938a6001821691826000146107e9575050600114610790575b50906105b7910389611b73565b8751156107715781809387917a184f03e93ff9f4daa797ed6e38ed64bf6a1f0100000000000000009081811015610764575b5050886d04ee2d6d415b85acef810000000080871015610755575b5050662386f26fc1000080861015610746575b506305f5e10080861015610737575b506127108086101561072b575b5050606484101561071d575b602190600a80951015610715575b90816106766001859695940161066e61066582611b95565b9a519a8b611b73565b808a52611b95565b888b019990601f1901368b3750870101905b6106df575b50505050936106ce926106b394926106c261023e978a51978895518092888801906119f4565b840191518093868401906119f4565b01038084520182611b73565b925b51928284938452830190611a17565b600019019083906f181899199a1a9b1b9c1cb0b131b232b360811b8282061a83530491821561071057919082610688565b61068d565b60010161064d565b60649093049260020161063f565b90940493018b80610633565b6008919295049401908c610626565b6010919295049401908c610617565b9091929504940190888d610604565b0494508691508c806105e9565b5050505090915061023e9250519061078882611b1f565b8152926106d0565b601389528891507f66de8ffda797e3de9c05e8fc57b3bf0ec28a930d40b0d285d93c06501cf6a0905b8183106107ce575050810188016105b76105aa565b8054838d018c01528c9a8e99508c94509092019184016107b9565b60ff1916895291151560051b840190910191506105b790506105aa565b80fd5b5034610242576020366003190112610242578160e09360ff92358152600f602052205461ffff928051938083168552838360101c166020860152838360181c16828601528260201c166060850152828260301c166080850152828260381c1660a08501521c1660c0820152f35b5034610242576020366003190112610242578160209360ff923581526010855220541690519015158152f35b8382346103a35760803660031901126103a3576108bd611a3c565b6108c5611a57565b6044359060643567ffffffffffffffff811161091157366023820112156109115761090e948160246108fc93369301359101611bb1565b92610908838383611dc5565b33612ae2565b80f35b8580fd5b50903461024257806003193601126102425761092f611a3c565b90610938611ade565b6001600160a01b039092169283156109a357503384526005602052808420838552602052610974828286209060ff801983541691151516179055565b5190151581527f17307eab39ab6107e8899845ad3d59bd9653f200f220920489ca2b5937696c3160203392a380f35b836024925191630b61174360e31b8352820152fd5b50346102425760203660031901126102425760ff8261023e9461022b93358152600f602052205460101c166129a6565b828434610806578060031936011261080657815191828260019360015494610a0f86611c41565b9182855260209687600182169182600014610a9d575050600114610a41575b50505061023e92916106d0910385611b73565b9190869350600183527fb10e2d527612073b26eecdfd717e6a320cf44b4afac2b0732d9fcbe2b7fa0cf65b828410610a8557505050820101816106d061023e610a2e565b8054848a018601528895508794909301928101610a6c565b60ff19168782015293151560051b860190930193508492506106d0915061023e9050610a2e565b5050346103a357816003193601126103a357600a5490516001600160a01b039091168152602090f35b50346102425760203660031901126102425761023e928291610b0d612293565b50358152600f602052209060ff815192610b2684611aed565b5461ffff8082168552828260101c166020860152828260181c16848601528160201c166060850152818160301c166080850152818160381c1660a0850152821c1660c08301525191829182611be8565b5050346103a357816003193601126103a357602090600c549051908152f35b50903461024257806003193601126102425761090e913590610bb5611ade565b91338552601260205260ff82862054168015610c0f575b610bd5906121da565b808552600260205281852054610bf5906001600160a01b03161515612217565b8452601160205283209060ff801983541691151516179055565b50600a546001600160a01b03163314610bcc565b8334610806578060031936011261080657610c3c612957565b600a80546001600160a01b0319811690915581906001600160a01b03167f8be0079c531659141344cd1fd0a4f28419497f9722a3daafe3b4186f6b6457e08280a380f35b5050346103a35760203660031901126103a357602090610ca6610ca1611a3c565b61225a565b9051908152f35b50903461024257602036600319011261024257813591610ccb612957565b82158015610d48575b15610d1157507f44ecfc706d63e347851cfd40acfa6cf2e3a41faa3e8b460210c03938e84a91ad90600e548151908152836020820152a1600e5580f35b6020606492519162461bcd60e51b8352820152601260248201527110995b1bddc81b5a5b9d19590818dbdd5b9d60721b6044820152fd5b50600c546000198101908111610d6057831015610cd4565b634e487b7160e01b855260118252602485fd5b5050346103a357816003193601126103a357602090600d549051908152f35b5091346108065760203660031901126108065750610db2602092356122cb565b90516001600160a01b039091168152f35b508234610806576020806003193601126103a35767ffffffffffffffff908335828111610f635736602382011215610f6357610e089036906024818801359101611bb1565b93610e11612957565b8451928311610f505750610e26601354611c41565b601f8111610eed575b50602090601f8311600114610e6c57508293829392610e61575b50508160011b916000199060031b1c19161760135580f35b015190508380610e49565b60138452601f198316947f66de8ffda797e3de9c05e8fc57b3bf0ec28a930d40b0d285d93c06501cf6a090929185905b878210610ed5575050836001959610610ebc575b505050811b0160135580f35b015160001960f88460031b161c19169055838080610eb0565b80600185968294968601518155019501930190610e9c565b601384527f66de8ffda797e3de9c05e8fc57b3bf0ec28a930d40b0d285d93c06501cf6a090601f840160051c81019160208510610f46575b601f0160051c01905b818110610f3b5750610e2f565b848155600101610f2e565b9091508190610f25565b634e487b7160e01b845260419052602483fd5b8380fd5b50903461024257806003193601126102425761090e913590610f87611ade565b91338552601260205260ff82862054168015610fe1575b610fa7906121da565b808552600260205281852054610fc7906001600160a01b03161515612217565b8452601060205283209060ff801983541691151516179055565b50600a546001600160a01b03163314610f9e565b50346102425760203660031901126102425780359260085484101561102e57602083611020866121a3565b91905490519160031b1c8152f35b6044939192519263295f44f760e21b84528301526024820152fd5b5050346103a35761090e9061105d36611aa9565b9192519261106a84611b1f565b858452610908838383611dc5565b82843461080657602036600319011261080657611093611a3c565b9161109d8361225a565b6110a681611d69565b925b8181106110bc5782518061023e8682611a6d565b806110c960019287612143565b6110d38287611d9b565b52016110a8565b50346102425782600319360112610242576110f3612957565b479081156111255750600a5483918291829182916001600160a01b031682f11561111b575080f35b51903d90823e3d90fd5b606490602084519162461bcd60e51b8352820152600a6024820152694e6f2062616c616e636560b01b6044820152fd5b509190346103a35760203660031901126103a35782358252600f60205261ffff8183205460201c1691670de0b6b3a7640000928381029381850414901517156111a2576020838351908152f35b634e487b7160e01b815260118452602490fd5b5050346103a357806003193601126103a357602090610ca66111d5611a3c565b60243590612143565b50346102425760203660031901126102425761127582602094606493358152600f86522061127084519161121183611aed565b549161ffff6112698185169485845260ff8160101c168a85015260ff8160181c1693848a82015283828c1c16606082015260c060ff808460301c1693846080850152818160381c1660a08501528c1c16910152612d4e565b1692611d31565b611d31565b049051908152f35b83346108065761090e61128f36611aa9565b91611dc5565b509060209182600319360112610f63578035906112b0612306565b811515806114e6575b156114b3576112d56112cd83600d54611d31565b341015611c7b565b600e54801590811561147e575b501561144657506112f281611d69565b92845b82811061135c57505061130a90600d54611d31565b803411611324575b6001600b5581518061023e8582611a6d565b838080611332819434611d24565b818115611353575b3390f1156113485782611312565b51913d9150823e3d90fd5b506108fc61133a565b600190600c80549061136d82611cff565b90556113793382612329565b90808952600f855286892061ffff8351168882549162ff00008987015160101b1663ff0000008388015160181b1665ffff0000000060608901518c1b169160ff60301b60808a015160301b169360ff60401b60ff60381b60a08c015160381b169660c08c0151901b169668ffffffffffffffffff19161717171717171790556114028133612556565b8061140d848a611d9b565b527f02369bfd1165e51fc6d270be00b45e238853b2eebc335f2cca4e0737f3e1e60687518061143d339582611be8565b0390a3016112f5565b825162461bcd60e51b8152908101849052601260248201527145786365656473206d617820737570706c7960701b6044820152606490fd5b905061148c83600c54611d44565b60001981019081116114a0571115386112e2565b634e487b7160e01b875260118352602487fd5b825162461bcd60e51b8152908101849052600d60248201526c125b9d985b1a590818dbdd5b9d609a1b6044820152606490fd5b50600a8211156112b9565b5050346103a35760203660031901126103a35761161090602092611513611a3c565b61151b612957565b611531600e548015908115611619575b50611cbe565b7f02369bfd1165e51fc6d270be00b45e238853b2eebc335f2cca4e0737f3e1e606600c5494859261156184611cff565b600c558561156f8286612329565b95858152600f8a522061ffff865116868883549262ff00008d84015160101b1663ff0000008385015160181b169065ffff00000000606086015160201b169260ff60401b60ff60301b608088015160301b169560c060ff60381b60a08a015160381b16980151901b169668ffffffffffffffffff19161717171717171790556115f88482612556565b85516001600160a01b03909116949091829182611be8565b0390a351908152f35b9050600c5411153861152b565b5050346103a357816003193601126103a3576020906008549051908152f35b5050816003193601126103a35761165a612306565b611668600d54341015611c7b565b61167d600e5480159081156116195750611cbe565b600c549061168a82611cff565b600c556116973383612329565b828452600f60205281842061ffff82511681549062ff0000602085015160101b1663ff0000008686015160181b1665ffff00000000606087015160201b169060ff60301b608088015160301b169260ff60381b60a089015160381b169460ff60401b60c08a01518b1b169668ffffffffffffffffff19161717171717171790556117218333612556565b600d5480341161176f575b5060209350827f02369bfd1165e51fc6d270be00b45e238853b2eebc335f2cca4e0737f3e1e606835180611761339582611be8565b0390a36001600b5551908152f35b84808061177d819434611d24565b81811561179d575b3390f115611793578361172c565b81513d85823e3d90fd5b506108fc611785565b5090346102425780600319360112610242576117c0611a3c565b916024356117cd816122cb565b3315158061186f575b80611846575b611830576001600160a01b039485169482918691167f8c5be1e5ebec7d5bd14f71427d1e84f3dd0314c0f7b2291e5b200ac8c7c3b9258880a48452602052822080546001600160a01b031916909117905580f35b835163a9fbf51f60e01b81523381850152602490fd5b506001600160a01b03811686526005602090815284872033885290528386205460ff16156117dc565b506001600160a01b0381163314156117d6565b5034610242576020366003190112610242579182602093356118a3816122cb565b50825283528190205490516001600160a01b039091168152f35b828434610806578060031936011261080657815191828283546118df81611c41565b9081845260209560019187600182169182600014610a9d5750506001146119135750505061023e92916106d0910385611b73565b91908693508280527f290decd9548b62a8d60345a988386fc84ba6bc95484008f6362f93160ef3e5635b82841061195657505050820101816106d061023e610a2e565b8054848a01860152889550879490930192810161193d565b92505034610242576020366003190112610242573563ffffffff60e01b8116809103610242576020925063780e9d6360e01b81149081156119b1575b5015158152f35b6380ac58cd60e01b8114915081156119e3575b81156119d2575b50386119aa565b6301ffc9a760e01b149050386119cb565b635b5e139f60e01b811491506119c4565b60005b838110611a075750506000910152565b81810151838201526020016119f7565b90602091611a30815180928185528580860191016119f4565b601f01601f1916010190565b600435906001600160a01b0382168203611a5257565b600080fd5b602435906001600160a01b0382168203611a5257565b602090602060408183019282815285518094520193019160005b828110611a95575050505090565b835185529381019392810192600101611a87565b6060906003190112611a52576001600160a01b03906004358281168103611a5257916024359081168103611a52579060443590565b602435908115158203611a5257565b60e0810190811067ffffffffffffffff821117611b0957604052565b634e487b7160e01b600052604160045260246000fd5b6020810190811067ffffffffffffffff821117611b0957604052565b6060810190811067ffffffffffffffff821117611b0957604052565b6040810190811067ffffffffffffffff821117611b0957604052565b90601f8019910116810190811067ffffffffffffffff821117611b0957604052565b67ffffffffffffffff8111611b0957601f01601f191660200190565b929192611bbd82611b95565b91611bcb6040519384611b73565b829481845281830111611a52578281602093846000960137010152565b91909160c060ff8160e084019561ffff80825116865283602083015116602087015283604083015116604087015260608201511660608601528260808201511660808601528260a08201511660a0860152015116910152565b90600182811c92168015611c71575b6020831014611c5b57565b634e487b7160e01b600052602260045260246000fd5b91607f1691611c50565b15611c8257565b60405162461bcd60e51b8152602060048201526014602482015273125b9cdd59999a58da595b9d081c185e5b595b9d60621b6044820152606490fd5b15611cc557565b60405162461bcd60e51b815260206004820152601260248201527113585e081cdd5c1c1b1e481c995858da195960721b6044820152606490fd5b6000198114611d0e5760010190565b634e487b7160e01b600052601160045260246000fd5b91908203918211611d0e57565b81810292918115918404141715611d0e57565b91908201809211611d0e57565b67ffffffffffffffff8111611b095760051b60200190565b90611d7382611d51565b611d806040519182611b73565b8281528092611d91601f1991611d51565b0190602036910137565b8051821015611daf5760209160051b010190565b634e487b7160e01b600052603260045260246000fd5b6001600160a01b038281169391841561212a5760009483865260209560028752604096848883205416612082575b858252600281528488832054169633151580611ff4575b5087158015611fc1575b84845260038352898420805460010190558784526002835289842080546001600160a01b0319168617905587858a7fddf252ad1be2c89b69c2b068fc378daa952ba7f163c4a11628f55a4df523b3ef8780a415611f555760085487845260098352808a852055600160401b811015611f415787611e9a826001611eb394016008556121a3565b90919082549060031b91821b91600019901b1916179055565b838803611eef575b505050501692838303611ece5750505050565b6064945051926364283d7b60e01b8452600484015260248301526044820152fd5b611ef89061225a565b600019810193908411611f2d5782916007918a9452600681528383208584528152878484205587835252205538808080611ebb565b634e487b7160e01b83526011600452602483fd5b634e487b7160e01b84526041600452602484fd5b878414611eb357611f658861225a565b878452600783528984205490898552600684528a852091818103611f9f575b5088855260078452848b812055845282528289812055611eb3565b8186528285528b862054818752808d8820558652600785528b86205538611f84565b600088815260046020526040902080546001600160a01b0319169055888452600383528984208054600019019055611e14565b80612041575b156120055738611e0a565b888789612022576024915190637e27328960e01b82526004820152fd5b905163177e802f60e01b81523360048201526024810191909152604490fd5b503388148015612066575b80611ffa57508683526004825233868a8520541614611ffa565b5087835260058252888320338452825260ff898420541661204c565b6010815260ff88832054166120e7578582526011815260ff888320541615611df35760649088519062461bcd60e51b82526004820152601a60248201527f43616e6e6f74207472616e73666572206d696e696e67207269670000000000006044820152fd5b60649088519062461bcd60e51b82526004820152601a60248201527f43616e6e6f74207472616e73666572207374616b6564207269670000000000006044820152fd5b604051633250574960e11b815260006004820152602490fd5b61214c8161225a565b8210156121785760018060a01b0316600052600660205260406000209060005260205260406000205490565b60405163295f44f760e21b81526001600160a01b039190911660048201526024810191909152604490fd5b600854811015611daf5760086000527ff3f7a9fe364faab93b216da50a3214154f22a0a2b415b23a84c8169e8b636ee30190600090565b156121e157565b60405162461bcd60e51b815260206004820152600e60248201526d139bdd08185d5d1a1bdc9a5e995960921b6044820152606490fd5b1561221e57565b60405162461bcd60e51b8152602060048201526014602482015273151bdad95b88191bd95cc81b9bdd08195e1a5cdd60621b6044820152606490fd5b6001600160a01b0316801561227a57600052600360205260406000205490565b6040516322718ad960e21b815260006004820152602490fd5b604051906122a082611aed565b8160c06000918281528260208201528260408201528260608201528260808201528260a08201520152565b6000818152600260205260409020546001600160a01b03169081156122ee575090565b60249060405190637e27328960e01b82526004820152fd5b6002600b5414612317576002600b55565b604051633ee5aeb560e01b8152600490fd5b612331612293565b50604080519060209384830193428552448385015260608401526bffffffffffffffffffffffff199060601b1660808301526074825260a082019282841067ffffffffffffffff851117611b095783825282519020906113886123976103e88406612d0f565b936123a185612d4e565b95600160e060c084019387855201528381526123bc81611b3b565b5190200691606494858401809411611d0e57603c8351888101908482526003868201528581526123eb81611b3b565b519020069160148301809311611d0e57603284518981019083825260068782015286815261241881611b3b565b5190200693601e8501809511611d0e578896609661247361244a9860ff60078d9861ffff998a8092169d8e8096611d31565b04169c87519081019089825260028982015288815261246881611b3b565b519020061697611d31565b048981101561254f575b6107d083518c81019086825260048682015285815261249b81611b3b565b51902006936101f48501809511611d0e5760079084518d81019182526005868201528581526124c981611b3b565b519020169560018701809711611d0e5761251a9b60ff9b60966125048e9c6124f58e809916809d611d44565b600a811015612546579c611d31565b04908082101561253e57509a5b85519d8e611aed565b8d528c0152169089015216606087015260808601521660a08401521660c082015290565b90509a612511565b50600a9c611d31565b508861247d565b6040805161256381611b1f565b6000808252936001600160a01b0384811694909290851561293f57828752866020946002865280878320541661288d575b8482526002865286822054168781158682847fddf252ad1be2c89b69c2b068fc378daa952ba7f163c4a11628f55a4df523b3ef8415978861285a575b83815260038d528d81208054600101905584815260028d528d812080546001600160a01b0319168517905580a4156127ec5750600854858a526009875280888b2055600160401b8110156127d8579061263486611e9a8460018d96016008556121a3565b0361278b575b612773573b61264c575b505050505050565b8261268a918596979894955180938192630a85bd0160e11b968784523360048501528c60248501526044840152608060648401526084830190611a17565b03818a8a5af187918161272f575b506126f8575050503d6000146126ef573d6126b281611b95565b906126bf84519283611b73565b81528094823d92013e5b835193846126e9578251633250574960e11b815260048101859052602490fd5b84925001fd5b606093506126c9565b919550915063ffffffff60e01b1603612718575050388080808080612644565b602492505190633250574960e11b82526004820152fd5b9091508481813d831161276c575b6127478183611b73565b8101031261276857516001600160e01b031981168103612768579038612698565b8780fd5b503d61273d565b84516339e3563760e11b815260048101889052602490fd5b6127948261225a565b60001981019081116127c45787895260068652868920818a52865284878a2055848952600786528689205561263a565b634e487b7160e01b89526011600452602489fd5b634e487b7160e01b8a52604160045260248afd5b90808214612634576127fd8161225a565b868b5260078852888b205490828c5260068952898c2091818103612837575b50878c52600789528b8a8120558b5287528988812055612634565b818d52828a528a8d2054818e528b8e208190558d5260078a528a8d20553861281c565b600085815260046020526040902080546001600160a01b031916905582815260038d528d812080546000190190556125d0565b90506010855260ff86892054166128fb578388526011855260ff86892054166128b7578790612594565b855162461bcd60e51b815260048101869052601a60248201527f43616e6e6f74207472616e73666572206d696e696e67207269670000000000006044820152606490fd5b855162461bcd60e51b815260048101869052601a60248201527f43616e6e6f74207472616e73666572207374616b6564207269670000000000006044820152606490fd5b8451633250574960e11b815260048101889052602490fd5b600a546001600160a01b0316330361296b57565b60405163118cdaa760e01b8152336004820152602490fd5b6040519061299082611b57565b60078252662ab735b737bbb760c91b6020830152565b60ff168015612abe5760018114612a9b5760028114612a785760038114612a545760048114612a2f5760058114612a0f576006146129e9576129e6612983565b90565b6040516129f581611b57565b600a8152690d690cac2ecf290c2e6d60b31b602082015290565b50604051612a1c81611b57565b600381526258313160e81b602082015290565b50604051612a3c81611b57565b600881526708ae2ead2d0c2e6d60c31b602082015290565b50604051612a6181611b57565b60078152660a4c2dcc8dedab60cb1b602082015290565b50604051612a8581611b57565b600681526508ae8d0c2e6d60d31b602082015290565b50604051612aa881611b57565b600681526514d8dc9e5c1d60d21b602082015290565b50604051612acb81611b57565b600781526614d2104c8d4d9160ca1b602082015290565b90939192833b612af4575b5050505050565b604051630a85bd0160e11b8082526001600160a01b039384166004830152958316602482015260448101919091526080606482015294921692602092918590612b41906084830190611a17565b039483816000978189895af1869181612bec575b50612bb6575050503d600014612bad573d612b6f81611b95565b90612b7d6040519283611b73565b81528093823d92013e5b82519283612ba857604051633250574960e11b815260048101849052602490fd5b019050fd5b60609250612b87565b919450915063ffffffff60e01b1603612bd457503880808080612aed565b60249060405190633250574960e11b82526004820152fd5b9091508481813d8311612c29575b612c048183611b73565b81010312612c2557516001600160e01b031981168103612c25579038612b55565b8680fd5b503d612bfa565b60ff168015612cec5760018114612cc75760028114612ca65760038114612c8557600414612c60576129e6612983565b604051612c6c81611b57565b60098152684c6567656e6461727960b81b602082015290565b50604051612c9281611b57565b60048152634570696360e01b602082015290565b50604051612cb381611b57565b60048152635261726560e01b602082015290565b50604051612cd481611b57565b60088152672ab731b7b6b6b7b760c11b602082015290565b50604051612cf981611b57565b600681526521b7b6b6b7b760d11b602082015290565b6101f48110612d48576103208110612d42576103b68110612d3c576103e311612d3757600490565b600390565b50600290565b50600190565b50600090565b60ff168015612d935760018114612d8d5760028114612d875760038114612d8157600414612d7b57606490565b61012c90565b5060dc90565b5060a090565b50607d90565b5060649056fea26469706673582212209c6c6b198801a772954ca99bb47a76d3b5242eb95f722ba012d0ab8c27462d0864736f6c63430008180033",
  "linkReferences": {},
  "deployedLinkReferences": {}
}