{
  "_format": "hh-sol-artifact-1",
  "contractName": "MockUSDT",
  "sourceName": "contracts/testing/MockUSDT.sol",
  "abi": [
    {
      "inputs": [],
      "stateMutability": "nonpayable",
      "type": "constructor"
    },
    {
      "anonymous": false,
      "inputs": [
        {
          "indexed": true,
          "internalType": "address",
          "name": "owner",
          "type": "address"
        },
        {
          "indexed": true,
          "internalType": "address",
          "name": "spender",
          "type": "address"
        },
        {
          "indexed": false,
          "internalType": "uint256",
          "name": "value",
          "type": "uint256"
        }
      ],
      "name": "Approval",
      "type": "event"
    },
    {
      "anonymous": false,
      "inputs": [
        {
          "indexed": true,
          "internalType": "address",
          "name": "from",
          "type": "address"
        },
        {
          "indexed": true,
          "internalType": "address",
          "name": "to",
          "type": "address"
        },
        {
          "indexed": false,
          "internalType": "uint256",
          "name": "value",
          "type": "uint256"
        }
      ],
      "name": "Transfer",
      "type": "event"
    },
    {
      "inputs": [
        {
          "internalType": "address",
          "name": "owner",
          "type": "address"
        },
        {
          "internalType": "address",
          "name": "spender",
          "type": "address"
        }
      ],
      "name": "allowance",
      "outputs": [
        {
          "internalType": "uint256",
          "name": "",
          "type": "uint256"
        }
      ],
      "stateMutability": "view",
      "type": "function"
    },
    {
      "inputs": [
        {
          "internalType": "address",
          "name": "spender",
          "type": "address"
        },
        {
          "internalType": "uint256",
          "name": "amount",
          "type": "uint256"
        }
      ],
      "name": "approve",
      "outputs": [
        {
          "internalType": "bool",
          "name": "",
          "type": "bool"
        }
      ],
      "stateMutability": "nonpayable",
      "type": "function"
    },
    {
      "inputs": [
        {
          "internalType": "address",
          "name": "account",
          "type": "address"
        }
      ],
      "name": "balanceOf",
      "outputs": [
        {
          "internalType": "uint256",
          "name": "",
          "type": "uint256"
        }
      ],
      "stateMutability": "view",
      "type": "function"
    },
    {
      "inputs": [],
      "name": "decimals",
      "outputs": [
        {
          "internalType": "uint8",
          "name": "",
          "type": "uint8"
        }
      ],
      "stateMutability": "pure",
      "type": "function"
    },
    {
      "inputs": [
        {
          "internalType": "address",
          "name": "spender",
          "type": "address"
        },
        {
          "internalType": "uint256",
          "name": "subtractedValue",
          "type": "uint256"
        }
      ],
      "name": "decreaseAllowance",
      "outputs": [
        {
          "internalType": "bool",
          "name": "",
          "type": "bool"
        }
      ],
      "stateMutability": "nonpayable",
      "type": "function"
    },
    {
      "inputs": [],
      "name": "faucet",
      "outputs": [],
      "stateMutability": "nonpayable",
      "type": "function"
    },
    {
      "inputs": [
        {
          "internalType": "address",
          "name": "spender",
          "type": "address"
        },
        {
          "internalType": "uint256",
          "name": "addedValue",
          "type": "uint256"
        }
      ],
      "name": "increaseAllowance",
      "outputs": [
        {
          "internalType": "bool",
          "name": "",
          "type": "bool"
        }
      ],
      "stateMutability": "nonpayable",
      "type": "function"
    },
    {
      "inputs": [
        {
          "internalType": "address",
          "name": "to",
          "type": "address"
        },
        {
          "internalType": "uint256",
          "name": "amount",
          "type": "uint256"
        }
      ],
      "name": "mint",
      "outputs": [],
      "stateMutability": "nonpayable",
      "type": "function"
    },
    {
      "inputs": [],
      "name": "name",
      "outputs": [
        {
          "internalType": "string",
          "name": "",
          "type": "string"
        }
      ],
      "stateMutability": "view",
      "type": "function"
    },
    {
      "inputs": [],
      "name": "symbol",
      "outputs": [
        {
          "internalType": "string",
          "name": "",
          "type": "string"
        }
      ],
      "stateMutability": "view",
      "type": "function"
    },
    {
      "inputs": [],
      "name": "totalSupply",
      "outputs": [
        {
          "internalType": "uint256",
          "name": "",
          "type": "uint256"
        }
      ],
      "stateMutability": "view",
      "type": "function"
    },
    {
      "inputs": [
        {
          "internalType": "address",
          "name": "to",
          "type": "address"
        },
        {
          "internalType": "uint256",
          "name": "amount",
          "type": "uint256"
        }
      ],
      "name": "transfer",
      "outputs": [
        {
          "internalType": "bool",
          "name": "",
          "type": "bool"
        }
      ],
      "stateMutability": "nonpayable",
      "type": "function"
    },
    {
      "inputs": [
        {
          "internalType": "address",
          "name": "from",
          "type": "address"
        },
        {
          "internalType": "address",
          "name": "to",
          "type": "address"
        },
        {
          "internalType": "uint256",
          "name": "amount",
          "type": "uint256"
        }
      ],
      "name": "transferFrom",
      "outputs": [
        {
          "internalType": "bool",
          "name": "",
          "type": "bool"
        }
      ],
      "stateMutability": "nonpayable",
      "type": "function"
    }
  ],
  "bytecode": "0x60803462000339576040906001600160401b039080830182811182821017620003235783526009815260209168135bd8dac81554d11560ba1b838301528351928484018481108382111762000323578552600493848152631554d11560e21b828201528351908382116200030e576003928354926001968785811c9516801562000303575b83861014620002ee578190601f9586811162000298575b508390868311600114620002315760009262000225575b505060001982871b1c191690871b1784555b8151948511620002105786548681811c9116801562000205575b82821014620001f057838111620001a5575b50809285116001146200013757509383949184926000956200012b575b50501b92600019911b1c19161790555b51610a4d90816200033f8239f35b0151935038806200010d565b92919084601f1981168860005285600020956000905b898383106200018a57505050106200016f575b50505050811b0190556200011d565b01519060f884600019921b161c191690553880808062000160565b8587015189559097019694850194889350908101906200014d565b87600052816000208480880160051c820192848910620001e6575b0160051c019087905b828110620001d9575050620000f0565b60008155018790620001c9565b92508192620001c0565b602288634e487b7160e01b6000525260246000fd5b90607f1690620000de565b604187634e487b7160e01b6000525260246000fd5b015190503880620000b2565b90899350601f1983169188600052856000209260005b8782821062000281575050841162000268575b505050811b018455620000c4565b015160001983891b60f8161c191690553880806200025a565b8385015186558d9790950194938401930162000247565b90915086600052836000208680850160051c820192868610620002e4575b918b91869594930160051c01915b828110620002d45750506200009b565b600081558594508b9101620002c4565b92508192620002b6565b602289634e487b7160e01b6000525260246000fd5b94607f169462000084565b604186634e487b7160e01b6000525260246000fd5b634e487b7160e01b600052604160045260246000fd5b600080fdfe608060408181526004908136101561001657600080fd5b600092833560e01c90816306fdde031461063157508063095ea7b31461060757806318160ddd146105e857806323b872dd1461051e578063313ce5671461050257806339509351146104b257806340c10f19146103f557806370a08231146103be57806395d89b411461029e578063a457c2d7146101f7578063a9059cbb146101c6578063dd62ed3e146101795763de5f72fd146100b357600080fd5b346101755782600319360112610175573315610132576002546402540be4009283820180921161011f57506002553383528260205280832082815401905551908152817fddf252ad1be2c89b69c2b068fc378daa952ba7f163c4a11628f55a4df523b3ef60203393a380f35b634e487b7160e01b855260119052602484fd5b906020606492519162461bcd60e51b8352820152601f60248201527f45524332303a206d696e7420746f20746865207a65726f2061646472657373006044820152fd5b8280fd5b8382346101c257806003193601126101c25780602092610197610753565b61019f61076e565b6001600160a01b0391821683526001865283832091168252845220549051908152f35b5080fd5b8382346101c257806003193601126101c2576020906101f06101e6610753565b60243590336107a7565b5160018152f35b50913461029b578260031936011261029b57610211610753565b918360243592338152600160205281812060018060a01b038616825260205220549082821061024a576020856101f08585038733610915565b608490602086519162461bcd60e51b8352820152602560248201527f45524332303a2064656372656173656420616c6c6f77616e63652062656c6f77604482015264207a65726f60d81b6064820152fd5b80fd5b508290346101c257816003193601126101c257805190828454600181811c908083169283156103b4575b60209384841081146103a1578388529081156103855750600114610330575b505050829003601f01601f191682019267ffffffffffffffff84118385101761031d575082918261031992528261070a565b0390f35b634e487b7160e01b815260418552602490fd5b8787529192508591837f8a35acfbc15ff81a39ae7d344fd709f28e8600b4aa8c65c6b64bfe7fe36bd19b5b83851061037157505050508301018580806102e7565b80548886018301529301928490820161035b565b60ff1916878501525050151560051b84010190508580806102e7565b634e487b7160e01b895260228a52602489fd5b91607f16916102c8565b8382346101c25760203660031901126101c25760209181906001600160a01b036103e6610753565b16815280845220549051908152f35b503461017557806003193601126101755761040e610753565b6001600160a01b0316916024359190831561047057506020827fddf252ad1be2c89b69c2b068fc378daa952ba7f163c4a11628f55a4df523b3ef926104568795600254610784565b60025585855284835280852082815401905551908152a380f35b6020606492519162461bcd60e51b8352820152601f60248201527f45524332303a206d696e7420746f20746865207a65726f2061646472657373006044820152fd5b8382346101c257806003193601126101c2576101f06020926104fb6104d5610753565b338352600186528483206001600160a01b03821684528652918490205460243590610784565b9033610915565b8382346101c257816003193601126101c2576020905160068152f35b509190346101c25760603660031901126101c25761053a610753565b61054261076e565b91846044359460018060a01b03841681526001602052818120338252602052205490600019820361057c575b6020866101f08787876107a7565b8482106105a5575091839161059a602096956101f095033383610915565b91939481935061056e565b606490602087519162461bcd60e51b8352820152601d60248201527f45524332303a20696e73756666696369656e7420616c6c6f77616e63650000006044820152fd5b8382346101c257816003193601126101c2576020906002549051908152f35b8382346101c257806003193601126101c2576020906101f0610627610753565b6024359033610915565b905083913461017557826003193601126101755782600354600181811c90808316928315610700575b60209384841081146103a15783885290811561038557506001146106aa57505050829003601f01601f191682019267ffffffffffffffff84118385101761031d575082918261031992528261070a565b600387529192508591837fc2575a0e9e593c00f959f8c92f12db2869c3395a3b0502d05e2516446f71f85b5b8385106106ec57505050508301018580806102e7565b8054888601830152930192849082016106d6565b91607f169161065a565b6020808252825181830181905290939260005b82811061073f57505060409293506000838284010152601f8019910116010190565b81810186015184820160400152850161071d565b600435906001600160a01b038216820361076957565b600080fd5b602435906001600160a01b038216820361076957565b9190820180921161079157565b634e487b7160e01b600052601160045260246000fd5b6001600160a01b039081169182156108c257169182156108715760008281528060205260408120549180831061081d57604082827fddf252ad1be2c89b69c2b068fc378daa952ba7f163c4a11628f55a4df523b3ef958760209652828652038282205586815220818154019055604051908152a3565b60405162461bcd60e51b815260206004820152602660248201527f45524332303a207472616e7366657220616d6f756e7420657863656564732062604482015265616c616e636560d01b6064820152608490fd5b60405162461bcd60e51b815260206004820152602360248201527f45524332303a207472616e7366657220746f20746865207a65726f206164647260448201526265737360e81b6064820152608490fd5b60405162461bcd60e51b815260206004820152602560248201527f45524332303a207472616e736665722066726f6d20746865207a65726f206164604482015264647265737360d81b6064820152608490fd5b6001600160a01b039081169182156109c657169182156109765760207f8c5be1e5ebec7d5bd14f71427d1e84f3dd0314c0f7b2291e5b200ac8c7c3b925918360005260018252604060002085600052825280604060002055604051908152a3565b60405162461bcd60e51b815260206004820152602260248201527f45524332303a20617070726f766520746f20746865207a65726f206164647265604482015261737360f01b6064820152608490fd5b60405162461bcd60e51b8152602060048201526024808201527f45524332303a20617070726f76652066726f6d20746865207a65726f206164646044820152637265737360e01b6064820152608490fdfea2646970667358221220056de5b217066e05df69a0f516eafd110d1ae58a1b7bc696f9e510860d37ddab64736f6c63430008140033",
  "linkReferences": {},
  "deployedLinkReferences": {}
}