{
  "_format": "hh-sol-artifact-1",
  "contractName": "GamePool",
  "sourceName": "contracts/game/GamePool.sol",
  "abi": [
    {
      "inputs": [],
      "stateMutability": "nonpayable",
      "type": "constructor"
    },
    {
      "inputs": [
        {
          "internalType": "address",
          "name": "owner",
          "type": "address"
        }
      ],
      "name": "OwnableInvalidOwner",
      "type": "error"
    },
    {
      "inputs": [
        {
          "internalType": "address",
          "name": "account",
          "type": "address"
        }
      ],
      "name": "OwnableUnauthorizedAccount",
      "type": "error"
    },
    {
      "inputs": [],
      "name": "ReentrancyGuardReentrantCall",
      "type": "error"
    },
    {
      "anonymous": false,
      "inputs": [
        {
          "indexed": false,
          "internalType": "uint8",
          "name": "algorithm",
          "type": "uint8"
        },
        {
          "indexed": false,
          "internalType": "enum GamePool.Coin",
          "name": "coin",
          "type": "uint8"
        }
      ],
      "name": "AlgorithmCoinMappingUpdated",
      "type": "event"
    },
    {
      "anonymous": false,
      "inputs": [
        {
          "indexed": true,
          "internalType": "enum GamePool.Coin",
          "name": "coin",
          "type": "uint8"
        },
        {
          "indexed": false,
          "internalType": "uint256",
          "name": "amount",
          "type": "uint256"
        },
        {
          "indexed": true,
          "internalType": "uint256",
          "name": "epoch",
          "type": "uint256"
        }
      ],
      "name": "CoinDeposited",
      "type": "event"
    },
    {
      "anonymous": false,
      "inputs": [
        {
          "indexed": true,
          "internalType": "uint256",
          "name": "oldEpoch",
          "type": "uint256"
        },
        {
          "indexed": true,
          "internalType": "uint256",
          "name": "newEpoch",
          "type": "uint256"
        }
      ],
      "name": "EpochAdvanced",
      "type": "event"
    },
    {
      "anonymous": false,
      "inputs": [
        {
          "indexed": true,
          "internalType": "address",
          "name": "engine",
          "type": "address"
        }
      ],
      "name": "MiningEngineSet",
      "type": "event"
    },
    {
      "anonymous": false,
      "inputs": [
        {
          "indexed": true,
          "internalType": "address",
          "name": "operator",
          "type": "address"
        },
        {
          "indexed": false,
          "internalType": "bool",
          "name": "authorized",
          "type": "bool"
        }
      ],
      "name": "OperatorUpdated",
      "type": "event"
    },
    {
      "anonymous": false,
      "inputs": [
        {
          "indexed": true,
          "internalType": "address",
          "name": "previousOwner",
          "type": "address"
        },
        {
          "indexed": true,
          "internalType": "address",
          "name": "newOwner",
          "type": "address"
        }
      ],
      "name": "OwnershipTransferred",
      "type": "event"
    },
    {
      "anonymous": false,
      "inputs": [
        {
          "indexed": true,
          "internalType": "address",
          "name": "miner",
          "type": "address"
        },
        {
          "indexed": true,
          "internalType": "enum GamePool.Coin",
          "name": "coin",
          "type": "uint8"
        },
        {
          "indexed": false,
          "internalType": "uint256",
          "name": "amount",
          "type": "uint256"
        }
      ],
      "name": "WithdrawalAuthorized",
      "type": "event"
    },
    {
      "anonymous": false,
      "inputs": [
        {
          "indexed": true,
          "internalType": "address",
          "name": "miner",
          "type": "address"
        },
        {
          "indexed": true,
          "internalType": "enum GamePool.Coin",
          "name": "coin",
          "type": "uint8"
        },
        {
          "indexed": false,
          "internalType": "uint256",
          "name": "amount",
          "type": "uint256"
        },
        {
          "indexed": false,
          "internalType": "string",
          "name": "txid",
          "type": "string"
        }
      ],
      "name": "WithdrawalProcessed",
      "type": "event"
    },
    {
      "inputs": [
        {
          "internalType": "enum GamePool.Coin",
          "name": "coin",
          "type": "uint8"
        },
        {
          "internalType": "uint256",
          "name": "newBalance",
          "type": "uint256"
        }
      ],
      "name": "adjustBalance",
      "outputs": [],
      "stateMutability": "nonpayable",
      "type": "function"
    },
    {
      "inputs": [
        {
          "internalType": "uint8",
          "name": "",
          "type": "uint8"
        }
      ],
      "name": "algorithmToCoin",
      "outputs": [
        {
          "internalType": "enum GamePool.Coin",
          "name": "",
          "type": "uint8"
        }
      ],
      "stateMutability": "view",
      "type": "function"
    },
    {
      "inputs": [
        {
          "internalType": "address",
          "name": "miner",
          "type": "address"
        },
        {
          "internalType": "enum GamePool.Coin",
          "name": "coin",
          "type": "uint8"
        },
        {
          "internalType": "uint256",
          "name": "amount",
          "type": "uint256"
        }
      ],
      "name": "authorizeWithdrawal",
      "outputs": [],
      "stateMutability": "nonpayable",
      "type": "function"
    },
    {
      "inputs": [
        {
          "internalType": "enum GamePool.Coin",
          "name": "",
          "type": "uint8"
        }
      ],
      "name": "coinBalances",
      "outputs": [
        {
          "internalType": "uint256",
          "name": "",
          "type": "uint256"
        }
      ],
      "stateMutability": "view",
      "type": "function"
    },
    {
      "inputs": [
        {
          "internalType": "address",
          "name": "miner",
          "type": "address"
        },
        {
          "internalType": "enum GamePool.Coin",
          "name": "coin",
          "type": "uint8"
        },
        {
          "internalType": "uint256",
          "name": "amount",
          "type": "uint256"
        },
        {
          "internalType": "string",
          "name": "txid",
          "type": "string"
        }
      ],
      "name": "confirmWithdrawal",
      "outputs": [],
      "stateMutability": "nonpayable",
      "type": "function"
    },
    {
      "inputs": [],
      "name": "currentEpoch",
      "outputs": [
        {
          "internalType": "uint256",
          "name": "",
          "type": "uint256"
        }
      ],
      "stateMutability": "view",
      "type": "function"
    },
    {
      "inputs": [],
      "name": "epochDuration",
      "outputs": [
        {
          "internalType": "uint256",
          "name": "",
          "type": "uint256"
        }
      ],
      "stateMutability": "view",
      "type": "function"
    },
    {
      "inputs": [],
      "name": "forceAdvanceEpoch",
      "outputs": [],
      "stateMutability": "nonpayable",
      "type": "function"
    },
    {
      "inputs": [],
      "name": "getAllCoinBalances",
      "outputs": [
        {
          "internalType": "uint256[7]",
          "name": "",
          "type": "uint256[7]"
        }
      ],
      "stateMutability": "view",
      "type": "function"
    },
    {
      "inputs": [
        {
          "internalType": "address",
          "name": "miner",
          "type": "address"
        }
      ],
      "name": "getAllPendingWithdrawals",
      "outputs": [
        {
          "internalType": "uint256[7]",
          "name": "",
          "type": "uint256[7]"
        }
      ],
      "stateMutability": "view",
      "type": "function"
    },
    {
      "inputs": [
        {
          "internalType": "enum GamePool.Coin",
          "name": "coin",
          "type": "uint8"
        }
      ],
      "name": "getCoinBalance",
      "outputs": [
        {
          "internalType": "uint256",
          "name": "",
          "type": "uint256"
        }
      ],
      "stateMutability": "view",
      "type": "function"
    },
    {
      "inputs": [
        {
          "internalType": "uint8",
          "name": "algo",
          "type": "uint8"
        }
      ],
      "name": "getCoinForAlgorithm",
      "outputs": [
        {
          "internalType": "enum GamePool.Coin",
          "name": "",
          "type": "uint8"
        }
      ],
      "stateMutability": "view",
      "type": "function"
    },
    {
      "inputs": [
        {
          "internalType": "uint256",
          "name": "epoch",
          "type": "uint256"
        },
        {
          "internalType": "enum GamePool.Coin",
          "name": "coin",
          "type": "uint8"
        }
      ],
      "name": "getEpochDeposits",
      "outputs": [
        {
          "internalType": "uint256",
          "name": "",
          "type": "uint256"
        }
      ],
      "stateMutability": "view",
      "type": "function"
    },
    {
      "inputs": [
        {
          "internalType": "uint256",
          "name": "epoch",
          "type": "uint256"
        },
        {
          "internalType": "enum GamePool.Coin",
          "name": "coin",
          "type": "uint8"
        }
      ],
      "name": "getEpochDistributions",
      "outputs": [
        {
          "internalType": "uint256",
          "name": "",
          "type": "uint256"
        }
      ],
      "stateMutability": "view",
      "type": "function"
    },
    {
      "inputs": [
        {
          "internalType": "address",
          "name": "miner",
          "type": "address"
        },
        {
          "internalType": "enum GamePool.Coin",
          "name": "coin",
          "type": "uint8"
        }
      ],
      "name": "getPendingWithdrawal",
      "outputs": [
        {
          "internalType": "uint256",
          "name": "",
          "type": "uint256"
        }
      ],
      "stateMutability": "view",
      "type": "function"
    },
    {
      "inputs": [],
      "name": "getTimeUntilNextEpoch",
      "outputs": [
        {
          "internalType": "uint256",
          "name": "",
          "type": "uint256"
        }
      ],
      "stateMutability": "view",
      "type": "function"
    },
    {
      "inputs": [],
      "name": "getWithdrawalHistoryLength",
      "outputs": [
        {
          "internalType": "uint256",
          "name": "",
          "type": "uint256"
        }
      ],
      "stateMutability": "view",
      "type": "function"
    },
    {
      "inputs": [
        {
          "internalType": "uint256",
          "name": "start",
          "type": "uint256"
        },
        {
          "internalType": "uint256",
          "name": "count",
          "type": "uint256"
        }
      ],
      "name": "getWithdrawalHistoryRange",
      "outputs": [
        {
          "components": [
            {
              "internalType": "address",
              "name": "miner",
              "type": "address"
            },
            {
              "internalType": "enum GamePool.Coin",
              "name": "coin",
              "type": "uint8"
            },
            {
              "internalType": "uint256",
              "name": "amount",
              "type": "uint256"
            },
            {
              "internalType": "string",
              "name": "txid",
              "type": "string"
            },
            {
              "internalType": "uint256",
              "name": "timestamp",
              "type": "uint256"
            }
          ],
          "internalType": "struct GamePool.WithdrawalRecord[]",
          "name": "",
          "type": "tuple[]"
        }
      ],
      "stateMutability": "view",
      "type": "function"
    },
    {
      "inputs": [],
      "name": "lastEpochTime",
      "outputs": [
        {
          "internalType": "uint256",
          "name": "",
          "type": "uint256"
        }
      ],
      "stateMutability": "view",
      "type": "function"
    },
    {
      "inputs": [],
      "name": "miningEngine",
      "outputs": [
        {
          "internalType": "address",
          "name": "",
          "type": "address"
        }
      ],
      "stateMutability": "view",
      "type": "function"
    },
    {
      "inputs": [
        {
          "internalType": "address",
          "name": "",
          "type": "address"
        }
      ],
      "name": "operators",
      "outputs": [
        {
          "internalType": "bool",
          "name": "",
          "type": "bool"
        }
      ],
      "stateMutability": "view",
      "type": "function"
    },
    {
      "inputs": [],
      "name": "owner",
      "outputs": [
        {
          "internalType": "address",
          "name": "",
          "type": "address"
        }
      ],
      "stateMutability": "view",
      "type": "function"
    },
    {
      "inputs": [
        {
          "internalType": "address",
          "name": "",
          "type": "address"
        },
        {
          "internalType": "enum GamePool.Coin",
          "name": "",
          "type": "uint8"
        }
      ],
      "name": "pendingWithdrawals",
      "outputs": [
        {
          "internalType": "uint256",
          "name": "",
          "type": "uint256"
        }
      ],
      "stateMutability": "view",
      "type": "function"
    },
    {
      "inputs": [],
      "name": "renounceOwnership",
      "outputs": [],
      "stateMutability": "nonpayable",
      "type": "function"
    },
    {
      "inputs": [
        {
          "internalType": "enum GamePool.Coin",
          "name": "coin",
          "type": "uint8"
        },
        {
          "internalType": "uint256",
          "name": "amount",
          "type": "uint256"
        }
      ],
      "name": "reportDeposit",
      "outputs": [],
      "stateMutability": "nonpayable",
      "type": "function"
    },
    {
      "inputs": [
        {
          "internalType": "enum GamePool.Coin[]",
          "name": "coins",
          "type": "uint8[]"
        },
        {
          "internalType": "uint256[]",
          "name": "amounts",
          "type": "uint256[]"
        }
      ],
      "name": "reportDeposits",
      "outputs": [],
      "stateMutability": "nonpayable",
      "type": "function"
    },
    {
      "inputs": [
        {
          "internalType": "uint8",
          "name": "algorithm",
          "type": "uint8"
        },
        {
          "internalType": "enum GamePool.Coin",
          "name": "coin",
          "type": "uint8"
        }
      ],
      "name": "setAlgorithmCoinMapping",
      "outputs": [],
      "stateMutability": "nonpayable",
      "type": "function"
    },
    {
      "inputs": [
        {
          "internalType": "uint256",
          "name": "duration",
          "type": "uint256"
        }
      ],
      "name": "setEpochDuration",
      "outputs": [],
      "stateMutability": "nonpayable",
      "type": "function"
    },
    {
      "inputs": [
        {
          "internalType": "address",
          "name": "engine",
          "type": "address"
        }
      ],
      "name": "setMiningEngine",
      "outputs": [],
      "stateMutability": "nonpayable",
      "type": "function"
    },
    {
      "inputs": [
        {
          "internalType": "address",
          "name": "operator",
          "type": "address"
        },
        {
          "internalType": "bool",
          "name": "authorized",
          "type": "bool"
        }
      ],
      "name": "setOperator",
      "outputs": [],
      "stateMutability": "nonpayable",
      "type": "function"
    },
    {
      "inputs": [
        {
          "internalType": "address",
          "name": "",
          "type": "address"
        },
        {
          "internalType": "enum GamePool.Coin",
          "name": "",
          "type": "uint8"
        }
      ],
      "name": "totalClaimed",
      "outputs": [
        {
          "internalType": "uint256",
          "name": "",
          "type": "uint256"
        }
      ],
      "stateMutability": "view",
      "type": "function"
    },
    {
      "inputs": [
        {
          "internalType": "enum GamePool.Coin",
          "name": "",
          "type": "uint8"
        }
      ],
      "name": "totalDeposited",
      "outputs": [
        {
          "internalType": "uint256",
          "name": "",
          "type": "uint256"
        }
      ],
      "stateMutability": "view",
      "type": "function"
    },
    {
      "inputs": [
        {
          "internalType": "enum GamePool.Coin",
          "name": "",
          "type": "uint8"
        }
      ],
      "name": "totalDistributed",
      "outputs": [
        {
          "internalType": "uint256",
          "name": "",
          "type": "uint256"
        }
      ],
      "stateMutability": "view",
      "type": "function"
    },
    {
      "inputs": [
        {
          "internalType": "address",
          "name": "newOwner",
          "type": "address"
        }
      ],
      "name": "transferOwnership",
      "outputs": [],
      "stateMutability": "nonpayable",
      "type": "function"
    },
    {
      "inputs": [
        {
          "internalType": "uint256",
          "name": "",
          "type": "uint256"
        }
      ],
      "name": "withdrawalHistory",
      "outputs": [
        {
          "internalType": "address",
          "name": "miner",
          "type": "address"
        },
        {
          "internalType": "enum GamePool.Coin",
          "name": "coin",
          "type": "uint8"
        },
        {
          "internalType": "uint256",
          "name": "amount",
          "type": "uint256"
        },
        {
          "internalType": "string",
          "name": "txid",
          "type": "string"
        },
        {
          "internalType": "uint256",
          "name": "timestamp",
          "type": "uint256"
        }
      ],
      "stateMutability": "view",
      "type": "function"
    }
  ],
  "bytecode": "0x60806040908082523461013a573315610124575060008054336001600160a01b0319821681178355906001600160a01b03167f8be0079c531659141344cd1fd0a4f28419497f9722a3daafe3b4186f6b6457e08380a36001908180556201518060055542600655808052600260205281838083209260ff199384815416905582815281812083858254161790556002815281812060038582541617905560038152818120600285825416179055600481528181206006858254161790556005815281812060058582541617905560068152818120600485825416179055338152600b602052209182541617905581519081527f966c160e1c4dbc7df8d69af4ace01e9297c3cf016397b7914971f2fbfa32672d60203392a251611b4490816101408239f35b631e4fbdf760e01b815260006004820152602490fd5b600080fdfe6080806040526004908136101561001557600080fd5b60003560e01c90816296916e146114c65750806306f46166146114a357806313e7c9d81461146457806330024dfe146113ec5780633798e7d9146112125780633e9ec64114610f83578063456da39e146111ea57806345ace221146111c25780634691d18a14610e4a5780634ff0876a146111a4578063558a72971461112557806360615fc6146110fe5780636b38e5b914611003578063715018a614610faa578063733f8d2714610f83578063765fc5b814610efd5780637667180814610edf578063883da07c14610ec157806389c614b814610ea35780638d55b9f314610c9e5780638da5cb5b14610e7a5780638f2bf21014610e4a5780639204d5de14610da8578063a0f0d0f414610d85578063b519fc1f14610d03578063c09b3cbd14610cdc578063c64fbd8614610c9e578063d800b9bd14610c12578063d98ec80714610be9578063e79cf15214610783578063e87b1ed41461074a578063f0e5db7c14610570578063f2fde38b146104e1578063f32653f4146103955763f8ee6e11146101a157600080fd5b346103465760403660031901126103465767ffffffffffffffff908035828111610346576101d29036908301611909565b919092602435908111610346576101ec9036908301611909565b9390336000526020600b60205260ff604060002054168015610381575b610212906119cf565b85850361034b57610221611a8d565b60005b85811061022d57005b610238818885611a51565b35610246575b600101610224565b610251818885611a51565b359061025e818887611a51565b3591600792838110156103465761027761027f91611675565b91825461193a565b905561028c818986611a51565b35610298828988611a51565b3583811015610346576102776102ad916116bd565b90556102ba818986611a51565b35865460005282845260016040600020016102d6838a89611a51565b359084821015610346576102ed91610277916116d6565b90556102fa818887611a51565b359182101561034657600191610311828a87611a51565b35907fe463596dd6c0255573af8eab70c8a59fa87f36e17563f05e05be7adf4cc2329b85895493604051908152a3905061023e565b600080fd5b60405162461bcd60e51b8152602081860152600f60248201526e098cadccee8d040dad2e6dac2e8c6d608b1b6044820152606490fd5b506000546001600160a01b03163314610209565b5034610346576000366003190112610346576104dd9060e06040516103b9816117b4565b369037604051906103c9826117b4565b7f3617319a054d772f909f7c479a2cebe5066e836a939412e32403c99029b92eff5482527fa15bc60c955c405d20d9149c709e2460f1c2d9a497496a7f46004d1772c3054c546020838101919091527fc3a24b0501bd2c13a7e57f2db4369ec4c223447539fc0724a9d55ac4a06ebd4d546040848101919091527fcbc4e5fb02c3d1de23a9f1e014b4d2ee5aeaea9505df5e855c9210bf472495af546060850152600092835260038083528184205460808601527f405aad32e1adbac89bb7f176e338b8fc6e994ca210c9bb7bdca249b4659422505460a086015260069093529190527fc69056f16cbaa3c616b828e333ab7d3a32310765507f8f58359e99ebb7a885f35460c083015251918291826115f9565b0390f35b5034610346576020366003190112610346576104fb6115e3565b610503611a61565b6001600160a01b039081169182156105585750600054826bffffffffffffffffffffffff60a01b821617600055167f8be0079c531659141344cd1fd0a4f28419497f9722a3daafe3b4186f6b6457e0600080a3005b602490600060405191631e4fbdf760e01b8352820152fd5b5034610346576040366003190112610346573561058f6024358261193a565b600a54808211610742575b506105a5828261195d565b906105c86105b283611a25565b926105c06040519485611802565b808452611a25565b60209390601f19018460005b82811061070a57505050805b82811061068a575050506040519082820192808352815180945260408301938160408260051b8601019301916000955b82871061061d5785850386f35b909192938280600192603f1989820301855287519061067060a0868060a01b038451168352610652858501518685019061171d565b604084015160408401526060908082860151928501528301906118c9565b916080809101519101529601920196019592919092610610565b8061070361069960019361172a565b506106a4858461195d565b906003604051916106b4836117e6565b6106d160ff8254898060a01b038116865260a01c168c8501611a19565b8681015460408401526106e660028201611824565b6060840152015460808201526106fc8289611a3d565b5286611a3d565b50016105e0565b604051610716816117e6565b6000815260008382015260006040820152606080820152600060808201528282880101520185906105d4565b90503861059a565b3461034657602061077a61075d36611646565b6001600160a01b03909116600090815260098452604090206116d6565b54604051908152f35b50346103465760803660031901126103465761079d6115e3565b90602490600782351015610346576064359167ffffffffffffffff9182841161034657366023850112156103465782848201351161034657368285830135860101116103465733600052600b60205260ff604060002054168015610bd5575b610805906119cf565b60018060a01b0392838616600052600860205260443561082a843560406000206116d6565b5410610ba1578482013515610b71578386166000526008602052610853833560406000206116d6565b610860604435825461195d565b9055838616600052600960205261087c833560406000206116d6565b610889604435825461193a565b9055604051610897816117e6565b848716815260208101916108ac853584611a19565b604082016044358152604051906108d06020601f19601f8c8a013501160183611802565b85890135808352878a016020840137600060208a8801358401015260608401918252426080850152600a5468010000000000000000811015610b5d5780600161091c9201600a5561172a565b959095610b4a5788855116865491816bffffffffffffffffffffffff60a01b8416178855516007811015610b36576001600160a81b03199092161760a09190911b60ff60a01b16178555516001850155518051918211610b2257610983600285015461177a565b601f8111610adb575b50602090601f8311600114610a405760609593837fc2b056c3cbf259d01a82aa936ade32451efbdddca04e28d74a1c422f438a1f0299989694600394608094600092610a35575b50508160011b9160001990861b1c19161760028501555b0151910155601f60405194859360443585526040602086015288840135604086015288840135818a01878701376000868a8601358701015235981696811992013501168101030190a3005b0151905038806109d3565b906002850160005260206000209160005b601f1985168110610ac357509360018460039460809460609a987fc2b056c3cbf259d01a82aa936ade32451efbdddca04e28d74a1c422f438a1f029d9c9a98601f19811610610aab575b505050811b0160028501556109ea565b015160001983881b60f8161c19169055388080610a9b565b91926020600181928685015181550194019201610a51565b600285016000526020600020601f840160051c810160208510610b1b575b601f830160051c82018110610b0f57505061098c565b60008155600101610af9565b5080610af9565b85604186634e487b7160e01b600052526000fd5b8960218a634e487b7160e01b600052526000fd5b87600088634e487b7160e01b8252526000fd5b87604188634e487b7160e01b600052526000fd5b50600a60649260206040519362461bcd60e51b855284015282015269115b5c1d1e481d1e1a5960b21b6044820152fd5b50600e60649260206040519362461bcd60e51b85528401528201526d125b9d985b1a5908185b5bdd5b9d60921b6044820152fd5b506000546001600160a01b031633146107fc565b3461034657600036600319011261034657600c546040516001600160a01b039091168152602090f35b50346103465760203660031901126103465735600a5481101561034657610c3b610c7e9161172a565b50805490610c946001820154916003610c5660028301611824565b9101546040516001600160a01b0386168152958695919491602087019060a01c60ff1661171d565b604085015260a0606085015260a08401906118c9565b9060808301520390f35b346103465760203660031901126103465760ff610cb961170d565b166000526002602052602060ff60406000205416610cda604051809261171d565bf35b5034610346576020366003190112610346573560078110156103465761077a6020916116a4565b503461034657600036600319011261034657610d1d611a61565b8054908160005260076020526003604060002001600160ff19825416179055610d468154611a0a565b8082554260065560005260076020524260406000205554907facfa06cebbab8226f9a388bff9f5fcf4569298028d939f4765958dc57dbb330b600080a3005b3461034657610da5610d96366116ee565b9190610da0611a61565b611675565b55005b503461034657602036600319011261034657610dc26115e3565b610dca611a61565b6001600160a01b0316908115610e145750600c80546001600160a01b031916821790557f544f34761a6c08fcba53ab048fe70ee4810d7fbc7c1fcb04e3779ad37ee1d674600080a2005b60649060206040519162461bcd60e51b8352820152600f60248201526e496e76616c6964206164647265737360881b6044820152fd5b3461034657602061077a610e5d36611646565b6001600160a01b03909116600090815260088452604090206116d6565b34610346576000366003190112610346576000546040516001600160a01b039091168152602090f35b34610346576000366003190112610346576020600654604051908152f35b34610346576000366003190112610346576020600a54604051908152f35b50346103465760003660031901126103465760209054604051908152f35b3461034657604036600319011261034657610f1661170d565b602435906007821015610346577f44d39741f635cac28b56b6f55d772bfc9a432cb6d0b0fb8c6bf2bc73f930202c91610f8060ff604093610f55611a61565b16918260005260026020528360002060ff1981541660ff83161790558351928352602083019061171d565ba1005b5034610346576020366003190112610346573560078110156103465761077a602091611675565b3461034657600036600319011261034657610fc3611a61565b600080546001600160a01b0319811682556001600160a01b03167f8be0079c531659141344cd1fd0a4f28419497f9722a3daafe3b4186f6b6457e08280a3005b503461034657611012366116ee565b33600052600b60205260ff6040600020541680156110ea575b611034906119cf565b61103f811515611995565b611047611a8d565b61105082611675565b61105b82825461193a565b9055611066826116bd565b61107182825461193a565b90558254600052600760205261108e8260016040600020016116d6565b61109982825461193a565b905582549260078310156110d5575060207fe463596dd6c0255573af8eab70c8a59fa87f36e17563f05e05be7adf4cc2329b91604051908152a3005b602190634e487b7160e01b6000525260246000fd5b506000546001600160a01b0316331461102b565b5034610346576020366003190112610346573560078110156103465761077a6020916116bd565b346103465760403660031901126103465761113e6115e3565b602435908115158092036103465760207f966c160e1c4dbc7df8d69af4ace01e9297c3cf016397b7914971f2fbfa32672d91611178611a61565b60018060a01b03169283600052600b8252604060002060ff1981541660ff8316179055604051908152a2005b34610346576000366003190112610346576020600554604051908152f35b3461034657602061077a6111d536611627565b906000526007835260026040600020016116d6565b3461034657602061077a6111fd36611627565b906000526007835260016040600020016116d6565b50346103465760603660031901126103465761122c6115e3565b9060243591600783101561034657600c54604435916001600160a01b0391821633036113b4576002600154146113a35760026001551691821561136f57611274821515611995565b8161127e85611675565b541061132b577f14c401fc8f6bd45c77e437d0d9ef991da8e0423f5c5cb924e4f731c5bff64317916020916112b286611675565b6112bd83825461195d565b905584600052600883526112d58660406000206116d6565b6112e083825461193a565b90556112eb866116a4565b6112f683825461193a565b905554600052600782526113118560026040600020016116d6565b61131c82825461193a565b9055604051908152a360018055005b60649060206040519162461bcd60e51b8352820152601960248201527f496e73756666696369656e7420706f6f6c2062616c616e6365000000000000006044820152fd5b60649060206040519162461bcd60e51b8352820152600d60248201526c24b73b30b634b21036b4b732b960991b6044820152fd5b604051633ee5aeb560e01b81528490fd5b60405162461bcd60e51b815260208186015260116024820152704f6e6c79204d696e696e67456e67696e6560781b6044820152606490fd5b503461034657602036600319011261034657803590611409611a61565b610e1082101580611457575b156114205750600555005b60649060206040519162461bcd60e51b8352820152601060248201526f24b73b30b634b210323ab930ba34b7b760811b6044820152fd5b5062278d00821115611415565b34610346576020366003190112610346576001600160a01b036114856115e3565b16600052600b602052602060ff604060002054166040519015158152f35b346103465760003660031901126103465760206114be61196a565b604051908152f35b90503461034657602080600319360112610346576104dd9260e06114e86115e3565b936114f2816117b4565b36903760405192611502846117b4565b60018060a01b03168060005260089182845260406000206000805284526040600020548552816000528284526040600020600160005284526040600020548486015281600052828452604060002060026000528452604060002054604086015281600052828452604060002060036000528452604060002054606086015281600052828452604060002090600052835260406000205460808501528060005281835260406000206005600052835260406000205460a0850152600052815260406000209060066000525260406000205460c0820152604051918291826115f9565b600435906001600160a01b038216820361034657565b60e0810192916000915b6007831061161057505050565b600190825181526020809101920192019190611603565b6040906003190112610346576004359060243560078110156103465790565b6040906003190112610346576004356001600160a01b0381168103610346579060243560078110156103465790565b600781101561168e576000526003602052604060002090565b634e487b7160e01b600052602160045260246000fd5b600781101561168e57600052600e602052604060002090565b600781101561168e57600052600d602052604060002090565b90600781101561168e57600052602052604060002090565b6040906003190112610346576004356007811015610346579060243590565b6004359060ff8216820361034657565b90600782101561168e5752565b600a5481101561176457600a60005260021b7fc65a7bb8d6351c1cf70c95a316cc6a92839c986682d98bc35f958f4883f9d2a80190600090565b634e487b7160e01b600052603260045260246000fd5b90600182811c921680156117aa575b602083101461179457565b634e487b7160e01b600052602260045260246000fd5b91607f1691611789565b60e0810190811067ffffffffffffffff8211176117d057604052565b634e487b7160e01b600052604160045260246000fd5b60a0810190811067ffffffffffffffff8211176117d057604052565b90601f8019910116810190811067ffffffffffffffff8211176117d057604052565b906040519182600082546118378161177a565b908184526020946001916001811690816000146118a75750600114611868575b50505061186692500383611802565b565b600090815285812095935091905b81831061188f5750506118669350820101388080611857565b85548884018501529485019487945091830191611876565b9250505061186694925060ff191682840152151560051b820101388080611857565b919082519283825260005b8481106118f5575050826000602080949584010152601f8019910116010190565b6020818301810151848301820152016118d4565b9181601f840112156103465782359167ffffffffffffffff8311610346576020808501948460051b01011161034657565b9190820180921161194757565b634e487b7160e01b600052601160045260246000fd5b9190820391821161194757565b6119796006546005549061193a565b8042101561198f5761198c90429061195d565b90565b50600090565b1561199c57565b60405162461bcd60e51b815260206004820152600b60248201526a16995c9bc8185b5bdd5b9d60aa1b6044820152606490fd5b156119d657565b60405162461bcd60e51b815260206004820152600c60248201526b2737ba1037b832b930ba37b960a11b6044820152606490fd5b60001981146119475760010190565b600782101561168e5752565b67ffffffffffffffff81116117d05760051b60200190565b80518210156117645760209160051b010190565b91908110156117645760051b0190565b6000546001600160a01b03163303611a7557565b60405163118cdaa760e01b8152336004820152602490fd5b611a9c6006546005549061193a565b421015611aa557565b600454600090808252600760205260036040832001600160ff19825416179055611ad0600454611a0a565b8060045542600655825260076020524260408320557facfa06cebbab8226f9a388bff9f5fcf4569298028d939f4765958dc57dbb330b6004549280a356fea2646970667358221220c4434b13da17e33b65a4bd11492579981633ffcdab626ec9f2ce4d80bdd50a0664736f6c63430008180033",
  "linkReferences": {},
  "deployedLinkReferences": {}
}