{
  "_format": "hh-sol-artifact-1",
  "contractName": "StakingPool",
  "sourceName": "contracts/game/StakingPool.sol",
  "abi": [
    {
      "inputs": [
        {
          "internalType": "address",
          "name": "_wattToken",
          "type": "address"
        }
      ],
      "stateMutability": "nonpayable",
      "type": "constructor"
    },
    {
      "inputs": [
        {
          "internalType": "address",
          "name": "owner",
          "type": "address"
        }
      ],
      "name": "OwnableInvalidOwner",
      "type": "error"
    },
    {
      "inputs": [
        {
          "internalType": "address",
          "name": "account",
          "type": "address"
        }
      ],
      "name": "OwnableUnauthorizedAccount",
      "type": "error"
    },
    {
      "inputs": [],
      "name": "ReentrancyGuardReentrantCall",
      "type": "error"
    },
    {
      "anonymous": false,
      "inputs": [
        {
          "indexed": true,
          "internalType": "address",
          "name": "engine",
          "type": "address"
        }
      ],
      "name": "MiningEngineSet",
      "type": "event"
    },
    {
      "anonymous": false,
      "inputs": [
        {
          "indexed": true,
          "internalType": "address",
          "name": "nftContract",
          "type": "address"
        }
      ],
      "name": "NFTContractAdded",
      "type": "event"
    },
    {
      "anonymous": false,
      "inputs": [
        {
          "indexed": true,
          "internalType": "address",
          "name": "nftContract",
          "type": "address"
        },
        {
          "indexed": false,
          "internalType": "bool",
          "name": "enabled",
          "type": "bool"
        }
      ],
      "name": "NFTContractUpdated",
      "type": "event"
    },
    {
      "anonymous": false,
      "inputs": [
        {
          "indexed": true,
          "internalType": "address",
          "name": "previousOwner",
          "type": "address"
        },
        {
          "indexed": true,
          "internalType": "address",
          "name": "newOwner",
          "type": "address"
        }
      ],
      "name": "OwnershipTransferred",
      "type": "event"
    },
    {
      "anonymous": false,
      "inputs": [
        {
          "indexed": true,
          "internalType": "address",
          "name": "nftContract",
          "type": "address"
        },
        {
          "indexed": true,
          "internalType": "uint256",
          "name": "rigId",
          "type": "uint256"
        },
        {
          "indexed": false,
          "internalType": "uint256",
          "name": "amount",
          "type": "uint256"
        }
      ],
      "name": "RewardsClaimed",
      "type": "event"
    },
    {
      "anonymous": false,
      "inputs": [
        {
          "indexed": true,
          "internalType": "address",
          "name": "nftContract",
          "type": "address"
        },
        {
          "indexed": true,
          "internalType": "uint256",
          "name": "rigId",
          "type": "uint256"
        },
        {
          "indexed": true,
          "internalType": "address",
          "name": "owner",
          "type": "address"
        },
        {
          "indexed": false,
          "internalType": "uint256",
          "name": "weight",
          "type": "uint256"
        }
      ],
      "name": "Staked",
      "type": "event"
    },
    {
      "anonymous": false,
      "inputs": [
        {
          "indexed": true,
          "internalType": "address",
          "name": "nftContract",
          "type": "address"
        },
        {
          "indexed": true,
          "internalType": "uint256",
          "name": "rigId",
          "type": "uint256"
        },
        {
          "indexed": true,
          "internalType": "address",
          "name": "owner",
          "type": "address"
        },
        {
          "indexed": false,
          "internalType": "uint256",
          "name": "claimed",
          "type": "uint256"
        }
      ],
      "name": "Unstaked",
      "type": "event"
    },
    {
      "anonymous": false,
      "inputs": [
        {
          "indexed": false,
          "internalType": "uint256",
          "name": "amount",
          "type": "uint256"
        },
        {
          "indexed": false,
          "internalType": "uint256",
          "name": "newAccPerShare",
          "type": "uint256"
        }
      ],
      "name": "WattReceived",
      "type": "event"
    },
    {
      "inputs": [],
      "name": "PRECISION",
      "outputs": [
        {
          "internalType": "uint256",
          "name": "",
          "type": "uint256"
        }
      ],
      "stateMutability": "view",
      "type": "function"
    },
    {
      "inputs": [],
      "name": "accWattPerShare",
      "outputs": [
        {
          "internalType": "uint256",
          "name": "",
          "type": "uint256"
        }
      ],
      "stateMutability": "view",
      "type": "function"
    },
    {
      "inputs": [
        {
          "internalType": "address",
          "name": "nftContract",
          "type": "address"
        }
      ],
      "name": "addNFTContract",
      "outputs": [],
      "stateMutability": "nonpayable",
      "type": "function"
    },
    {
      "inputs": [],
      "name": "claimAllRewards",
      "outputs": [],
      "stateMutability": "nonpayable",
      "type": "function"
    },
    {
      "inputs": [
        {
          "internalType": "address",
          "name": "nftContract",
          "type": "address"
        },
        {
          "internalType": "uint256",
          "name": "rigId",
          "type": "uint256"
        }
      ],
      "name": "claimRewards",
      "outputs": [],
      "stateMutability": "nonpayable",
      "type": "function"
    },
    {
      "inputs": [
        {
          "internalType": "uint256",
          "name": "amount",
          "type": "uint256"
        },
        {
          "internalType": "address",
          "name": "to",
          "type": "address"
        }
      ],
      "name": "emergencyRecoverWATT",
      "outputs": [],
      "stateMutability": "nonpayable",
      "type": "function"
    },
    {
      "inputs": [
        {
          "internalType": "address",
          "name": "nftContract",
          "type": "address"
        },
        {
          "internalType": "uint256",
          "name": "rigId",
          "type": "uint256"
        },
        {
          "internalType": "address",
          "name": "to",
          "type": "address"
        }
      ],
      "name": "emergencyReturnNFT",
      "outputs": [],
      "stateMutability": "nonpayable",
      "type": "function"
    },
    {
      "inputs": [
        {
          "internalType": "address",
          "name": "user",
          "type": "address"
        }
      ],
      "name": "getAllPendingRewards",
      "outputs": [
        {
          "internalType": "uint256",
          "name": "total",
          "type": "uint256"
        }
      ],
      "stateMutability": "view",
      "type": "function"
    },
    {
      "inputs": [],
      "name": "getNFTContracts",
      "outputs": [
        {
          "internalType": "address[]",
          "name": "",
          "type": "address[]"
        }
      ],
      "stateMutability": "view",
      "type": "function"
    },
    {
      "inputs": [
        {
          "internalType": "address",
          "name": "nftContract",
          "type": "address"
        },
        {
          "internalType": "uint256",
          "name": "rigId",
          "type": "uint256"
        }
      ],
      "name": "getPendingRewards",
      "outputs": [
        {
          "internalType": "uint256",
          "name": "",
          "type": "uint256"
        }
      ],
      "stateMutability": "view",
      "type": "function"
    },
    {
      "inputs": [],
      "name": "getPoolStats",
      "outputs": [
        {
          "internalType": "uint256",
          "name": "_totalStakeWeight",
          "type": "uint256"
        },
        {
          "internalType": "uint256",
          "name": "_totalDistributed",
          "type": "uint256"
        },
        {
          "internalType": "uint256",
          "name": "_pendingDistribution",
          "type": "uint256"
        },
        {
          "internalType": "uint256",
          "name": "_accWattPerShare",
          "type": "uint256"
        }
      ],
      "stateMutability": "view",
      "type": "function"
    },
    {
      "inputs": [
        {
          "internalType": "address",
          "name": "nftContract",
          "type": "address"
        },
        {
          "internalType": "uint256",
          "name": "rigId",
          "type": "uint256"
        }
      ],
      "name": "getStake",
      "outputs": [
        {
          "components": [
            {
              "internalType": "address",
              "name": "owner",
              "type": "address"
            },
            {
              "internalType": "address",
              "name": "nftContract",
              "type": "address"
            },
            {
              "internalType": "uint256",
              "name": "rigId",
              "type": "uint256"
            },
            {
              "internalType": "uint256",
              "name": "weight",
              "type": "uint256"
            },
            {
              "internalType": "uint256",
              "name": "startTime",
              "type": "uint256"
            },
            {
              "internalType": "uint256",
              "name": "rewardDebt",
              "type": "uint256"
            },
            {
              "internalType": "uint256",
              "name": "totalClaimed",
              "type": "uint256"
            }
          ],
          "internalType": "struct StakingPool.Stake",
          "name": "",
          "type": "tuple"
        }
      ],
      "stateMutability": "view",
      "type": "function"
    },
    {
      "inputs": [
        {
          "internalType": "address",
          "name": "nftContract",
          "type": "address"
        },
        {
          "internalType": "uint256",
          "name": "rigId",
          "type": "uint256"
        }
      ],
      "name": "getStakeWeight",
      "outputs": [
        {
          "internalType": "uint256",
          "name": "",
          "type": "uint256"
        }
      ],
      "stateMutability": "view",
      "type": "function"
    },
    {
      "inputs": [
        {
          "internalType": "address",
          "name": "user",
          "type": "address"
        }
      ],
      "name": "getUserStakedRigs",
      "outputs": [
        {
          "internalType": "address[]",
          "name": "nftContracts_",
          "type": "address[]"
        },
        {
          "internalType": "uint256[]",
          "name": "rigIds",
          "type": "uint256[]"
        }
      ],
      "stateMutability": "view",
      "type": "function"
    },
    {
      "inputs": [
        {
          "internalType": "address",
          "name": "user",
          "type": "address"
        }
      ],
      "name": "getUserStakes",
      "outputs": [
        {
          "internalType": "bytes32[]",
          "name": "",
          "type": "bytes32[]"
        }
      ],
      "stateMutability": "view",
      "type": "function"
    },
    {
      "inputs": [],
      "name": "lastRewardBalance",
      "outputs": [
        {
          "internalType": "uint256",
          "name": "",
          "type": "uint256"
        }
      ],
      "stateMutability": "view",
      "type": "function"
    },
    {
      "inputs": [],
      "name": "miningEngine",
      "outputs": [
        {
          "internalType": "address",
          "name": "",
          "type": "address"
        }
      ],
      "stateMutability": "view",
      "type": "function"
    },
    {
      "inputs": [
        {
          "internalType": "address",
          "name": "",
          "type": "address"
        }
      ],
      "name": "nftContractInfo",
      "outputs": [
        {
          "internalType": "bool",
          "name": "enabled",
          "type": "bool"
        },
        {
          "internalType": "uint256",
          "name": "totalStaked",
          "type": "uint256"
        },
        {
          "internalType": "uint256",
          "name": "addedAt",
          "type": "uint256"
        }
      ],
      "stateMutability": "view",
      "type": "function"
    },
    {
      "inputs": [
        {
          "internalType": "uint256",
          "name": "",
          "type": "uint256"
        }
      ],
      "name": "nftContracts",
      "outputs": [
        {
          "internalType": "address",
          "name": "",
          "type": "address"
        }
      ],
      "stateMutability": "view",
      "type": "function"
    },
    {
      "inputs": [
        {
          "internalType": "uint256",
          "name": "amount",
          "type": "uint256"
        }
      ],
      "name": "notifyReward",
      "outputs": [],
      "stateMutability": "nonpayable",
      "type": "function"
    },
    {
      "inputs": [
        {
          "internalType": "address",
          "name": "",
          "type": "address"
        },
        {
          "internalType": "address",
          "name": "",
          "type": "address"
        },
        {
          "internalType": "uint256",
          "name": "",
          "type": "uint256"
        },
        {
          "internalType": "bytes",
          "name": "",
          "type": "bytes"
        }
      ],
      "name": "onERC721Received",
      "outputs": [
        {
          "internalType": "bytes4",
          "name": "",
          "type": "bytes4"
        }
      ],
      "stateMutability": "nonpayable",
      "type": "function"
    },
    {
      "inputs": [],
      "name": "owner",
      "outputs": [
        {
          "internalType": "address",
          "name": "",
          "type": "address"
        }
      ],
      "stateMutability": "view",
      "type": "function"
    },
    {
      "inputs": [],
      "name": "renounceOwnership",
      "outputs": [],
      "stateMutability": "nonpayable",
      "type": "function"
    },
    {
      "inputs": [
        {
          "internalType": "address",
          "name": "engine",
          "type": "address"
        }
      ],
      "name": "setMiningEngine",
      "outputs": [],
      "stateMutability": "nonpayable",
      "type": "function"
    },
    {
      "inputs": [
        {
          "internalType": "address",
          "name": "nftContract",
          "type": "address"
        },
        {
          "internalType": "bool",
          "name": "enabled",
          "type": "bool"
        }
      ],
      "name": "setNFTContractEnabled",
      "outputs": [],
      "stateMutability": "nonpayable",
      "type": "function"
    },
    {
      "inputs": [
        {
          "internalType": "address",
          "name": "nftContract",
          "type": "address"
        },
        {
          "internalType": "uint256",
          "name": "rigId",
          "type": "uint256"
        }
      ],
      "name": "stake",
      "outputs": [],
      "stateMutability": "nonpayable",
      "type": "function"
    },
    {
      "inputs": [
        {
          "internalType": "bytes32",
          "name": "",
          "type": "bytes32"
        }
      ],
      "name": "stakes",
      "outputs": [
        {
          "internalType": "address",
          "name": "owner",
          "type": "address"
        },
        {
          "internalType": "address",
          "name": "nftContract",
          "type": "address"
        },
        {
          "internalType": "uint256",
          "name": "rigId",
          "type": "uint256"
        },
        {
          "internalType": "uint256",
          "name": "weight",
          "type": "uint256"
        },
        {
          "internalType": "uint256",
          "name": "startTime",
          "type": "uint256"
        },
        {
          "internalType": "uint256",
          "name": "rewardDebt",
          "type": "uint256"
        },
        {
          "internalType": "uint256",
          "name": "totalClaimed",
          "type": "uint256"
        }
      ],
      "stateMutability": "view",
      "type": "function"
    },
    {
      "inputs": [],
      "name": "totalStakeWeight",
      "outputs": [
        {
          "internalType": "uint256",
          "name": "",
          "type": "uint256"
        }
      ],
      "stateMutability": "view",
      "type": "function"
    },
    {
      "inputs": [],
      "name": "totalWattDistributed",
      "outputs": [
        {
          "internalType": "uint256",
          "name": "",
          "type": "uint256"
        }
      ],
      "stateMutability": "view",
      "type": "function"
    },
    {
      "inputs": [
        {
          "internalType": "address",
          "name": "newOwner",
          "type": "address"
        }
      ],
      "name": "transferOwnership",
      "outputs": [],
      "stateMutability": "nonpayable",
      "type": "function"
    },
    {
      "inputs": [
        {
          "internalType": "address",
          "name": "nftContract",
          "type": "address"
        },
        {
          "internalType": "uint256",
          "name": "rigId",
          "type": "uint256"
        }
      ],
      "name": "unstake",
      "outputs": [],
      "stateMutability": "nonpayable",
      "type": "function"
    },
    {
      "inputs": [
        {
          "internalType": "address",
          "name": "",
          "type": "address"
        },
        {
          "internalType": "uint256",
          "name": "",
          "type": "uint256"
        }
      ],
      "name": "userStakeKeys",
      "outputs": [
        {
          "internalType": "bytes32",
          "name": "",
          "type": "bytes32"
        }
      ],
      "stateMutability": "view",
      "type": "function"
    },
    {
      "inputs": [],
      "name": "wattToken",
      "outputs": [
        {
          "internalType": "contract IWATT",
          "name": "",
          "type": "address"
        }
      ],
      "stateMutability": "view",
      "type": "function"
    }
  ],
  "bytecode": "0x60a0346200014d57601f620028c238819003918201601f19168301916001600160401b0383118484101762000152578084926020946040528339810103126200014d57516001600160a01b03808216918290036200014d57331562000134576000543360018060a01b0319821617600055604051913391167f8be0079c531659141344cd1fd0a4f28419497f9722a3daafe3b4186f6b6457e0600080a360018055811562000103575060805260405161275990816200016982396080518181816109e401528181610a9c015281816110c6015281816111540152818161137201528181611c8e01528181611d9b015281816122e00152818161245b01526125570152f35b62461bcd60e51b815260206004820152600c60248201526b125b9d985b1a590815d0551560a21b6044820152606490fd5b604051631e4fbdf760e01b815260006004820152602490fd5b600080fd5b634e487b7160e01b600052604160045260246000fdfe608060408181526004918236101561001657600080fd5b60009260e08435811c92836309bc605a14611d23575082630b83a72714611b2e5782630bb4d82a14611aec5782631140e77e14611994578263150b7a02146118eb5782631bb288a5146118ae57826333b0b8fb146118155782633881f1c4146117c357826360993b5b1461172a578263626e0f831461170a578263715018a6146116b05782637279edcd14611690578263842e2981146115e35782638da5cb5b146115ba5782638e60eb71146114e15782638fee6407146114705782639204d5de146114015782639a99b4f01461128a5782639da74bbc14611119578263aaf5eb68146110f5578263ab463980146110b0578263adc9772e14610bb2578263b5fa755c14610b5b578263bbb8518814610a6d578263c2a672e0146106c6578263c676ec6c14610512578263cfac5d7c146103b1578263cfd47663146102bb57508163d203fd921461029c578163d98ec80714610273578163e4e7c6b414610243578163f2fde38b146101b3575063fa4caa741461019257600080fd5b346101af57816003193601126101af576020906009549051908152f35b5080fd5b90503461023f57602036600319011261023f576101ce611f60565b906101d7612669565b6001600160a01b03918216928315610229575050600054826001600160601b0360a01b821617600055167f8be0079c531659141344cd1fd0a4f28419497f9722a3daafe3b4186f6b6457e0600080a380f35b51631e4fbdf760e01b8152908101849052602490fd5b8280fd5b5050346101af57806003193601126101af5760209061026c610263611f60565b60243590612247565b9051908152f35b5050346101af57816003193601126101af5760025490516001600160a01b039091168152602090f35b5050346101af57816003193601126101af576020906008549051908152f35b838286346103ae57826003193601126103ae5782906103146102db611f60565b8260c085516102e981611ff1565b82815282602082015282878201528260608201528260808201528260a0820152015260243590612695565b815260056020522082519161032883611ff1565b60018060a01b0390818354169485855282600185015416926020860193845260028501549082870191825260038601549360608801948552860154946080880195865260c0600660058901549860a08b01998a520154980197885283519889525116602088015251908601525160608501525160808401525160a08301525160c0820152f35b80fd5b8482853461023f57602036600319011261023f576103cd611f60565b916103d6612669565b6001600160a01b03928316926103ed84151561219c565b8385528160205260ff83862054166104df57600354600160401b8110156104cc5780600161041e9201600355611f8c565b819291549060031b9186831b921b19161790558151916060830183811067ffffffffffffffff8211176104b7579060029291815260018452610486602085019187835280860193428552878952602052872094511515859060ff801983541691151516179055565b516001840155519101557f0485e5c8a0bd060dfe3c9cd330188d891c9d311258abe47715d83455bf7b2da48280a280f35b604183634e487b7160e01b6000525260246000fd5b634e487b7160e01b865260418352602486fd5b506020606492519162461bcd60e51b8352820152600d60248201526c105b1c9958591e481859191959609a1b6044820152fd5b838583346101af576020928360031936011261023f576001600160a01b03938461053a611f60565b16845260069260068252828520938351808685829854938481520190895285892092895b878282106106b05750505061057592500386612037565b8451916105996105848461222f565b9361059187519586612037565b80855261222f565b601f199790880136858701378651966105c96105b48961222f565b986105c189519a8b612037565b808a5261222f565b8887019901368a37815b815181101561065f57806105e9600192846120f9565b51845288888d60c0896005808552858a209086519461060786611ff1565b808354168652898301541680968601526002820154968501968752600382015460608601528b820154608086015281015460a0850152015491015261064c838a6120f9565b5251610658828c6120f9565b52016105d3565b85888b858c8b806106798651978789988952880190612059565b928684038288015251928381520193925b82811061069957505050500390f35b83518552869550938101939281019260010161068a565b855484526001958601958b95509301920161055e565b838583346101af57826003193601126101af576106e1611f60565b602491602435906106f0612413565b6106fa8284612695565b95868652602090600582528087209260018060a01b0361071e8186541633146121da565b610726612436565b61072f8a6125c8565b96600686015497806109b9575b5061074e600380970154600754612096565b600755169384895281845260019788848b200180549081156109a6576000199182019055863b15610984578451635390271560e01b815288858201528b60248201528b81604481838c5af1801561098857908c91610992575b5050863b156109845784516323b872dd60e01b815230858201908152336020820152604081018a90528c90829081906060010381838c5af18015610988578b949392918d91610967575b5050338c5260068752858c20929350908b8b5b61086d575b505050505090600060067f31afc885c1072f7b78bed205f5e5db4d16b4aab433352079e8388eef35dabf0d94938b8b526005855282848c20918c83558c8c8401558160028401558160038401558201558260058201550155519485523394a4805580f35b835480821015610961578e6108828387611fd9565b905490881b1c1461089657508b018b610804565b839d9e969798999a9b9c9d810190811161094f576108c76108ba6108de9287611fd9565b905490881b1c9286611fd9565b819391549060031b91821b91600019901b19161790565b9055825490811561093e5750927f31afc885c1072f7b78bed205f5e5db4d16b4aab433352079e8388eef35dabf0d97969592826000969360069601926109248484611fd9565b81939154921b1b19169055559a999897969581938d610809565b634e487b7160e01b8e52603187528dfd5b634e487b7160e01b8f5260118852828ffd5b50610809565b610975919293949550612023565b61098457908992918b8e6107f1565b8a80fd5b86513d8e823e3d90fd5b61099b90612023565b610984578a8d6107a7565b634e487b7160e01b8c526011855260248cfd5b845163a9059cbb60e01b8152338582019081526020810183905291999187908290819003604001818f7f000000000000000000000000000000000000000000000000000000000000000089165af190811561098857610a3792610a29610a2e938f938e9491610a40575b5061215e565b6120ec565b98600a546120ec565b600a558b61073c565b610a6091508b3d8d11610a66575b610a588183612037565b810190612146565b38610a23565b503d610a4e565b508284346103ae57806003193601126103ae5781516370a0823160e01b815230938101939093526020836024817f00000000000000000000000000000000000000000000000000000000000000006001600160a01b03165afa8015610b4f578190610b17575b600954608094509081811115610b0f57610aed9250612096565b905b60075491600a549160085492815194855260208501528301526060820152f35b505090610aef565b506020833d602011610b47575b81610b3160209383612037565b81010312610b425760809251610ad3565b600080fd5b3d9150610b24565b509051903d90823e3d90fd5b505050346101af57806003193601126101af57610b76611f60565b6001600160a01b031682526006602052808220805460243593908410156103ae5750602092610ba491611fd9565b91905490519160031b1c8152f35b915091346110ac57806003193601126110ac57610bcd611f60565b92602493843592610bdc612413565b60018060a01b03958683169384895260209381855260ff848b2054161561106b5783516331a9108f60e11b8152828101889052858185818a5afa8015610fa9578b90611033575b610c3191508a1633146121da565b835163ec7bf95560e01b8152828101889052858185818a5afa908115610fa9578b91611016575b50610fe55786610c6791612695565b96878a526005855288848b205416610fb357610c81612436565b83516360122b5f60e11b8152828101889052818185818a5afa918215610fa9578b92610eff575b5050610cde606491610cd961ffff918281511692610cd260ff6080818c86015116940151166126d8565b16926120b9565b6120b9565b0496853b15610edd5783516323b872dd60e01b815233838201908152306020820152604081018990528b91908290829081906060010381838c5af18015610ef557610ee1575b5050853b15610edd578351635390271560e01b815287838201528a60019a8b868401528183604481838d5af18015610ed357848c8c8f8d908d97968d96610eae575b600698995080670de0b6b3a7640000610d81600854886120b9565b049789600582519d8e9a610d948c611ff1565b338c52818c01988952848c01998a5260608c019a8b5260c060808d019c8d42905260a081019e8f52019d8e52835252209a5116916001600160601b0360a01b92838c5416178b558a0192511690825416179055516002870155516003860155518685015551600584015551910155338a5260068552838a20805490600160401b821015610e9c57816108c7918c610e2d94018155611fd9565b9055610e3b876007546120ec565b60075584895280845287838a2001918254916000198314610e8b575050870190555193845233937ff65271afc35201e83c229b7b581d7fde59bfe7b7dd943e8719fc8c5f5ada63f69190a4805580f35b634e487b7160e01b8b526011905289fd5b634e487b7160e01b8c5260418452848cfd5b9750505050505050610ec08193612023565b6101af578186848c8c8f8d908d97610d66565b87513d84823e3d90fd5b8980fd5b610eea90612023565b610edd578938610d24565b86513d84823e3d90fd5b90809250813d8311610fa2575b610f168183612037565b81010312610edd57610cde606491610f9760c0875192610f3584611ff1565b610f3e81612212565b8452610f4b8a8201612221565b8a850152610f5a898201612221565b89850152610f6a60608201612212565b6060850152610f7b60808201612221565b6080850152610f8c60a08201612221565b60a085015201612221565b60c082015291610ca8565b503d610f0c565b85513d8d823e3d90fd5b50600e6064928585519362461bcd60e51b85528401528201526d105b1c9958591e481cdd185ad95960921b6044820152fd5b50600d6064928585519362461bcd60e51b85528401528201526c526967206973206d696e696e6760981b6044820152fd5b61102d9150863d8811610a6657610a588183612037565b38610c58565b508581813d8311611064575b6110498183612037565b810103126109845751898116810361098457610c3190610c23565b503d61103f565b5060186064928585519362461bcd60e51b85528401528201527f4e465420636f6e7472616374206e6f7420656e61626c656400000000000000006044820152fd5b8380fd5b505050346101af57816003193601126101af57517f00000000000000000000000000000000000000000000000000000000000000006001600160a01b03168152602090f35b505050346101af57816003193601126101af5760209051670de0b6b3a76400008152f35b5090503461023f578160031936011261023f578035611136611f76565b61113e612669565b83516370a0823160e01b815230848201526020937f00000000000000000000000000000000000000000000000000000000000000006001600160a01b031692918581602481875afa908115611280578891611253575b50841161121957855163a9059cbb60e01b81526001600160a01b039092169082019081526020810193909352918391839182908890829060400103925af191821561120c576111ec935084926111ef575b505061215e565b80f35b6112059250803d10610a6657610a588183612037565b38806111e5565b50505051903d90823e3d90fd5b855162461bcd60e51b81529081018590526014602482015273496e73756666696369656e742062616c616e636560601b6044820152606490fd5b90508581813d8311611279575b61126a8183612037565b81010312610b42575138611194565b503d611260565b87513d8a823e3d90fd5b5090503461023f578160031936011261023f576006906112a8611f60565b602435936112b4612413565b61136c60206112c38785612695565b8089526005825283892080546001600160a01b039791926112f8916112eb908a1633146121da565b6112f3612436565b6125c8565b97889261130684151561210d565b670de0b6b3a76400006113206003830154600854906120b9565b046005820155016113328382546120ec565b905561134082600a546120ec565b600a55845163a9059cbb60e01b8152339181019182526020820192909252909283918291604090910190565b03818a887f0000000000000000000000000000000000000000000000000000000000000000165af19081156113f757916113d2602094927fdacbdde355ba930696a362ea6738feb9f8bd52dfb3d81947558fd3217e23e32596948a916113e0575061215e565b519485521692a36001805580f35b610a609150863d8811610a6657610a588183612037565b82513d89823e3d90fd5b84346103ae5760203660031901126103ae5761141b611f60565b611423612669565b6001600160a01b031661143781151561219c565b600280546001600160a01b031916821790557f544f34761a6c08fcba53ab048fe70ee4810d7fbc7c1fcb04e3779ad37ee1d6748280a280f35b838286346103ae5760203660031901126103ae5782908235815260056020522060018060a01b03928382541693600183015416926002830154600384015491840154926006600586015495015495815197885260208801528601526060850152608084015260a083015260c0820152f35b8482853461023f578060031936011261023f576114fc611f60565b90602435801515928382036115b657611513612669565b6001600160a01b03168086526020859052828620600201549094901561157e57916115767fcf0806606b85286216389cc06a352b500544f096dd7afea019f5a2c0465fffc2949260209487895285528288209060ff801983541691151516179055565b51908152a280f35b606490602084519162461bcd60e51b8352820152601260248201527110dbdb9d1c9858dd081b9bdd08185919195960721b6044820152fd5b8580fd5b505050346101af57816003193601126101af57905490516001600160a01b039091168152602090f35b8385346103ae57602090816003193601126103ae5782906001600160a01b0361160a611f60565b16815260068352818120908251808584549182815201908194845286842090845b81811061167c5750505081611641910382612037565b83519485948186019282875251809352850193925b82811061166557505050500390f35b835185528695509381019392810192600101611656565b82548452928801926001928301920161162b565b505050346101af57816003193601126101af57602090600a549051908152f35b84346103ae57806003193601126103ae576116c9612669565b600080546001600160a01b0319811682556001600160a01b03167f8be0079c531659141344cd1fd0a4f28419497f9722a3daafe3b4186f6b6457e08280a380f35b505050346101af57816003193601126101af576020906007549051908152f35b5090503461023f57602036600319011261023f576002546001600160a01b0316330361178d57907f44a42dab33ae8826066c96e9bba45c5d2e9460b99982d110bba9e3a94b0c1d5d9161177b612436565b6008548251913582526020820152a180f35b6020606492519162461bcd60e51b835282015260116024820152704f6e6c79204d696e696e67456e67696e6560781b6044820152fd5b5090503461023f57602036600319011261023f5760609282916001600160a01b036117ec611f60565b1682526020522060ff815416916002600183015492015491815193151584526020840152820152f35b8385346103ae57806003193601126103ae578151918291600354808552602080950194600383527fc2575a0e9e593c00f959f8c92f12db2869c3395a3b0502d05e2516446f71f85b92905b82821061188e5761188a8686611878828b0383612037565b51918291602083526020830190612059565b0390f35b83546001600160a01b031687529586019560019384019390910190611860565b505050346101af57806003193601126101af576003816020936118db6118d2611f60565b60243590612695565b8152600585522001549051908152f35b508284346103ae5760803660031901126103ae57611907611f60565b50611910611f76565b506064359267ffffffffffffffff9081851161023f573660238601121561023f57848101359182116119815750825193611954601f8301601f191660200186612037565b818552366024838301011161023f57906020948160248794018483013701015251630a85bd0160e11b8152f35b634e487b7160e01b835260419052602482fd5b508383346101af5760603660031901126101af576119b0611f60565b6024359360443592916001600160a01b039081851685036115b6576119d3612669565b6119dd8782612695565b86526005602052818487205416611ab4571694853b15611ab057825195635390271560e01b87528183880152856024880152858760448183855af18015611aa657611a92575b859650803b156115b65783516323b872dd60e01b8152309381019384526001600160a01b0390951660208401526040830191909152849184919082908490829060600103925af1908115611a895750611a795750f35b611a8290612023565b6103ae5780f35b513d84823e3d90fd5b949095611a9e90612023565b938590611a23565b84513d88823e3d90fd5b8480fd5b835162461bcd60e51b815260208185015260126024820152715374616b65207374696c6c2061637469766560701b6044820152606490fd5b5090503461023f57602036600319011261023f5735916003548310156103ae5750611b18602092611f8c565b60018060a01b0391549060031b1c169051908152f35b8482853461023f578260031936011261023f57611b49612413565b33835260066020906006825282852091825415611cf557611b68612436565b85805b8454821015611c3d57611b7e8286611fd9565b929054600393841b1c8952600592838552878a2093611bab611ba0848a611fd9565b905490841b1c6125c8565b9182611bbf575b5050506001019150611b6b565b600194611bfa92670de0b6b3a7640000611be086948a0154600854906120b9565b0490880155888701611bf38382546120ec565b90556120ec565b937fdacbdde355ba930696a362ea6738feb9f8bd52dfb3d81947558fd3217e23e325866002868060a01b038785015416930154938b51908152a382918a80611bb2565b8583611c89818b948b611c5182151561210d565b611c5d82600a546120ec565b600a55855163a9059cbb60e01b8152339181019182526020820192909252909283918291604090910190565b0381877f00000000000000000000000000000000000000000000000000000000000000006001600160a01b03165af191821561120c57611cd193508492611cd857505061215e565b6001805580f35b611cee9250803d10610a6657610a588183612037565b83806111e5565b8460649185519162461bcd60e51b835282015260096024820152684e6f207374616b657360b81b6044820152fd5b84908684346101af57602091826003193601126103ae57611d42611f60565b91819260018060a01b03809116835260068086528784208781549182825288820190875288872092875b8a828210611f4a57505050611d8392500388612037565b87516370a0823160e01b8152308482015286816024817f000000000000000000000000000000000000000000000000000000000000000087165afa908115611f40578591611f13575b5060095480821115611f0b57611de191612096565b935b600854946007549081151580611f02575b611ebc575b5050805b8851811015611eb357611e10818a6120f9565b51825289670de0b6b3a7640000611e7e886005808d528c85882095805191611e3783611ff1565b8b88541683528b6001890154169083015260028701549082015260c0896003880154938460608501528d89015460808501528801549760a0840198895201549101526120b9565b04905190818111611e94575b5050600101611dfd565b97611ea5611eab926001949a612096565b906120ec565b96908b611e8a565b87878b51908152f35b670de0b6b3a764000096929690818102918183041490151715611eef57611ee79291611ea5916120cc565b938980611df9565b634e487b7160e01b875260118652602487fd5b50801515611df4565b505083611de3565b90508681813d8311611f39575b611f2a8183612037565b81010312611ab0575189611dcc565b503d611f20565b89513d87823e3d90fd5b855484526001958601958d955093019201611d6c565b600435906001600160a01b0382168203610b4257565b602435906001600160a01b0382168203610b4257565b600354811015611fc35760036000527fc2575a0e9e593c00f959f8c92f12db2869c3395a3b0502d05e2516446f71f85b0190600090565b634e487b7160e01b600052603260045260246000fd5b8054821015611fc35760005260206000200190600090565b60e0810190811067ffffffffffffffff82111761200d57604052565b634e487b7160e01b600052604160045260246000fd5b67ffffffffffffffff811161200d57604052565b90601f8019910116810190811067ffffffffffffffff82111761200d57604052565b90815180825260208080930193019160005b828110612079575050505090565b83516001600160a01b03168552938101939281019260010161206b565b919082039182116120a357565b634e487b7160e01b600052601160045260246000fd5b818102929181159184041417156120a357565b81156120d6570490565b634e487b7160e01b600052601260045260246000fd5b919082018092116120a357565b8051821015611fc35760209160051b010190565b1561211457565b60405162461bcd60e51b815260206004820152600a6024820152694e6f207265776172647360b01b6044820152606490fd5b90816020910312610b4257518015158103610b425790565b1561216557565b60405162461bcd60e51b815260206004820152600f60248201526e151c985b9cd9995c8819985a5b1959608a1b6044820152606490fd5b156121a357565b60405162461bcd60e51b815260206004820152600f60248201526e496e76616c6964206164647265737360881b6044820152606490fd5b156121e157565b60405162461bcd60e51b81526020600482015260096024820152682737ba1037bbb732b960b91b6044820152606490fd5b519061ffff82168203610b4257565b519060ff82168203610b4257565b67ffffffffffffffff811161200d5760051b60200190565b9061225191612695565b600090815260206005815260408220906040519061226e82611ff1565b60018060a01b0380845416808452816001860154168385015260028501546040850152600385015493606081019485526004860154608082015260c0600660058801549760a0840198895201549101521561240c5781602491604051928380926370a0823160e01b82523060048301527f0000000000000000000000000000000000000000000000000000000000000000165afa9182156124015785926123d3575b5050600954808211156123cb5761232691612096565b6008549060075490811515806123c2575b612370575b505061235290670de0b6b3a764000092516120b9565b915191048181111561236b576123689250612096565b90565b505090565b670de0b6b3a7640000908181029181830414901517156123ae5761235292611ea5670de0b6b3a764000095936123a5936120cc565b9181935061233c565b634e487b7160e01b86526011600452602486fd5b50801515612337565b505082612326565b90809250813d83116123fa575b6123ea8183612037565b810103126110ac57513880612310565b503d6123e0565b6040513d87823e3d90fd5b5050505090565b600260015414612424576002600155565b604051633ee5aeb560e01b8152600490fd5b600754801561253b576040516370a0823160e01b8152306004820152906020826024817f00000000000000000000000000000000000000000000000000000000000000006001600160a01b03165afa91821561252f576000926124fb575b50600954600090808411156124f5576124ae915083612096565b801580156124bf575b505050600955565b670de0b6b3a76400008083029283041417156120a3576124ea916124e2916120cc565b6008546120ec565b6008553880806124b7565b506124ae565b90916020823d602011612527575b8161251660209383612037565b810103126103ae5750519038612494565b3d9150612509565b6040513d6000823e3d90fd5b506040516370a0823160e01b81523060048201526020816024817f00000000000000000000000000000000000000000000000000000000000000006001600160a01b03165afa90811561252f57600091612596575b50600955565b90506020813d6020116125c0575b816125b160209383612037565b81010312610b42575138612590565b3d91506125a4565b600052600560205260406000206040516125e181611ff1565b60018060a01b0380835416908183526001840154166020830152600283015460408301526003830154918260608201526004840154608082015260c0600660058601549560a084019687520154910152156126625761264c670de0b6b3a764000091600854906120b9565b0490518082116000146126625761236891612096565b5050600090565b6000546001600160a01b0316330361267d57565b60405163118cdaa760e01b8152336004820152602490fd5b906040519060208201926001600160601b03199060601b1683526034820152603481526060810181811067ffffffffffffffff82111761200d5760405251902090565b60ff16801561271d57600181146127175760028114612711576003811461270b5760041461270557606490565b61012c90565b5060dc90565b5060a090565b50607d90565b5060649056fea2646970667358221220eb0725c906af7f6db9e7e9479c8dad4786f0a2f55e9422ac3fc6cc89e0e2871a64736f6c63430008180033",
  "linkReferences": {},
  "deployedLinkReferences": {}
}