{
  "_format": "hh-sol-artifact-1",
  "contractName": "MerkleTreeTest",
  "sourceName": "contracts/testing/MerkleTreeTest.sol",
  "abi": [
    {
      "inputs": [
        {
          "internalType": "uint256",
          "name": "_levels",
          "type": "uint256"
        }
      ],
      "stateMutability": "nonpayable",
      "type": "constructor"
    },
    {
      "anonymous": false,
      "inputs": [
        {
          "indexed": true,
          "internalType": "bytes32",
          "name": "leaf",
          "type": "bytes32"
        },
        {
          "indexed": true,
          "internalType": "uint256",
          "name": "leafIndex",
          "type": "uint256"
        },
        {
          "indexed": true,
          "internalType": "bytes32",
          "name": "newRoot",
          "type": "bytes32"
        }
      ],
      "name": "LeafInserted",
      "type": "event"
    },
    {
      "inputs": [],
      "name": "ROOT_HISTORY_SIZE",
      "outputs": [
        {
          "internalType": "uint256",
          "name": "",
          "type": "uint256"
        }
      ],
      "stateMutability": "view",
      "type": "function"
    },
    {
      "inputs": [
        {
          "internalType": "uint256",
          "name": "",
          "type": "uint256"
        }
      ],
      "name": "filledSubtrees",
      "outputs": [
        {
          "internalType": "bytes32",
          "name": "",
          "type": "bytes32"
        }
      ],
      "stateMutability": "view",
      "type": "function"
    },
    {
      "inputs": [],
      "name": "getLeafCount",
      "outputs": [
        {
          "internalType": "uint256",
          "name": "",
          "type": "uint256"
        }
      ],
      "stateMutability": "view",
      "type": "function"
    },
    {
      "inputs": [],
      "name": "getRoot",
      "outputs": [
        {
          "internalType": "bytes32",
          "name": "",
          "type": "bytes32"
        }
      ],
      "stateMutability": "view",
      "type": "function"
    },
    {
      "inputs": [],
      "name": "getRoots",
      "outputs": [
        {
          "internalType": "bytes32[]",
          "name": "",
          "type": "bytes32[]"
        }
      ],
      "stateMutability": "view",
      "type": "function"
    },
    {
      "inputs": [
        {
          "internalType": "bytes32",
          "name": "leaf",
          "type": "bytes32"
        }
      ],
      "name": "insert",
      "outputs": [
        {
          "internalType": "uint256",
          "name": "",
          "type": "uint256"
        }
      ],
      "stateMutability": "nonpayable",
      "type": "function"
    },
    {
      "inputs": [
        {
          "internalType": "bytes32[]",
          "name": "leaves",
          "type": "bytes32[]"
        }
      ],
      "name": "insertBatch",
      "outputs": [
        {
          "internalType": "uint256[]",
          "name": "indices",
          "type": "uint256[]"
        }
      ],
      "stateMutability": "nonpayable",
      "type": "function"
    },
    {
      "inputs": [
        {
          "internalType": "bytes32",
          "name": "root",
          "type": "bytes32"
        }
      ],
      "name": "isKnownRoot",
      "outputs": [
        {
          "internalType": "bool",
          "name": "",
          "type": "bool"
        }
      ],
      "stateMutability": "view",
      "type": "function"
    },
    {
      "inputs": [],
      "name": "levels",
      "outputs": [
        {
          "internalType": "uint256",
          "name": "",
          "type": "uint256"
        }
      ],
      "stateMutability": "view",
      "type": "function"
    },
    {
      "inputs": [],
      "name": "nextIndex",
      "outputs": [
        {
          "internalType": "uint256",
          "name": "",
          "type": "uint256"
        }
      ],
      "stateMutability": "view",
      "type": "function"
    },
    {
      "inputs": [
        {
          "internalType": "bytes32",
          "name": "",
          "type": "bytes32"
        }
      ],
      "name": "rootHistory",
      "outputs": [
        {
          "internalType": "bool",
          "name": "",
          "type": "bool"
        }
      ],
      "stateMutability": "view",
      "type": "function"
    },
    {
      "inputs": [
        {
          "internalType": "uint256",
          "name": "",
          "type": "uint256"
        }
      ],
      "name": "roots",
      "outputs": [
        {
          "internalType": "bytes32",
          "name": "",
          "type": "bytes32"
        }
      ],
      "stateMutability": "view",
      "type": "function"
    },
    {
      "inputs": [
        {
          "internalType": "bytes32",
          "name": "leaf",
          "type": "bytes32"
        },
        {
          "internalType": "bytes32[]",
          "name": "pathElements",
          "type": "bytes32[]"
        },
        {
          "internalType": "uint256[]",
          "name": "pathIndices",
          "type": "uint256[]"
        },
        {
          "internalType": "bytes32",
          "name": "root",
          "type": "bytes32"
        }
      ],
      "name": "verifyMerkleProof",
      "outputs": [
        {
          "internalType": "bool",
          "name": "",
          "type": "bool"
        }
      ],
      "stateMutability": "pure",
      "type": "function"
    },
    {
      "inputs": [
        {
          "internalType": "uint256",
          "name": "",
          "type": "uint256"
        }
      ],
      "name": "zeros",
      "outputs": [
        {
          "internalType": "bytes32",
          "name": "",
          "type": "bytes32"
        }
      ],
      "stateMutability": "view",
      "type": "function"
    }
  ],
  "bytecode": "0x60a03461025457610b9138819003601f8101601f191683016001600160401b038111848210176101315783928291604052833960209283918101031261025457518015158061024a575b156102145780608052600091825492680100000000000000009283851015610200576001948581018084558110156101ec578290818052848220015560028054858110156101d8578681018083558110156101c45781845284842001839055859291905b8184106101475750506100c1915080610259565b60035492831015610131578383018060035583101561011b578060049360036000528360002001556000525260406000209060ff19825416179055604051610903908161028e823960805181818161034801526106f50152f35b634e487b7160e01b600052603260045260246000fd5b634e487b7160e01b600052604160045260246000fd5b90918061015391610259565b928360005487811015610131578881018060005581101561011b578190600080528760002001558254878110156101315788810180855581101561011b578360005286600020015560001981146101ae5786019291906100ad565b634e487b7160e01b600052601160045260246000fd5b634e487b7160e01b84526032600452602484fd5b634e487b7160e01b84526041600452602484fd5b634e487b7160e01b83526032600452602483fd5b634e487b7160e01b82526041600452602482fd5b60405162461bcd60e51b815260048101839052600e60248201526d496e76616c6964206c6576656c7360901b6044820152606490fd5b5081811115610049565b600080fd5b604080516020810192835280820193909352825290606081016001600160401b03811182821017610131576040525190209056fe608060408181526004918236101561001657600080fd5b600092833560e01c91826305d9e0a014610445575081632d287e431461041e57816335a5e06d1461036b5781634ecf518b146103305781635ca1e165146102ef57816366dd97ab146102c35781636d9833e3146102c35781636e7616cb146101be578163c2b40ae414610185578163cd87a3b414610169578163d3ea61251461014a578163e829558814610120578163f178e47c146100e0575063fc7e9c6f146100bf57600080fd5b346100dc57816003193601126100dc576020906001549051908152f35b5080fd5b90503461011c57602036600319011261011c573591600254831015610119575061010b602092610614565b91905490519160031b1c8152f35b80fd5b8280fd5b90503461011c57602036600319011261011c5735918054831015610119575061010b6020926105ca565b5050346100dc57816003193601126100dc576020906001549051908152f35b5050346100dc57816003193601126100dc576020905160648152f35b90503461011c57602036600319011261011c57359160035483101561011957506101b060209261057d565b90549060031b1c9051908152f35b839150346100dc5760208060031936011261011c57813567ffffffffffffffff81116102bf5782846101f4879336908401610547565b926101fe846108b5565b9161020b8651938461064b565b848352610217856108b5565b8388019590601f1901368737845b81811061026b575050505083519485948186019282875251809352850193925b82811061025457505050500390f35b835185528695509381019392810192600101610245565b61028561027f8284869c99989a9b9c6106a8565b356106ed565b87518210156102ac57906102a191878260051b8a010152610683565b979695939497610225565b634e487b7160e01b865260328552602486fd5b8380fd5b90503461011c57602036600319011261011c57816020938260ff93358252855220541690519015158152f35b82843461011957806003193601126101195760035460001981019390841161031d576020836101b08661057d565b634e487b7160e01b825260119052602490fd5b5050346100dc57816003193601126100dc57602090517f00000000000000000000000000000000000000000000000000000000000000008152f35b8284346101195780600319360112610119579080519182906003549182855260208095018093600384527fc2575a0e9e593c00f959f8c92f12db2869c3395a3b0502d05e2516446f71f85b90845b81811061040a57505050816103cf91038261064b565b83519485948186019282875251809352850193925b8281106103f357505050500390f35b8351855286955093810193928101926001016103e4565b8254845292880192600192830192016103b9565b828434610119576020366003190112610119575061043e602092356106ed565b9051908152f35b8385913461011c57608036600319011261011c5767ffffffffffffffff602435818111610543576104799036908701610547565b9160443590811161053f576104919036908801610547565b969093878403610508575035949291905b8184106104b757602086865190606435148152f35b909192946104eb906104ca8789876106a8565b356104f3576104e5906104de8886866106a8565b35906106b8565b95610683565b9291906104a2565b6104e5906105028886866106a8565b356106b8565b602060649262461bcd60e51b83528201526014602482015273092dcecc2d8d2c840e0e4dedecc40d8cadccee8d60631b6044820152fd5b8580fd5b8480fd5b9181601f840112156105785782359167ffffffffffffffff8311610578576020808501948460051b01011161057857565b600080fd5b6003548110156105b45760036000527fc2575a0e9e593c00f959f8c92f12db2869c3395a3b0502d05e2516446f71f85b0190600090565b634e487b7160e01b600052603260045260246000fd5b906000918254811015610600578280527f290decd9548b62a8d60345a988386fc84ba6bc95484008f6362f93160ef3e563019190565b634e487b7160e01b83526032600452602483fd5b6002548110156105b45760026000527f405787fa12a823e0f2b7631cc41b3ba8828b3321ca811111fa75cd3aa3bb5ace0190600090565b90601f8019910116810190811067ffffffffffffffff82111761066d57604052565b634e487b7160e01b600052604160045260246000fd5b60001981146106925760010190565b634e487b7160e01b600052601160045260246000fd5b91908110156105b45760051b0190565b9060405190602082019283526040820152604081526060810181811067ffffffffffffffff82111761066d5760405251902090565b6001908154917f00000000000000000000000000000000000000000000000000000000000000009160ff83116106925781831b841015610881578092849060005b818110610817575050506003546801000000000000000081101561066d578361075f8285610778940160035561057d565b90919082549060031b91821b91600019901b1916179055565b826000526004602052604060002060ff19908382825416179055600354606481116107d5575b5050818401808511610692578492557fd50e83984b64a106ac2ee6314d689ec4d2a656d5ece6d94c585796944b52240c600080a490565b6063198101908082116106925760641901908111610692576107f69061057d565b90549060031b1c60005260046020526040600020908154169055388061079e565b90919461085a9085871615600014610862578061083a6108509261075f86610614565b610843846105ca565b90549060031b1c906106b8565b955b851c91610683565b91909161072e565b61087b9061086f84610614565b90549060031b1c6106b8565b95610852565b60405162461bcd60e51b815260206004820152600c60248201526b151c9959481a5cc8199d5b1b60a21b6044820152606490fd5b67ffffffffffffffff811161066d5760051b6020019056fea26469706673582212201fc6d5fc59288610e1c9ed2d3e2bc1dd8e396c9e3b02d5273e79d04f2d119dc864736f6c63430008140033",
  "linkReferences": {},
  "deployedLinkReferences": {}
}