{
  "_format": "hh-sol-artifact-1",
  "contractName": "MiningEngine",
  "sourceName": "contracts/game/MiningEngine.sol",
  "abi": [
    {
      "inputs": [
        {
          "internalType": "address",
          "name": "_wattToken",
          "type": "address"
        },
        {
          "internalType": "address",
          "name": "_gamePool",
          "type": "address"
        }
      ],
      "stateMutability": "nonpayable",
      "type": "constructor"
    },
    {
      "inputs": [
        {
          "internalType": "address",
          "name": "owner",
          "type": "address"
        }
      ],
      "name": "OwnableInvalidOwner",
      "type": "error"
    },
    {
      "inputs": [
        {
          "internalType": "address",
          "name": "account",
          "type": "address"
        }
      ],
      "name": "OwnableUnauthorizedAccount",
      "type": "error"
    },
    {
      "inputs": [],
      "name": "ReentrancyGuardReentrantCall",
      "type": "error"
    },
    {
      "anonymous": false,
      "inputs": [
        {
          "indexed": true,
          "internalType": "address",
          "name": "nftContract",
          "type": "address"
        },
        {
          "indexed": true,
          "internalType": "uint256",
          "name": "rigId",
          "type": "uint256"
        },
        {
          "indexed": true,
          "internalType": "address",
          "name": "owner",
          "type": "address"
        },
        {
          "indexed": false,
          "internalType": "uint256",
          "name": "wattDeposited",
          "type": "uint256"
        },
        {
          "indexed": false,
          "internalType": "uint8",
          "name": "algorithm",
          "type": "uint8"
        }
      ],
      "name": "MiningStarted",
      "type": "event"
    },
    {
      "anonymous": false,
      "inputs": [
        {
          "indexed": true,
          "internalType": "address",
          "name": "nftContract",
          "type": "address"
        },
        {
          "indexed": true,
          "internalType": "uint256",
          "name": "rigId",
          "type": "uint256"
        },
        {
          "indexed": false,
          "internalType": "uint256",
          "name": "earned",
          "type": "uint256"
        },
        {
          "indexed": false,
          "internalType": "uint256",
          "name": "wattRefunded",
          "type": "uint256"
        }
      ],
      "name": "MiningStopped",
      "type": "event"
    },
    {
      "anonymous": false,
      "inputs": [
        {
          "indexed": true,
          "internalType": "address",
          "name": "nftContract",
          "type": "address"
        }
      ],
      "name": "NFTContractAdded",
      "type": "event"
    },
    {
      "anonymous": false,
      "inputs": [
        {
          "indexed": true,
          "internalType": "address",
          "name": "nftContract",
          "type": "address"
        },
        {
          "indexed": false,
          "internalType": "bool",
          "name": "enabled",
          "type": "bool"
        }
      ],
      "name": "NFTContractUpdated",
      "type": "event"
    },
    {
      "anonymous": false,
      "inputs": [
        {
          "indexed": true,
          "internalType": "address",
          "name": "previousOwner",
          "type": "address"
        },
        {
          "indexed": true,
          "internalType": "address",
          "name": "newOwner",
          "type": "address"
        }
      ],
      "name": "OwnershipTransferred",
      "type": "event"
    },
    {
      "anonymous": false,
      "inputs": [
        {
          "indexed": false,
          "internalType": "uint256",
          "name": "oldRate",
          "type": "uint256"
        },
        {
          "indexed": false,
          "internalType": "uint256",
          "name": "newRate",
          "type": "uint256"
        }
      ],
      "name": "RewardRateUpdated",
      "type": "event"
    },
    {
      "anonymous": false,
      "inputs": [
        {
          "indexed": true,
          "internalType": "address",
          "name": "nftContract",
          "type": "address"
        },
        {
          "indexed": true,
          "internalType": "uint256",
          "name": "rigId",
          "type": "uint256"
        },
        {
          "indexed": false,
          "internalType": "enum GamePool.Coin",
          "name": "coin",
          "type": "uint8"
        },
        {
          "indexed": false,
          "internalType": "uint256",
          "name": "amount",
          "type": "uint256"
        }
      ],
      "name": "RewardsClaimed",
      "type": "event"
    },
    {
      "anonymous": false,
      "inputs": [
        {
          "indexed": true,
          "internalType": "address",
          "name": "pool",
          "type": "address"
        }
      ],
      "name": "StakingPoolSet",
      "type": "event"
    },
    {
      "anonymous": false,
      "inputs": [
        {
          "indexed": true,
          "internalType": "address",
          "name": "nftContract",
          "type": "address"
        },
        {
          "indexed": true,
          "internalType": "uint256",
          "name": "rigId",
          "type": "uint256"
        },
        {
          "indexed": false,
          "internalType": "uint256",
          "name": "amount",
          "type": "uint256"
        }
      ],
      "name": "WattConsumed",
      "type": "event"
    },
    {
      "anonymous": false,
      "inputs": [
        {
          "indexed": true,
          "internalType": "address",
          "name": "nftContract",
          "type": "address"
        },
        {
          "indexed": true,
          "internalType": "uint256",
          "name": "rigId",
          "type": "uint256"
        },
        {
          "indexed": false,
          "internalType": "uint256",
          "name": "amount",
          "type": "uint256"
        }
      ],
      "name": "WattDeposited",
      "type": "event"
    },
    {
      "inputs": [],
      "name": "PRECISION",
      "outputs": [
        {
          "internalType": "uint256",
          "name": "",
          "type": "uint256"
        }
      ],
      "stateMutability": "view",
      "type": "function"
    },
    {
      "inputs": [
        {
          "internalType": "address",
          "name": "nftContract",
          "type": "address"
        }
      ],
      "name": "addNFTContract",
      "outputs": [],
      "stateMutability": "nonpayable",
      "type": "function"
    },
    {
      "inputs": [
        {
          "internalType": "uint8",
          "name": "",
          "type": "uint8"
        }
      ],
      "name": "algoHashRate",
      "outputs": [
        {
          "internalType": "uint256",
          "name": "",
          "type": "uint256"
        }
      ],
      "stateMutability": "view",
      "type": "function"
    },
    {
      "inputs": [
        {
          "internalType": "uint8",
          "name": "",
          "type": "uint8"
        }
      ],
      "name": "algoMinersCount",
      "outputs": [
        {
          "internalType": "uint256",
          "name": "",
          "type": "uint256"
        }
      ],
      "stateMutability": "view",
      "type": "function"
    },
    {
      "inputs": [
        {
          "internalType": "address",
          "name": "nftContract",
          "type": "address"
        },
        {
          "internalType": "uint256",
          "name": "rigId",
          "type": "uint256"
        }
      ],
      "name": "claimRewards",
      "outputs": [],
      "stateMutability": "nonpayable",
      "type": "function"
    },
    {
      "inputs": [
        {
          "internalType": "address",
          "name": "nftContract",
          "type": "address"
        },
        {
          "internalType": "uint256",
          "name": "rigId",
          "type": "uint256"
        },
        {
          "internalType": "uint256",
          "name": "amount",
          "type": "uint256"
        }
      ],
      "name": "depositWatt",
      "outputs": [],
      "stateMutability": "nonpayable",
      "type": "function"
    },
    {
      "inputs": [
        {
          "internalType": "uint256",
          "name": "amount",
          "type": "uint256"
        },
        {
          "internalType": "address",
          "name": "to",
          "type": "address"
        }
      ],
      "name": "emergencyRecoverWATT",
      "outputs": [],
      "stateMutability": "nonpayable",
      "type": "function"
    },
    {
      "inputs": [
        {
          "internalType": "address",
          "name": "nftContract",
          "type": "address"
        },
        {
          "internalType": "uint256",
          "name": "rigId",
          "type": "uint256"
        },
        {
          "internalType": "address",
          "name": "to",
          "type": "address"
        }
      ],
      "name": "emergencyReturnNFT",
      "outputs": [],
      "stateMutability": "nonpayable",
      "type": "function"
    },
    {
      "inputs": [],
      "name": "gamePool",
      "outputs": [
        {
          "internalType": "contract GamePool",
          "name": "",
          "type": "address"
        }
      ],
      "stateMutability": "view",
      "type": "function"
    },
    {
      "inputs": [
        {
          "internalType": "uint8",
          "name": "algo",
          "type": "uint8"
        }
      ],
      "name": "getAlgoStats",
      "outputs": [
        {
          "internalType": "uint256",
          "name": "hashRate",
          "type": "uint256"
        },
        {
          "internalType": "uint256",
          "name": "minerCount",
          "type": "uint256"
        }
      ],
      "stateMutability": "view",
      "type": "function"
    },
    {
      "inputs": [
        {
          "internalType": "address",
          "name": "nftContract",
          "type": "address"
        },
        {
          "internalType": "uint256",
          "name": "rigId",
          "type": "uint256"
        }
      ],
      "name": "getEstimatedRuntime",
      "outputs": [
        {
          "internalType": "uint256",
          "name": "",
          "type": "uint256"
        }
      ],
      "stateMutability": "view",
      "type": "function"
    },
    {
      "inputs": [],
      "name": "getNFTContracts",
      "outputs": [
        {
          "internalType": "address[]",
          "name": "",
          "type": "address[]"
        }
      ],
      "stateMutability": "view",
      "type": "function"
    },
    {
      "inputs": [
        {
          "internalType": "address",
          "name": "nftContract",
          "type": "address"
        },
        {
          "internalType": "uint256",
          "name": "rigId",
          "type": "uint256"
        }
      ],
      "name": "getPendingRewards",
      "outputs": [
        {
          "internalType": "uint256",
          "name": "",
          "type": "uint256"
        }
      ],
      "stateMutability": "view",
      "type": "function"
    },
    {
      "inputs": [
        {
          "internalType": "address",
          "name": "nftContract",
          "type": "address"
        },
        {
          "internalType": "uint256",
          "name": "rigId",
          "type": "uint256"
        }
      ],
      "name": "getRemainingWatt",
      "outputs": [
        {
          "internalType": "uint256",
          "name": "",
          "type": "uint256"
        }
      ],
      "stateMutability": "view",
      "type": "function"
    },
    {
      "inputs": [
        {
          "internalType": "address",
          "name": "nftContract",
          "type": "address"
        },
        {
          "internalType": "uint256",
          "name": "rigId",
          "type": "uint256"
        }
      ],
      "name": "getSession",
      "outputs": [
        {
          "components": [
            {
              "internalType": "address",
              "name": "owner",
              "type": "address"
            },
            {
              "internalType": "address",
              "name": "nftContract",
              "type": "address"
            },
            {
              "internalType": "uint256",
              "name": "rigId",
              "type": "uint256"
            },
            {
              "internalType": "uint256",
              "name": "startTime",
              "type": "uint256"
            },
            {
              "internalType": "uint256",
              "name": "lastClaimTime",
              "type": "uint256"
            },
            {
              "internalType": "uint256",
              "name": "lastWattCheckTime",
              "type": "uint256"
            },
            {
              "internalType": "uint256",
              "name": "wattDeposited",
              "type": "uint256"
            },
            {
              "internalType": "uint256",
              "name": "wattConsumed",
              "type": "uint256"
            },
            {
              "internalType": "uint256",
              "name": "totalEarned",
              "type": "uint256"
            },
            {
              "internalType": "uint8",
              "name": "algorithm",
              "type": "uint8"
            },
            {
              "internalType": "bool",
              "name": "active",
              "type": "bool"
            }
          ],
          "internalType": "struct MiningEngine.MiningSession",
          "name": "",
          "type": "tuple"
        }
      ],
      "stateMutability": "view",
      "type": "function"
    },
    {
      "inputs": [
        {
          "internalType": "address",
          "name": "user",
          "type": "address"
        }
      ],
      "name": "getUserActiveRigs",
      "outputs": [
        {
          "internalType": "address[]",
          "name": "nftContracts_",
          "type": "address[]"
        },
        {
          "internalType": "uint256[]",
          "name": "rigIds",
          "type": "uint256[]"
        }
      ],
      "stateMutability": "view",
      "type": "function"
    },
    {
      "inputs": [
        {
          "internalType": "address",
          "name": "user",
          "type": "address"
        }
      ],
      "name": "getUserSessions",
      "outputs": [
        {
          "internalType": "bytes32[]",
          "name": "",
          "type": "bytes32[]"
        }
      ],
      "stateMutability": "view",
      "type": "function"
    },
    {
      "inputs": [
        {
          "internalType": "address",
          "name": "",
          "type": "address"
        }
      ],
      "name": "nftContractInfo",
      "outputs": [
        {
          "internalType": "bool",
          "name": "enabled",
          "type": "bool"
        },
        {
          "internalType": "uint256",
          "name": "totalRigsMining",
          "type": "uint256"
        },
        {
          "internalType": "uint256",
          "name": "addedAt",
          "type": "uint256"
        }
      ],
      "stateMutability": "view",
      "type": "function"
    },
    {
      "inputs": [
        {
          "internalType": "uint256",
          "name": "",
          "type": "uint256"
        }
      ],
      "name": "nftContracts",
      "outputs": [
        {
          "internalType": "address",
          "name": "",
          "type": "address"
        }
      ],
      "stateMutability": "view",
      "type": "function"
    },
    {
      "inputs": [
        {
          "internalType": "address",
          "name": "",
          "type": "address"
        },
        {
          "internalType": "address",
          "name": "",
          "type": "address"
        },
        {
          "internalType": "uint256",
          "name": "",
          "type": "uint256"
        },
        {
          "internalType": "bytes",
          "name": "",
          "type": "bytes"
        }
      ],
      "name": "onERC721Received",
      "outputs": [
        {
          "internalType": "bytes4",
          "name": "",
          "type": "bytes4"
        }
      ],
      "stateMutability": "nonpayable",
      "type": "function"
    },
    {
      "inputs": [],
      "name": "owner",
      "outputs": [
        {
          "internalType": "address",
          "name": "",
          "type": "address"
        }
      ],
      "stateMutability": "view",
      "type": "function"
    },
    {
      "inputs": [],
      "name": "renounceOwnership",
      "outputs": [],
      "stateMutability": "nonpayable",
      "type": "function"
    },
    {
      "inputs": [],
      "name": "rewardRate",
      "outputs": [
        {
          "internalType": "uint256",
          "name": "",
          "type": "uint256"
        }
      ],
      "stateMutability": "view",
      "type": "function"
    },
    {
      "inputs": [
        {
          "internalType": "bytes32",
          "name": "",
          "type": "bytes32"
        }
      ],
      "name": "sessions",
      "outputs": [
        {
          "internalType": "address",
          "name": "owner",
          "type": "address"
        },
        {
          "internalType": "address",
          "name": "nftContract",
          "type": "address"
        },
        {
          "internalType": "uint256",
          "name": "rigId",
          "type": "uint256"
        },
        {
          "internalType": "uint256",
          "name": "startTime",
          "type": "uint256"
        },
        {
          "internalType": "uint256",
          "name": "lastClaimTime",
          "type": "uint256"
        },
        {
          "internalType": "uint256",
          "name": "lastWattCheckTime",
          "type": "uint256"
        },
        {
          "internalType": "uint256",
          "name": "wattDeposited",
          "type": "uint256"
        },
        {
          "internalType": "uint256",
          "name": "wattConsumed",
          "type": "uint256"
        },
        {
          "internalType": "uint256",
          "name": "totalEarned",
          "type": "uint256"
        },
        {
          "internalType": "uint8",
          "name": "algorithm",
          "type": "uint8"
        },
        {
          "internalType": "bool",
          "name": "active",
          "type": "bool"
        }
      ],
      "stateMutability": "view",
      "type": "function"
    },
    {
      "inputs": [
        {
          "internalType": "address",
          "name": "nftContract",
          "type": "address"
        },
        {
          "internalType": "bool",
          "name": "enabled",
          "type": "bool"
        }
      ],
      "name": "setNFTContractEnabled",
      "outputs": [],
      "stateMutability": "nonpayable",
      "type": "function"
    },
    {
      "inputs": [
        {
          "internalType": "uint256",
          "name": "newRate",
          "type": "uint256"
        }
      ],
      "name": "setRewardRate",
      "outputs": [],
      "stateMutability": "nonpayable",
      "type": "function"
    },
    {
      "inputs": [
        {
          "internalType": "address",
          "name": "pool",
          "type": "address"
        }
      ],
      "name": "setStakingPool",
      "outputs": [],
      "stateMutability": "nonpayable",
      "type": "function"
    },
    {
      "inputs": [],
      "name": "stakingPool",
      "outputs": [
        {
          "internalType": "address",
          "name": "",
          "type": "address"
        }
      ],
      "stateMutability": "view",
      "type": "function"
    },
    {
      "inputs": [
        {
          "internalType": "address",
          "name": "nftContract",
          "type": "address"
        },
        {
          "internalType": "uint256",
          "name": "rigId",
          "type": "uint256"
        },
        {
          "internalType": "uint256",
          "name": "wattAmount",
          "type": "uint256"
        }
      ],
      "name": "startMining",
      "outputs": [],
      "stateMutability": "nonpayable",
      "type": "function"
    },
    {
      "inputs": [
        {
          "internalType": "address",
          "name": "nftContract",
          "type": "address"
        },
        {
          "internalType": "uint256",
          "name": "rigId",
          "type": "uint256"
        }
      ],
      "name": "stopMining",
      "outputs": [],
      "stateMutability": "nonpayable",
      "type": "function"
    },
    {
      "inputs": [],
      "name": "totalHashRate",
      "outputs": [
        {
          "internalType": "uint256",
          "name": "",
          "type": "uint256"
        }
      ],
      "stateMutability": "view",
      "type": "function"
    },
    {
      "inputs": [],
      "name": "totalMinersActive",
      "outputs": [
        {
          "internalType": "uint256",
          "name": "",
          "type": "uint256"
        }
      ],
      "stateMutability": "view",
      "type": "function"
    },
    {
      "inputs": [],
      "name": "totalWattConsumed",
      "outputs": [
        {
          "internalType": "uint256",
          "name": "",
          "type": "uint256"
        }
      ],
      "stateMutability": "view",
      "type": "function"
    },
    {
      "inputs": [
        {
          "internalType": "address",
          "name": "newOwner",
          "type": "address"
        }
      ],
      "name": "transferOwnership",
      "outputs": [],
      "stateMutability": "nonpayable",
      "type": "function"
    },
    {
      "inputs": [
        {
          "internalType": "address",
          "name": "",
          "type": "address"
        },
        {
          "internalType": "uint256",
          "name": "",
          "type": "uint256"
        }
      ],
      "name": "userSessionKeys",
      "outputs": [
        {
          "internalType": "bytes32",
          "name": "",
          "type": "bytes32"
        }
      ],
      "stateMutability": "view",
      "type": "function"
    },
    {
      "inputs": [],
      "name": "wattToken",
      "outputs": [
        {
          "internalType": "contract IWATT",
          "name": "",
          "type": "address"
        }
      ],
      "stateMutability": "view",
      "type": "function"
    }
  ],
  "bytecode": "0x60c034620001aa5762002dd990601f38839003908101601f19168201906001600160401b03821183831017620001af5780839160409586948552833981010312620001aa576200005d60206200005583620001c5565b9201620001c5565b903315620001925760008054336001600160a01b03198216811783558551946001600160a01b0394909385939192918416907f8be0079c531659141344cd1fd0a4f28419497f9722a3daafe3b4186f6b6457e09080a36001805564e8d4a51000600a5516928315620001615750169081156200012a5760805260a05251612bfe9081620001db823960805181818161091d01528181610a23015281816110b40152818161187501528181611d8401528181611e4f0152612843015260a051818181610f1801526126aa0152f35b825162461bcd60e51b815260206004820152601060248201526f125b9d985b1a590811d85b59541bdbdb60821b6044820152606490fd5b62461bcd60e51b815260206004820152600c60248201526b125b9d985b1a590815d0551560a21b6044820152606490fd5b8251631e4fbdf760e01b815260006004820152602490fd5b600080fd5b634e487b7160e01b600052604160045260246000fd5b51906001600160a01b0382168203620001aa5756fe6080604052600436101561001257600080fd5b6000803560e01c80630bb4d82a146120fd5780630c56ae3b146120d45780630ca4be89146120905780631140e77e14611f4257806314a094d9146119d1578063150b7a0214611946578063178567ff146117ed578063223715dd1461173f5780633028f63a146116d057806333b0b8fb146116395780633881f1c4146115e357806341552ff8146115c55780634ba9699e14610f4757806361e99e2f14610f0257806368ca857014610ecc578063715018a614610e7257806378247f2714610ce05780637b0a47ee14610cc25780637dbd283214610c175780638da5cb5b14610bf05780638e60eb7114610b125780639a99b4f014610aa15780639da74bbc146109c45780639e447fc61461096f578063aaf5eb681461094c578063ab46398014610907578063aff6038a146108d1578063c9a087fc1461087b578063ca7ec3aa146106f2578063cfac5d7c1461058c578063da3b6b351461056e578063dabc3a0014610497578063e4e7c6b41461045f578063e89a714514610441578063eb174142146102365763f2fde38b146101a957600080fd5b34610233576020366003190112610233576101c26121a6565b6101ca6125a2565b6001600160a01b0390811690811561021a57600054826001600160601b0360a01b821617600055167f8be0079c531659141344cd1fd0a4f28419497f9722a3daafe3b4186f6b6457e0600080a380f35b604051631e4fbdf760e01b815260048101849052602490fd5b80fd5b50346102335760208060031936011261043d576001600160a01b03908161025b6121a6565b168352600681526040832092604051808584829754938481520190845284842092845b86828210610427575050506102959250038561221f565b8091815b85518110156102e2576102ac8187612576565b5183526005825260ff600960408520015460081c166102ce575b600101610299565b926102da600191612547565b9390506102c6565b509084926102ef8161258a565b946102fd604051968761221f565b8186526103098261258a565b601f199590860136888701376103376103218461258a565b9361032f604051958661221f565b80855261258a565b838601960136873783805b82518110156103d3576103558184612576565b518252600580885260ff600960408520015460081c16610379575b50600101610342565b81966103cc9161038b60019487612576565b518552808a526040852084015487166103a4838e612576565b526103af8987612576565b518552895260026040852001546103c68289612576565b52612547565b9590610370565b6103f0898984888b80604051968796604088526040880190612287565b928684038288015251928381520193925b82811061041057505050500390f35b835185528695509381019392810192600101610401565b855484526001958601958a95509301920161027e565b5080fd5b50346102335780600319360112610233576020600954604051908152f35b503461023357604036600319011261023357602061048f61048a6104816121a6565b602435906125ce565b612a68565b604051908152f35b5034610233576040366003190112610233576020906104b76104816121a6565b8082526005835261055360408320916040516104d2816121e6565b60018060a01b0380855416825260018501541686820152600284015460408201526003840154606082015260048401546080820152600584015460a082015261014060ff600960068701549660c08501978852600781015460e08601526008810154610100860152015481811661012085015260081c161515910152612940565b9051818111156105675761048f9250612335565b505061048f565b50346102335780600319360112610233576020600754604051908152f35b5034610233576020366003190112610233576105a66121a6565b6105ae6125a2565b6001600160a01b03908116906105c58215156124f6565b818352600460205260ff6040842054166106bd57600354600160401b8110156106a9578060016105f89201600355612141565b819291549060031b9184831b921b19161790556040516060810181811067ffffffffffffffff8211176106935760405260018152600260208201848152604083019042825284865260046020526106626040872094511515859060ff801983541691151516179055565b516001840155519101557f0485e5c8a0bd060dfe3c9cd330188d891c9d311258abe47715d83455bf7b2da48280a280f35b634e487b7160e01b600052604160045260246000fd5b634e487b7160e01b84526041600452602484fd5b60405162461bcd60e51b815260206004820152600d60248201526c105b1c9958591e481859191959609a1b6044820152606490fd5b5034610233576040366003190112610233576040610160916107696107156121a6565b826101408551610724816121e6565b82815282602082015282878201528260608201528260808201528260a08201528260c08201528260e082015282610100820152826101208201520152602435906125ce565b8152600560205220610140604051610780816121e6565b60ff600960018060a01b038554169485845260018060a01b036001820154166020850152600281015460408501526003810154606085015260048101546080850152600581015460a0850152600681015460c0850152600781015460e08501526008810154610100850152015481811661012084015260081c1615158282015260405192835260018060a01b03602082015116602084015260408101516040840152606081015160608401526080810151608084015260a081015160a084015260c081015160c084015260e081015160e084015261010081015161010084015260ff6101208201511661012084015201511515610140820152f35b5034610233576040366003190112610233576108956121a6565b6001600160a01b03168152600660205260408120805460243592908310156102335760206108c3848461218e565b90546040519160031b1c8152f35b50346102335760203660031901126102335760043560ff811680910361043d578160409160209352600c83522054604051908152f35b50346102335780600319360112610233576040517f00000000000000000000000000000000000000000000000000000000000000006001600160a01b03168152602090f35b50346102335780600319360112610233576020604051670de0b6b3a76400008152f35b50346102335760203660031901126102335760043561098c6125a2565b7fc390a98ace15a7bb6bab611eedfdbb2685043b241a869420043cdfb23ccfee506040600a548151908152836020820152a1600a5580f35b503461023357604036600319011261023357610a1e60206109e36121bc565b6109eb6125a2565b60405163a9059cbb60e01b81526001600160a01b0390911660048083019190915235602482015291829081906044820190565b0381857f00000000000000000000000000000000000000000000000000000000000000006001600160a01b03165af18015610a9657610a64918391610a67575b506124b8565b80f35b610a89915060203d602011610a8f575b610a81818361221f565b810190612358565b38610a5e565b503d610a77565b6040513d84823e3d90fd5b503461023357604036600319011261023357610b0b610ac9610ac16121a6565b610481612600565b8083526005602052610ae860018060a01b0360408520541633146122c4565b8083526005602052610b0660ff600960408620015460081c166122fc565b612646565b6001805580f35b503461023357604036600319011261023357610b2c6121a6565b6024359081151590818303610bec57610b436125a2565b6001600160a01b03168084526004602052604084206002015490929015610bb2577fcf0806606b85286216389cc06a352b500544f096dd7afea019f5a2c0465fffc291610ba860209285875260048452604087209060ff801983541691151516179055565b604051908152a280f35b60405162461bcd60e51b815260206004820152601260248201527110dbdb9d1c9858dd081b9bdd08185919195960721b6044820152606490fd5b8380fd5b5034610233578060031936011261023357546040516001600160a01b039091168152602090f35b503461023357602036600319011261023357604061016091600435815260056020522060ff60018060a01b039182815416926001820154169060028101546003820154600483015460058401549060068501549260078601549460096008880154970154976040519a8b5260208b015260408a01526060890152608088015260a087015260c086015260e085015261010084015281811661012084015260081c161515610140820152f35b50346102335780600319360112610233576020600a54604051908152f35b503461023357604036600319011261023357610cfa6121a6565b610d0760243580926125ce565b908183526020916005835282604085209160405192610d25846121e6565b60018060a01b03918282541685528260018301541694848101958652600283015460408201526003830154606082015260048301546080820152600583015460a082015260068301549061014060ff600960c0840196858852600781015460e08601526008810154610100860152015481811661012085015260081c161515910152610db082612940565b1015610e6957610dc4610dca925191612940565b90612335565b925b511692602460405180958193630186725360e51b835260048301525afa918215610e5e578492610e2a575b50610e1090818102918183041490151715610e16579061048f91612556565b634e487b7160e01b84526011600452602484fd5b9091508281813d8311610e57575b610e42818361221f565b81010312610e5257519038610df7565b600080fd5b503d610e38565b6040513d86823e3d90fd5b50508592610dcc565b5034610233578060031936011261023357610e8b6125a2565b600080546001600160a01b0319811682556001600160a01b03167f8be0079c531659141344cd1fd0a4f28419497f9722a3daafe3b4186f6b6457e08280a380f35b50346102335760203660031901126102335760043560ff811680910361043d578160409160209352600b83522054604051908152f35b50346102335780600319360112610233576040517f00000000000000000000000000000000000000000000000000000000000000006001600160a01b03168152602090f35b503461023357610f563661225d565b610f5e612600565b6001600160a01b03831684526004602052604084205460ff1615611580576040516331a9108f60e11b81526004810183905260249060208183816001600160a01b0389165afa801561157557869061152d575b610fc691506001600160a01b031633146122c4565b610fd083856125ce565b808652600560205260ff600960408820015460081c166114f857604051635d528fc360e11b81526004810185905260208184816001600160a01b038a165afa90811561149a5787916114d9575b506114a5576040516360122b5f60e11b8152600481018590529160e08382816001600160a01b038a165afa92831561149a578793611469575b5061ffff606084015116670de0b6b3a764000090818102918183041490151715611456578410611412576040516323b872dd60e01b808252336004830152306024830152604482018690528891602081606481866001600160a01b037f0000000000000000000000000000000000000000000000000000000000000000165af18015611407576110ed9184916113e8575b50612370565b6001600160a01b0388163b1561043d57604051908152336004820152306024820152604481018790528181606481836001600160a01b038d165af18015610a96576113d4575b50506001600160a01b0386163b156113d057604051637445f3af60e01b81526004810186905260018282015287908181604481836001600160a01b038d165af18015610a96576113bc575b505060ff60208401511660405190611195826121e6565b33825260018060a01b03881660208301528660408301524260608301524260808301524260a08301528560c08301528860e0830152886101008301526101208201526001610140820152828852600560205260096040892060018060a01b038351166001600160601b0360a01b9081835416178255600182019060018060a01b036020860151169082541617905560408301516002820155606083015160038201556080830151600482015560a0830151600582015560c0830151600682015560e083015160078201556101008301516008820155019060ff6101208201511661ff006101408454930151151560081b169161ffff191617179055338752600660205260408720805491600160401b8310156113aa57506020926112c5836112de93600160ff989601815561218e565b90919082549060031b91821b91600019901b1916179055565b6112ef61ffff8251166007546123b3565b6007556112fd600954612547565b60095561ffff8151168383830151168852600b8352611321604089209182546123b3565b90558282820151168752600c82526040872061133d8154612547565b90556001600160a01b03861687526004825260408720600101805461136190612547565b90550151604080519384529116602083015233936001600160a01b0316917f3c233d7f0b120aa5163170876c9dd03fde3d63f1557a1414d1c9655d10fda79d9190a46001805580f35b634e487b7160e01b8952604160045288fd5b6113c5906121d2565b6113d057863861117e565b8680fd5b6113dd906121d2565b6113d0578638611133565b611401915060203d602011610a8f57610a81818361221f565b386110e7565b6040513d85823e3d90fd5b60649060186040519162461bcd60e51b8352602060048401528201527f4d696e203120686f7572205741545420726571756972656400000000000000006044820152fd5b50634e487b7160e01b8752601160045286fd5b61148c91935060e03d60e011611493575b611484818361221f565b81019061240d565b9138611056565b503d61147a565b6040513d89823e3d90fd5b60405162461bcd60e51b815260206004820152600d818401526c149a59c81a5cc81cdd185ad959609a1b6044820152606490fd5b6114f2915060203d602011610a8f57610a81818361221f565b3861101d565b60405162461bcd60e51b815260206004820152600e818401526d416c7265616479206d696e696e6760901b6044820152606490fd5b506020813d60201161156d575b816115476020938361221f565b8101031261156957516001600160a01b038116810361156957610fc690610fb1565b8580fd5b3d915061153a565b6040513d88823e3d90fd5b60405162461bcd60e51b815260206004820152601860248201527f4e465420636f6e7472616374206e6f7420656e61626c656400000000000000006044820152606490fd5b50346102335780600319360112610233576020600854604051908152f35b5034610233576020366003190112610233576060906040906001600160a01b0361160b6121a6565b16815260046020522060ff815416906002600182015491015490604051921515835260208301526040820152f35b5034610233578060031936011261023357604051600380548083529083526020808301937fc2575a0e9e593c00f959f8c92f12db2869c3395a3b0502d05e2516446f71f85b92915b8282106116b0576116ac856116988189038261221f565b604051918291602083526020830190612287565b0390f35b83546001600160a01b031686529485019460019384019390910190611681565b5034610233576020366003190112610233576116ea6121a6565b6116f26125a2565b6001600160a01b03166117068115156124f6565b600280546001600160a01b031916821790557f6fca2e06bb34845f84427e65445730e7e00faf72ad37f6485b24de98f103bb068280a280f35b50346102335760208060031936011261043d576001600160a01b036117626121a6565b168252600681526040822060405192838383549182815201908193835284832090835b8181106117d9575050508461179b91038561221f565b60405193838594850191818652518092526040850193925b8281106117c257505050500390f35b8351855286955093810193928101926001016117b3565b825484529286019260019283019201611785565b5034610233576117fc3661225d565b9091611806612600565b61181083826125ce565b8452602060058152604085209160018060a01b03906118338285541633146122c4565b61184660ff600986015460081c166122fc565b8415611913576040516323b872dd60e01b8152336004820152306024820152604481018690529383856064818b7f000000000000000000000000000000000000000000000000000000000000000088165af1908115611908576118d36006927f062ff28539986c1d8dbb32f00d85cde7a3ce9128e1a6144a99f366403324f0ad978b916118f157506124b8565b016118df8682546123b3565b90556040519485521692a36001805580f35b610a899150873d8911610a8f57610a81818361221f565b6040513d8a823e3d90fd5b60405162461bcd60e51b815260048101849052600b60248201526a16995c9bc8185b5bdd5b9d60aa1b6044820152606490fd5b5034610233576080366003190112610233576119606121a6565b506119696121bc565b5060643567ffffffffffffffff811161043d573660238201121561043d57806004013561199581612241565b6119a2604051918261221f565b8181523660248385010111610bec578160246020940184830137010152604051630a85bd0160e11b8152602090f35b5034610233576040366003190112610233576119eb6121a6565b60248035916119f8612600565b611a0283826125ce565b808552602060058152604086208660018060a01b0393611a268584541633146122c4565b846009840196611a3c60ff895460081c166122fc565b1696611a4782612646565b611a5082612940565b95866006860154818111600014611f3657611a7b91611a6e91612335565b975b600787015490612335565b80151580611f29575b611e1e575b5086611d57575b506040516360122b5f60e11b8152600481018a905260e08183818c5afa908115610e5e578491611d38575b5061ffff90611acf82825116600754612335565b600755611add6009546124ab565b600955511660ff8854168452600b8652611afc60408520918254612335565b905560ff8754168352600c855260408320611b1781546124ab565b90558783526004855260019360016040852001611b3481546124ab565b9055883b15610bec57604051637445f3af60e01b8152600481018b90528281018590528481604481838e5af1908115611d2d578591611d19575b5050883b15610bec576040516323b872dd60e01b8152306004820152336024820152604481018b9052938085606481838e5af1948515611d0c578695611cef575b505060080154875461ff001916909755338a526006855260408a20935089835b611c0d575b8a8a8a7fd6060fb82e98f3ee7724a4fc2e687548bb024530ec948c1a4877ab1f0eacb09c60408c8c8c8351928352820152a36001805580f35b845480821015611ce9578390611c23838861218e565b929054600393841b1c14611c3b575050830183611bcf565b909594506000199350838101908111611cd657906112c5611c5f611c6c938761218e565b905490881b1c918661218e565b8254908115611cc45750918160409694927fd6060fb82e98f3ee7724a4fc2e687548bb024530ec948c1a4877ab1f0eacb09c9896940192611cad848461218e565b81939154921b1b1916905555919381933880611bd4565b634e487b7160e01b8b5260316004528afd5b634e487b7160e01b8c526011600452828cfd5b50611bd4565b611cfb919295506121d2565b611d085783928a38611baf565b8980fd5b50604051903d90823e3d90fd5b611d22906121d2565b610bec578338611b6e565b6040513d87823e3d90fd5b611d51915060e03d60e01161149357611484818361221f565b38611abb565b60405163a9059cbb60e01b8152336004820152602481018890529293509091908590829060449082908e907f0000000000000000000000000000000000000000000000000000000000000000165af1908115611e13578a91611df6575b5015611dc35790889138611a90565b83600d6064926040519262461bcd60e51b845260048401528201526c1499599d5b990819985a5b1959609a1b6044820152fd5b611e0d9150853d8711610a8f57610a81818361221f565b38611db4565b6040513d8c823e3d90fd5b60025460405163a9059cbb60e01b81529083166001600160a01b0316600482015260248101829052908782604481897f000000000000000000000000000000000000000000000000000000000000000088165af190811561157557611e8c8c928e948991611f125750612370565b611e98816008546123b3565b600855888780866002541660405182858201916360993b5b60e01b8352878c8201528b8152611ec681612203565b51925af1611ed26123c0565b50611ee0575b505050611a89565b7fb6b424013824a76de35c0f5572d4e25bb1b283f7400a3c964021ce8ff259b22f91604051908152a389893888611ed8565b61140191508b3d8d11610a8f57610a81818361221f565b5081600254161515611a84565b5050611a7b8497611a70565b503461023357606036600319011261023357611f5c6121a6565b6024359190604435906001600160a01b03908183168303610bec57611f7f6125a2565b611f8985826125ce565b8452600560205260ff600960408620015460081c16612054571690813b156120505760405193637445f3af60e01b8552806004860152836024860152838560448183875af18015610e5e5761203c575b839450823b15612037576040516323b872dd60e01b81523060048201526001600160a01b0392909216602483015260448201529082908290606490829084905af18015610a96576120275750f35b612030906121d2565b6102335780f35b505050fd5b929093612048906121d2565b918390611fd9565b8280fd5b60405162461bcd60e51b815260206004820152601460248201527353657373696f6e207374696c6c2061637469766560601b6044820152606490fd5b50346102335760203660031901126102335760043560ff811680910361043d57906040918152600b602052818082205491600c602052205482519182526020820152f35b50346102335780600319360112610233576002546040516001600160a01b039091168152602090f35b5034610233576020366003190112610233576004359060035482101561023357602061212883612141565b905460405160039290921b1c6001600160a01b03168152f35b6003548110156121785760036000527fc2575a0e9e593c00f959f8c92f12db2869c3395a3b0502d05e2516446f71f85b0190600090565b634e487b7160e01b600052603260045260246000fd5b80548210156121785760005260206000200190600090565b600435906001600160a01b0382168203610e5257565b602435906001600160a01b0382168203610e5257565b67ffffffffffffffff811161069357604052565b610160810190811067ffffffffffffffff82111761069357604052565b6060810190811067ffffffffffffffff82111761069357604052565b90601f8019910116810190811067ffffffffffffffff82111761069357604052565b67ffffffffffffffff811161069357601f01601f191660200190565b6060906003190112610e52576004356001600160a01b0381168103610e5257906024359060443590565b90815180825260208080930193019160005b8281106122a7575050505090565b83516001600160a01b031685529381019392810192600101612299565b156122cb57565b60405162461bcd60e51b81526020600482015260096024820152682737ba1037bbb732b960b91b6044820152606490fd5b1561230357565b60405162461bcd60e51b815260206004820152600a6024820152694e6f74206d696e696e6760b01b6044820152606490fd5b9190820391821161234257565b634e487b7160e01b600052601160045260246000fd5b90816020910312610e5257518015158103610e525790565b1561237757565b60405162461bcd60e51b815260206004820152601460248201527315d05515081d1c985b9cd9995c8819985a5b195960621b6044820152606490fd5b9190820180921161234257565b3d156123eb573d906123d182612241565b916123df604051938461221f565b82523d6000602084013e565b606090565b519061ffff82168203610e5257565b519060ff82168203610e5257565b908160e0910312610e52576040519060e0820182811067ffffffffffffffff821117610693576124a39160c091604052612446816123f0565b8452612454602082016123ff565b6020850152612465604082016123ff565b6040850152612476606082016123f0565b6060850152612487608082016123ff565b608085015261249860a082016123ff565b60a0850152016123ff565b60c082015290565b8015612342576000190190565b156124bf57565b60405162461bcd60e51b815260206004820152600f60248201526e151c985b9cd9995c8819985a5b1959608a1b6044820152606490fd5b156124fd57565b60405162461bcd60e51b815260206004820152600f60248201526e496e76616c6964206164647265737360881b6044820152606490fd5b8181029291811591840414171561234257565b60001981146123425760010190565b8115612560570490565b634e487b7160e01b600052601260045260246000fd5b80518210156121785760209160051b010190565b67ffffffffffffffff81116106935760051b60200190565b6000546001600160a01b031633036125b657565b60405163118cdaa760e01b8152336004820152602490fd5b906040519060208201926001600160601b03199060601b1683526034820152603481526125fa81612203565b51902090565b600260015414612611576002600155565b604051633ee5aeb560e01b8152600490fd5b9060078210156126305752565b634e487b7160e01b600052602160045260246000fd5b6000818152602091600583526040908183209261266282612940565b6007850190612672825482612335565b918215158061292c575b61280e575b50505060098401548351636327dec360e11b815260ff9091166004820152916001600160a01b037f000000000000000000000000000000000000000000000000000000000000000081169290918785602481875afa9485156128045782956127ca575b506126ee90612a68565b92836126ff575b5050505050505050565b6008870161270e8582546123b3565b905542600488015582875416813b156120505782916064839289519586938492633798e7d960e01b8452600484015261274a602484018c612623565b8960448401525af19081156127bf5750916002917fa8df2671f2c38db78a7fd66ded4512a2157f2d6f98ba9b4819da8fe5034c7e7d969594936127b0575b506001870154169501549561279f84518094612623565b820152a338808080808080806126f5565b6127b9906121d2565b38612788565b8651903d90823e3d90fd5b9094508781813d83116127fd575b6127e2818361221f565b8101031261043d5751600781101561043d57936126ee6126e4565b503d6127d8565b86513d84823e3d90fd5b55426005860155600254845163a9059cbb60e01b81526001600160a01b039182166004820152602481018390528781604481877f000000000000000000000000000000000000000000000000000000000000000087165af1908115612922579061287e91859161290b5750612370565b61288a826008546123b3565b600855828082600254168751828b8201916360993b5b60e01b8352876024820152602481526128b881612203565b51925af16128c46123c0565b506128d0575b80612681565b6001860154167fb6b424013824a76de35c0f5572d4e25bb1b283f7400a3c964021ce8ff259b22f876002880154938751908152a338806128ca565b6114019150893d8b11610a8f57610a81818361221f565b86513d86823e3d90fd5b506002546001600160a01b0316151561267c565b600090815260206005815260408220906040519061295d826121e6565b60018060a01b0380845416835260018401541680828401528160028501548060408601526003860154946060810195865260048701546080820152600587015460a082015261014060ff600960068a01549960c085019a8b52600781015460e08601526008810154610100860152015481811661012085015260081c161515910152602460405180948193630186725360e51b835260048301525afa918215611d2d578592612a38575b5050612a2090612a1b610e10935142612335565b612534565b0490519150818111600014612a33575090565b905090565b90809250813d8311612a61575b612a4f818361221f565b81010312610bec575181612a1b612a07565b503d612a45565b600090815260209060058252604080822090805193612a86856121e6565b60018060a01b038084541686526001840154169283828701526002810154808488015260038201546060880152600960048301549260808901938452600581015460a08a0152600681015460c08a0152600781015460e08a015260088101546101008a015201549660ff6101208201988181168a5260081c1615906101408215910152612bbe5782906024855180978193630d50463d60e41b835260048301525afa938415612bb4578594612b80575b509060ff612b47600b935142612335565b965116855252822054918215612b795750612b68612b7693612b7192612534565b600a5490612534565b612556565b90565b9250505090565b9093508181813d8311612bad575b612b98818361221f565b81010312612ba957519260ff612b36565b8480fd5b503d612b8e565b83513d87823e3d90fd5b505050505090509056fea26469706673582212208160d40fdcaa7c23479e886d0a7af98c3d6bb516730d40efc81807329ddc9d8564736f6c63430008180033",
  "linkReferences": {},
  "deployedLinkReferences": {}
}