{
  "_format": "hh-sol-artifact-1",
  "contractName": "MergedMiningRewardsV2",
  "sourceName": "contracts/MergedMiningRewardsV2.sol",
  "abi": [
    {
      "inputs": [],
      "stateMutability": "nonpayable",
      "type": "constructor"
    },
    {
      "inputs": [
        {
          "internalType": "address",
          "name": "owner",
          "type": "address"
        }
      ],
      "name": "OwnableInvalidOwner",
      "type": "error"
    },
    {
      "inputs": [
        {
          "internalType": "address",
          "name": "account",
          "type": "address"
        }
      ],
      "name": "OwnableUnauthorizedAccount",
      "type": "error"
    },
    {
      "inputs": [],
      "name": "ReentrancyGuardReentrantCall",
      "type": "error"
    },
    {
      "anonymous": false,
      "inputs": [
        {
          "indexed": true,
          "internalType": "address",
          "name": "owner",
          "type": "address"
        },
        {
          "indexed": true,
          "internalType": "address",
          "name": "spender",
          "type": "address"
        },
        {
          "indexed": false,
          "internalType": "uint256",
          "name": "value",
          "type": "uint256"
        }
      ],
      "name": "Approval",
      "type": "event"
    },
    {
      "anonymous": false,
      "inputs": [
        {
          "indexed": true,
          "internalType": "uint256",
          "name": "epoch",
          "type": "uint256"
        },
        {
          "indexed": false,
          "internalType": "uint256",
          "name": "totalShares",
          "type": "uint256"
        },
        {
          "indexed": false,
          "internalType": "uint256",
          "name": "totalRewards",
          "type": "uint256"
        }
      ],
      "name": "EpochFinalized",
      "type": "event"
    },
    {
      "anonymous": false,
      "inputs": [
        {
          "indexed": true,
          "internalType": "address",
          "name": "operator",
          "type": "address"
        },
        {
          "indexed": false,
          "internalType": "bool",
          "name": "authorized",
          "type": "bool"
        }
      ],
      "name": "OperatorUpdated",
      "type": "event"
    },
    {
      "anonymous": false,
      "inputs": [
        {
          "indexed": true,
          "internalType": "address",
          "name": "previousOwner",
          "type": "address"
        },
        {
          "indexed": true,
          "internalType": "address",
          "name": "newOwner",
          "type": "address"
        }
      ],
      "name": "OwnershipTransferred",
      "type": "event"
    },
    {
      "anonymous": false,
      "inputs": [
        {
          "indexed": true,
          "internalType": "address",
          "name": "pool",
          "type": "address"
        },
        {
          "indexed": false,
          "internalType": "bool",
          "name": "authorized",
          "type": "bool"
        }
      ],
      "name": "PoolOperatorUpdated",
      "type": "event"
    },
    {
      "anonymous": false,
      "inputs": [
        {
          "indexed": true,
          "internalType": "address",
          "name": "pool",
          "type": "address"
        },
        {
          "indexed": true,
          "internalType": "uint256",
          "name": "epoch",
          "type": "uint256"
        },
        {
          "indexed": false,
          "internalType": "uint8",
          "name": "algo",
          "type": "uint8"
        },
        {
          "indexed": false,
          "internalType": "uint256",
          "name": "minerCount",
          "type": "uint256"
        },
        {
          "indexed": false,
          "internalType": "uint256",
          "name": "totalShares",
          "type": "uint256"
        }
      ],
      "name": "PoolSharesSubmitted",
      "type": "event"
    },
    {
      "anonymous": false,
      "inputs": [
        {
          "indexed": false,
          "internalType": "uint256",
          "name": "oldValue",
          "type": "uint256"
        },
        {
          "indexed": false,
          "internalType": "uint256",
          "name": "newValue",
          "type": "uint256"
        }
      ],
      "name": "RewardPerShareUpdated",
      "type": "event"
    },
    {
      "anonymous": false,
      "inputs": [
        {
          "indexed": true,
          "internalType": "address",
          "name": "miner",
          "type": "address"
        },
        {
          "indexed": true,
          "internalType": "uint256",
          "name": "epoch",
          "type": "uint256"
        },
        {
          "indexed": false,
          "internalType": "uint256",
          "name": "amount",
          "type": "uint256"
        }
      ],
      "name": "RewardsClaimed",
      "type": "event"
    },
    {
      "anonymous": false,
      "inputs": [
        {
          "indexed": true,
          "internalType": "address",
          "name": "miner",
          "type": "address"
        },
        {
          "indexed": true,
          "internalType": "uint256",
          "name": "epoch",
          "type": "uint256"
        },
        {
          "indexed": false,
          "internalType": "uint8",
          "name": "algo",
          "type": "uint8"
        },
        {
          "indexed": false,
          "internalType": "uint256",
          "name": "shares",
          "type": "uint256"
        }
      ],
      "name": "SharesSubmitted",
      "type": "event"
    },
    {
      "anonymous": false,
      "inputs": [
        {
          "indexed": true,
          "internalType": "address",
          "name": "from",
          "type": "address"
        },
        {
          "indexed": true,
          "internalType": "address",
          "name": "to",
          "type": "address"
        },
        {
          "indexed": false,
          "internalType": "uint256",
          "name": "value",
          "type": "uint256"
        }
      ],
      "name": "Transfer",
      "type": "event"
    },
    {
      "inputs": [],
      "name": "ALGO_COUNT",
      "outputs": [
        {
          "internalType": "uint8",
          "name": "",
          "type": "uint8"
        }
      ],
      "stateMutability": "view",
      "type": "function"
    },
    {
      "inputs": [
        {
          "internalType": "uint256",
          "name": "",
          "type": "uint256"
        }
      ],
      "name": "algoNames",
      "outputs": [
        {
          "internalType": "string",
          "name": "",
          "type": "string"
        }
      ],
      "stateMutability": "view",
      "type": "function"
    },
    {
      "inputs": [
        {
          "internalType": "uint8",
          "name": "",
          "type": "uint8"
        }
      ],
      "name": "algoTotalShares",
      "outputs": [
        {
          "internalType": "uint256",
          "name": "",
          "type": "uint256"
        }
      ],
      "stateMutability": "view",
      "type": "function"
    },
    {
      "inputs": [
        {
          "internalType": "address",
          "name": "",
          "type": "address"
        },
        {
          "internalType": "address",
          "name": "",
          "type": "address"
        }
      ],
      "name": "allowance",
      "outputs": [
        {
          "internalType": "uint256",
          "name": "",
          "type": "uint256"
        }
      ],
      "stateMutability": "view",
      "type": "function"
    },
    {
      "inputs": [
        {
          "internalType": "address",
          "name": "spender",
          "type": "address"
        },
        {
          "internalType": "uint256",
          "name": "amount",
          "type": "uint256"
        }
      ],
      "name": "approve",
      "outputs": [
        {
          "internalType": "bool",
          "name": "",
          "type": "bool"
        }
      ],
      "stateMutability": "nonpayable",
      "type": "function"
    },
    {
      "inputs": [
        {
          "internalType": "address",
          "name": "",
          "type": "address"
        }
      ],
      "name": "balanceOf",
      "outputs": [
        {
          "internalType": "uint256",
          "name": "",
          "type": "uint256"
        }
      ],
      "stateMutability": "view",
      "type": "function"
    },
    {
      "inputs": [
        {
          "internalType": "uint256[]",
          "name": "epochIds",
          "type": "uint256[]"
        }
      ],
      "name": "claimMultipleRewards",
      "outputs": [],
      "stateMutability": "nonpayable",
      "type": "function"
    },
    {
      "inputs": [
        {
          "internalType": "uint256",
          "name": "epoch",
          "type": "uint256"
        }
      ],
      "name": "claimRewards",
      "outputs": [],
      "stateMutability": "nonpayable",
      "type": "function"
    },
    {
      "inputs": [],
      "name": "currentEpoch",
      "outputs": [
        {
          "internalType": "uint256",
          "name": "",
          "type": "uint256"
        }
      ],
      "stateMutability": "view",
      "type": "function"
    },
    {
      "inputs": [],
      "name": "decimals",
      "outputs": [
        {
          "internalType": "uint8",
          "name": "",
          "type": "uint8"
        }
      ],
      "stateMutability": "view",
      "type": "function"
    },
    {
      "inputs": [],
      "name": "epochDuration",
      "outputs": [
        {
          "internalType": "uint256",
          "name": "",
          "type": "uint256"
        }
      ],
      "stateMutability": "view",
      "type": "function"
    },
    {
      "inputs": [
        {
          "internalType": "uint256",
          "name": "",
          "type": "uint256"
        }
      ],
      "name": "epochs",
      "outputs": [
        {
          "internalType": "uint256",
          "name": "startTime",
          "type": "uint256"
        },
        {
          "internalType": "uint256",
          "name": "endTime",
          "type": "uint256"
        },
        {
          "internalType": "uint256",
          "name": "totalShares",
          "type": "uint256"
        },
        {
          "internalType": "uint256",
          "name": "totalRewards",
          "type": "uint256"
        },
        {
          "internalType": "bool",
          "name": "finalized",
          "type": "bool"
        }
      ],
      "stateMutability": "view",
      "type": "function"
    },
    {
      "inputs": [],
      "name": "finalizeEpoch",
      "outputs": [],
      "stateMutability": "nonpayable",
      "type": "function"
    },
    {
      "inputs": [
        {
          "internalType": "uint256",
          "name": "epoch",
          "type": "uint256"
        },
        {
          "internalType": "uint8",
          "name": "algo",
          "type": "uint8"
        }
      ],
      "name": "getAlgorithmBonus",
      "outputs": [
        {
          "internalType": "uint256",
          "name": "",
          "type": "uint256"
        }
      ],
      "stateMutability": "view",
      "type": "function"
    },
    {
      "inputs": [],
      "name": "getAllAlgoShares",
      "outputs": [
        {
          "internalType": "uint256[7]",
          "name": "",
          "type": "uint256[7]"
        }
      ],
      "stateMutability": "view",
      "type": "function"
    },
    {
      "inputs": [
        {
          "internalType": "uint256",
          "name": "epoch",
          "type": "uint256"
        },
        {
          "internalType": "uint8",
          "name": "algo",
          "type": "uint8"
        }
      ],
      "name": "getEpochAlgoShares",
      "outputs": [
        {
          "internalType": "uint256",
          "name": "",
          "type": "uint256"
        }
      ],
      "stateMutability": "view",
      "type": "function"
    },
    {
      "inputs": [
        {
          "internalType": "uint256",
          "name": "epoch",
          "type": "uint256"
        }
      ],
      "name": "getEpochInfo",
      "outputs": [
        {
          "internalType": "uint256",
          "name": "startTime",
          "type": "uint256"
        },
        {
          "internalType": "uint256",
          "name": "endTime",
          "type": "uint256"
        },
        {
          "internalType": "uint256",
          "name": "totalShares",
          "type": "uint256"
        },
        {
          "internalType": "uint256",
          "name": "totalRewards",
          "type": "uint256"
        },
        {
          "internalType": "bool",
          "name": "finalized",
          "type": "bool"
        }
      ],
      "stateMutability": "view",
      "type": "function"
    },
    {
      "inputs": [],
      "name": "getGlobalStats",
      "outputs": [
        {
          "internalType": "uint256",
          "name": "_totalMiners",
          "type": "uint256"
        },
        {
          "internalType": "uint256",
          "name": "_totalSharesAllTime",
          "type": "uint256"
        },
        {
          "internalType": "uint256",
          "name": "_totalRewardsAllTime",
          "type": "uint256"
        },
        {
          "internalType": "uint256",
          "name": "_currentEpoch",
          "type": "uint256"
        },
        {
          "internalType": "uint256",
          "name": "_rewardPerShare",
          "type": "uint256"
        }
      ],
      "stateMutability": "view",
      "type": "function"
    },
    {
      "inputs": [
        {
          "internalType": "address",
          "name": "miner",
          "type": "address"
        },
        {
          "internalType": "uint8",
          "name": "algo",
          "type": "uint8"
        }
      ],
      "name": "getMinerAlgoShares",
      "outputs": [
        {
          "internalType": "uint256",
          "name": "",
          "type": "uint256"
        }
      ],
      "stateMutability": "view",
      "type": "function"
    },
    {
      "inputs": [
        {
          "internalType": "uint256",
          "name": "epoch",
          "type": "uint256"
        },
        {
          "internalType": "address",
          "name": "miner",
          "type": "address"
        }
      ],
      "name": "getMinerEpochShares",
      "outputs": [
        {
          "internalType": "uint256",
          "name": "",
          "type": "uint256"
        }
      ],
      "stateMutability": "view",
      "type": "function"
    },
    {
      "inputs": [
        {
          "internalType": "address",
          "name": "miner",
          "type": "address"
        }
      ],
      "name": "getMinerStats",
      "outputs": [
        {
          "internalType": "uint256",
          "name": "totalShares",
          "type": "uint256"
        },
        {
          "internalType": "uint256",
          "name": "totalRewards",
          "type": "uint256"
        },
        {
          "internalType": "uint256",
          "name": "blocksParticipated",
          "type": "uint256"
        },
        {
          "internalType": "uint256",
          "name": "lastShareTime",
          "type": "uint256"
        }
      ],
      "stateMutability": "view",
      "type": "function"
    },
    {
      "inputs": [
        {
          "internalType": "address",
          "name": "miner",
          "type": "address"
        },
        {
          "internalType": "uint256",
          "name": "maxEpochs",
          "type": "uint256"
        }
      ],
      "name": "getPendingEpochs",
      "outputs": [
        {
          "internalType": "uint256[]",
          "name": "",
          "type": "uint256[]"
        }
      ],
      "stateMutability": "view",
      "type": "function"
    },
    {
      "inputs": [
        {
          "internalType": "address",
          "name": "miner",
          "type": "address"
        }
      ],
      "name": "getPendingRewards",
      "outputs": [
        {
          "internalType": "uint256",
          "name": "pending",
          "type": "uint256"
        },
        {
          "internalType": "uint256",
          "name": "epochCount",
          "type": "uint256"
        }
      ],
      "stateMutability": "view",
      "type": "function"
    },
    {
      "inputs": [],
      "name": "getTimeUntilNextEpoch",
      "outputs": [
        {
          "internalType": "uint256",
          "name": "",
          "type": "uint256"
        }
      ],
      "stateMutability": "view",
      "type": "function"
    },
    {
      "inputs": [
        {
          "internalType": "address",
          "name": "",
          "type": "address"
        }
      ],
      "name": "knownMiners",
      "outputs": [
        {
          "internalType": "bool",
          "name": "",
          "type": "bool"
        }
      ],
      "stateMutability": "view",
      "type": "function"
    },
    {
      "inputs": [],
      "name": "lastEpochTime",
      "outputs": [
        {
          "internalType": "uint256",
          "name": "",
          "type": "uint256"
        }
      ],
      "stateMutability": "view",
      "type": "function"
    },
    {
      "inputs": [
        {
          "internalType": "uint256",
          "name": "",
          "type": "uint256"
        },
        {
          "internalType": "address",
          "name": "",
          "type": "address"
        },
        {
          "internalType": "uint8",
          "name": "",
          "type": "uint8"
        }
      ],
      "name": "minerAlgoShares",
      "outputs": [
        {
          "internalType": "uint256",
          "name": "",
          "type": "uint256"
        }
      ],
      "stateMutability": "view",
      "type": "function"
    },
    {
      "inputs": [
        {
          "internalType": "uint256",
          "name": "",
          "type": "uint256"
        },
        {
          "internalType": "address",
          "name": "",
          "type": "address"
        }
      ],
      "name": "minerShares",
      "outputs": [
        {
          "internalType": "uint256",
          "name": "",
          "type": "uint256"
        }
      ],
      "stateMutability": "view",
      "type": "function"
    },
    {
      "inputs": [],
      "name": "name",
      "outputs": [
        {
          "internalType": "string",
          "name": "",
          "type": "string"
        }
      ],
      "stateMutability": "view",
      "type": "function"
    },
    {
      "inputs": [
        {
          "internalType": "address",
          "name": "",
          "type": "address"
        }
      ],
      "name": "operators",
      "outputs": [
        {
          "internalType": "bool",
          "name": "",
          "type": "bool"
        }
      ],
      "stateMutability": "view",
      "type": "function"
    },
    {
      "inputs": [],
      "name": "owner",
      "outputs": [
        {
          "internalType": "address",
          "name": "",
          "type": "address"
        }
      ],
      "stateMutability": "view",
      "type": "function"
    },
    {
      "inputs": [],
      "name": "owner_",
      "outputs": [
        {
          "internalType": "address",
          "name": "",
          "type": "address"
        }
      ],
      "stateMutability": "view",
      "type": "function"
    },
    {
      "inputs": [
        {
          "internalType": "address",
          "name": "",
          "type": "address"
        }
      ],
      "name": "poolOperators",
      "outputs": [
        {
          "internalType": "bool",
          "name": "",
          "type": "bool"
        }
      ],
      "stateMutability": "view",
      "type": "function"
    },
    {
      "inputs": [],
      "name": "renounceOwnership",
      "outputs": [],
      "stateMutability": "nonpayable",
      "type": "function"
    },
    {
      "inputs": [],
      "name": "rewardPerShare",
      "outputs": [
        {
          "internalType": "uint256",
          "name": "",
          "type": "uint256"
        }
      ],
      "stateMutability": "view",
      "type": "function"
    },
    {
      "inputs": [
        {
          "internalType": "uint256",
          "name": "",
          "type": "uint256"
        },
        {
          "internalType": "address",
          "name": "",
          "type": "address"
        }
      ],
      "name": "rewardsClaimed",
      "outputs": [
        {
          "internalType": "bool",
          "name": "",
          "type": "bool"
        }
      ],
      "stateMutability": "view",
      "type": "function"
    },
    {
      "inputs": [
        {
          "internalType": "uint256",
          "name": "duration",
          "type": "uint256"
        }
      ],
      "name": "setEpochDuration",
      "outputs": [],
      "stateMutability": "nonpayable",
      "type": "function"
    },
    {
      "inputs": [
        {
          "internalType": "address",
          "name": "operator",
          "type": "address"
        },
        {
          "internalType": "bool",
          "name": "authorized",
          "type": "bool"
        }
      ],
      "name": "setOperator",
      "outputs": [],
      "stateMutability": "nonpayable",
      "type": "function"
    },
    {
      "inputs": [
        {
          "internalType": "address",
          "name": "pool",
          "type": "address"
        },
        {
          "internalType": "bool",
          "name": "authorized",
          "type": "bool"
        }
      ],
      "name": "setPoolOperator",
      "outputs": [],
      "stateMutability": "nonpayable",
      "type": "function"
    },
    {
      "inputs": [
        {
          "internalType": "uint256",
          "name": "newReward",
          "type": "uint256"
        }
      ],
      "name": "setRewardPerShare",
      "outputs": [],
      "stateMutability": "nonpayable",
      "type": "function"
    },
    {
      "inputs": [
        {
          "internalType": "uint8",
          "name": "algo",
          "type": "uint8"
        },
        {
          "internalType": "address[]",
          "name": "miners",
          "type": "address[]"
        },
        {
          "internalType": "uint256[]",
          "name": "shares",
          "type": "uint256[]"
        }
      ],
      "name": "submitPoolShares",
      "outputs": [],
      "stateMutability": "nonpayable",
      "type": "function"
    },
    {
      "inputs": [
        {
          "internalType": "address",
          "name": "miner",
          "type": "address"
        },
        {
          "internalType": "uint8",
          "name": "algo",
          "type": "uint8"
        },
        {
          "internalType": "uint256",
          "name": "shares",
          "type": "uint256"
        }
      ],
      "name": "submitShares",
      "outputs": [],
      "stateMutability": "nonpayable",
      "type": "function"
    },
    {
      "inputs": [],
      "name": "symbol",
      "outputs": [
        {
          "internalType": "string",
          "name": "",
          "type": "string"
        }
      ],
      "stateMutability": "view",
      "type": "function"
    },
    {
      "inputs": [],
      "name": "totalMiners",
      "outputs": [
        {
          "internalType": "uint256",
          "name": "",
          "type": "uint256"
        }
      ],
      "stateMutability": "view",
      "type": "function"
    },
    {
      "inputs": [],
      "name": "totalRewardsAllTime",
      "outputs": [
        {
          "internalType": "uint256",
          "name": "",
          "type": "uint256"
        }
      ],
      "stateMutability": "view",
      "type": "function"
    },
    {
      "inputs": [],
      "name": "totalSharesAllTime",
      "outputs": [
        {
          "internalType": "uint256",
          "name": "",
          "type": "uint256"
        }
      ],
      "stateMutability": "view",
      "type": "function"
    },
    {
      "inputs": [],
      "name": "totalSupply",
      "outputs": [
        {
          "internalType": "uint256",
          "name": "",
          "type": "uint256"
        }
      ],
      "stateMutability": "view",
      "type": "function"
    },
    {
      "inputs": [
        {
          "internalType": "address",
          "name": "to",
          "type": "address"
        },
        {
          "internalType": "uint256",
          "name": "amount",
          "type": "uint256"
        }
      ],
      "name": "transfer",
      "outputs": [
        {
          "internalType": "bool",
          "name": "",
          "type": "bool"
        }
      ],
      "stateMutability": "nonpayable",
      "type": "function"
    },
    {
      "inputs": [
        {
          "internalType": "address",
          "name": "from",
          "type": "address"
        },
        {
          "internalType": "address",
          "name": "to",
          "type": "address"
        },
        {
          "internalType": "uint256",
          "name": "amount",
          "type": "uint256"
        }
      ],
      "name": "transferFrom",
      "outputs": [
        {
          "internalType": "bool",
          "name": "",
          "type": "bool"
        }
      ],
      "stateMutability": "nonpayable",
      "type": "function"
    },
    {
      "inputs": [
        {
          "internalType": "address",
          "name": "newOwner",
          "type": "address"
        }
      ],
      "name": "transferOwnership",
      "outputs": [],
      "stateMutability": "nonpayable",
      "type": "function"
    }
  ],
  "bytecode": "0x6080604090808252346200039f57331562000389575060008054336001600160a01b0319821681178355916001600160a01b03909116907f8be0079c531659141344cd1fd0a4f28419497f9722a3daafe3b4186f6b6457e09080a360018055805160e081016001600160401b038111828210176200037357825262000083620003a4565b600781526614d2104c8d4d9160ca1b60208201528152620000a3620003a4565b600681526514d8dc9e5c1d60d21b60208201526020820152620000c5620003a4565b600681526508ae8d0c2e6d60d31b602082015282820152620000e6620003a4565b60078152660a4c2dcc8dedab60cb1b6020820152606082015262000109620003a4565b600881526708ae2ead2d0c2e6d60c31b602082015260808201526200012d620003a4565b600381526258313160e81b602082015260a08201526200014c620003a4565b600a8152690d690cac2ecf290c2e6d60b31b602082015260c08201526005906000905b6007821062000206578366038d7ea4c68000600f55610e106011553360018060a01b0319600c541617600c5533600052600d60205280600020600160ff19825416179055600160105542601255600160005260136020524281600020558051600181527f966c160e1c4dbc7df8d69af4ace01e9297c3cf016397b7914971f2fbfa32672d60203392a25161204c9081620003c58239f35b80518051906001600160401b03821162000373578454600181811c9116801562000368575b60208210146200035257601f811162000305575b50602090601f83116001146200029057928260019493602093869560009262000284575b5050600019600383901b1c191690841b1786555b019301910190916200016f565b01519050388062000263565b908560005260206000209160005b601f1985168110620002ec575083602093600196938796938794601f19811610620002d2575b505050811b01865562000277565b015160001960f88460031b161c19169055388080620002c4565b919260206001819286850151815501940192016200029e565b856000526020600020601f840160051c8101916020851062000347575b601f0160051c01905b8181106200033a57506200023f565b600081556001016200032b565b909150819062000322565b634e487b7160e01b600052602260045260246000fd5b90607f16906200022b565b634e487b7160e01b600052604160045260246000fd5b631e4fbdf760e01b815260006004820152602490fd5b600080fd5b60408051919082016001600160401b03811183821017620003735760405256fe6040608081526004908136101561001557600080fd5b6000803560e01c806306f4616614611a4c57806306fdde03146119ff578063095ea7b3146119905780630962ef79146117f65780631262cc1e14611792578063135022c214610a0957806313e7c9d81461175457806318160ddd1461173557806323b872dd1461160b5780632505c1bf1461151857806330024dfe1461149f578063302277fc14610a6a578063313ce5671461148357806334b2237a146114295780633825548f146113ed578063383753e2146113d157806338ef8efd14611381578063446a2ec8146113625780634ff0876a14611343578063558a7297146112d95780635bda1354146112a85780636b4169c31461126757806370a082311461122f578063715018a6146111d5578063729d0a8a14611070578063764fe7d114611051578063766718081461103257806382ae9ef714610f7957806389906b9f14610eec57806389c614b814610ecd5780638da5cb5b14610ea55780639232f3c914610e8657806395d89b4114610e495780639a835e9114610e02578063a645a95214610da2578063a9059cbb14610cf7578063b4bf512914610cd8578063c2ca7e6a14610aac578063c2f8f42614610a6a578063c6b61e4c14610a09578063d684d656146109b5578063db27242314610977578063dd62ed3e1461092e578063e766307914610905578063ead2235a14610596578063f2fde38b1461050b578063f6ed201714610413578063f8cc51d1146102b8578063fa16886e146102765763ff08c3b11461024657600080fd5b346102735781600319360112610273575061026c602092610265611b82565b9035611e16565b9051908152f35b80fd5b5090346102b45760203660031901126102b45760209160ff9082906001600160a01b036102a1611b22565b168152600e855220541690519015158152f35b5080fd5b5090346102b457806003193601126102b4576102d2611b22565b602435916102df83611dd0565b918491600194601054955b8681108061040a575b15610390578061032991895260206013815260ff90816005878d20015416918261036d575b5081610348575b5061032e57611da9565b6102ea565b8061034261033b88611da9565b9789611e02565b52611da9565b828b5260148152858b206001600160a01b0388168c529052508389205415158a61031f565b60168252868c206001600160a01b0389168d528252868c2054161591508b610318565b8786848761039d81611dd0565b92845b8281106103eb5750505090815192839260208080860192818752855180945286019401925b8281106103d457505050500390f35b8351855286955093810193928101926001016103c5565b806103f860019284611e02565b516104038288611e02565b52016103a0565b508185106102f3565b5034610273576020806003193601126102b45761042e611b22565b90828092600191600191601054925b8381106104535750505050508351928352820152f35b8083526013865260ff8060058b862001541690816104e8575b50806104c4575b61047f575b840161043d565b95966104bc6104b68692898652601489528b862060018060a01b038616875289526104b08c872054600f5490611c2e565b90611bd3565b98611da9565b969050610478565b50808352601486528883206001600160a01b03831684528652888320541515610473565b601688528a85206001600160a01b038516865288528a852054161590508a61046c565b50913461059257602036600319011261059257610526611b22565b9061052f611f24565b6001600160a01b0391821692831561057c57505082546001600160a01b0319811683178455167f8be0079c531659141344cd1fd0a4f28419497f9722a3daafe3b4186f6b6457e08380a380f35b51631e4fbdf760e01b8152908101849052602490fd5b8280fd5b509134610592576060366003190112610592576105b1611b92565b906024359267ffffffffffffffff93848111610901576105d49036908401611ba2565b90946044359081116108fd576105ed9036908501611ba2565b939093338852602096600e885260ff80868b20541680156108ec575b80156108d9575b156108a25760ff88169761062660078a10611d69565b83860361086d578515610837579692919061063f611ff4565b8a978b945b8786106106ed5750505050505060105487526013865260028388200161066b858254611bd3565b905560105487526013865282872001848752855281862061068d848254611bd3565b905561069b83601854611bd3565b601855838652601c85528186206106b3848254611bd3565b90556010549482519485528401528201527f03ecfd7c798af95a5e73aee7468318d447a5d3daecde92c7185fa5159cb18ac560603392a380f35b9091929394988c6106ff8b8a88611cd0565b356001600160a01b038116908190036102b4578c8e916107208e8b88611cd0565b358115801561082f575b610821579387938c8f9394856107f69860019a978652601b85528d87872090815490811615610803575b5050606461077060109261076a84549c8d611e16565b90611c2e565b0498865260148552868620828752855286862061078e8a8254611bd3565b905554855260158452858520818652845285852082865284528585206107b5898254611bd3565b90558085526017908185528686206107ce8a8254611bd3565b905585528352848420904260038301558452019052206107ef838254611bd3565b9055611bd3565b995b019493929190610644565b60ff19168c179055601a805461081890611da9565b90553880610754565b5050505050986001906107f8565b50801561072a565b865162461bcd60e51b81528086018b9052601060248201526f22b6b83a3c9039bab136b4b9b9b4b7b760811b6044820152606490fd5b865162461bcd60e51b81528086018b9052600f60248201526e098cadccee8d040dad2e6dac2e8c6d608b1b6044820152606490fd5b855162461bcd60e51b81528085018a905260116024820152702737ba103837b7b61037b832b930ba37b960791b6044820152606490fd5b5089546001600160a01b03163314610610565b50600d895260ff868b205416610609565b8680fd5b8580fd5b5090346102b457816003193601126102b457600c5490516001600160a01b039091168152602090f35b509134610592578160031936011261059257602092829161094d611b22565b610955611b3d565b6001600160a01b03918216845291865283832091168252845220549051908152f35b5090346102b45760203660031901126102b45760209160ff9082906001600160a01b036109a2611b22565b168152601b855220541690519015158152f35b509134610592576020366003190112610592577fdbeadaf2c42073e9f413862fc703144d77da2b3c4bb72db4f7901c01b165f16c9035916109f4611f24565b600f548151908152836020820152a1600f5580f35b50913461059257602036600319011261059257358252601360209081529181902080546001820154600283015460038401546005909401549451928352948201526040810193909352606083015260ff161515608082015260a090f35b0390f35b5091346105925781600319360112610592576020928291610a89611b3d565b90358252601485528282206001600160a01b039091168252845220549051908152f35b50913461059257606036600319011261059257610ac7611b22565b91610ad0611b82565b60443590338652602094600d865260ff84882054168015610cc5575b610af590611cf6565b6001600160a01b0316938415610c9257907f5e200690ab6732d3c593ac85e52689ccd00decb17a1ddd290f112299efe9911b9392916064610b7860ff841694610b4060078710611d69565b610b4b811515611d31565b610b53611ff4565b888b52601b8a52868b20805460ff811615610c73575b505061076a6010549586611e16565b04918852601487528388208689528752838820610b96838254611bd3565b905560105488526015875283882086895287528388208389528752838820610bbf838254611bd3565b9055601054885260138752600284892001610bdb838254611bd3565b905560105488526013875280848920018389528752838820610bfe838254611bd3565b905585885260178752838820610c15838254611bd3565b905585885260178752838820426003820155838952018652828720610c3b828254611bd3565b9055610c4981601854611bd3565b601855818752601c8652828720610c61828254611bd3565b9055601054958351928352820152a380f35b60ff19166001179055601a54610c8890611da9565b601a553880610b69565b835162461bcd60e51b8152908101869052600d60248201526c24b73b30b634b21036b4b732b960991b6044820152606490fd5b5086546001600160a01b03163314610aec565b5090346102b457816003193601126102b4576020906018549051908152f35b5090346102b457806003193601126102b457602091610d14611b22565b6001600160a01b031690602435908390610d2f841515611c41565b33815260038652610d4583838320541015611c8d565b33815260038652818120610d5a848254611bf6565b90558381526003865220610d6f828254611bd3565b905582519081527fddf252ad1be2c89b69c2b068fc378daa952ba7f163c4a11628f55a4df523b3ef843392a35160018152f35b50913461059257606036600319011261059257610dbd611b3d565b6044359160ff8316809303610dfe57358452601560209081528385206001600160a01b03909216855290815282842091845290815291819020549051908152f35b8480fd5b5091346105925781600319360112610592578160209360ff92610e23611b3d565b90358252601686528282206001600160a01b039091168252855220549151911615158152f35b5090346102b457816003193601126102b4578051610a6691610e6a82611a69565b60058252642bac2a269960d91b60208301525191829182611ad9565b5090346102b457816003193601126102b4576020906019549051908152f35b5090346102b457816003193601126102b457905490516001600160a01b039091168152602090f35b5090346102b457816003193601126102b4576020906012549051908152f35b503461027357806003193601126102735760e08251610f0a81611a9b565b369037815191610f1983611a9b565b60e0368437815b60ff81166007811015610f4f578352601c60205281832054600582901b611fe01685015260010160ff16610f20565b50505191825b60078310610f625760e084f35b600190825181526020809101920192019190610f55565b509134610592578260031936011261059257338352600d60205260ff8284205416801561101f575b610faa90611cf6565b60105490818452601360205260ff6005848620015416610fe8575082526013602052812060020154610fdd901515611d31565b610fe5611f50565b80f35b606490602084519162461bcd60e51b83528201526011602482015270105b1c9958591e48199a5b985b1a5e9959607a1b6044820152fd5b5082546001600160a01b03163314610fa1565b5090346102b457816003193601126102b4576020906010549051908152f35b5090346102b457816003193601126102b457602090601a549051908152f35b5091903461059257602091826003193601126111d15780359067ffffffffffffffff8211610dfe576110a491369101611ba2565b92906110ae611ea2565b8493855b8181106110f657505050826110ca575b836001805580f35b6110ec9160176001926110dd8633611ec5565b33875252842001918254611bd3565b90553880806110c2565b806111046001928486611cd0565b358089526013865260ff806005898c20015416156111ca57601690818852888b20338c528852888b2054166111ca57818a52601490818852888b20338c528852888b2054156111c25761119091838c528852888b20338c52885261116e898c2054600f5490611c2e565b998a91848d528952898c20338d528952898c208660ff19825416179055611bd3565b9787519081527fdacbdde355ba930696a362ea6738feb9f8bd52dfb3d81947558fd3217e23e325873392a35b016110b2565b5050506111bc565b50506111bc565b8380fd5b50346102735780600319360112610273576111ee611f24565b80546001600160a01b03198116825581906001600160a01b03167f8be0079c531659141344cd1fd0a4f28419497f9722a3daafe3b4186f6b6457e08280a380f35b5090346102b45760203660031901126102b45760209181906001600160a01b03611257611b22565b1681526003845220549051908152f35b5090346102b457816003193601126102b45760a090601a54906018549060195460105491600f54938151958652602086015284015260608301526080820152f35b5090346102b45760203660031901126102b4578060209260ff6112c9611b92565b168152601c845220549051908152f35b5090346102b4577f966c160e1c4dbc7df8d69af4ace01e9297c3cf016397b7914971f2fbfa32672d602061130c36611b53565b90611315611f24565b6001600160a01b0316808652600d8352848620805460ff191660ff84151516179055935b519015158152a280f35b5090346102b457816003193601126102b4576020906011549051908152f35b5090346102b457816003193601126102b457602090600f549051908152f35b509134610592578160031936011261059257602092829160ff6113a2611b22565b916113ab611b82565b6001600160a01b0390931684526017875284842091909216835201845220549051908152f35b5090346102b457816003193601126102b4576020905160078152f35b509134610592578160031936011261059257602092829160ff61140e611b82565b82358452601387528484209116835201845220549051908152f35b5090346102b45760203660031901126102b45760809181906001600160a01b03611451611b22565b168152601760205220908154916001810154916003600283015492015492815194855260208501528301526060820152f35b5090346102b457816003193601126102b4576020905160128152f35b509134610592576020366003190112610592578035916114bd611f24565b603c8310158061150b575b156114d557505060115580f35b906020606492519162461bcd60e51b8352820152601060248201526f24b73b30b634b210323ab930ba34b7b760811b6044820152fd5b50620151808311156114c8565b50919034610592576020806003193601126111d15782356007811015610dfe5760050192825193858154916001928060011c9460018216908115611601575b87871082146115ee57508589529081156115ca575060011461158f575b610a668787611585828c0383611ab7565b5191829182611ad9565b9080949750528583205b8284106115b75750505082610a669461158592820101943880611574565b8054868501880152928601928101611599565b60ff19168887015250505050151560051b830101925061158582610a663880611574565b634e487b7160e01b855260229052602484fd5b95607f1695611557565b503461027357606036600319011261027357611625611b22565b9061162e611b3d565b6001600160a01b0390811692604435919061164a851515611c41565b16918281526020956003875261166583878420541015611c8d565b83825280875285822033835287528286832054106116f9579185827fddf252ad1be2c89b69c2b068fc378daa952ba7f163c4a11628f55a4df523b3ef94868a9552600385528282206116b8858254611bf6565b9055878252600385528282206116cf858254611bd3565b905586825284528181203382528452206116ea828254611bf6565b90558551908152a35160018152f35b855162461bcd60e51b81529081018790526016602482015275496e73756666696369656e7420616c6c6f77616e636560501b6044820152606490fd5b5090346102b457816003193601126102b4576020906002549051908152f35b5090346102b45760203660031901126102b45760209160ff9082906001600160a01b0361177f611b22565b168152600d855220541690519015158152f35b5090346102b4577f10a13562362f444a513b45304a5b44ee8a01a1a308496c5f9f33bd16c3ba215360206117c536611b53565b906117ce611f24565b6001600160a01b0316808652600e8352848620805460ff191660ff8415151617905593611339565b50919034610592576020806003193601126111d157823592611816611ea2565b8385526013825260ff6005848720015416156119595783855260168252828520338652825260ff83862054166119265783855260148252828520338652825282852054156118f057507fdacbdde355ba930696a362ea6738feb9f8bd52dfb3d81947558fd3217e23e325908385526014815282852033865281526118a083862054600f5490611c2e565b92848652601682528086203387528252808620600160ff198254161790556118c88433611ec5565b338652601782526001818720016118e0858254611bd3565b9055519283523392a36001805580f35b915162461bcd60e51b815291820152601260248201527109cde40e6d0c2e4cae640d2dc40cae0dec6d60731b6044820152606490fd5b915162461bcd60e51b815291820152600f60248201526e105b1c9958591e4818db185a5b5959608a1b6044820152606490fd5b915162461bcd60e51b8152918201526013602482015272115c1bd8da081b9bdd08199a5b985b1a5e9959606a1b6044820152606490fd5b5091346105925781600319360112610592576020926119ad611b22565b918360243592839233825287528181209460018060a01b0316948582528752205582519081527f8c5be1e5ebec7d5bd14f71427d1e84f3dd0314c0f7b2291e5b200ac8c7c3b925843392a35160018152f35b5090346102b457816003193601126102b4578051610a6691611a2082611a69565b60158252742ba0aa2a3c1026b4b734b733902a37b5b2b7102b1960591b60208301525191829182611ad9565b5090346102b457816003193601126102b45760209061026c611c03565b6040810190811067ffffffffffffffff821117611a8557604052565b634e487b7160e01b600052604160045260246000fd5b60e0810190811067ffffffffffffffff821117611a8557604052565b90601f8019910116810190811067ffffffffffffffff821117611a8557604052565b6020808252825181830181905290939260005b828110611b0e57505060409293506000838284010152601f8019910116010190565b818101860151848201604001528501611aec565b600435906001600160a01b0382168203611b3857565b600080fd5b602435906001600160a01b0382168203611b3857565b6040906003190112611b38576004356001600160a01b0381168103611b3857906024358015158103611b385790565b6024359060ff82168203611b3857565b6004359060ff82168203611b3857565b9181601f84011215611b385782359167ffffffffffffffff8311611b38576020808501948460051b010111611b3857565b91908201809211611be057565b634e487b7160e01b600052601160045260246000fd5b91908203918211611be057565b611c1260125460115490611bd3565b80421015611c2857611c25904290611bf6565b90565b50600090565b81810292918115918404141715611be057565b15611c4857565b60405162461bcd60e51b815260206004820152601860248201527f5472616e7366657220746f207a65726f206164647265737300000000000000006044820152606490fd5b15611c9457565b60405162461bcd60e51b8152602060048201526014602482015273496e73756666696369656e742062616c616e636560601b6044820152606490fd5b9190811015611ce05760051b0190565b634e487b7160e01b600052603260045260246000fd5b15611cfd57565b60405162461bcd60e51b815260206004820152600c60248201526b2737ba1037b832b930ba37b960a11b6044820152606490fd5b15611d3857565b60405162461bcd60e51b81526020600482015260096024820152684e6f2073686172657360b81b6044820152606490fd5b15611d7057565b60405162461bcd60e51b8152602060048201526011602482015270496e76616c696420616c676f726974686d60781b6044820152606490fd5b6000198114611be05760010190565b67ffffffffffffffff8111611a855760051b60200190565b90611dda82611db8565b611de76040519182611ab7565b8281528092611df8601f1991611db8565b0190602036910137565b8051821015611ce05760209160051b010190565b6000908152601360205260408120916002830154928315611e995760ff60049216835201602052604081205490606482029180830460641490151715611e8557500460058110611e7f57600a8110611e7957601411611e7457606490565b607d90565b50609690565b5060c890565b634e487b7160e01b81526011600452602490fd5b50505050606490565b600260015414611eb3576002600155565b604051633ee5aeb560e01b8152600490fd5b7fddf252ad1be2c89b69c2b068fc378daa952ba7f163c4a11628f55a4df523b3ef6020600092611ef785600254611bd3565b60025560018060a01b0316938484526003825260408420611f19828254611bd3565b9055604051908152a3565b6000546001600160a01b03163303611f3857565b60405163118cdaa760e01b8152336004820152602490fd5b6010546000526013602052611fdb604060002060028101611f9c611f788254600f5490611c2e565b6005600385019482865542600182015501600160ff19825416179055601954611bd3565b6019557fb463d19ecf455be65365092cf8e1db6934a0334cf8cd532ddf9964d01f36b5b2604060105493849354905482519182526020820152a2611da9565b8060105542601255600052601360205242604060002055565b61200360125460115490611bd3565b42101561200c57565b612014611f50565b56fea264697066735822122076bb0b05cc62114fe8cd55f3a09225a7c75c9b5b798423db18fe532d6b0c4f1a64736f6c63430008180033",
  "linkReferences": {},
  "deployedLinkReferences": {}
}