{
  "_format": "hh-sol-artifact-1",
  "contractName": "MerkleTree",
  "sourceName": "contracts/MerkleTree.sol",
  "abi": [
    {
      "inputs": [
        {
          "internalType": "uint256",
          "name": "_levels",
          "type": "uint256"
        }
      ],
      "stateMutability": "nonpayable",
      "type": "constructor"
    },
    {
      "anonymous": false,
      "inputs": [
        {
          "indexed": true,
          "internalType": "bytes32",
          "name": "leaf",
          "type": "bytes32"
        },
        {
          "indexed": true,
          "internalType": "uint256",
          "name": "leafIndex",
          "type": "uint256"
        },
        {
          "indexed": true,
          "internalType": "bytes32",
          "name": "newRoot",
          "type": "bytes32"
        }
      ],
      "name": "LeafInserted",
      "type": "event"
    },
    {
      "inputs": [],
      "name": "ROOT_HISTORY_SIZE",
      "outputs": [
        {
          "internalType": "uint256",
          "name": "",
          "type": "uint256"
        }
      ],
      "stateMutability": "view",
      "type": "function"
    },
    {
      "inputs": [
        {
          "internalType": "uint256",
          "name": "",
          "type": "uint256"
        }
      ],
      "name": "filledSubtrees",
      "outputs": [
        {
          "internalType": "bytes32",
          "name": "",
          "type": "bytes32"
        }
      ],
      "stateMutability": "view",
      "type": "function"
    },
    {
      "inputs": [],
      "name": "getLeafCount",
      "outputs": [
        {
          "internalType": "uint256",
          "name": "",
          "type": "uint256"
        }
      ],
      "stateMutability": "view",
      "type": "function"
    },
    {
      "inputs": [],
      "name": "getRoot",
      "outputs": [
        {
          "internalType": "bytes32",
          "name": "",
          "type": "bytes32"
        }
      ],
      "stateMutability": "view",
      "type": "function"
    },
    {
      "inputs": [],
      "name": "getRoots",
      "outputs": [
        {
          "internalType": "bytes32[]",
          "name": "",
          "type": "bytes32[]"
        }
      ],
      "stateMutability": "view",
      "type": "function"
    },
    {
      "inputs": [
        {
          "internalType": "bytes32",
          "name": "root",
          "type": "bytes32"
        }
      ],
      "name": "isKnownRoot",
      "outputs": [
        {
          "internalType": "bool",
          "name": "",
          "type": "bool"
        }
      ],
      "stateMutability": "view",
      "type": "function"
    },
    {
      "inputs": [],
      "name": "levels",
      "outputs": [
        {
          "internalType": "uint256",
          "name": "",
          "type": "uint256"
        }
      ],
      "stateMutability": "view",
      "type": "function"
    },
    {
      "inputs": [],
      "name": "nextIndex",
      "outputs": [
        {
          "internalType": "uint256",
          "name": "",
          "type": "uint256"
        }
      ],
      "stateMutability": "view",
      "type": "function"
    },
    {
      "inputs": [
        {
          "internalType": "bytes32",
          "name": "",
          "type": "bytes32"
        }
      ],
      "name": "rootHistory",
      "outputs": [
        {
          "internalType": "bool",
          "name": "",
          "type": "bool"
        }
      ],
      "stateMutability": "view",
      "type": "function"
    },
    {
      "inputs": [
        {
          "internalType": "uint256",
          "name": "",
          "type": "uint256"
        }
      ],
      "name": "roots",
      "outputs": [
        {
          "internalType": "bytes32",
          "name": "",
          "type": "bytes32"
        }
      ],
      "stateMutability": "view",
      "type": "function"
    },
    {
      "inputs": [
        {
          "internalType": "bytes32",
          "name": "leaf",
          "type": "bytes32"
        },
        {
          "internalType": "bytes32[]",
          "name": "pathElements",
          "type": "bytes32[]"
        },
        {
          "internalType": "uint256[]",
          "name": "pathIndices",
          "type": "uint256[]"
        },
        {
          "internalType": "bytes32",
          "name": "root",
          "type": "bytes32"
        }
      ],
      "name": "verifyMerkleProof",
      "outputs": [
        {
          "internalType": "bool",
          "name": "",
          "type": "bool"
        }
      ],
      "stateMutability": "pure",
      "type": "function"
    },
    {
      "inputs": [
        {
          "internalType": "uint256",
          "name": "",
          "type": "uint256"
        }
      ],
      "name": "zeros",
      "outputs": [
        {
          "internalType": "bytes32",
          "name": "",
          "type": "bytes32"
        }
      ],
      "stateMutability": "view",
      "type": "function"
    }
  ],
  "bytecode": "0x60a03461024d5761082a38819003601f8101601f191683016001600160401b0381118482101761012a5783928291604052833960209283918101031261024d575180151580610243575b1561020d57806080526000918254926801000000000000000092838510156101f9576001948581018084558110156101e5578290818052848220015560028054858110156101d1578681018083558110156101bd5781845284842001839055859291905b8184106101405750506100c1915080610252565b6003549283101561012a5783830180600355831015610114578060049360036000528360002001556000525260406000209060ff198254161790556040516105a390816102878239608051816102640152f35b634e487b7160e01b600052603260045260246000fd5b634e487b7160e01b600052604160045260246000fd5b90918061014c91610252565b92836000548781101561012a57888101806000558110156101145781906000805287600020015582548781101561012a57888101808555811015610114578360005286600020015560001981146101a75786019291906100ad565b634e487b7160e01b600052601160045260246000fd5b634e487b7160e01b84526032600452602484fd5b634e487b7160e01b84526041600452602484fd5b634e487b7160e01b83526032600452602483fd5b634e487b7160e01b82526041600452602482fd5b60405162461bcd60e51b815260048101839052600e60248201526d496e76616c6964206c6576656c7360901b6044820152606490fd5b5081811115610049565b600080fd5b604080516020810192835280820193909352825290606081016001600160401b0381118282101761012a576040525190209056fe608060408181526004918236101561001657600080fd5b600092833560e01c91826305d9e0a0146103655750816335a5e06d146102875781634ecf518b1461024c5781635ca1e1651461020b57816366dd97ab146101df5781636d9833e3146101df578163c2b40ae4146101a3578163cd87a3b414610187578163d3ea612514610168578163e82955881461011c578163f178e47c146100ca575063fc7e9c6f146100a957600080fd5b346100c657816003193601126100c6576020906001549051908152f35b5080fd5b9050346101185760203660031901126101185735600254811015610118576002602093527f405787fa12a823e0f2b7631cc41b3ba8828b3321ca811111fa75cd3aa3bb5ace01549051908152f35b8280fd5b905034610118576020366003190112610118573582548110156101185782602093527f290decd9548b62a8d60345a988386fc84ba6bc95484008f6362f93160ef3e56301549051908152f35b5050346100c657816003193601126100c6576020906001549051908152f35b5050346100c657816003193601126100c6576020905160648152f35b9050346101185760203660031901126101185735916003548310156101dc57506101ce6020926104c5565b90549060031b1c9051908152f35b80fd5b90503461011857602036600319011261011857816020938260ff93358252855220541690519015158152f35b8284346101dc57806003193601126101dc57600354600019810193908411610239576020836101ce866104c5565b634e487b7160e01b825260119052602490fd5b5050346100c657816003193601126100c657602090517f00000000000000000000000000000000000000000000000000000000000000008152f35b8284346101dc57806003193601126101dc57815180916003549384835260208093018095600384527fc2575a0e9e593c00f959f8c92f12db2869c3395a3b0502d05e2516446f71f85b90845b868282106103515750505050849003601f01601f191684019567ffffffffffffffff87118588101761033e575085815282865292518583018190528594938501939290915b82811061032757505050500390f35b835185528695509381019392810192600101610318565b634e487b7160e01b835260419052602482fd5b8354855290930192600192830192016102d3565b909291503461048b57608036600319011261048b5760249367ffffffffffffffff9385358581116101185761039d903690830161048f565b909560443590811161048b576103b6903690840161048f565b9690948783036104545750959392919081359683955b8287106103e157602089895190606435148152f35b909192939495976103f3898389610512565b356104395761040e906104078a8686610512565b3590610522565b975b6000198114610427576001019594939291906103cc565b634e487b7160e01b8652601185528986fd5b61044e906104488a8686610512565b35610522565b97610410565b62461bcd60e51b815260208482015260148982015273092dcecc2d8d2c840e0e4dedecc40d8cadccee8d60631b6044820152606490fd5b8380fd5b9181601f840112156104c05782359167ffffffffffffffff83116104c0576020808501948460051b0101116104c057565b600080fd5b6003548110156104fc5760036000527fc2575a0e9e593c00f959f8c92f12db2869c3395a3b0502d05e2516446f71f85b0190600090565b634e487b7160e01b600052603260045260246000fd5b91908110156104fc5760051b0190565b9060405190602082019283526040820152604081526060810181811067ffffffffffffffff8211176105575760405251902090565b634e487b7160e01b600052604160045260246000fdfea2646970667358221220ade761b88308aa638086501db34f0e72f0ad470aca1a1b906183d002e5607f2d64736f6c63430008140033",
  "linkReferences": {},
  "deployedLinkReferences": {}
}